{
	"contracts/034_WTFAPE.sol": {
		"WTFApe": {
			"abi": [
				{
					"inputs": [
						{
							"internalType": "string",
							"name": "name_",
							"type": "string"
						},
						{
							"internalType": "string",
							"name": "symbol_",
							"type": "string"
						}
					],
					"stateMutability": "nonpayable",
					"type": "constructor"
				},
				{
					"inputs": [
						{
							"internalType": "address",
							"name": "receiver",
							"type": "address"
						}
					],
					"name": "ERC721InvalidReceiver",
					"type": "error"
				},
				{
					"anonymous": false,
					"inputs": [
						{
							"indexed": true,
							"internalType": "address",
							"name": "owner",
							"type": "address"
						},
						{
							"indexed": true,
							"internalType": "address",
							"name": "approved",
							"type": "address"
						},
						{
							"indexed": true,
							"internalType": "uint256",
							"name": "tokenId",
							"type": "uint256"
						}
					],
					"name": "Approval",
					"type": "event"
				},
				{
					"anonymous": false,
					"inputs": [
						{
							"indexed": true,
							"internalType": "address",
							"name": "owner",
							"type": "address"
						},
						{
							"indexed": true,
							"internalType": "address",
							"name": "operator",
							"type": "address"
						},
						{
							"indexed": false,
							"internalType": "bool",
							"name": "approved",
							"type": "bool"
						}
					],
					"name": "ApprovalForAll",
					"type": "event"
				},
				{
					"anonymous": false,
					"inputs": [
						{
							"indexed": true,
							"internalType": "address",
							"name": "from",
							"type": "address"
						},
						{
							"indexed": true,
							"internalType": "address",
							"name": "to",
							"type": "address"
						},
						{
							"indexed": true,
							"internalType": "uint256",
							"name": "tokenId",
							"type": "uint256"
						}
					],
					"name": "Transfer",
					"type": "event"
				},
				{
					"inputs": [],
					"name": "MAX_APES",
					"outputs": [
						{
							"internalType": "uint256",
							"name": "",
							"type": "uint256"
						}
					],
					"stateMutability": "view",
					"type": "function"
				},
				{
					"inputs": [
						{
							"internalType": "address",
							"name": "to",
							"type": "address"
						},
						{
							"internalType": "uint256",
							"name": "tokenId",
							"type": "uint256"
						}
					],
					"name": "approve",
					"outputs": [],
					"stateMutability": "nonpayable",
					"type": "function"
				},
				{
					"inputs": [
						{
							"internalType": "address",
							"name": "owner",
							"type": "address"
						}
					],
					"name": "balanceOf",
					"outputs": [
						{
							"internalType": "uint256",
							"name": "",
							"type": "uint256"
						}
					],
					"stateMutability": "view",
					"type": "function"
				},
				{
					"inputs": [
						{
							"internalType": "uint256",
							"name": "tokenId",
							"type": "uint256"
						}
					],
					"name": "getApproved",
					"outputs": [
						{
							"internalType": "address",
							"name": "",
							"type": "address"
						}
					],
					"stateMutability": "view",
					"type": "function"
				},
				{
					"inputs": [
						{
							"internalType": "address",
							"name": "owner",
							"type": "address"
						},
						{
							"internalType": "address",
							"name": "operator",
							"type": "address"
						}
					],
					"name": "isApprovedForAll",
					"outputs": [
						{
							"internalType": "bool",
							"name": "",
							"type": "bool"
						}
					],
					"stateMutability": "view",
					"type": "function"
				},
				{
					"inputs": [
						{
							"internalType": "address",
							"name": "to",
							"type": "address"
						},
						{
							"internalType": "uint256",
							"name": "tokenId",
							"type": "uint256"
						}
					],
					"name": "mint",
					"outputs": [],
					"stateMutability": "nonpayable",
					"type": "function"
				},
				{
					"inputs": [],
					"name": "name",
					"outputs": [
						{
							"internalType": "string",
							"name": "",
							"type": "string"
						}
					],
					"stateMutability": "view",
					"type": "function"
				},
				{
					"inputs": [
						{
							"internalType": "uint256",
							"name": "tokenId",
							"type": "uint256"
						}
					],
					"name": "ownerOf",
					"outputs": [
						{
							"internalType": "address",
							"name": "owner",
							"type": "address"
						}
					],
					"stateMutability": "view",
					"type": "function"
				},
				{
					"inputs": [
						{
							"internalType": "address",
							"name": "from",
							"type": "address"
						},
						{
							"internalType": "address",
							"name": "to",
							"type": "address"
						},
						{
							"internalType": "uint256",
							"name": "tokenId",
							"type": "uint256"
						}
					],
					"name": "safeTransferFrom",
					"outputs": [],
					"stateMutability": "nonpayable",
					"type": "function"
				},
				{
					"inputs": [
						{
							"internalType": "address",
							"name": "from",
							"type": "address"
						},
						{
							"internalType": "address",
							"name": "to",
							"type": "address"
						},
						{
							"internalType": "uint256",
							"name": "tokenId",
							"type": "uint256"
						},
						{
							"internalType": "bytes",
							"name": "_data",
							"type": "bytes"
						}
					],
					"name": "safeTransferFrom",
					"outputs": [],
					"stateMutability": "nonpayable",
					"type": "function"
				},
				{
					"inputs": [
						{
							"internalType": "address",
							"name": "operator",
							"type": "address"
						},
						{
							"internalType": "bool",
							"name": "approved",
							"type": "bool"
						}
					],
					"name": "setApprovalForAll",
					"outputs": [],
					"stateMutability": "nonpayable",
					"type": "function"
				},
				{
					"inputs": [
						{
							"internalType": "bytes4",
							"name": "interfaceId",
							"type": "bytes4"
						}
					],
					"name": "supportsInterface",
					"outputs": [
						{
							"internalType": "bool",
							"name": "",
							"type": "bool"
						}
					],
					"stateMutability": "pure",
					"type": "function"
				},
				{
					"inputs": [],
					"name": "symbol",
					"outputs": [
						{
							"internalType": "string",
							"name": "",
							"type": "string"
						}
					],
					"stateMutability": "view",
					"type": "function"
				},
				{
					"inputs": [
						{
							"internalType": "uint256",
							"name": "tokenId",
							"type": "uint256"
						}
					],
					"name": "tokenURI",
					"outputs": [
						{
							"internalType": "string",
							"name": "",
							"type": "string"
						}
					],
					"stateMutability": "view",
					"type": "function"
				},
				{
					"inputs": [
						{
							"internalType": "address",
							"name": "from",
							"type": "address"
						},
						{
							"internalType": "address",
							"name": "to",
							"type": "address"
						},
						{
							"internalType": "uint256",
							"name": "tokenId",
							"type": "uint256"
						}
					],
					"name": "transferFrom",
					"outputs": [],
					"stateMutability": "nonpayable",
					"type": "function"
				}
			],
			"devdoc": {
				"kind": "dev",
				"methods": {},
				"version": 1
			},
			"evm": {
				"assembly": "    /* \"contracts/034_WTFAPE.sol\":94:563  contract WTFApe is ERC721 {... */\n  mstore(0x40, 0x80)\n    /* \"contracts/034_WTFAPE.sol\":149:153  1000 */\n  0x03e8\n    /* \"contracts/034_WTFAPE.sol\":126:153  uint public MAX_APES = 1000 */\n  0x06\n  sstore\n    /* \"contracts/034_WTFAPE.sol\":160:241  constructor(string memory name_, string memory symbol_) ERC721(name_, symbol_) {} */\n  callvalue\n  dup1\n  iszero\n  tag_1\n  jumpi\n  revert(0x00, 0x00)\ntag_1:\n  pop\n  mload(0x40)\n  sub(codesize, bytecodeSize)\n  dup1\n  bytecodeSize\n  dup4\n  codecopy\n  dup2\n  dup2\n  add\n  0x40\n  mstore\n  dup2\n  add\n  swap1\n  tag_2\n  swap2\n  swap1\n  tag_3\n  jump\t// in\ntag_2:\n    /* \"contracts/034_WTFAPE.sol\":223:228  name_ */\n  dup2\n    /* \"contracts/034_WTFAPE.sol\":230:237  symbol_ */\n  dup2\n    /* \"contracts/ERC721.sol\":674:679  name_ */\n  dup2\n    /* \"contracts/ERC721.sol\":667:671  name */\n  0x00\n    /* \"contracts/ERC721.sol\":667:679  name = name_ */\n  swap1\n  dup2\n  tag_7\n  swap2\n  swap1\n  tag_8\n  jump\t// in\ntag_7:\n  pop\n    /* \"contracts/ERC721.sol\":698:705  symbol_ */\n  dup1\n    /* \"contracts/ERC721.sol\":689:695  symbol */\n  0x01\n    /* \"contracts/ERC721.sol\":689:705  symbol = symbol_ */\n  swap1\n  dup2\n  tag_9\n  swap2\n  swap1\n  tag_8\n  jump\t// in\ntag_9:\n  pop\n    /* \"contracts/ERC721.sol\":602:712  constructor(string memory name_, string memory symbol_){... */\n  pop\n  pop\n    /* \"contracts/034_WTFAPE.sol\":160:241  constructor(string memory name_, string memory symbol_) ERC721(name_, symbol_) {} */\n  pop\n  pop\n    /* \"contracts/034_WTFAPE.sol\":94:563  contract WTFApe is ERC721 {... */\n  jump(tag_11)\n    /* \"#utility.yul\":7:82   */\ntag_12:\n    /* \"#utility.yul\":40:46   */\n  0x00\n    /* \"#utility.yul\":73:75   */\n  0x40\n    /* \"#utility.yul\":67:76   */\n  mload\n    /* \"#utility.yul\":57:76   */\n  swap1\n  pop\n    /* \"#utility.yul\":7:82   */\n  swap1\n  jump\t// out\n    /* \"#utility.yul\":88:205   */\ntag_13:\n    /* \"#utility.yul\":197:198   */\n  0x00\n    /* \"#utility.yul\":194:195   */\n  0x00\n    /* \"#utility.yul\":187:199   */\n  revert\n    /* \"#utility.yul\":211:328   */\ntag_14:\n    /* \"#utility.yul\":320:321   */\n  0x00\n    /* \"#utility.yul\":317:318   */\n  0x00\n    /* \"#utility.yul\":310:322   */\n  revert\n    /* \"#utility.yul\":334:451   */\ntag_15:\n    /* \"#utility.yul\":443:444   */\n  0x00\n    /* \"#utility.yul\":440:441   */\n  0x00\n    /* \"#utility.yul\":433:445   */\n  revert\n    /* \"#utility.yul\":457:574   */\ntag_16:\n    /* \"#utility.yul\":566:567   */\n  0x00\n    /* \"#utility.yul\":563:564   */\n  0x00\n    /* \"#utility.yul\":556:568   */\n  revert\n    /* \"#utility.yul\":580:682   */\ntag_17:\n    /* \"#utility.yul\":621:627   */\n  0x00\n    /* \"#utility.yul\":672:674   */\n  0x1f\n    /* \"#utility.yul\":668:675   */\n  not\n    /* \"#utility.yul\":663:665   */\n  0x1f\n    /* \"#utility.yul\":656:661   */\n  dup4\n    /* \"#utility.yul\":652:666   */\n  add\n    /* \"#utility.yul\":648:676   */\n  and\n    /* \"#utility.yul\":638:676   */\n  swap1\n  pop\n    /* \"#utility.yul\":580:682   */\n  swap2\n  swap1\n  pop\n  jump\t// out\n    /* \"#utility.yul\":688:868   */\ntag_18:\n    /* \"#utility.yul\":736:813   */\n  0x4e487b7100000000000000000000000000000000000000000000000000000000\n    /* \"#utility.yul\":733:734   */\n  0x00\n    /* \"#utility.yul\":726:814   */\n  mstore\n    /* \"#utility.yul\":833:837   */\n  0x41\n    /* \"#utility.yul\":830:831   */\n  0x04\n    /* \"#utility.yul\":823:838   */\n  mstore\n    /* \"#utility.yul\":857:861   */\n  0x24\n    /* \"#utility.yul\":854:855   */\n  0x00\n    /* \"#utility.yul\":847:862   */\n  revert\n    /* \"#utility.yul\":874:1155   */\ntag_19:\n    /* \"#utility.yul\":957:984   */\n  tag_53\n    /* \"#utility.yul\":979:983   */\n  dup3\n    /* \"#utility.yul\":957:984   */\n  tag_17\n  jump\t// in\ntag_53:\n    /* \"#utility.yul\":949:955   */\n  dup2\n    /* \"#utility.yul\":945:985   */\n  add\n    /* \"#utility.yul\":1087:1093   */\n  dup2\n    /* \"#utility.yul\":1075:1085   */\n  dup2\n    /* \"#utility.yul\":1072:1094   */\n  lt\n    /* \"#utility.yul\":1051:1069   */\n  0xffffffffffffffff\n    /* \"#utility.yul\":1039:1049   */\n  dup3\n    /* \"#utility.yul\":1036:1070   */\n  gt\n    /* \"#utility.yul\":1033:1095   */\n  or\n    /* \"#utility.yul\":1030:1118   */\n  iszero\n  tag_54\n  jumpi\n    /* \"#utility.yul\":1098:1116   */\n  tag_55\n  tag_18\n  jump\t// in\ntag_55:\n    /* \"#utility.yul\":1030:1118   */\ntag_54:\n    /* \"#utility.yul\":1138:1148   */\n  dup1\n    /* \"#utility.yul\":1134:1136   */\n  0x40\n    /* \"#utility.yul\":1127:1149   */\n  mstore\n    /* \"#utility.yul\":917:1155   */\n  pop\n    /* \"#utility.yul\":874:1155   */\n  pop\n  pop\n  jump\t// out\n    /* \"#utility.yul\":1161:1290   */\ntag_20:\n    /* \"#utility.yul\":1195:1201   */\n  0x00\n    /* \"#utility.yul\":1222:1242   */\n  tag_57\n  tag_12\n  jump\t// in\ntag_57:\n    /* \"#utility.yul\":1212:1242   */\n  swap1\n  pop\n    /* \"#utility.yul\":1251:1284   */\n  tag_58\n    /* \"#utility.yul\":1279:1283   */\n  dup3\n    /* \"#utility.yul\":1271:1277   */\n  dup3\n    /* \"#utility.yul\":1251:1284   */\n  tag_19\n  jump\t// in\ntag_58:\n    /* \"#utility.yul\":1161:1290   */\n  swap2\n  swap1\n  pop\n  jump\t// out\n    /* \"#utility.yul\":1296:1604   */\ntag_21:\n    /* \"#utility.yul\":1358:1362   */\n  0x00\n    /* \"#utility.yul\":1448:1466   */\n  0xffffffffffffffff\n    /* \"#utility.yul\":1440:1446   */\n  dup3\n    /* \"#utility.yul\":1437:1467   */\n  gt\n    /* \"#utility.yul\":1434:1490   */\n  iszero\n  tag_60\n  jumpi\n    /* \"#utility.yul\":1470:1488   */\n  tag_61\n  tag_18\n  jump\t// in\ntag_61:\n    /* \"#utility.yul\":1434:1490   */\ntag_60:\n    /* \"#utility.yul\":1508:1537   */\n  tag_62\n    /* \"#utility.yul\":1530:1536   */\n  dup3\n    /* \"#utility.yul\":1508:1537   */\n  tag_17\n  jump\t// in\ntag_62:\n    /* \"#utility.yul\":1500:1537   */\n  swap1\n  pop\n    /* \"#utility.yul\":1592:1596   */\n  0x20\n    /* \"#utility.yul\":1586:1590   */\n  dup2\n    /* \"#utility.yul\":1582:1597   */\n  add\n    /* \"#utility.yul\":1574:1597   */\n  swap1\n  pop\n    /* \"#utility.yul\":1296:1604   */\n  swap2\n  swap1\n  pop\n  jump\t// out\n    /* \"#utility.yul\":1610:1749   */\ntag_22:\n    /* \"#utility.yul\":1699:1705   */\n  dup3\n    /* \"#utility.yul\":1694:1697   */\n  dup2\n    /* \"#utility.yul\":1689:1692   */\n  dup4\n    /* \"#utility.yul\":1683:1706   */\n  mcopy\n    /* \"#utility.yul\":1740:1741   */\n  0x00\n    /* \"#utility.yul\":1731:1737   */\n  dup4\n    /* \"#utility.yul\":1726:1729   */\n  dup4\n    /* \"#utility.yul\":1722:1738   */\n  add\n    /* \"#utility.yul\":1715:1742   */\n  mstore\n    /* \"#utility.yul\":1610:1749   */\n  pop\n  pop\n  pop\n  jump\t// out\n    /* \"#utility.yul\":1755:2189   */\ntag_23:\n    /* \"#utility.yul\":1844:1849   */\n  0x00\n    /* \"#utility.yul\":1869:1935   */\n  tag_65\n    /* \"#utility.yul\":1885:1934   */\n  tag_66\n    /* \"#utility.yul\":1927:1933   */\n  dup5\n    /* \"#utility.yul\":1885:1934   */\n  tag_21\n  jump\t// in\ntag_66:\n    /* \"#utility.yul\":1869:1935   */\n  tag_20\n  jump\t// in\ntag_65:\n    /* \"#utility.yul\":1860:1935   */\n  swap1\n  pop\n    /* \"#utility.yul\":1958:1964   */\n  dup3\n    /* \"#utility.yul\":1951:1956   */\n  dup2\n    /* \"#utility.yul\":1944:1965   */\n  mstore\n    /* \"#utility.yul\":1996:2000   */\n  0x20\n    /* \"#utility.yul\":1989:1994   */\n  dup2\n    /* \"#utility.yul\":1985:2001   */\n  add\n    /* \"#utility.yul\":2034:2037   */\n  dup5\n    /* \"#utility.yul\":2025:2031   */\n  dup5\n    /* \"#utility.yul\":2020:2023   */\n  dup5\n    /* \"#utility.yul\":2016:2032   */\n  add\n    /* \"#utility.yul\":2013:2038   */\n  gt\n    /* \"#utility.yul\":2010:2122   */\n  iszero\n  tag_67\n  jumpi\n    /* \"#utility.yul\":2041:2120   */\n  tag_68\n  tag_16\n  jump\t// in\ntag_68:\n    /* \"#utility.yul\":2010:2122   */\ntag_67:\n    /* \"#utility.yul\":2131:2183   */\n  tag_69\n    /* \"#utility.yul\":2176:2182   */\n  dup5\n    /* \"#utility.yul\":2171:2174   */\n  dup3\n    /* \"#utility.yul\":2166:2169   */\n  dup6\n    /* \"#utility.yul\":2131:2183   */\n  tag_22\n  jump\t// in\ntag_69:\n    /* \"#utility.yul\":1850:2189   */\n  pop\n    /* \"#utility.yul\":1755:2189   */\n  swap4\n  swap3\n  pop\n  pop\n  pop\n  jump\t// out\n    /* \"#utility.yul\":2209:2564   */\ntag_24:\n    /* \"#utility.yul\":2276:2281   */\n  0x00\n    /* \"#utility.yul\":2325:2328   */\n  dup3\n    /* \"#utility.yul\":2318:2322   */\n  0x1f\n    /* \"#utility.yul\":2310:2316   */\n  dup4\n    /* \"#utility.yul\":2306:2323   */\n  add\n    /* \"#utility.yul\":2302:2329   */\n  slt\n    /* \"#utility.yul\":2292:2414   */\n  tag_71\n  jumpi\n    /* \"#utility.yul\":2333:2412   */\n  tag_72\n  tag_15\n  jump\t// in\ntag_72:\n    /* \"#utility.yul\":2292:2414   */\ntag_71:\n    /* \"#utility.yul\":2443:2449   */\n  dup2\n    /* \"#utility.yul\":2437:2450   */\n  mload\n    /* \"#utility.yul\":2468:2558   */\n  tag_73\n    /* \"#utility.yul\":2554:2557   */\n  dup5\n    /* \"#utility.yul\":2546:2552   */\n  dup3\n    /* \"#utility.yul\":2539:2543   */\n  0x20\n    /* \"#utility.yul\":2531:2537   */\n  dup7\n    /* \"#utility.yul\":2527:2544   */\n  add\n    /* \"#utility.yul\":2468:2558   */\n  tag_23\n  jump\t// in\ntag_73:\n    /* \"#utility.yul\":2459:2558   */\n  swap2\n  pop\n    /* \"#utility.yul\":2282:2564   */\n  pop\n    /* \"#utility.yul\":2209:2564   */\n  swap3\n  swap2\n  pop\n  pop\n  jump\t// out\n    /* \"#utility.yul\":2570:3423   */\ntag_3:\n    /* \"#utility.yul\":2669:2675   */\n  0x00\n    /* \"#utility.yul\":2677:2683   */\n  0x00\n    /* \"#utility.yul\":2726:2728   */\n  0x40\n    /* \"#utility.yul\":2714:2723   */\n  dup4\n    /* \"#utility.yul\":2705:2712   */\n  dup6\n    /* \"#utility.yul\":2701:2724   */\n  sub\n    /* \"#utility.yul\":2697:2729   */\n  slt\n    /* \"#utility.yul\":2694:2813   */\n  iszero\n  tag_75\n  jumpi\n    /* \"#utility.yul\":2732:2811   */\n  tag_76\n  tag_13\n  jump\t// in\ntag_76:\n    /* \"#utility.yul\":2694:2813   */\ntag_75:\n    /* \"#utility.yul\":2873:2874   */\n  0x00\n    /* \"#utility.yul\":2862:2871   */\n  dup4\n    /* \"#utility.yul\":2858:2875   */\n  add\n    /* \"#utility.yul\":2852:2876   */\n  mload\n    /* \"#utility.yul\":2903:2921   */\n  0xffffffffffffffff\n    /* \"#utility.yul\":2895:2901   */\n  dup2\n    /* \"#utility.yul\":2892:2922   */\n  gt\n    /* \"#utility.yul\":2889:3006   */\n  iszero\n  tag_77\n  jumpi\n    /* \"#utility.yul\":2925:3004   */\n  tag_78\n  tag_14\n  jump\t// in\ntag_78:\n    /* \"#utility.yul\":2889:3006   */\ntag_77:\n    /* \"#utility.yul\":3030:3104   */\n  tag_79\n    /* \"#utility.yul\":3096:3103   */\n  dup6\n    /* \"#utility.yul\":3087:3093   */\n  dup3\n    /* \"#utility.yul\":3076:3085   */\n  dup7\n    /* \"#utility.yul\":3072:3094   */\n  add\n    /* \"#utility.yul\":3030:3104   */\n  tag_24\n  jump\t// in\ntag_79:\n    /* \"#utility.yul\":3020:3104   */\n  swap3\n  pop\n    /* \"#utility.yul\":2823:3114   */\n  pop\n    /* \"#utility.yul\":3174:3176   */\n  0x20\n    /* \"#utility.yul\":3163:3172   */\n  dup4\n    /* \"#utility.yul\":3159:3177   */\n  add\n    /* \"#utility.yul\":3153:3178   */\n  mload\n    /* \"#utility.yul\":3205:3223   */\n  0xffffffffffffffff\n    /* \"#utility.yul\":3197:3203   */\n  dup2\n    /* \"#utility.yul\":3194:3224   */\n  gt\n    /* \"#utility.yul\":3191:3308   */\n  iszero\n  tag_80\n  jumpi\n    /* \"#utility.yul\":3227:3306   */\n  tag_81\n  tag_14\n  jump\t// in\ntag_81:\n    /* \"#utility.yul\":3191:3308   */\ntag_80:\n    /* \"#utility.yul\":3332:3406   */\n  tag_82\n    /* \"#utility.yul\":3398:3405   */\n  dup6\n    /* \"#utility.yul\":3389:3395   */\n  dup3\n    /* \"#utility.yul\":3378:3387   */\n  dup7\n    /* \"#utility.yul\":3374:3396   */\n  add\n    /* \"#utility.yul\":3332:3406   */\n  tag_24\n  jump\t// in\ntag_82:\n    /* \"#utility.yul\":3322:3406   */\n  swap2\n  pop\n    /* \"#utility.yul\":3124:3416   */\n  pop\n    /* \"#utility.yul\":2570:3423   */\n  swap3\n  pop\n  swap3\n  swap1\n  pop\n  jump\t// out\n    /* \"#utility.yul\":3429:3528   */\ntag_25:\n    /* \"#utility.yul\":3481:3487   */\n  0x00\n    /* \"#utility.yul\":3515:3520   */\n  dup2\n    /* \"#utility.yul\":3509:3521   */\n  mload\n    /* \"#utility.yul\":3499:3521   */\n  swap1\n  pop\n    /* \"#utility.yul\":3429:3528   */\n  swap2\n  swap1\n  pop\n  jump\t// out\n    /* \"#utility.yul\":3534:3714   */\ntag_26:\n    /* \"#utility.yul\":3582:3659   */\n  0x4e487b7100000000000000000000000000000000000000000000000000000000\n    /* \"#utility.yul\":3579:3580   */\n  0x00\n    /* \"#utility.yul\":3572:3660   */\n  mstore\n    /* \"#utility.yul\":3679:3683   */\n  0x22\n    /* \"#utility.yul\":3676:3677   */\n  0x04\n    /* \"#utility.yul\":3669:3684   */\n  mstore\n    /* \"#utility.yul\":3703:3707   */\n  0x24\n    /* \"#utility.yul\":3700:3701   */\n  0x00\n    /* \"#utility.yul\":3693:3708   */\n  revert\n    /* \"#utility.yul\":3720:4040   */\ntag_27:\n    /* \"#utility.yul\":3764:3770   */\n  0x00\n    /* \"#utility.yul\":3801:3802   */\n  0x02\n    /* \"#utility.yul\":3795:3799   */\n  dup3\n    /* \"#utility.yul\":3791:3803   */\n  div\n    /* \"#utility.yul\":3781:3803   */\n  swap1\n  pop\n    /* \"#utility.yul\":3848:3849   */\n  0x01\n    /* \"#utility.yul\":3842:3846   */\n  dup3\n    /* \"#utility.yul\":3838:3850   */\n  and\n    /* \"#utility.yul\":3869:3887   */\n  dup1\n    /* \"#utility.yul\":3859:3940   */\n  tag_86\n  jumpi\n    /* \"#utility.yul\":3925:3929   */\n  0x7f\n    /* \"#utility.yul\":3917:3923   */\n  dup3\n    /* \"#utility.yul\":3913:3930   */\n  and\n    /* \"#utility.yul\":3903:3930   */\n  swap2\n  pop\n    /* \"#utility.yul\":3859:3940   */\ntag_86:\n    /* \"#utility.yul\":3987:3989   */\n  0x20\n    /* \"#utility.yul\":3979:3985   */\n  dup3\n    /* \"#utility.yul\":3976:3990   */\n  lt\n    /* \"#utility.yul\":3956:3974   */\n  dup2\n    /* \"#utility.yul\":3953:3991   */\n  sub\n    /* \"#utility.yul\":3950:4034   */\n  tag_87\n  jumpi\n    /* \"#utility.yul\":4006:4024   */\n  tag_88\n  tag_26\n  jump\t// in\ntag_88:\n    /* \"#utility.yul\":3950:4034   */\ntag_87:\n    /* \"#utility.yul\":3771:4040   */\n  pop\n    /* \"#utility.yul\":3720:4040   */\n  swap2\n  swap1\n  pop\n  jump\t// out\n    /* \"#utility.yul\":4046:4187   */\ntag_28:\n    /* \"#utility.yul\":4095:4099   */\n  0x00\n    /* \"#utility.yul\":4118:4121   */\n  dup2\n    /* \"#utility.yul\":4110:4121   */\n  swap1\n  pop\n    /* \"#utility.yul\":4141:4144   */\n  dup2\n    /* \"#utility.yul\":4138:4139   */\n  0x00\n    /* \"#utility.yul\":4131:4145   */\n  mstore\n    /* \"#utility.yul\":4175:4179   */\n  0x20\n    /* \"#utility.yul\":4172:4173   */\n  0x00\n    /* \"#utility.yul\":4162:4180   */\n  keccak256\n    /* \"#utility.yul\":4154:4180   */\n  swap1\n  pop\n    /* \"#utility.yul\":4046:4187   */\n  swap2\n  swap1\n  pop\n  jump\t// out\n    /* \"#utility.yul\":4193:4286   */\ntag_29:\n    /* \"#utility.yul\":4230:4236   */\n  0x00\n    /* \"#utility.yul\":4277:4279   */\n  0x20\n    /* \"#utility.yul\":4272:4274   */\n  0x1f\n    /* \"#utility.yul\":4265:4270   */\n  dup4\n    /* \"#utility.yul\":4261:4275   */\n  add\n    /* \"#utility.yul\":4257:4280   */\n  div\n    /* \"#utility.yul\":4247:4280   */\n  swap1\n  pop\n    /* \"#utility.yul\":4193:4286   */\n  swap2\n  swap1\n  pop\n  jump\t// out\n    /* \"#utility.yul\":4292:4399   */\ntag_30:\n    /* \"#utility.yul\":4336:4344   */\n  0x00\n    /* \"#utility.yul\":4386:4391   */\n  dup3\n    /* \"#utility.yul\":4380:4384   */\n  dup3\n    /* \"#utility.yul\":4376:4392   */\n  shl\n    /* \"#utility.yul\":4355:4392   */\n  swap1\n  pop\n    /* \"#utility.yul\":4292:4399   */\n  swap3\n  swap2\n  pop\n  pop\n  jump\t// out\n    /* \"#utility.yul\":4405:4798   */\ntag_31:\n    /* \"#utility.yul\":4474:4480   */\n  0x00\n    /* \"#utility.yul\":4524:4525   */\n  0x08\n    /* \"#utility.yul\":4512:4522   */\n  dup4\n    /* \"#utility.yul\":4508:4526   */\n  mul\n    /* \"#utility.yul\":4547:4644   */\n  tag_93\n    /* \"#utility.yul\":4577:4643   */\n  0xffffffffffffffffffffffffffffffffffffffffffffffffffffffffffffffff\n    /* \"#utility.yul\":4566:4575   */\n  dup3\n    /* \"#utility.yul\":4547:4644   */\n  tag_30\n  jump\t// in\ntag_93:\n    /* \"#utility.yul\":4665:4704   */\n  tag_94\n    /* \"#utility.yul\":4695:4703   */\n  dup7\n    /* \"#utility.yul\":4684:4693   */\n  dup4\n    /* \"#utility.yul\":4665:4704   */\n  tag_30\n  jump\t// in\ntag_94:\n    /* \"#utility.yul\":4653:4704   */\n  swap6\n  pop\n    /* \"#utility.yul\":4737:4741   */\n  dup1\n    /* \"#utility.yul\":4733:4742   */\n  not\n    /* \"#utility.yul\":4726:4731   */\n  dup5\n    /* \"#utility.yul\":4722:4743   */\n  and\n    /* \"#utility.yul\":4713:4743   */\n  swap4\n  pop\n    /* \"#utility.yul\":4786:4790   */\n  dup1\n    /* \"#utility.yul\":4776:4784   */\n  dup7\n    /* \"#utility.yul\":4772:4791   */\n  and\n    /* \"#utility.yul\":4765:4770   */\n  dup5\n    /* \"#utility.yul\":4762:4792   */\n  or\n    /* \"#utility.yul\":4752:4792   */\n  swap3\n  pop\n    /* \"#utility.yul\":4481:4798   */\n  pop\n  pop\n    /* \"#utility.yul\":4405:4798   */\n  swap4\n  swap3\n  pop\n  pop\n  pop\n  jump\t// out\n    /* \"#utility.yul\":4804:4881   */\ntag_32:\n    /* \"#utility.yul\":4841:4848   */\n  0x00\n    /* \"#utility.yul\":4870:4875   */\n  dup2\n    /* \"#utility.yul\":4859:4875   */\n  swap1\n  pop\n    /* \"#utility.yul\":4804:4881   */\n  swap2\n  swap1\n  pop\n  jump\t// out\n    /* \"#utility.yul\":4887:4947   */\ntag_33:\n    /* \"#utility.yul\":4915:4918   */\n  0x00\n    /* \"#utility.yul\":4936:4941   */\n  dup2\n    /* \"#utility.yul\":4929:4941   */\n  swap1\n  pop\n    /* \"#utility.yul\":4887:4947   */\n  swap2\n  swap1\n  pop\n  jump\t// out\n    /* \"#utility.yul\":4953:5095   */\ntag_34:\n    /* \"#utility.yul\":5003:5012   */\n  0x00\n    /* \"#utility.yul\":5036:5089   */\n  tag_98\n    /* \"#utility.yul\":5054:5088   */\n  tag_99\n    /* \"#utility.yul\":5063:5087   */\n  tag_100\n    /* \"#utility.yul\":5081:5086   */\n  dup5\n    /* \"#utility.yul\":5063:5087   */\n  tag_32\n  jump\t// in\ntag_100:\n    /* \"#utility.yul\":5054:5088   */\n  tag_33\n  jump\t// in\ntag_99:\n    /* \"#utility.yul\":5036:5089   */\n  tag_32\n  jump\t// in\ntag_98:\n    /* \"#utility.yul\":5023:5089   */\n  swap1\n  pop\n    /* \"#utility.yul\":4953:5095   */\n  swap2\n  swap1\n  pop\n  jump\t// out\n    /* \"#utility.yul\":5101:5176   */\ntag_35:\n    /* \"#utility.yul\":5144:5147   */\n  0x00\n    /* \"#utility.yul\":5165:5170   */\n  dup2\n    /* \"#utility.yul\":5158:5170   */\n  swap1\n  pop\n    /* \"#utility.yul\":5101:5176   */\n  swap2\n  swap1\n  pop\n  jump\t// out\n    /* \"#utility.yul\":5182:5451   */\ntag_36:\n    /* \"#utility.yul\":5292:5331   */\n  tag_103\n    /* \"#utility.yul\":5323:5330   */\n  dup4\n    /* \"#utility.yul\":5292:5331   */\n  tag_34\n  jump\t// in\ntag_103:\n    /* \"#utility.yul\":5353:5444   */\n  tag_104\n    /* \"#utility.yul\":5402:5443   */\n  tag_105\n    /* \"#utility.yul\":5426:5442   */\n  dup3\n    /* \"#utility.yul\":5402:5443   */\n  tag_35\n  jump\t// in\ntag_105:\n    /* \"#utility.yul\":5394:5400   */\n  dup5\n    /* \"#utility.yul\":5387:5391   */\n  dup5\n    /* \"#utility.yul\":5381:5392   */\n  sload\n    /* \"#utility.yul\":5353:5444   */\n  tag_31\n  jump\t// in\ntag_104:\n    /* \"#utility.yul\":5347:5351   */\n  dup3\n    /* \"#utility.yul\":5340:5445   */\n  sstore\n    /* \"#utility.yul\":5258:5451   */\n  pop\n    /* \"#utility.yul\":5182:5451   */\n  pop\n  pop\n  pop\n  jump\t// out\n    /* \"#utility.yul\":5457:5530   */\ntag_37:\n    /* \"#utility.yul\":5502:5505   */\n  0x00\n    /* \"#utility.yul\":5523:5524   */\n  0x00\n    /* \"#utility.yul\":5516:5524   */\n  swap1\n  pop\n    /* \"#utility.yul\":5457:5530   */\n  swap1\n  jump\t// out\n    /* \"#utility.yul\":5536:5725   */\ntag_38:\n    /* \"#utility.yul\":5613:5645   */\n  tag_108\n  tag_37\n  jump\t// in\ntag_108:\n    /* \"#utility.yul\":5654:5719   */\n  tag_109\n    /* \"#utility.yul\":5712:5718   */\n  dup2\n    /* \"#utility.yul\":5704:5710   */\n  dup5\n    /* \"#utility.yul\":5698:5702   */\n  dup5\n    /* \"#utility.yul\":5654:5719   */\n  tag_36\n  jump\t// in\ntag_109:\n    /* \"#utility.yul\":5589:5725   */\n  pop\n    /* \"#utility.yul\":5536:5725   */\n  pop\n  pop\n  jump\t// out\n    /* \"#utility.yul\":5731:5917   */\ntag_39:\n    /* \"#utility.yul\":5791:5911   */\ntag_111:\n    /* \"#utility.yul\":5808:5811   */\n  dup2\n    /* \"#utility.yul\":5801:5806   */\n  dup2\n    /* \"#utility.yul\":5798:5812   */\n  lt\n    /* \"#utility.yul\":5791:5911   */\n  iszero\n  tag_113\n  jumpi\n    /* \"#utility.yul\":5862:5901   */\n  tag_114\n    /* \"#utility.yul\":5899:5900   */\n  0x00\n    /* \"#utility.yul\":5892:5897   */\n  dup3\n    /* \"#utility.yul\":5862:5901   */\n  tag_38\n  jump\t// in\ntag_114:\n    /* \"#utility.yul\":5835:5836   */\n  0x01\n    /* \"#utility.yul\":5828:5833   */\n  dup2\n    /* \"#utility.yul\":5824:5837   */\n  add\n    /* \"#utility.yul\":5815:5837   */\n  swap1\n  pop\n    /* \"#utility.yul\":5791:5911   */\n  jump(tag_111)\ntag_113:\n    /* \"#utility.yul\":5731:5917   */\n  pop\n  pop\n  jump\t// out\n    /* \"#utility.yul\":5923:6466   */\ntag_40:\n    /* \"#utility.yul\":6024:6026   */\n  0x1f\n    /* \"#utility.yul\":6019:6022   */\n  dup3\n    /* \"#utility.yul\":6016:6027   */\n  gt\n    /* \"#utility.yul\":6013:6459   */\n  iszero\n  tag_116\n  jumpi\n    /* \"#utility.yul\":6058:6096   */\n  tag_117\n    /* \"#utility.yul\":6090:6095   */\n  dup2\n    /* \"#utility.yul\":6058:6096   */\n  tag_28\n  jump\t// in\ntag_117:\n    /* \"#utility.yul\":6142:6171   */\n  tag_118\n    /* \"#utility.yul\":6160:6170   */\n  dup5\n    /* \"#utility.yul\":6142:6171   */\n  tag_29\n  jump\t// in\ntag_118:\n    /* \"#utility.yul\":6132:6140   */\n  dup2\n    /* \"#utility.yul\":6128:6172   */\n  add\n    /* \"#utility.yul\":6325:6327   */\n  0x20\n    /* \"#utility.yul\":6313:6323   */\n  dup6\n    /* \"#utility.yul\":6310:6328   */\n  lt\n    /* \"#utility.yul\":6307:6356   */\n  iszero\n  tag_119\n  jumpi\n    /* \"#utility.yul\":6346:6354   */\n  dup2\n    /* \"#utility.yul\":6331:6354   */\n  swap1\n  pop\n    /* \"#utility.yul\":6307:6356   */\ntag_119:\n    /* \"#utility.yul\":6369:6449   */\n  tag_120\n    /* \"#utility.yul\":6425:6447   */\n  tag_121\n    /* \"#utility.yul\":6443:6446   */\n  dup6\n    /* \"#utility.yul\":6425:6447   */\n  tag_29\n  jump\t// in\ntag_121:\n    /* \"#utility.yul\":6415:6423   */\n  dup4\n    /* \"#utility.yul\":6411:6448   */\n  add\n    /* \"#utility.yul\":6398:6409   */\n  dup3\n    /* \"#utility.yul\":6369:6449   */\n  tag_39\n  jump\t// in\ntag_120:\n    /* \"#utility.yul\":6028:6459   */\n  pop\n  pop\n    /* \"#utility.yul\":6013:6459   */\ntag_116:\n    /* \"#utility.yul\":5923:6466   */\n  pop\n  pop\n  pop\n  jump\t// out\n    /* \"#utility.yul\":6472:6589   */\ntag_41:\n    /* \"#utility.yul\":6526:6534   */\n  0x00\n    /* \"#utility.yul\":6576:6581   */\n  dup3\n    /* \"#utility.yul\":6570:6574   */\n  dup3\n    /* \"#utility.yul\":6566:6582   */\n  shr\n    /* \"#utility.yul\":6545:6582   */\n  swap1\n  pop\n    /* \"#utility.yul\":6472:6589   */\n  swap3\n  swap2\n  pop\n  pop\n  jump\t// out\n    /* \"#utility.yul\":6595:6764   */\ntag_42:\n    /* \"#utility.yul\":6639:6645   */\n  0x00\n    /* \"#utility.yul\":6672:6723   */\n  tag_124\n    /* \"#utility.yul\":6720:6721   */\n  0x00\n    /* \"#utility.yul\":6716:6722   */\n  not\n    /* \"#utility.yul\":6708:6713   */\n  dup5\n    /* \"#utility.yul\":6705:6706   */\n  0x08\n    /* \"#utility.yul\":6701:6714   */\n  mul\n    /* \"#utility.yul\":6672:6723   */\n  tag_41\n  jump\t// in\ntag_124:\n    /* \"#utility.yul\":6668:6724   */\n  not\n    /* \"#utility.yul\":6753:6757   */\n  dup1\n    /* \"#utility.yul\":6747:6751   */\n  dup4\n    /* \"#utility.yul\":6743:6758   */\n  and\n    /* \"#utility.yul\":6733:6758   */\n  swap2\n  pop\n    /* \"#utility.yul\":6646:6764   */\n  pop\n    /* \"#utility.yul\":6595:6764   */\n  swap3\n  swap2\n  pop\n  pop\n  jump\t// out\n    /* \"#utility.yul\":6769:7064   */\ntag_43:\n    /* \"#utility.yul\":6845:6849   */\n  0x00\n    /* \"#utility.yul\":6991:7020   */\n  tag_126\n    /* \"#utility.yul\":7016:7019   */\n  dup4\n    /* \"#utility.yul\":7010:7014   */\n  dup4\n    /* \"#utility.yul\":6991:7020   */\n  tag_42\n  jump\t// in\ntag_126:\n    /* \"#utility.yul\":6983:7020   */\n  swap2\n  pop\n    /* \"#utility.yul\":7053:7056   */\n  dup3\n    /* \"#utility.yul\":7050:7051   */\n  0x02\n    /* \"#utility.yul\":7046:7057   */\n  mul\n    /* \"#utility.yul\":7040:7044   */\n  dup3\n    /* \"#utility.yul\":7037:7058   */\n  or\n    /* \"#utility.yul\":7029:7058   */\n  swap1\n  pop\n    /* \"#utility.yul\":6769:7064   */\n  swap3\n  swap2\n  pop\n  pop\n  jump\t// out\n    /* \"#utility.yul\":7069:8464   */\ntag_8:\n    /* \"#utility.yul\":7186:7223   */\n  tag_128\n    /* \"#utility.yul\":7219:7222   */\n  dup3\n    /* \"#utility.yul\":7186:7223   */\n  tag_25\n  jump\t// in\ntag_128:\n    /* \"#utility.yul\":7288:7306   */\n  0xffffffffffffffff\n    /* \"#utility.yul\":7280:7286   */\n  dup2\n    /* \"#utility.yul\":7277:7307   */\n  gt\n    /* \"#utility.yul\":7274:7330   */\n  iszero\n  tag_129\n  jumpi\n    /* \"#utility.yul\":7310:7328   */\n  tag_130\n  tag_18\n  jump\t// in\ntag_130:\n    /* \"#utility.yul\":7274:7330   */\ntag_129:\n    /* \"#utility.yul\":7354:7392   */\n  tag_131\n    /* \"#utility.yul\":7386:7390   */\n  dup3\n    /* \"#utility.yul\":7380:7391   */\n  sload\n    /* \"#utility.yul\":7354:7392   */\n  tag_27\n  jump\t// in\ntag_131:\n    /* \"#utility.yul\":7439:7506   */\n  tag_132\n    /* \"#utility.yul\":7499:7505   */\n  dup3\n    /* \"#utility.yul\":7491:7497   */\n  dup3\n    /* \"#utility.yul\":7485:7489   */\n  dup6\n    /* \"#utility.yul\":7439:7506   */\n  tag_40\n  jump\t// in\ntag_132:\n    /* \"#utility.yul\":7533:7534   */\n  0x00\n    /* \"#utility.yul\":7557:7561   */\n  0x20\n    /* \"#utility.yul\":7544:7561   */\n  swap1\n  pop\n    /* \"#utility.yul\":7589:7591   */\n  0x1f\n    /* \"#utility.yul\":7581:7587   */\n  dup4\n    /* \"#utility.yul\":7578:7592   */\n  gt\n    /* \"#utility.yul\":7606:7607   */\n  0x01\n    /* \"#utility.yul\":7601:8219   */\n  dup2\n  eq\n  tag_134\n  jumpi\n    /* \"#utility.yul\":8263:8264   */\n  0x00\n    /* \"#utility.yul\":8280:8286   */\n  dup5\n    /* \"#utility.yul\":8277:8354   */\n  iszero\n  tag_135\n  jumpi\n    /* \"#utility.yul\":8329:8338   */\n  dup3\n    /* \"#utility.yul\":8324:8327   */\n  dup8\n    /* \"#utility.yul\":8320:8339   */\n  add\n    /* \"#utility.yul\":8314:8340   */\n  mload\n    /* \"#utility.yul\":8305:8340   */\n  swap1\n  pop\n    /* \"#utility.yul\":8277:8354   */\ntag_135:\n    /* \"#utility.yul\":8380:8447   */\n  tag_136\n    /* \"#utility.yul\":8440:8446   */\n  dup6\n    /* \"#utility.yul\":8433:8438   */\n  dup3\n    /* \"#utility.yul\":8380:8447   */\n  tag_43\n  jump\t// in\ntag_136:\n    /* \"#utility.yul\":8374:8378   */\n  dup7\n    /* \"#utility.yul\":8367:8448   */\n  sstore\n    /* \"#utility.yul\":8236:8458   */\n  pop\n    /* \"#utility.yul\":7571:8458   */\n  jump(tag_133)\n    /* \"#utility.yul\":7601:8219   */\ntag_134:\n    /* \"#utility.yul\":7653:7657   */\n  0x1f\n    /* \"#utility.yul\":7649:7658   */\n  not\n    /* \"#utility.yul\":7641:7647   */\n  dup5\n    /* \"#utility.yul\":7637:7659   */\n  and\n    /* \"#utility.yul\":7687:7724   */\n  tag_137\n    /* \"#utility.yul\":7719:7723   */\n  dup7\n    /* \"#utility.yul\":7687:7724   */\n  tag_28\n  jump\t// in\ntag_137:\n    /* \"#utility.yul\":7746:7747   */\n  0x00\n    /* \"#utility.yul\":7760:7968   */\ntag_138:\n    /* \"#utility.yul\":7774:7781   */\n  dup3\n    /* \"#utility.yul\":7771:7772   */\n  dup2\n    /* \"#utility.yul\":7768:7782   */\n  lt\n    /* \"#utility.yul\":7760:7968   */\n  iszero\n  tag_140\n  jumpi\n    /* \"#utility.yul\":7853:7862   */\n  dup5\n    /* \"#utility.yul\":7848:7851   */\n  dup10\n    /* \"#utility.yul\":7844:7863   */\n  add\n    /* \"#utility.yul\":7838:7864   */\n  mload\n    /* \"#utility.yul\":7830:7836   */\n  dup3\n    /* \"#utility.yul\":7823:7865   */\n  sstore\n    /* \"#utility.yul\":7904:7905   */\n  0x01\n    /* \"#utility.yul\":7896:7902   */\n  dup3\n    /* \"#utility.yul\":7892:7906   */\n  add\n    /* \"#utility.yul\":7882:7906   */\n  swap2\n  pop\n    /* \"#utility.yul\":7951:7953   */\n  0x20\n    /* \"#utility.yul\":7940:7949   */\n  dup6\n    /* \"#utility.yul\":7936:7954   */\n  add\n    /* \"#utility.yul\":7923:7954   */\n  swap5\n  pop\n    /* \"#utility.yul\":7797:7801   */\n  0x20\n    /* \"#utility.yul\":7794:7795   */\n  dup2\n    /* \"#utility.yul\":7790:7802   */\n  add\n    /* \"#utility.yul\":7785:7802   */\n  swap1\n  pop\n    /* \"#utility.yul\":7760:7968   */\n  jump(tag_138)\ntag_140:\n    /* \"#utility.yul\":7996:8002   */\n  dup7\n    /* \"#utility.yul\":7987:7994   */\n  dup4\n    /* \"#utility.yul\":7984:8003   */\n  lt\n    /* \"#utility.yul\":7981:8160   */\n  iszero\n  tag_141\n  jumpi\n    /* \"#utility.yul\":8054:8063   */\n  dup5\n    /* \"#utility.yul\":8049:8052   */\n  dup10\n    /* \"#utility.yul\":8045:8064   */\n  add\n    /* \"#utility.yul\":8039:8065   */\n  mload\n    /* \"#utility.yul\":8097:8145   */\n  tag_142\n    /* \"#utility.yul\":8139:8143   */\n  0x1f\n    /* \"#utility.yul\":8131:8137   */\n  dup10\n    /* \"#utility.yul\":8127:8144   */\n  and\n    /* \"#utility.yul\":8116:8125   */\n  dup3\n    /* \"#utility.yul\":8097:8145   */\n  tag_42\n  jump\t// in\ntag_142:\n    /* \"#utility.yul\":8089:8095   */\n  dup4\n    /* \"#utility.yul\":8082:8146   */\n  sstore\n    /* \"#utility.yul\":8004:8160   */\n  pop\n    /* \"#utility.yul\":7981:8160   */\ntag_141:\n    /* \"#utility.yul\":8206:8207   */\n  0x01\n    /* \"#utility.yul\":8202:8203   */\n  0x02\n    /* \"#utility.yul\":8194:8200   */\n  dup9\n    /* \"#utility.yul\":8190:8204   */\n  mul\n    /* \"#utility.yul\":8186:8208   */\n  add\n    /* \"#utility.yul\":8180:8184   */\n  dup9\n    /* \"#utility.yul\":8173:8209   */\n  sstore\n    /* \"#utility.yul\":7608:8219   */\n  pop\n  pop\n  pop\n    /* \"#utility.yul\":7571:8458   */\ntag_133:\n  pop\n    /* \"#utility.yul\":7161:8464   */\n  pop\n  pop\n  pop\n    /* \"#utility.yul\":7069:8464   */\n  pop\n  pop\n  jump\t// out\n    /* \"contracts/034_WTFAPE.sol\":94:563  contract WTFApe is ERC721 {... */\ntag_11:\n  dataSize(sub_0)\n  dup1\n  dataOffset(sub_0)\n  0x00\n  codecopy\n  0x00\n  return\nstop\n\nsub_0: assembly {\n        /* \"contracts/034_WTFAPE.sol\":94:563  contract WTFApe is ERC721 {... */\n      mstore(0x40, 0x80)\n      callvalue\n      dup1\n      iszero\n      tag_1\n      jumpi\n      revert(0x00, 0x00)\n    tag_1:\n      pop\n      jumpi(tag_2, lt(calldatasize, 0x04))\n      shr(0xe0, calldataload(0x00))\n      dup1\n      0x6352211e\n      gt\n      tag_18\n      jumpi\n      dup1\n      0xb88d4fde\n      gt\n      tag_19\n      jumpi\n      dup1\n      0xb88d4fde\n      eq\n      tag_14\n      jumpi\n      dup1\n      0xbb8a16bd\n      eq\n      tag_15\n      jumpi\n      dup1\n      0xc87b56dd\n      eq\n      tag_16\n      jumpi\n      dup1\n      0xe985e9c5\n      eq\n      tag_17\n      jumpi\n      jump(tag_2)\n    tag_19:\n      dup1\n      0x6352211e\n      eq\n      tag_10\n      jumpi\n      dup1\n      0x70a08231\n      eq\n      tag_11\n      jumpi\n      dup1\n      0x95d89b41\n      eq\n      tag_12\n      jumpi\n      dup1\n      0xa22cb465\n      eq\n      tag_13\n      jumpi\n      jump(tag_2)\n    tag_18:\n      dup1\n      0x095ea7b3\n      gt\n      tag_20\n      jumpi\n      dup1\n      0x095ea7b3\n      eq\n      tag_6\n      jumpi\n      dup1\n      0x23b872dd\n      eq\n      tag_7\n      jumpi\n      dup1\n      0x40c10f19\n      eq\n      tag_8\n      jumpi\n      dup1\n      0x42842e0e\n      eq\n      tag_9\n      jumpi\n      jump(tag_2)\n    tag_20:\n      dup1\n      0x01ffc9a7\n      eq\n      tag_3\n      jumpi\n      dup1\n      0x06fdde03\n      eq\n      tag_4\n      jumpi\n      dup1\n      0x081812fc\n      eq\n      tag_5\n      jumpi\n    tag_2:\n      revert(0x00, 0x00)\n        /* \"contracts/ERC721.sol\":718:1035  function supportsInterface(bytes4 interfaceId)... */\n    tag_3:\n      tag_21\n      0x04\n      dup1\n      calldatasize\n      sub\n      dup2\n      add\n      swap1\n      tag_22\n      swap2\n      swap1\n      tag_23\n      jump\t// in\n    tag_22:\n      tag_24\n      jump\t// in\n    tag_21:\n      mload(0x40)\n      tag_25\n      swap2\n      swap1\n      tag_26\n      jump\t// in\n    tag_25:\n      mload(0x40)\n      dup1\n      swap2\n      sub\n      swap1\n      return\n        /* \"contracts/ERC721.sol\":256:283  string public override name */\n    tag_4:\n      tag_27\n      tag_28\n      jump\t// in\n    tag_27:\n      mload(0x40)\n      tag_29\n      swap2\n      swap1\n      tag_30\n      jump\t// in\n    tag_29:\n      mload(0x40)\n      dup1\n      swap2\n      sub\n      swap1\n      return\n        /* \"contracts/ERC721.sol\":1779:1975  function getApproved(uint tokenId) external view override returns (address) {... */\n    tag_5:\n      tag_31\n      0x04\n      dup1\n      calldatasize\n      sub\n      dup2\n      add\n      swap1\n      tag_32\n      swap2\n      swap1\n      tag_33\n      jump\t// in\n    tag_32:\n      tag_34\n      jump\t// in\n    tag_31:\n      mload(0x40)\n      tag_35\n      swap2\n      swap1\n      tag_36\n      jump\t// in\n    tag_35:\n      mload(0x40)\n      dup1\n      swap2\n      sub\n      swap1\n      return\n        /* \"contracts/ERC721.sol\":2173:2469  function approve(address to, uint tokenId) external override {... */\n    tag_6:\n      tag_37\n      0x04\n      dup1\n      calldatasize\n      sub\n      dup2\n      add\n      swap1\n      tag_38\n      swap2\n      swap1\n      tag_39\n      jump\t// in\n    tag_38:\n      tag_40\n      jump\t// in\n    tag_37:\n      stop\n        /* \"contracts/ERC721.sol\":3203:3532  function transferFrom(... */\n    tag_7:\n      tag_41\n      0x04\n      dup1\n      calldatasize\n      sub\n      dup2\n      add\n      swap1\n      tag_42\n      swap2\n      swap1\n      tag_43\n      jump\t// in\n    tag_42:\n      tag_44\n      jump\t// in\n    tag_41:\n      stop\n        /* \"contracts/034_WTFAPE.sol\":400:561  function mint(address to, uint tokenId) external {... */\n    tag_8:\n      tag_45\n      0x04\n      dup1\n      calldatasize\n      sub\n      dup2\n      add\n      swap1\n      tag_46\n      swap2\n      swap1\n      tag_39\n      jump\t// in\n    tag_46:\n      tag_47\n      jump\t// in\n    tag_45:\n      stop\n        /* \"contracts/ERC721.sol\":4950:5120  function safeTransferFrom(... */\n    tag_9:\n      tag_48\n      0x04\n      dup1\n      calldatasize\n      sub\n      dup2\n      add\n      swap1\n      tag_49\n      swap2\n      swap1\n      tag_43\n      jump\t// in\n    tag_49:\n      tag_50\n      jump\t// in\n    tag_48:\n      stop\n        /* \"contracts/ERC721.sol\":1221:1399  function ownerOf(uint tokenId) public view override returns (address owner) {... */\n    tag_10:\n      tag_51\n      0x04\n      dup1\n      calldatasize\n      sub\n      dup2\n      add\n      swap1\n      tag_52\n      swap2\n      swap1\n      tag_33\n      jump\t// in\n    tag_52:\n      tag_53\n      jump\t// in\n    tag_51:\n      mload(0x40)\n      tag_54\n      swap2\n      swap1\n      tag_36\n      jump\t// in\n    tag_54:\n      mload(0x40)\n      dup1\n      swap2\n      sub\n      swap1\n      return\n        /* \"contracts/ERC721.sol\":1041:1215  function balanceOf(address owner) external view override returns (uint) {... */\n    tag_11:\n      tag_55\n      0x04\n      dup1\n      calldatasize\n      sub\n      dup2\n      add\n      swap1\n      tag_56\n      swap2\n      swap1\n      tag_57\n      jump\t// in\n    tag_56:\n      tag_58\n      jump\t// in\n    tag_55:\n      mload(0x40)\n      tag_59\n      swap2\n      swap1\n      tag_60\n      jump\t// in\n    tag_59:\n      mload(0x40)\n      dup1\n      swap2\n      sub\n      swap1\n      return\n        /* \"contracts/ERC721.sol\":289:318  string public override symbol */\n    tag_12:\n      tag_61\n      tag_62\n      jump\t// in\n    tag_61:\n      mload(0x40)\n      tag_63\n      swap2\n      swap1\n      tag_30\n      jump\t// in\n    tag_63:\n      mload(0x40)\n      dup1\n      swap2\n      sub\n      swap1\n      return\n        /* \"contracts/ERC721.sol\":1566:1773  function setApprovalForAll(address operator, bool approved) external override {... */\n    tag_13:\n      tag_64\n      0x04\n      dup1\n      calldatasize\n      sub\n      dup2\n      add\n      swap1\n      tag_65\n      swap2\n      swap1\n      tag_66\n      jump\t// in\n    tag_65:\n      tag_67\n      jump\t// in\n    tag_64:\n      stop\n        /* \"contracts/ERC721.sol\":4574:4944  function safeTransferFrom(... */\n    tag_14:\n      tag_68\n      0x04\n      dup1\n      calldatasize\n      sub\n      dup2\n      add\n      swap1\n      tag_69\n      swap2\n      swap1\n      tag_70\n      jump\t// in\n    tag_69:\n      tag_71\n      jump\t// in\n    tag_68:\n      stop\n        /* \"contracts/034_WTFAPE.sol\":126:153  uint public MAX_APES = 1000 */\n    tag_15:\n      tag_72\n      tag_73\n      jump\t// in\n    tag_72:\n      mload(0x40)\n      tag_74\n      swap2\n      swap1\n      tag_60\n      jump\t// in\n    tag_74:\n      mload(0x40)\n      dup1\n      swap2\n      sub\n      swap1\n      return\n        /* \"contracts/ERC721.sol\":5763:6081  function tokenURI(uint256 tokenId) public view virtual override returns (string memory) {... */\n    tag_16:\n      tag_75\n      0x04\n      dup1\n      calldatasize\n      sub\n      dup2\n      add\n      swap1\n      tag_76\n      swap2\n      swap1\n      tag_33\n      jump\t// in\n    tag_76:\n      tag_77\n      jump\t// in\n    tag_75:\n      mload(0x40)\n      tag_78\n      swap2\n      swap1\n      tag_30\n      jump\t// in\n    tag_78:\n      mload(0x40)\n      dup1\n      swap2\n      sub\n      swap1\n      return\n        /* \"contracts/ERC721.sol\":1405:1560  function isApprovedForAll(address owner, address operator) external view override returns(bool) {... */\n    tag_17:\n      tag_79\n      0x04\n      dup1\n      calldatasize\n      sub\n      dup2\n      add\n      swap1\n      tag_80\n      swap2\n      swap1\n      tag_81\n      jump\t// in\n    tag_80:\n      tag_82\n      jump\t// in\n    tag_79:\n      mload(0x40)\n      tag_83\n      swap2\n      swap1\n      tag_26\n      jump\t// in\n    tag_83:\n      mload(0x40)\n      dup1\n      swap2\n      sub\n      swap1\n      return\n        /* \"contracts/ERC721.sol\":718:1035  function supportsInterface(bytes4 interfaceId)... */\n    tag_24:\n        /* \"contracts/ERC721.sol\":829:833  bool */\n      0x00\n        /* \"contracts/ERC721.sol\":883:908  type(IERC721).interfaceId */\n      0x80ac58cd00000000000000000000000000000000000000000000000000000000\n        /* \"contracts/ERC721.sol\":868:908  interfaceId == type(IERC721).interfaceId */\n      not(0xffffffffffffffffffffffffffffffffffffffffffffffffffffffff)\n      and\n        /* \"contracts/ERC721.sol\":868:879  interfaceId */\n      dup3\n        /* \"contracts/ERC721.sol\":868:908  interfaceId == type(IERC721).interfaceId */\n      not(0xffffffffffffffffffffffffffffffffffffffffffffffffffffffff)\n      and\n      eq\n        /* \"contracts/ERC721.sol\":868:964  interfaceId == type(IERC721).interfaceId ||... */\n      dup1\n      tag_85\n      jumpi\n      pop\n        /* \"contracts/ERC721.sol\":939:964  type(IERC165).interfaceId */\n      0x01ffc9a700000000000000000000000000000000000000000000000000000000\n        /* \"contracts/ERC721.sol\":924:964  interfaceId == type(IERC165).interfaceId */\n      not(0xffffffffffffffffffffffffffffffffffffffffffffffffffffffff)\n      and\n        /* \"contracts/ERC721.sol\":924:935  interfaceId */\n      dup3\n        /* \"contracts/ERC721.sol\":924:964  interfaceId == type(IERC165).interfaceId */\n      not(0xffffffffffffffffffffffffffffffffffffffffffffffffffffffff)\n      and\n      eq\n        /* \"contracts/ERC721.sol\":868:964  interfaceId == type(IERC721).interfaceId ||... */\n    tag_85:\n        /* \"contracts/ERC721.sol\":868:1028  interfaceId == type(IERC721).interfaceId ||... */\n      dup1\n      tag_86\n      jumpi\n      pop\n        /* \"contracts/ERC721.sol\":995:1028  type(IERC721Metadata).interfaceId */\n      0x5b5e139f00000000000000000000000000000000000000000000000000000000\n        /* \"contracts/ERC721.sol\":980:1028  interfaceId == type(IERC721Metadata).interfaceId */\n      not(0xffffffffffffffffffffffffffffffffffffffffffffffffffffffff)\n      and\n        /* \"contracts/ERC721.sol\":980:991  interfaceId */\n      dup3\n        /* \"contracts/ERC721.sol\":980:1028  interfaceId == type(IERC721Metadata).interfaceId */\n      not(0xffffffffffffffffffffffffffffffffffffffffffffffffffffffff)\n      and\n      eq\n        /* \"contracts/ERC721.sol\":868:1028  interfaceId == type(IERC721).interfaceId ||... */\n    tag_86:\n        /* \"contracts/ERC721.sol\":849:1028  return... */\n      swap1\n      pop\n        /* \"contracts/ERC721.sol\":718:1035  function supportsInterface(bytes4 interfaceId)... */\n      swap2\n      swap1\n      pop\n      jump\t// out\n        /* \"contracts/ERC721.sol\":256:283  string public override name */\n    tag_28:\n      0x00\n      dup1\n      sload\n      tag_87\n      swap1\n      tag_88\n      jump\t// in\n    tag_87:\n      dup1\n      0x1f\n      add\n      0x20\n      dup1\n      swap2\n      div\n      mul\n      0x20\n      add\n      mload(0x40)\n      swap1\n      dup2\n      add\n      0x40\n      mstore\n      dup1\n      swap3\n      swap2\n      swap1\n      dup2\n      dup2\n      mstore\n      0x20\n      add\n      dup3\n      dup1\n      sload\n      tag_89\n      swap1\n      tag_88\n      jump\t// in\n    tag_89:\n      dup1\n      iszero\n      tag_90\n      jumpi\n      dup1\n      0x1f\n      lt\n      tag_91\n      jumpi\n      0x0100\n      dup1\n      dup4\n      sload\n      div\n      mul\n      dup4\n      mstore\n      swap2\n      0x20\n      add\n      swap2\n      jump(tag_90)\n    tag_91:\n      dup3\n      add\n      swap2\n      swap1\n      0x00\n      mstore\n      keccak256(0x00, 0x20)\n      swap1\n    tag_92:\n      dup2\n      sload\n      dup2\n      mstore\n      swap1\n      0x01\n      add\n      swap1\n      0x20\n      add\n      dup1\n      dup4\n      gt\n      tag_92\n      jumpi\n      dup3\n      swap1\n      sub\n      0x1f\n      and\n      dup3\n      add\n      swap2\n    tag_90:\n      pop\n      pop\n      pop\n      pop\n      pop\n      dup2\n      jump\t// out\n        /* \"contracts/ERC721.sol\":1779:1975  function getApproved(uint tokenId) external view override returns (address) {... */\n    tag_34:\n        /* \"contracts/ERC721.sol\":1846:1853  address */\n      0x00\n        /* \"contracts/ERC721.sol\":1901:1902  0 */\n      0x00\n        /* \"contracts/ERC721.sol\":1873:1903  _owners[tokenId] != address(0) */\n      0xffffffffffffffffffffffffffffffffffffffff\n      and\n        /* \"contracts/ERC721.sol\":1873:1880  _owners */\n      0x02\n        /* \"contracts/ERC721.sol\":1873:1889  _owners[tokenId] */\n      0x00\n        /* \"contracts/ERC721.sol\":1881:1888  tokenId */\n      dup5\n        /* \"contracts/ERC721.sol\":1873:1889  _owners[tokenId] */\n      dup2\n      mstore\n      0x20\n      add\n      swap1\n      dup2\n      mstore\n      0x20\n      add\n      0x00\n      keccak256\n      0x00\n      swap1\n      sload\n      swap1\n      0x0100\n      exp\n      swap1\n      div\n      0xffffffffffffffffffffffffffffffffffffffff\n      and\n        /* \"contracts/ERC721.sol\":1873:1903  _owners[tokenId] != address(0) */\n      0xffffffffffffffffffffffffffffffffffffffff\n      and\n      sub\n        /* \"contracts/ERC721.sol\":1865:1927  require(_owners[tokenId] != address(0), \"token doesn't exist\") */\n      tag_94\n      jumpi\n      mload(0x40)\n      0x08c379a000000000000000000000000000000000000000000000000000000000\n      dup2\n      mstore\n      0x04\n      add\n      tag_95\n      swap1\n      tag_96\n      jump\t// in\n    tag_95:\n      mload(0x40)\n      dup1\n      swap2\n      sub\n      swap1\n      revert\n    tag_94:\n        /* \"contracts/ERC721.sol\":1944:1959  _tokenApprovals */\n      0x04\n        /* \"contracts/ERC721.sol\":1944:1968  _tokenApprovals[tokenId] */\n      0x00\n        /* \"contracts/ERC721.sol\":1960:1967  tokenId */\n      dup4\n        /* \"contracts/ERC721.sol\":1944:1968  _tokenApprovals[tokenId] */\n      dup2\n      mstore\n      0x20\n      add\n      swap1\n      dup2\n      mstore\n      0x20\n      add\n      0x00\n      keccak256\n      0x00\n      swap1\n      sload\n      swap1\n      0x0100\n      exp\n      swap1\n      div\n      0xffffffffffffffffffffffffffffffffffffffff\n      and\n        /* \"contracts/ERC721.sol\":1937:1968  return _tokenApprovals[tokenId] */\n      swap1\n      pop\n        /* \"contracts/ERC721.sol\":1779:1975  function getApproved(uint tokenId) external view override returns (address) {... */\n      swap2\n      swap1\n      pop\n      jump\t// out\n        /* \"contracts/ERC721.sol\":2173:2469  function approve(address to, uint tokenId) external override {... */\n    tag_40:\n        /* \"contracts/ERC721.sol\":2244:2257  address owner */\n      0x00\n        /* \"contracts/ERC721.sol\":2260:2267  _owners */\n      0x02\n        /* \"contracts/ERC721.sol\":2260:2276  _owners[tokenId] */\n      0x00\n        /* \"contracts/ERC721.sol\":2268:2275  tokenId */\n      dup4\n        /* \"contracts/ERC721.sol\":2260:2276  _owners[tokenId] */\n      dup2\n      mstore\n      0x20\n      add\n      swap1\n      dup2\n      mstore\n      0x20\n      add\n      0x00\n      keccak256\n      0x00\n      swap1\n      sload\n      swap1\n      0x0100\n      exp\n      swap1\n      div\n      0xffffffffffffffffffffffffffffffffffffffff\n      and\n        /* \"contracts/ERC721.sol\":2244:2276  address owner = _owners[tokenId] */\n      swap1\n      pop\n        /* \"contracts/ERC721.sol\":2321:2326  owner */\n      dup1\n        /* \"contracts/ERC721.sol\":2307:2326  msg.sender == owner */\n      0xffffffffffffffffffffffffffffffffffffffff\n      and\n        /* \"contracts/ERC721.sol\":2307:2317  msg.sender */\n      caller\n        /* \"contracts/ERC721.sol\":2307:2326  msg.sender == owner */\n      0xffffffffffffffffffffffffffffffffffffffff\n      and\n      eq\n        /* \"contracts/ERC721.sol\":2307:2367  msg.sender == owner || _operatorApprovals[owner][msg.sender] */\n      dup1\n      tag_98\n      jumpi\n      pop\n        /* \"contracts/ERC721.sol\":2330:2348  _operatorApprovals */\n      0x05\n        /* \"contracts/ERC721.sol\":2330:2355  _operatorApprovals[owner] */\n      0x00\n        /* \"contracts/ERC721.sol\":2349:2354  owner */\n      dup3\n        /* \"contracts/ERC721.sol\":2330:2355  _operatorApprovals[owner] */\n      0xffffffffffffffffffffffffffffffffffffffff\n      and\n      0xffffffffffffffffffffffffffffffffffffffff\n      and\n      dup2\n      mstore\n      0x20\n      add\n      swap1\n      dup2\n      mstore\n      0x20\n      add\n      0x00\n      keccak256\n        /* \"contracts/ERC721.sol\":2330:2367  _operatorApprovals[owner][msg.sender] */\n      0x00\n        /* \"contracts/ERC721.sol\":2356:2366  msg.sender */\n      caller\n        /* \"contracts/ERC721.sol\":2330:2367  _operatorApprovals[owner][msg.sender] */\n      0xffffffffffffffffffffffffffffffffffffffff\n      and\n      0xffffffffffffffffffffffffffffffffffffffff\n      and\n      dup2\n      mstore\n      0x20\n      add\n      swap1\n      dup2\n      mstore\n      0x20\n      add\n      0x00\n      keccak256\n      0x00\n      swap1\n      sload\n      swap1\n      0x0100\n      exp\n      swap1\n      div\n      0xff\n      and\n        /* \"contracts/ERC721.sol\":2307:2367  msg.sender == owner || _operatorApprovals[owner][msg.sender] */\n    tag_98:\n        /* \"contracts/ERC721.sol\":2286:2423  require(... */\n      tag_99\n      jumpi\n      mload(0x40)\n      0x08c379a000000000000000000000000000000000000000000000000000000000\n      dup2\n      mstore\n      0x04\n      add\n      tag_100\n      swap1\n      tag_101\n      jump\t// in\n    tag_100:\n      mload(0x40)\n      dup1\n      swap2\n      sub\n      swap1\n      revert\n    tag_99:\n        /* \"contracts/ERC721.sol\":2434:2462  _approve(owner, to, tokenId) */\n      tag_102\n        /* \"contracts/ERC721.sol\":2443:2448  owner */\n      dup2\n        /* \"contracts/ERC721.sol\":2450:2452  to */\n      dup5\n        /* \"contracts/ERC721.sol\":2454:2461  tokenId */\n      dup5\n        /* \"contracts/ERC721.sol\":2434:2442  _approve */\n      tag_103\n        /* \"contracts/ERC721.sol\":2434:2462  _approve(owner, to, tokenId) */\n      jump\t// in\n    tag_102:\n        /* \"contracts/ERC721.sol\":2234:2469  {... */\n      pop\n        /* \"contracts/ERC721.sol\":2173:2469  function approve(address to, uint tokenId) external override {... */\n      pop\n      pop\n      jump\t// out\n        /* \"contracts/ERC721.sol\":3203:3532  function transferFrom(... */\n    tag_44:\n        /* \"contracts/ERC721.sol\":3323:3336  address owner */\n      0x00\n        /* \"contracts/ERC721.sol\":3339:3355  ownerOf(tokenId) */\n      tag_105\n        /* \"contracts/ERC721.sol\":3347:3354  tokenId */\n      dup3\n        /* \"contracts/ERC721.sol\":3339:3346  ownerOf */\n      tag_53\n        /* \"contracts/ERC721.sol\":3339:3355  ownerOf(tokenId) */\n      jump\t// in\n    tag_105:\n        /* \"contracts/ERC721.sol\":3323:3355  address owner = ownerOf(tokenId) */\n      swap1\n      pop\n        /* \"contracts/ERC721.sol\":3386:3432  _isApprovedOrOwner(owner, msg.sender, tokenId) */\n      tag_106\n        /* \"contracts/ERC721.sol\":3405:3410  owner */\n      dup2\n        /* \"contracts/ERC721.sol\":3412:3422  msg.sender */\n      caller\n        /* \"contracts/ERC721.sol\":3424:3431  tokenId */\n      dup5\n        /* \"contracts/ERC721.sol\":3386:3404  _isApprovedOrOwner */\n      tag_107\n        /* \"contracts/ERC721.sol\":3386:3432  _isApprovedOrOwner(owner, msg.sender, tokenId) */\n      jump\t// in\n    tag_106:\n        /* \"contracts/ERC721.sol\":3365:3480  require(... */\n      tag_108\n      jumpi\n      mload(0x40)\n      0x08c379a000000000000000000000000000000000000000000000000000000000\n      dup2\n      mstore\n      0x04\n      add\n      tag_109\n      swap1\n      tag_110\n      jump\t// in\n    tag_109:\n      mload(0x40)\n      dup1\n      swap2\n      sub\n      swap1\n      revert\n    tag_108:\n        /* \"contracts/ERC721.sol\":3490:3525  _transfer(owner, from, to, tokenId) */\n      tag_111\n        /* \"contracts/ERC721.sol\":3500:3505  owner */\n      dup2\n        /* \"contracts/ERC721.sol\":3507:3511  from */\n      dup6\n        /* \"contracts/ERC721.sol\":3513:3515  to */\n      dup6\n        /* \"contracts/ERC721.sol\":3517:3524  tokenId */\n      dup6\n        /* \"contracts/ERC721.sol\":3490:3499  _transfer */\n      tag_112\n        /* \"contracts/ERC721.sol\":3490:3525  _transfer(owner, from, to, tokenId) */\n      jump\t// in\n    tag_111:\n        /* \"contracts/ERC721.sol\":3313:3532  {... */\n      pop\n        /* \"contracts/ERC721.sol\":3203:3532  function transferFrom(... */\n      pop\n      pop\n      pop\n      jump\t// out\n        /* \"contracts/034_WTFAPE.sol\":400:561  function mint(address to, uint tokenId) external {... */\n    tag_47:\n        /* \"contracts/034_WTFAPE.sol\":478:479  0 */\n      0x00\n        /* \"contracts/034_WTFAPE.sol\":467:474  tokenId */\n      dup2\n        /* \"contracts/034_WTFAPE.sol\":467:479  tokenId >= 0 */\n      lt\n      iszero\n        /* \"contracts/034_WTFAPE.sol\":467:501  tokenId >= 0 && tokenId < MAX_APES */\n      dup1\n      iszero\n      tag_114\n      jumpi\n      pop\n        /* \"contracts/034_WTFAPE.sol\":493:501  MAX_APES */\n      sload(0x06)\n        /* \"contracts/034_WTFAPE.sol\":483:490  tokenId */\n      dup2\n        /* \"contracts/034_WTFAPE.sol\":483:501  tokenId < MAX_APES */\n      lt\n        /* \"contracts/034_WTFAPE.sol\":467:501  tokenId >= 0 && tokenId < MAX_APES */\n    tag_114:\n        /* \"contracts/034_WTFAPE.sol\":459:526  require(tokenId >= 0 && tokenId < MAX_APES, \"tokenId out of range\") */\n      tag_115\n      jumpi\n      mload(0x40)\n      0x08c379a000000000000000000000000000000000000000000000000000000000\n      dup2\n      mstore\n      0x04\n      add\n      tag_116\n      swap1\n      tag_117\n      jump\t// in\n    tag_116:\n      mload(0x40)\n      dup1\n      swap2\n      sub\n      swap1\n      revert\n    tag_115:\n        /* \"contracts/034_WTFAPE.sol\":536:554  _mint(to, tokenId) */\n      tag_118\n        /* \"contracts/034_WTFAPE.sol\":542:544  to */\n      dup3\n        /* \"contracts/034_WTFAPE.sol\":546:553  tokenId */\n      dup3\n        /* \"contracts/034_WTFAPE.sol\":536:541  _mint */\n      tag_119\n        /* \"contracts/034_WTFAPE.sol\":536:554  _mint(to, tokenId) */\n      jump\t// in\n    tag_118:\n        /* \"contracts/034_WTFAPE.sol\":400:561  function mint(address to, uint tokenId) external {... */\n      pop\n      pop\n      jump\t// out\n        /* \"contracts/ERC721.sol\":4950:5120  function safeTransferFrom(... */\n    tag_50:\n        /* \"contracts/ERC721.sol\":5074:5113  safeTransferFrom(from, to, tokenId, \"\") */\n      tag_121\n        /* \"contracts/ERC721.sol\":5091:5095  from */\n      dup4\n        /* \"contracts/ERC721.sol\":5097:5099  to */\n      dup4\n        /* \"contracts/ERC721.sol\":5101:5108  tokenId */\n      dup4\n        /* \"contracts/ERC721.sol\":5074:5113  safeTransferFrom(from, to, tokenId, \"\") */\n      mload(0x40)\n      dup1\n      0x20\n      add\n      0x40\n      mstore\n      dup1\n      0x00\n      dup2\n      mstore\n      pop\n        /* \"contracts/ERC721.sol\":5074:5090  safeTransferFrom */\n      tag_71\n        /* \"contracts/ERC721.sol\":5074:5113  safeTransferFrom(from, to, tokenId, \"\") */\n      jump\t// in\n    tag_121:\n        /* \"contracts/ERC721.sol\":4950:5120  function safeTransferFrom(... */\n      pop\n      pop\n      pop\n      jump\t// out\n        /* \"contracts/ERC721.sol\":1221:1399  function ownerOf(uint tokenId) public view override returns (address owner) {... */\n    tag_53:\n        /* \"contracts/ERC721.sol\":1282:1295  address owner */\n      0x00\n        /* \"contracts/ERC721.sol\":1315:1322  _owners */\n      0x02\n        /* \"contracts/ERC721.sol\":1315:1331  _owners[tokenId] */\n      0x00\n        /* \"contracts/ERC721.sol\":1323:1330  tokenId */\n      dup4\n        /* \"contracts/ERC721.sol\":1315:1331  _owners[tokenId] */\n      dup2\n      mstore\n      0x20\n      add\n      swap1\n      dup2\n      mstore\n      0x20\n      add\n      0x00\n      keccak256\n      0x00\n      swap1\n      sload\n      swap1\n      0x0100\n      exp\n      swap1\n      div\n      0xffffffffffffffffffffffffffffffffffffffff\n      and\n        /* \"contracts/ERC721.sol\":1307:1331  owner = _owners[tokenId] */\n      swap1\n      pop\n        /* \"contracts/ERC721.sol\":1366:1367  0 */\n      0x00\n        /* \"contracts/ERC721.sol\":1349:1368  owner != address(0) */\n      0xffffffffffffffffffffffffffffffffffffffff\n      and\n        /* \"contracts/ERC721.sol\":1349:1354  owner */\n      dup2\n        /* \"contracts/ERC721.sol\":1349:1368  owner != address(0) */\n      0xffffffffffffffffffffffffffffffffffffffff\n      and\n      sub\n        /* \"contracts/ERC721.sol\":1341:1392  require(owner != address(0), \"token doesn't exist\") */\n      tag_123\n      jumpi\n      mload(0x40)\n      0x08c379a000000000000000000000000000000000000000000000000000000000\n      dup2\n      mstore\n      0x04\n      add\n      tag_124\n      swap1\n      tag_96\n      jump\t// in\n    tag_124:\n      mload(0x40)\n      dup1\n      swap2\n      sub\n      swap1\n      revert\n    tag_123:\n        /* \"contracts/ERC721.sol\":1221:1399  function ownerOf(uint tokenId) public view override returns (address owner) {... */\n      swap2\n      swap1\n      pop\n      jump\t// out\n        /* \"contracts/ERC721.sol\":1041:1215  function balanceOf(address owner) external view override returns (uint) {... */\n    tag_58:\n        /* \"contracts/ERC721.sol\":1107:1111  uint */\n      0x00\n        /* \"contracts/ERC721.sol\":1148:1149  0 */\n      0x00\n        /* \"contracts/ERC721.sol\":1131:1150  owner != address(0) */\n      0xffffffffffffffffffffffffffffffffffffffff\n      and\n        /* \"contracts/ERC721.sol\":1131:1136  owner */\n      dup3\n        /* \"contracts/ERC721.sol\":1131:1150  owner != address(0) */\n      0xffffffffffffffffffffffffffffffffffffffff\n      and\n      sub\n        /* \"contracts/ERC721.sol\":1123:1175  require(owner != address(0), \"owner = zero address\") */\n      tag_126\n      jumpi\n      mload(0x40)\n      0x08c379a000000000000000000000000000000000000000000000000000000000\n      dup2\n      mstore\n      0x04\n      add\n      tag_127\n      swap1\n      tag_128\n      jump\t// in\n    tag_127:\n      mload(0x40)\n      dup1\n      swap2\n      sub\n      swap1\n      revert\n    tag_126:\n        /* \"contracts/ERC721.sol\":1192:1201  _balances */\n      0x03\n        /* \"contracts/ERC721.sol\":1192:1208  _balances[owner] */\n      0x00\n        /* \"contracts/ERC721.sol\":1202:1207  owner */\n      dup4\n        /* \"contracts/ERC721.sol\":1192:1208  _balances[owner] */\n      0xffffffffffffffffffffffffffffffffffffffff\n      and\n      0xffffffffffffffffffffffffffffffffffffffff\n      and\n      dup2\n      mstore\n      0x20\n      add\n      swap1\n      dup2\n      mstore\n      0x20\n      add\n      0x00\n      keccak256\n      sload\n        /* \"contracts/ERC721.sol\":1185:1208  return _balances[owner] */\n      swap1\n      pop\n        /* \"contracts/ERC721.sol\":1041:1215  function balanceOf(address owner) external view override returns (uint) {... */\n      swap2\n      swap1\n      pop\n      jump\t// out\n        /* \"contracts/ERC721.sol\":289:318  string public override symbol */\n    tag_62:\n      0x01\n      dup1\n      sload\n      tag_129\n      swap1\n      tag_88\n      jump\t// in\n    tag_129:\n      dup1\n      0x1f\n      add\n      0x20\n      dup1\n      swap2\n      div\n      mul\n      0x20\n      add\n      mload(0x40)\n      swap1\n      dup2\n      add\n      0x40\n      mstore\n      dup1\n      swap3\n      swap2\n      swap1\n      dup2\n      dup2\n      mstore\n      0x20\n      add\n      dup3\n      dup1\n      sload\n      tag_130\n      swap1\n      tag_88\n      jump\t// in\n    tag_130:\n      dup1\n      iszero\n      tag_131\n      jumpi\n      dup1\n      0x1f\n      lt\n      tag_132\n      jumpi\n      0x0100\n      dup1\n      dup4\n      sload\n      div\n      mul\n      dup4\n      mstore\n      swap2\n      0x20\n      add\n      swap2\n      jump(tag_131)\n    tag_132:\n      dup3\n      add\n      swap2\n      swap1\n      0x00\n      mstore\n      keccak256(0x00, 0x20)\n      swap1\n    tag_133:\n      dup2\n      sload\n      dup2\n      mstore\n      swap1\n      0x01\n      add\n      swap1\n      0x20\n      add\n      dup1\n      dup4\n      gt\n      tag_133\n      jumpi\n      dup3\n      swap1\n      sub\n      0x1f\n      and\n      dup3\n      add\n      swap2\n    tag_131:\n      pop\n      pop\n      pop\n      pop\n      pop\n      dup2\n      jump\t// out\n        /* \"contracts/ERC721.sol\":1566:1773  function setApprovalForAll(address operator, bool approved) external override {... */\n    tag_67:\n        /* \"contracts/ERC721.sol\":1697:1705  approved */\n      dup1\n        /* \"contracts/ERC721.sol\":1654:1672  _operatorApprovals */\n      0x05\n        /* \"contracts/ERC721.sol\":1654:1684  _operatorApprovals[msg.sender] */\n      0x00\n        /* \"contracts/ERC721.sol\":1673:1683  msg.sender */\n      caller\n        /* \"contracts/ERC721.sol\":1654:1684  _operatorApprovals[msg.sender] */\n      0xffffffffffffffffffffffffffffffffffffffff\n      and\n      0xffffffffffffffffffffffffffffffffffffffff\n      and\n      dup2\n      mstore\n      0x20\n      add\n      swap1\n      dup2\n      mstore\n      0x20\n      add\n      0x00\n      keccak256\n        /* \"contracts/ERC721.sol\":1654:1694  _operatorApprovals[msg.sender][operator] */\n      0x00\n        /* \"contracts/ERC721.sol\":1685:1693  operator */\n      dup5\n        /* \"contracts/ERC721.sol\":1654:1694  _operatorApprovals[msg.sender][operator] */\n      0xffffffffffffffffffffffffffffffffffffffff\n      and\n      0xffffffffffffffffffffffffffffffffffffffff\n      and\n      dup2\n      mstore\n      0x20\n      add\n      swap1\n      dup2\n      mstore\n      0x20\n      add\n      0x00\n      keccak256\n      0x00\n        /* \"contracts/ERC721.sol\":1654:1705  _operatorApprovals[msg.sender][operator] = approved */\n      0x0100\n      exp\n      dup2\n      sload\n      dup2\n      0xff\n      mul\n      not\n      and\n      swap1\n      dup4\n      iszero\n      iszero\n      mul\n      or\n      swap1\n      sstore\n      pop\n        /* \"contracts/ERC721.sol\":1747:1755  operator */\n      dup2\n        /* \"contracts/ERC721.sol\":1720:1766  ApprovalForAll(msg.sender, operator, approved) */\n      0xffffffffffffffffffffffffffffffffffffffff\n      and\n        /* \"contracts/ERC721.sol\":1735:1745  msg.sender */\n      caller\n        /* \"contracts/ERC721.sol\":1720:1766  ApprovalForAll(msg.sender, operator, approved) */\n      0xffffffffffffffffffffffffffffffffffffffff\n      and\n      0x17307eab39ab6107e8899845ad3d59bd9653f200f220920489ca2b5937696c31\n        /* \"contracts/ERC721.sol\":1757:1765  approved */\n      dup4\n        /* \"contracts/ERC721.sol\":1720:1766  ApprovalForAll(msg.sender, operator, approved) */\n      mload(0x40)\n      tag_135\n      swap2\n      swap1\n      tag_26\n      jump\t// in\n    tag_135:\n      mload(0x40)\n      dup1\n      swap2\n      sub\n      swap1\n      log3\n        /* \"contracts/ERC721.sol\":1566:1773  function setApprovalForAll(address operator, bool approved) external override {... */\n      pop\n      pop\n      jump\t// out\n        /* \"contracts/ERC721.sol\":4574:4944  function safeTransferFrom(... */\n    tag_71:\n        /* \"contracts/ERC721.sol\":4724:4737  address owner */\n      0x00\n        /* \"contracts/ERC721.sol\":4740:4756  ownerOf(tokenId) */\n      tag_137\n        /* \"contracts/ERC721.sol\":4748:4755  tokenId */\n      dup4\n        /* \"contracts/ERC721.sol\":4740:4747  ownerOf */\n      tag_53\n        /* \"contracts/ERC721.sol\":4740:4756  ownerOf(tokenId) */\n      jump\t// in\n    tag_137:\n        /* \"contracts/ERC721.sol\":4724:4756  address owner = ownerOf(tokenId) */\n      swap1\n      pop\n        /* \"contracts/ERC721.sol\":4787:4833  _isApprovedOrOwner(owner, msg.sender, tokenId) */\n      tag_138\n        /* \"contracts/ERC721.sol\":4806:4811  owner */\n      dup2\n        /* \"contracts/ERC721.sol\":4813:4823  msg.sender */\n      caller\n        /* \"contracts/ERC721.sol\":4825:4832  tokenId */\n      dup6\n        /* \"contracts/ERC721.sol\":4787:4805  _isApprovedOrOwner */\n      tag_107\n        /* \"contracts/ERC721.sol\":4787:4833  _isApprovedOrOwner(owner, msg.sender, tokenId) */\n      jump\t// in\n    tag_138:\n        /* \"contracts/ERC721.sol\":4766:4881  require(... */\n      tag_139\n      jumpi\n      mload(0x40)\n      0x08c379a000000000000000000000000000000000000000000000000000000000\n      dup2\n      mstore\n      0x04\n      add\n      tag_140\n      swap1\n      tag_110\n      jump\t// in\n    tag_140:\n      mload(0x40)\n      dup1\n      swap2\n      sub\n      swap1\n      revert\n    tag_139:\n        /* \"contracts/ERC721.sol\":4891:4937  _safeTransfer(owner, from, to, tokenId, _data) */\n      tag_141\n        /* \"contracts/ERC721.sol\":4905:4910  owner */\n      dup2\n        /* \"contracts/ERC721.sol\":4912:4916  from */\n      dup7\n        /* \"contracts/ERC721.sol\":4918:4920  to */\n      dup7\n        /* \"contracts/ERC721.sol\":4922:4929  tokenId */\n      dup7\n        /* \"contracts/ERC721.sol\":4931:4936  _data */\n      dup7\n        /* \"contracts/ERC721.sol\":4891:4904  _safeTransfer */\n      tag_142\n        /* \"contracts/ERC721.sol\":4891:4937  _safeTransfer(owner, from, to, tokenId, _data) */\n      jump\t// in\n    tag_141:\n        /* \"contracts/ERC721.sol\":4714:4944  {... */\n      pop\n        /* \"contracts/ERC721.sol\":4574:4944  function safeTransferFrom(... */\n      pop\n      pop\n      pop\n      pop\n      jump\t// out\n        /* \"contracts/034_WTFAPE.sol\":126:153  uint public MAX_APES = 1000 */\n    tag_73:\n      sload(0x06)\n      dup2\n      jump\t// out\n        /* \"contracts/ERC721.sol\":5763:6081  function tokenURI(uint256 tokenId) public view virtual override returns (string memory) {... */\n    tag_77:\n        /* \"contracts/ERC721.sol\":5836:5849  string memory */\n      0x60\n        /* \"contracts/ERC721.sol\":5897:5898  0 */\n      0x00\n        /* \"contracts/ERC721.sol\":5869:5899  _owners[tokenId] != address(0) */\n      0xffffffffffffffffffffffffffffffffffffffff\n      and\n        /* \"contracts/ERC721.sol\":5869:5876  _owners */\n      0x02\n        /* \"contracts/ERC721.sol\":5869:5885  _owners[tokenId] */\n      0x00\n        /* \"contracts/ERC721.sol\":5877:5884  tokenId */\n      dup5\n        /* \"contracts/ERC721.sol\":5869:5885  _owners[tokenId] */\n      dup2\n      mstore\n      0x20\n      add\n      swap1\n      dup2\n      mstore\n      0x20\n      add\n      0x00\n      keccak256\n      0x00\n      swap1\n      sload\n      swap1\n      0x0100\n      exp\n      swap1\n      div\n      0xffffffffffffffffffffffffffffffffffffffff\n      and\n        /* \"contracts/ERC721.sol\":5869:5899  _owners[tokenId] != address(0) */\n      0xffffffffffffffffffffffffffffffffffffffff\n      and\n      sub\n        /* \"contracts/ERC721.sol\":5861:5919  require(_owners[tokenId] != address(0), \"Token Not Exist\") */\n      tag_144\n      jumpi\n      mload(0x40)\n      0x08c379a000000000000000000000000000000000000000000000000000000000\n      dup2\n      mstore\n      0x04\n      add\n      tag_145\n      swap1\n      tag_146\n      jump\t// in\n    tag_145:\n      mload(0x40)\n      dup1\n      swap2\n      sub\n      swap1\n      revert\n    tag_144:\n        /* \"contracts/ERC721.sol\":5930:5951  string memory baseURI */\n      0x00\n        /* \"contracts/ERC721.sol\":5954:5964  _baseURI() */\n      tag_147\n        /* \"contracts/ERC721.sol\":5954:5962  _baseURI */\n      tag_148\n        /* \"contracts/ERC721.sol\":5954:5964  _baseURI() */\n      jump\t// in\n    tag_147:\n        /* \"contracts/ERC721.sol\":5930:5964  string memory baseURI = _baseURI() */\n      swap1\n      pop\n        /* \"contracts/ERC721.sol\":6005:6006  0 */\n      0x00\n        /* \"contracts/ERC721.sol\":5987:5994  baseURI */\n      dup2\n        /* \"contracts/ERC721.sol\":5981:6002  bytes(baseURI).length */\n      mload\n        /* \"contracts/ERC721.sol\":5981:6006  bytes(baseURI).length > 0 */\n      gt\n        /* \"contracts/ERC721.sol\":5981:6074  bytes(baseURI).length > 0 ? string(abi.encodePacked(baseURI, Strings.toString(tokenId))) : \"\" */\n      tag_149\n      jumpi\n      mload(0x40)\n      dup1\n      0x20\n      add\n      0x40\n      mstore\n      dup1\n      0x00\n      dup2\n      mstore\n      pop\n      jump(tag_150)\n    tag_149:\n        /* \"contracts/ERC721.sol\":6033:6040  baseURI */\n      dup1\n        /* \"contracts/ERC721.sol\":6042:6067  Strings.toString(tokenId) */\n      tag_151\n        /* \"contracts/ERC721.sol\":6059:6066  tokenId */\n      dup5\n        /* \"contracts/ERC721.sol\":6042:6058  Strings.toString */\n      tag_152\n        /* \"contracts/ERC721.sol\":6042:6067  Strings.toString(tokenId) */\n      jump\t// in\n    tag_151:\n        /* \"contracts/ERC721.sol\":6016:6068  abi.encodePacked(baseURI, Strings.toString(tokenId)) */\n      add(0x20, mload(0x40))\n      tag_153\n      swap3\n      swap2\n      swap1\n      tag_154\n      jump\t// in\n    tag_153:\n      mload(0x40)\n      0x20\n      dup2\n      dup4\n      sub\n      sub\n      dup2\n      mstore\n      swap1\n      0x40\n      mstore\n        /* \"contracts/ERC721.sol\":5981:6074  bytes(baseURI).length > 0 ? string(abi.encodePacked(baseURI, Strings.toString(tokenId))) : \"\" */\n    tag_150:\n        /* \"contracts/ERC721.sol\":5974:6074  return bytes(baseURI).length > 0 ? string(abi.encodePacked(baseURI, Strings.toString(tokenId))) : \"\" */\n      swap2\n      pop\n      pop\n        /* \"contracts/ERC721.sol\":5763:6081  function tokenURI(uint256 tokenId) public view virtual override returns (string memory) {... */\n      swap2\n      swap1\n      pop\n      jump\t// out\n        /* \"contracts/ERC721.sol\":1405:1560  function isApprovedForAll(address owner, address operator) external view override returns(bool) {... */\n    tag_82:\n        /* \"contracts/ERC721.sol\":1495:1499  bool */\n      0x00\n        /* \"contracts/ERC721.sol\":1518:1536  _operatorApprovals */\n      0x05\n        /* \"contracts/ERC721.sol\":1518:1543  _operatorApprovals[owner] */\n      0x00\n        /* \"contracts/ERC721.sol\":1537:1542  owner */\n      dup5\n        /* \"contracts/ERC721.sol\":1518:1543  _operatorApprovals[owner] */\n      0xffffffffffffffffffffffffffffffffffffffff\n      and\n      0xffffffffffffffffffffffffffffffffffffffff\n      and\n      dup2\n      mstore\n      0x20\n      add\n      swap1\n      dup2\n      mstore\n      0x20\n      add\n      0x00\n      keccak256\n        /* \"contracts/ERC721.sol\":1518:1553  _operatorApprovals[owner][operator] */\n      0x00\n        /* \"contracts/ERC721.sol\":1544:1552  operator */\n      dup4\n        /* \"contracts/ERC721.sol\":1518:1553  _operatorApprovals[owner][operator] */\n      0xffffffffffffffffffffffffffffffffffffffff\n      and\n      0xffffffffffffffffffffffffffffffffffffffff\n      and\n      dup2\n      mstore\n      0x20\n      add\n      swap1\n      dup2\n      mstore\n      0x20\n      add\n      0x00\n      keccak256\n      0x00\n      swap1\n      sload\n      swap1\n      0x0100\n      exp\n      swap1\n      div\n      0xff\n      and\n        /* \"contracts/ERC721.sol\":1511:1553  return _operatorApprovals[owner][operator] */\n      swap1\n      pop\n        /* \"contracts/ERC721.sol\":1405:1560  function isApprovedForAll(address owner, address operator) external view override returns(bool) {... */\n      swap3\n      swap2\n      pop\n      pop\n      jump\t// out\n        /* \"contracts/ERC721.sol\":1981:2167  function _approve(... */\n    tag_103:\n        /* \"contracts/ERC721.sol\":2115:2117  to */\n      dup2\n        /* \"contracts/ERC721.sol\":2088:2103  _tokenApprovals */\n      0x04\n        /* \"contracts/ERC721.sol\":2088:2112  _tokenApprovals[tokenId] */\n      0x00\n        /* \"contracts/ERC721.sol\":2104:2111  tokenId */\n      dup4\n        /* \"contracts/ERC721.sol\":2088:2112  _tokenApprovals[tokenId] */\n      dup2\n      mstore\n      0x20\n      add\n      swap1\n      dup2\n      mstore\n      0x20\n      add\n      0x00\n      keccak256\n      0x00\n        /* \"contracts/ERC721.sol\":2088:2117  _tokenApprovals[tokenId] = to */\n      0x0100\n      exp\n      dup2\n      sload\n      dup2\n      0xffffffffffffffffffffffffffffffffffffffff\n      mul\n      not\n      and\n      swap1\n      dup4\n      0xffffffffffffffffffffffffffffffffffffffff\n      and\n      mul\n      or\n      swap1\n      sstore\n      pop\n        /* \"contracts/ERC721.sol\":2152:2159  tokenId */\n      dup1\n        /* \"contracts/ERC721.sol\":2148:2150  to */\n      dup3\n        /* \"contracts/ERC721.sol\":2132:2160  Approval(owner, to, tokenId) */\n      0xffffffffffffffffffffffffffffffffffffffff\n      and\n        /* \"contracts/ERC721.sol\":2141:2146  owner */\n      dup5\n        /* \"contracts/ERC721.sol\":2132:2160  Approval(owner, to, tokenId) */\n      0xffffffffffffffffffffffffffffffffffffffff\n      and\n      0x8c5be1e5ebec7d5bd14f71427d1e84f3dd0314c0f7b2291e5b200ac8c7c3b925\n      mload(0x40)\n      mload(0x40)\n      dup1\n      swap2\n      sub\n      swap1\n      log4\n        /* \"contracts/ERC721.sol\":1981:2167  function _approve(... */\n      pop\n      pop\n      pop\n      jump\t// out\n        /* \"contracts/ERC721.sol\":2475:2772  function _isApprovedOrOwner(... */\n    tag_107:\n        /* \"contracts/ERC721.sol\":2601:2605  bool */\n      0x00\n        /* \"contracts/ERC721.sol\":2649:2654  owner */\n      dup4\n        /* \"contracts/ERC721.sol\":2638:2654  spender == owner */\n      0xffffffffffffffffffffffffffffffffffffffff\n      and\n        /* \"contracts/ERC721.sol\":2638:2645  spender */\n      dup4\n        /* \"contracts/ERC721.sol\":2638:2654  spender == owner */\n      0xffffffffffffffffffffffffffffffffffffffff\n      and\n      eq\n        /* \"contracts/ERC721.sol\":2638:2705  spender == owner ||... */\n      dup1\n      tag_158\n      jumpi\n      pop\n        /* \"contracts/ERC721.sol\":2698:2705  spender */\n      dup3\n        /* \"contracts/ERC721.sol\":2670:2705  _tokenApprovals[tokenId] == spender */\n      0xffffffffffffffffffffffffffffffffffffffff\n      and\n        /* \"contracts/ERC721.sol\":2670:2685  _tokenApprovals */\n      0x04\n        /* \"contracts/ERC721.sol\":2670:2694  _tokenApprovals[tokenId] */\n      0x00\n        /* \"contracts/ERC721.sol\":2686:2693  tokenId */\n      dup5\n        /* \"contracts/ERC721.sol\":2670:2694  _tokenApprovals[tokenId] */\n      dup2\n      mstore\n      0x20\n      add\n      swap1\n      dup2\n      mstore\n      0x20\n      add\n      0x00\n      keccak256\n      0x00\n      swap1\n      sload\n      swap1\n      0x0100\n      exp\n      swap1\n      div\n      0xffffffffffffffffffffffffffffffffffffffff\n      and\n        /* \"contracts/ERC721.sol\":2670:2705  _tokenApprovals[tokenId] == spender */\n      0xffffffffffffffffffffffffffffffffffffffff\n      and\n      eq\n        /* \"contracts/ERC721.sol\":2638:2705  spender == owner ||... */\n    tag_158:\n        /* \"contracts/ERC721.sol\":2638:2755  spender == owner ||... */\n      dup1\n      tag_159\n      jumpi\n      pop\n        /* \"contracts/ERC721.sol\":2721:2739  _operatorApprovals */\n      0x05\n        /* \"contracts/ERC721.sol\":2721:2746  _operatorApprovals[owner] */\n      0x00\n        /* \"contracts/ERC721.sol\":2740:2745  owner */\n      dup6\n        /* \"contracts/ERC721.sol\":2721:2746  _operatorApprovals[owner] */\n      0xffffffffffffffffffffffffffffffffffffffff\n      and\n      0xffffffffffffffffffffffffffffffffffffffff\n      and\n      dup2\n      mstore\n      0x20\n      add\n      swap1\n      dup2\n      mstore\n      0x20\n      add\n      0x00\n      keccak256\n        /* \"contracts/ERC721.sol\":2721:2755  _operatorApprovals[owner][spender] */\n      0x00\n        /* \"contracts/ERC721.sol\":2747:2754  spender */\n      dup5\n        /* \"contracts/ERC721.sol\":2721:2755  _operatorApprovals[owner][spender] */\n      0xffffffffffffffffffffffffffffffffffffffff\n      and\n      0xffffffffffffffffffffffffffffffffffffffff\n      and\n      dup2\n      mstore\n      0x20\n      add\n      swap1\n      dup2\n      mstore\n      0x20\n      add\n      0x00\n      keccak256\n      0x00\n      swap1\n      sload\n      swap1\n      0x0100\n      exp\n      swap1\n      div\n      0xff\n      and\n        /* \"contracts/ERC721.sol\":2638:2755  spender == owner ||... */\n    tag_159:\n        /* \"contracts/ERC721.sol\":2617:2765  return (... */\n      swap1\n      pop\n        /* \"contracts/ERC721.sol\":2475:2772  function _isApprovedOrOwner(... */\n      swap4\n      swap3\n      pop\n      pop\n      pop\n      jump\t// out\n        /* \"contracts/ERC721.sol\":2778:3197  function _transfer(... */\n    tag_112:\n        /* \"contracts/ERC721.sol\":2924:2929  owner */\n      dup4\n        /* \"contracts/ERC721.sol\":2916:2929  from == owner */\n      0xffffffffffffffffffffffffffffffffffffffff\n      and\n        /* \"contracts/ERC721.sol\":2916:2920  from */\n      dup4\n        /* \"contracts/ERC721.sol\":2916:2929  from == owner */\n      0xffffffffffffffffffffffffffffffffffffffff\n      and\n      eq\n        /* \"contracts/ERC721.sol\":2908:2943  require(from == owner, \"not owner\") */\n      tag_161\n      jumpi\n      mload(0x40)\n      0x08c379a000000000000000000000000000000000000000000000000000000000\n      dup2\n      mstore\n      0x04\n      add\n      tag_162\n      swap1\n      tag_163\n      jump\t// in\n    tag_162:\n      mload(0x40)\n      dup1\n      swap2\n      sub\n      swap1\n      revert\n    tag_161:\n        /* \"contracts/ERC721.sol\":2975:2976  0 */\n      0x00\n        /* \"contracts/ERC721.sol\":2961:2977  to != address(0) */\n      0xffffffffffffffffffffffffffffffffffffffff\n      and\n        /* \"contracts/ERC721.sol\":2961:2963  to */\n      dup3\n        /* \"contracts/ERC721.sol\":2961:2977  to != address(0) */\n      0xffffffffffffffffffffffffffffffffffffffff\n      and\n      sub\n        /* \"contracts/ERC721.sol\":2953:3010  require(to != address(0), \"transfer to the zero address\") */\n      tag_164\n      jumpi\n      mload(0x40)\n      0x08c379a000000000000000000000000000000000000000000000000000000000\n      dup2\n      mstore\n      0x04\n      add\n      tag_165\n      swap1\n      tag_166\n      jump\t// in\n    tag_165:\n      mload(0x40)\n      dup1\n      swap2\n      sub\n      swap1\n      revert\n    tag_164:\n        /* \"contracts/ERC721.sol\":3021:3057  _approve(owner, address(0), tokenId) */\n      tag_167\n        /* \"contracts/ERC721.sol\":3030:3035  owner */\n      dup5\n        /* \"contracts/ERC721.sol\":3045:3046  0 */\n      0x00\n        /* \"contracts/ERC721.sol\":3049:3056  tokenId */\n      dup4\n        /* \"contracts/ERC721.sol\":3021:3029  _approve */\n      tag_103\n        /* \"contracts/ERC721.sol\":3021:3057  _approve(owner, address(0), tokenId) */\n      jump\t// in\n    tag_167:\n        /* \"contracts/ERC721.sol\":3087:3088  1 */\n      0x01\n        /* \"contracts/ERC721.sol\":3068:3077  _balances */\n      0x03\n        /* \"contracts/ERC721.sol\":3068:3083  _balances[from] */\n      0x00\n        /* \"contracts/ERC721.sol\":3078:3082  from */\n      dup6\n        /* \"contracts/ERC721.sol\":3068:3083  _balances[from] */\n      0xffffffffffffffffffffffffffffffffffffffff\n      and\n      0xffffffffffffffffffffffffffffffffffffffff\n      and\n      dup2\n      mstore\n      0x20\n      add\n      swap1\n      dup2\n      mstore\n      0x20\n      add\n      0x00\n      keccak256\n      0x00\n        /* \"contracts/ERC721.sol\":3068:3088  _balances[from] -= 1 */\n      dup3\n      dup3\n      sload\n      tag_168\n      swap2\n      swap1\n      tag_169\n      jump\t// in\n    tag_168:\n      swap3\n      pop\n      pop\n      dup2\n      swap1\n      sstore\n      pop\n        /* \"contracts/ERC721.sol\":3115:3116  1 */\n      0x01\n        /* \"contracts/ERC721.sol\":3098:3107  _balances */\n      0x03\n        /* \"contracts/ERC721.sol\":3098:3111  _balances[to] */\n      0x00\n        /* \"contracts/ERC721.sol\":3108:3110  to */\n      dup5\n        /* \"contracts/ERC721.sol\":3098:3111  _balances[to] */\n      0xffffffffffffffffffffffffffffffffffffffff\n      and\n      0xffffffffffffffffffffffffffffffffffffffff\n      and\n      dup2\n      mstore\n      0x20\n      add\n      swap1\n      dup2\n      mstore\n      0x20\n      add\n      0x00\n      keccak256\n      0x00\n        /* \"contracts/ERC721.sol\":3098:3116  _balances[to] += 1 */\n      dup3\n      dup3\n      sload\n      tag_170\n      swap2\n      swap1\n      tag_171\n      jump\t// in\n    tag_170:\n      swap3\n      pop\n      pop\n      dup2\n      swap1\n      sstore\n      pop\n        /* \"contracts/ERC721.sol\":3145:3147  to */\n      dup2\n        /* \"contracts/ERC721.sol\":3126:3133  _owners */\n      0x02\n        /* \"contracts/ERC721.sol\":3126:3142  _owners[tokenId] */\n      0x00\n        /* \"contracts/ERC721.sol\":3134:3141  tokenId */\n      dup4\n        /* \"contracts/ERC721.sol\":3126:3142  _owners[tokenId] */\n      dup2\n      mstore\n      0x20\n      add\n      swap1\n      dup2\n      mstore\n      0x20\n      add\n      0x00\n      keccak256\n      0x00\n        /* \"contracts/ERC721.sol\":3126:3147  _owners[tokenId] = to */\n      0x0100\n      exp\n      dup2\n      sload\n      dup2\n      0xffffffffffffffffffffffffffffffffffffffff\n      mul\n      not\n      and\n      swap1\n      dup4\n      0xffffffffffffffffffffffffffffffffffffffff\n      and\n      mul\n      or\n      swap1\n      sstore\n      pop\n        /* \"contracts/ERC721.sol\":3182:3189  tokenId */\n      dup1\n        /* \"contracts/ERC721.sol\":3178:3180  to */\n      dup3\n        /* \"contracts/ERC721.sol\":3163:3190  Transfer(from, to, tokenId) */\n      0xffffffffffffffffffffffffffffffffffffffff\n      and\n        /* \"contracts/ERC721.sol\":3172:3176  from */\n      dup5\n        /* \"contracts/ERC721.sol\":3163:3190  Transfer(from, to, tokenId) */\n      0xffffffffffffffffffffffffffffffffffffffff\n      and\n      0xddf252ad1be2c89b69c2b068fc378daa952ba7f163c4a11628f55a4df523b3ef\n      mload(0x40)\n      mload(0x40)\n      dup1\n      swap2\n      sub\n      swap1\n      log4\n        /* \"contracts/ERC721.sol\":2778:3197  function _transfer(... */\n      pop\n      pop\n      pop\n      pop\n      jump\t// out\n        /* \"contracts/ERC721.sol\":5126:5432  function _mint(address to, uint tokenId) internal virtual {... */\n    tag_119:\n        /* \"contracts/ERC721.sol\":5216:5217  0 */\n      0x00\n        /* \"contracts/ERC721.sol\":5202:5218  to != address(0) */\n      0xffffffffffffffffffffffffffffffffffffffff\n      and\n        /* \"contracts/ERC721.sol\":5202:5204  to */\n      dup3\n        /* \"contracts/ERC721.sol\":5202:5218  to != address(0) */\n      0xffffffffffffffffffffffffffffffffffffffff\n      and\n      sub\n        /* \"contracts/ERC721.sol\":5194:5243  require(to != address(0), \"mint to zero address\") */\n      tag_173\n      jumpi\n      mload(0x40)\n      0x08c379a000000000000000000000000000000000000000000000000000000000\n      dup2\n      mstore\n      0x04\n      add\n      tag_174\n      swap1\n      tag_175\n      jump\t// in\n    tag_174:\n      mload(0x40)\n      dup1\n      swap2\n      sub\n      swap1\n      revert\n    tag_173:\n        /* \"contracts/ERC721.sol\":5289:5290  0 */\n      0x00\n        /* \"contracts/ERC721.sol\":5261:5291  _owners[tokenId] == address(0) */\n      0xffffffffffffffffffffffffffffffffffffffff\n      and\n        /* \"contracts/ERC721.sol\":5261:5268  _owners */\n      0x02\n        /* \"contracts/ERC721.sol\":5261:5277  _owners[tokenId] */\n      0x00\n        /* \"contracts/ERC721.sol\":5269:5276  tokenId */\n      dup4\n        /* \"contracts/ERC721.sol\":5261:5277  _owners[tokenId] */\n      dup2\n      mstore\n      0x20\n      add\n      swap1\n      dup2\n      mstore\n      0x20\n      add\n      0x00\n      keccak256\n      0x00\n      swap1\n      sload\n      swap1\n      0x0100\n      exp\n      swap1\n      div\n      0xffffffffffffffffffffffffffffffffffffffff\n      and\n        /* \"contracts/ERC721.sol\":5261:5291  _owners[tokenId] == address(0) */\n      0xffffffffffffffffffffffffffffffffffffffff\n      and\n      eq\n        /* \"contracts/ERC721.sol\":5253:5316  require(_owners[tokenId] == address(0), \"token already minted\") */\n      tag_176\n      jumpi\n      mload(0x40)\n      0x08c379a000000000000000000000000000000000000000000000000000000000\n      dup2\n      mstore\n      0x04\n      add\n      tag_177\n      swap1\n      tag_178\n      jump\t// in\n    tag_177:\n      mload(0x40)\n      dup1\n      swap2\n      sub\n      swap1\n      revert\n    tag_176:\n        /* \"contracts/ERC721.sol\":5344:5345  1 */\n      0x01\n        /* \"contracts/ERC721.sol\":5327:5336  _balances */\n      0x03\n        /* \"contracts/ERC721.sol\":5327:5340  _balances[to] */\n      0x00\n        /* \"contracts/ERC721.sol\":5337:5339  to */\n      dup5\n        /* \"contracts/ERC721.sol\":5327:5340  _balances[to] */\n      0xffffffffffffffffffffffffffffffffffffffff\n      and\n      0xffffffffffffffffffffffffffffffffffffffff\n      and\n      dup2\n      mstore\n      0x20\n      add\n      swap1\n      dup2\n      mstore\n      0x20\n      add\n      0x00\n      keccak256\n      0x00\n        /* \"contracts/ERC721.sol\":5327:5345  _balances[to] += 1 */\n      dup3\n      dup3\n      sload\n      tag_179\n      swap2\n      swap1\n      tag_171\n      jump\t// in\n    tag_179:\n      swap3\n      pop\n      pop\n      dup2\n      swap1\n      sstore\n      pop\n        /* \"contracts/ERC721.sol\":5374:5376  to */\n      dup2\n        /* \"contracts/ERC721.sol\":5355:5362  _owners */\n      0x02\n        /* \"contracts/ERC721.sol\":5355:5371  _owners[tokenId] */\n      0x00\n        /* \"contracts/ERC721.sol\":5363:5370  tokenId */\n      dup4\n        /* \"contracts/ERC721.sol\":5355:5371  _owners[tokenId] */\n      dup2\n      mstore\n      0x20\n      add\n      swap1\n      dup2\n      mstore\n      0x20\n      add\n      0x00\n      keccak256\n      0x00\n        /* \"contracts/ERC721.sol\":5355:5376  _owners[tokenId] = to */\n      0x0100\n      exp\n      dup2\n      sload\n      dup2\n      0xffffffffffffffffffffffffffffffffffffffff\n      mul\n      not\n      and\n      swap1\n      dup4\n      0xffffffffffffffffffffffffffffffffffffffff\n      and\n      mul\n      or\n      swap1\n      sstore\n      pop\n        /* \"contracts/ERC721.sol\":5417:5424  tokenId */\n      dup1\n        /* \"contracts/ERC721.sol\":5413:5415  to */\n      dup3\n        /* \"contracts/ERC721.sol\":5392:5425  Transfer(address(0), to, tokenId) */\n      0xffffffffffffffffffffffffffffffffffffffff\n      and\n        /* \"contracts/ERC721.sol\":5409:5410  0 */\n      0x00\n        /* \"contracts/ERC721.sol\":5392:5425  Transfer(address(0), to, tokenId) */\n      0xffffffffffffffffffffffffffffffffffffffff\n      and\n      0xddf252ad1be2c89b69c2b068fc378daa952ba7f163c4a11628f55a4df523b3ef\n      mload(0x40)\n      mload(0x40)\n      dup1\n      swap2\n      sub\n      swap1\n      log4\n        /* \"contracts/ERC721.sol\":5126:5432  function _mint(address to, uint tokenId) internal virtual {... */\n      pop\n      pop\n      jump\t// out\n        /* \"contracts/ERC721.sol\":4306:4568  function _safeTransfer(... */\n    tag_142:\n        /* \"contracts/ERC721.sol\":4468:4503  _transfer(owner, from, to, tokenId) */\n      tag_181\n        /* \"contracts/ERC721.sol\":4478:4483  owner */\n      dup6\n        /* \"contracts/ERC721.sol\":4485:4489  from */\n      dup6\n        /* \"contracts/ERC721.sol\":4491:4493  to */\n      dup6\n        /* \"contracts/ERC721.sol\":4495:4502  tokenId */\n      dup6\n        /* \"contracts/ERC721.sol\":4468:4477  _transfer */\n      tag_112\n        /* \"contracts/ERC721.sol\":4468:4503  _transfer(owner, from, to, tokenId) */\n      jump\t// in\n    tag_181:\n        /* \"contracts/ERC721.sol\":4513:4561  _checkOnERC721Received(from, to, tokenId, _data) */\n      tag_182\n        /* \"contracts/ERC721.sol\":4536:4540  from */\n      dup5\n        /* \"contracts/ERC721.sol\":4542:4544  to */\n      dup5\n        /* \"contracts/ERC721.sol\":4546:4553  tokenId */\n      dup5\n        /* \"contracts/ERC721.sol\":4555:4560  _data */\n      dup5\n        /* \"contracts/ERC721.sol\":4513:4535  _checkOnERC721Received */\n      tag_183\n        /* \"contracts/ERC721.sol\":4513:4561  _checkOnERC721Received(from, to, tokenId, _data) */\n      jump\t// in\n    tag_182:\n        /* \"contracts/ERC721.sol\":4306:4568  function _safeTransfer(... */\n      pop\n      pop\n      pop\n      pop\n      pop\n      jump\t// out\n        /* \"contracts/034_WTFAPE.sol\":247:394  function _baseURI() internal pure override returns (string memory) {... */\n    tag_148:\n        /* \"contracts/034_WTFAPE.sol\":299:312  string memory */\n      0x60\n        /* \"contracts/034_WTFAPE.sol\":324:387  return \"ipfs://QmeSjSinHpPnmXmspMjwiXyN6zS4E9zccariGR3jxcaWtq/\" */\n      mload(0x40)\n      dup1\n      0x60\n      add\n      0x40\n      mstore\n      dup1\n      0x36\n      dup2\n      mstore\n      0x20\n      add\n      data_8382b382247cd07401a2ef2f394137c3f3b0972798bae0a9c78b0c261acbb56b\n      0x36\n      swap2\n      codecopy\n      swap1\n      pop\n        /* \"contracts/034_WTFAPE.sol\":247:394  function _baseURI() internal pure override returns (string memory) {... */\n      swap1\n      jump\t// out\n        /* \"contracts/String.sol\":393:1096  function toString(uint256 value) internal pure returns (string memory) {... */\n    tag_152:\n        /* \"contracts/String.sol\":449:462  string memory */\n      0x60\n        /* \"contracts/String.sol\":675:676  0 */\n      0x00\n        /* \"contracts/String.sol\":666:671  value */\n      dup3\n        /* \"contracts/String.sol\":666:676  value == 0 */\n      sub\n        /* \"contracts/String.sol\":662:713  if (value == 0) {... */\n      tag_186\n      jumpi\n        /* \"contracts/String.sol\":692:702  return \"0\" */\n      mload(0x40)\n      dup1\n      0x40\n      add\n      0x40\n      mstore\n      dup1\n      0x01\n      dup2\n      mstore\n      0x20\n      add\n      0x3000000000000000000000000000000000000000000000000000000000000000\n      dup2\n      mstore\n      pop\n      swap1\n      pop\n      jump(tag_185)\n        /* \"contracts/String.sol\":662:713  if (value == 0) {... */\n    tag_186:\n        /* \"contracts/String.sol\":722:734  uint256 temp */\n      0x00\n        /* \"contracts/String.sol\":737:742  value */\n      dup3\n        /* \"contracts/String.sol\":722:742  uint256 temp = value */\n      swap1\n      pop\n        /* \"contracts/String.sol\":752:766  uint256 digits */\n      0x00\n        /* \"contracts/String.sol\":776:851  while (temp != 0) {... */\n    tag_187:\n        /* \"contracts/String.sol\":791:792  0 */\n      0x00\n        /* \"contracts/String.sol\":783:787  temp */\n      dup3\n        /* \"contracts/String.sol\":783:792  temp != 0 */\n      eq\n        /* \"contracts/String.sol\":776:851  while (temp != 0) {... */\n      tag_188\n      jumpi\n        /* \"contracts/String.sol\":808:816  digits++ */\n      dup1\n      dup1\n      tag_189\n      swap1\n      tag_190\n      jump\t// in\n    tag_189:\n      swap2\n      pop\n      pop\n        /* \"contracts/String.sol\":838:840  10 */\n      0x0a\n        /* \"contracts/String.sol\":830:840  temp /= 10 */\n      dup3\n      tag_191\n      swap2\n      swap1\n      tag_192\n      jump\t// in\n    tag_191:\n      swap2\n      pop\n        /* \"contracts/String.sol\":776:851  while (temp != 0) {... */\n      jump(tag_187)\n    tag_188:\n        /* \"contracts/String.sol\":860:879  bytes memory buffer */\n      0x00\n        /* \"contracts/String.sol\":892:898  digits */\n      dup2\n        /* \"contracts/String.sol\":882:899  new bytes(digits) */\n      0xffffffffffffffff\n      dup2\n      gt\n      iszero\n      tag_193\n      jumpi\n      tag_194\n      tag_195\n      jump\t// in\n    tag_194:\n    tag_193:\n      mload(0x40)\n      swap1\n      dup1\n      dup3\n      mstore\n      dup1\n      0x1f\n      add\n      not(0x1f)\n      and\n      0x20\n      add\n      dup3\n      add\n      0x40\n      mstore\n      dup1\n      iszero\n      tag_196\n      jumpi\n      dup2\n      0x20\n      add\n      0x01\n      dup3\n      mul\n      dup1\n      calldatasize\n      dup4\n      calldatacopy\n      dup1\n      dup3\n      add\n      swap2\n      pop\n      pop\n      swap1\n      pop\n    tag_196:\n      pop\n        /* \"contracts/String.sol\":860:899  bytes memory buffer = new bytes(digits) */\n      swap1\n      pop\n        /* \"contracts/String.sol\":909:1059  while (value != 0) {... */\n    tag_197:\n        /* \"contracts/String.sol\":925:926  0 */\n      0x00\n        /* \"contracts/String.sol\":916:921  value */\n      dup6\n        /* \"contracts/String.sol\":916:926  value != 0 */\n      eq\n        /* \"contracts/String.sol\":909:1059  while (value != 0) {... */\n      tag_198\n      jumpi\n        /* \"contracts/String.sol\":952:953  1 */\n      0x01\n        /* \"contracts/String.sol\":942:953  digits -= 1 */\n      dup3\n      tag_199\n      swap2\n      swap1\n      tag_169\n      jump\t// in\n    tag_199:\n      swap2\n      pop\n        /* \"contracts/String.sol\":1018:1020  10 */\n      0x0a\n        /* \"contracts/String.sol\":1010:1015  value */\n      dup6\n        /* \"contracts/String.sol\":1010:1020  value % 10 */\n      tag_200\n      swap2\n      swap1\n      tag_201\n      jump\t// in\n    tag_200:\n        /* \"contracts/String.sol\":997:999  48 */\n      0x30\n        /* \"contracts/String.sol\":997:1021  48 + uint256(value % 10) */\n      tag_202\n      swap2\n      swap1\n      tag_171\n      jump\t// in\n    tag_202:\n        /* \"contracts/String.sol\":984:1023  bytes1(uint8(48 + uint256(value % 10))) */\n      0xf8\n      shl\n        /* \"contracts/String.sol\":967:973  buffer */\n      dup2\n        /* \"contracts/String.sol\":974:980  digits */\n      dup4\n        /* \"contracts/String.sol\":967:981  buffer[digits] */\n      dup2\n      mload\n      dup2\n      lt\n      tag_203\n      jumpi\n      tag_204\n      tag_205\n      jump\t// in\n    tag_204:\n    tag_203:\n      0x20\n      add\n      add\n        /* \"contracts/String.sol\":967:1023  buffer[digits] = bytes1(uint8(48 + uint256(value % 10))) */\n      swap1\n      not(0xffffffffffffffffffffffffffffffffffffffffffffffffffffffffffffff)\n      and\n      swap1\n      dup2\n      0x00\n      byte\n      swap1\n      mstore8\n      pop\n        /* \"contracts/String.sol\":1046:1048  10 */\n      0x0a\n        /* \"contracts/String.sol\":1037:1048  value /= 10 */\n      dup6\n      tag_206\n      swap2\n      swap1\n      tag_192\n      jump\t// in\n    tag_206:\n      swap5\n      pop\n        /* \"contracts/String.sol\":909:1059  while (value != 0) {... */\n      jump(tag_197)\n    tag_198:\n        /* \"contracts/String.sol\":1082:1088  buffer */\n      dup1\n        /* \"contracts/String.sol\":1068:1089  return string(buffer) */\n      swap4\n      pop\n      pop\n      pop\n      pop\n        /* \"contracts/String.sol\":393:1096  function toString(uint256 value) internal pure returns (string memory) {... */\n    tag_185:\n      swap2\n      swap1\n      pop\n      jump\t// out\n        /* \"contracts/ERC721.sol\":3538:4300  function _checkOnERC721Received(... */\n    tag_183:\n        /* \"contracts/ERC721.sol\":3708:3709  0 */\n      0x00\n        /* \"contracts/ERC721.sol\":3691:3693  to */\n      dup4\n        /* \"contracts/ERC721.sol\":3691:3705  to.code.length */\n      0xffffffffffffffffffffffffffffffffffffffff\n      and\n      extcodesize\n        /* \"contracts/ERC721.sol\":3691:3709  to.code.length > 0 */\n      gt\n        /* \"contracts/ERC721.sol\":3688:4294  if(to.code.length > 0) {... */\n      iszero\n      tag_208\n      jumpi\n        /* \"contracts/ERC721.sol\":3745:3747  to */\n      dup3\n        /* \"contracts/ERC721.sol\":3729:3765  IERC721Receiver(to).onERC721Received */\n      0xffffffffffffffffffffffffffffffffffffffff\n      and\n      0x150b7a02\n        /* \"contracts/ERC721.sol\":3766:3776  msg.sender */\n      caller\n        /* \"contracts/ERC721.sol\":3778:3782  from */\n      dup7\n        /* \"contracts/ERC721.sol\":3784:3791  tokenId */\n      dup6\n        /* \"contracts/ERC721.sol\":3793:3797  data */\n      dup6\n        /* \"contracts/ERC721.sol\":3729:3798  IERC721Receiver(to).onERC721Received(msg.sender, from, tokenId, data) */\n      mload(0x40)\n      dup6\n      0xffffffff\n      and\n      0xe0\n      shl\n      dup2\n      mstore\n      0x04\n      add\n      tag_209\n      swap5\n      swap4\n      swap3\n      swap2\n      swap1\n      tag_210\n      jump\t// in\n    tag_209:\n      0x20\n      mload(0x40)\n      dup1\n      dup4\n      sub\n      dup2\n      0x00\n      dup8\n      gas\n      call\n      swap3\n      pop\n      pop\n      pop\n      dup1\n      iszero\n      tag_211\n      jumpi\n      pop\n      mload(0x40)\n      returndatasize\n      not(0x1f)\n      0x1f\n      dup3\n      add\n      and\n      dup3\n      add\n      dup1\n      0x40\n      mstore\n      pop\n      dup2\n      add\n      swap1\n      tag_212\n      swap2\n      swap1\n      tag_213\n      jump\t// in\n    tag_212:\n      0x01\n    tag_211:\n        /* \"contracts/ERC721.sol\":3725:4284  try IERC721Receiver(to).onERC721Received(msg.sender, from, tokenId, data) returns (bytes4 retval) {... */\n      tag_214\n      jumpi\n      returndatasize\n      dup1\n      0x00\n      dup2\n      eq\n      tag_219\n      jumpi\n      mload(0x40)\n      swap2\n      pop\n      and(add(returndatasize, 0x3f), not(0x1f))\n      dup3\n      add\n      0x40\n      mstore\n      returndatasize\n      dup3\n      mstore\n      returndatasize\n      0x00\n      0x20\n      dup5\n      add\n      returndatacopy\n      jump(tag_218)\n    tag_219:\n      0x60\n      swap2\n      pop\n    tag_218:\n      pop\n        /* \"contracts/ERC721.sol\":4053:4054  0 */\n      0x00\n        /* \"contracts/ERC721.sol\":4036:4042  reason */\n      dup2\n        /* \"contracts/ERC721.sol\":4036:4049  reason.length */\n      mload\n        /* \"contracts/ERC721.sol\":4036:4054  reason.length == 0 */\n      sub\n        /* \"contracts/ERC721.sol\":4032:4270  if (reason.length == 0) {... */\n      tag_220\n      jumpi\n        /* \"contracts/ERC721.sol\":4107:4109  to */\n      dup4\n        /* \"contracts/ERC721.sol\":4085:4110  ERC721InvalidReceiver(to) */\n      mload(0x40)\n      0x64a0ae9200000000000000000000000000000000000000000000000000000000\n      dup2\n      mstore\n      0x04\n      add\n      tag_221\n      swap2\n      swap1\n      tag_36\n      jump\t// in\n    tag_221:\n      mload(0x40)\n      dup1\n      swap2\n      sub\n      swap1\n      revert\n        /* \"contracts/ERC721.sol\":4032:4270  if (reason.length == 0) {... */\n    tag_220:\n        /* \"contracts/ERC721.sol\":4222:4228  reason */\n      dup1\n        /* \"contracts/ERC721.sol\":4216:4229  mload(reason) */\n      mload\n        /* \"contracts/ERC721.sol\":4207:4213  reason */\n      dup2\n        /* \"contracts/ERC721.sol\":4203:4205  32 */\n      0x20\n        /* \"contracts/ERC721.sol\":4199:4214  add(32, reason) */\n      add\n        /* \"contracts/ERC721.sol\":4192:4230  revert(add(32, reason), mload(reason)) */\n      revert\n        /* \"contracts/ERC721.sol\":3725:4284  try IERC721Receiver(to).onERC721Received(msg.sender, from, tokenId, data) returns (bytes4 retval) {... */\n    tag_214:\n        /* \"contracts/ERC721.sol\":3855:3896  IERC721Receiver.onERC721Received.selector */\n      shl(0xe0, 0x150b7a02)\n        /* \"contracts/ERC721.sol\":3845:3896  retval != IERC721Receiver.onERC721Received.selector */\n      not(0xffffffffffffffffffffffffffffffffffffffffffffffffffffffff)\n      and\n        /* \"contracts/ERC721.sol\":3845:3851  retval */\n      dup2\n        /* \"contracts/ERC721.sol\":3845:3896  retval != IERC721Receiver.onERC721Received.selector */\n      not(0xffffffffffffffffffffffffffffffffffffffffffffffffffffffff)\n      and\n      eq\n        /* \"contracts/ERC721.sol\":3841:3971  if (retval != IERC721Receiver.onERC721Received.selector) {... */\n      tag_224\n      jumpi\n        /* \"contracts/ERC721.sol\":3949:3951  to */\n      dup4\n        /* \"contracts/ERC721.sol\":3927:3952  ERC721InvalidReceiver(to) */\n      mload(0x40)\n      0x64a0ae9200000000000000000000000000000000000000000000000000000000\n      dup2\n      mstore\n      0x04\n      add\n      tag_225\n      swap2\n      swap1\n      tag_36\n      jump\t// in\n    tag_225:\n      mload(0x40)\n      dup1\n      swap2\n      sub\n      swap1\n      revert\n        /* \"contracts/ERC721.sol\":3841:3971  if (retval != IERC721Receiver.onERC721Received.selector) {... */\n    tag_224:\n        /* \"contracts/ERC721.sol\":3799:3985  returns (bytes4 retval) {... */\n      pop\n        /* \"contracts/ERC721.sol\":3688:4294  if(to.code.length > 0) {... */\n    tag_208:\n        /* \"contracts/ERC721.sol\":3538:4300  function _checkOnERC721Received(... */\n      pop\n      pop\n      pop\n      pop\n      jump\t// out\n        /* \"#utility.yul\":7:82   */\n    tag_226:\n        /* \"#utility.yul\":40:46   */\n      0x00\n        /* \"#utility.yul\":73:75   */\n      0x40\n        /* \"#utility.yul\":67:76   */\n      mload\n        /* \"#utility.yul\":57:76   */\n      swap1\n      pop\n        /* \"#utility.yul\":7:82   */\n      swap1\n      jump\t// out\n        /* \"#utility.yul\":88:205   */\n    tag_227:\n        /* \"#utility.yul\":197:198   */\n      0x00\n        /* \"#utility.yul\":194:195   */\n      0x00\n        /* \"#utility.yul\":187:199   */\n      revert\n        /* \"#utility.yul\":211:328   */\n    tag_228:\n        /* \"#utility.yul\":320:321   */\n      0x00\n        /* \"#utility.yul\":317:318   */\n      0x00\n        /* \"#utility.yul\":310:322   */\n      revert\n        /* \"#utility.yul\":334:483   */\n    tag_229:\n        /* \"#utility.yul\":370:377   */\n      0x00\n        /* \"#utility.yul\":410:476   */\n      0xffffffff00000000000000000000000000000000000000000000000000000000\n        /* \"#utility.yul\":403:408   */\n      dup3\n        /* \"#utility.yul\":399:477   */\n      and\n        /* \"#utility.yul\":388:477   */\n      swap1\n      pop\n        /* \"#utility.yul\":334:483   */\n      swap2\n      swap1\n      pop\n      jump\t// out\n        /* \"#utility.yul\":489:609   */\n    tag_230:\n        /* \"#utility.yul\":561:584   */\n      tag_293\n        /* \"#utility.yul\":578:583   */\n      dup2\n        /* \"#utility.yul\":561:584   */\n      tag_229\n      jump\t// in\n    tag_293:\n        /* \"#utility.yul\":554:559   */\n      dup2\n        /* \"#utility.yul\":551:585   */\n      eq\n        /* \"#utility.yul\":541:603   */\n      tag_294\n      jumpi\n        /* \"#utility.yul\":599:600   */\n      0x00\n        /* \"#utility.yul\":596:597   */\n      0x00\n        /* \"#utility.yul\":589:601   */\n      revert\n        /* \"#utility.yul\":541:603   */\n    tag_294:\n        /* \"#utility.yul\":489:609   */\n      pop\n      jump\t// out\n        /* \"#utility.yul\":615:752   */\n    tag_231:\n        /* \"#utility.yul\":660:665   */\n      0x00\n        /* \"#utility.yul\":698:704   */\n      dup2\n        /* \"#utility.yul\":685:705   */\n      calldataload\n        /* \"#utility.yul\":676:705   */\n      swap1\n      pop\n        /* \"#utility.yul\":714:746   */\n      tag_296\n        /* \"#utility.yul\":740:745   */\n      dup2\n        /* \"#utility.yul\":714:746   */\n      tag_230\n      jump\t// in\n    tag_296:\n        /* \"#utility.yul\":615:752   */\n      swap3\n      swap2\n      pop\n      pop\n      jump\t// out\n        /* \"#utility.yul\":758:1085   */\n    tag_23:\n        /* \"#utility.yul\":816:822   */\n      0x00\n        /* \"#utility.yul\":865:867   */\n      0x20\n        /* \"#utility.yul\":853:862   */\n      dup3\n        /* \"#utility.yul\":844:851   */\n      dup5\n        /* \"#utility.yul\":840:863   */\n      sub\n        /* \"#utility.yul\":836:868   */\n      slt\n        /* \"#utility.yul\":833:952   */\n      iszero\n      tag_298\n      jumpi\n        /* \"#utility.yul\":871:950   */\n      tag_299\n      tag_227\n      jump\t// in\n    tag_299:\n        /* \"#utility.yul\":833:952   */\n    tag_298:\n        /* \"#utility.yul\":991:992   */\n      0x00\n        /* \"#utility.yul\":1016:1068   */\n      tag_300\n        /* \"#utility.yul\":1060:1067   */\n      dup5\n        /* \"#utility.yul\":1051:1057   */\n      dup3\n        /* \"#utility.yul\":1040:1049   */\n      dup6\n        /* \"#utility.yul\":1036:1058   */\n      add\n        /* \"#utility.yul\":1016:1068   */\n      tag_231\n      jump\t// in\n    tag_300:\n        /* \"#utility.yul\":1006:1068   */\n      swap2\n      pop\n        /* \"#utility.yul\":962:1078   */\n      pop\n        /* \"#utility.yul\":758:1085   */\n      swap3\n      swap2\n      pop\n      pop\n      jump\t// out\n        /* \"#utility.yul\":1091:1181   */\n    tag_232:\n        /* \"#utility.yul\":1125:1132   */\n      0x00\n        /* \"#utility.yul\":1168:1173   */\n      dup2\n        /* \"#utility.yul\":1161:1174   */\n      iszero\n        /* \"#utility.yul\":1154:1175   */\n      iszero\n        /* \"#utility.yul\":1143:1175   */\n      swap1\n      pop\n        /* \"#utility.yul\":1091:1181   */\n      swap2\n      swap1\n      pop\n      jump\t// out\n        /* \"#utility.yul\":1187:1296   */\n    tag_233:\n        /* \"#utility.yul\":1268:1289   */\n      tag_303\n        /* \"#utility.yul\":1283:1288   */\n      dup2\n        /* \"#utility.yul\":1268:1289   */\n      tag_232\n      jump\t// in\n    tag_303:\n        /* \"#utility.yul\":1263:1266   */\n      dup3\n        /* \"#utility.yul\":1256:1290   */\n      mstore\n        /* \"#utility.yul\":1187:1296   */\n      pop\n      pop\n      jump\t// out\n        /* \"#utility.yul\":1302:1512   */\n    tag_26:\n        /* \"#utility.yul\":1389:1393   */\n      0x00\n        /* \"#utility.yul\":1427:1429   */\n      0x20\n        /* \"#utility.yul\":1416:1425   */\n      dup3\n        /* \"#utility.yul\":1412:1430   */\n      add\n        /* \"#utility.yul\":1404:1430   */\n      swap1\n      pop\n        /* \"#utility.yul\":1440:1505   */\n      tag_305\n        /* \"#utility.yul\":1502:1503   */\n      0x00\n        /* \"#utility.yul\":1491:1500   */\n      dup4\n        /* \"#utility.yul\":1487:1504   */\n      add\n        /* \"#utility.yul\":1478:1484   */\n      dup5\n        /* \"#utility.yul\":1440:1505   */\n      tag_233\n      jump\t// in\n    tag_305:\n        /* \"#utility.yul\":1302:1512   */\n      swap3\n      swap2\n      pop\n      pop\n      jump\t// out\n        /* \"#utility.yul\":1518:1617   */\n    tag_234:\n        /* \"#utility.yul\":1570:1576   */\n      0x00\n        /* \"#utility.yul\":1604:1609   */\n      dup2\n        /* \"#utility.yul\":1598:1610   */\n      mload\n        /* \"#utility.yul\":1588:1610   */\n      swap1\n      pop\n        /* \"#utility.yul\":1518:1617   */\n      swap2\n      swap1\n      pop\n      jump\t// out\n        /* \"#utility.yul\":1623:1792   */\n    tag_235:\n        /* \"#utility.yul\":1707:1718   */\n      0x00\n        /* \"#utility.yul\":1741:1747   */\n      dup3\n        /* \"#utility.yul\":1736:1739   */\n      dup3\n        /* \"#utility.yul\":1729:1748   */\n      mstore\n        /* \"#utility.yul\":1781:1785   */\n      0x20\n        /* \"#utility.yul\":1776:1779   */\n      dup3\n        /* \"#utility.yul\":1772:1786   */\n      add\n        /* \"#utility.yul\":1757:1786   */\n      swap1\n      pop\n        /* \"#utility.yul\":1623:1792   */\n      swap3\n      swap2\n      pop\n      pop\n      jump\t// out\n        /* \"#utility.yul\":1798:1937   */\n    tag_236:\n        /* \"#utility.yul\":1887:1893   */\n      dup3\n        /* \"#utility.yul\":1882:1885   */\n      dup2\n        /* \"#utility.yul\":1877:1880   */\n      dup4\n        /* \"#utility.yul\":1871:1894   */\n      mcopy\n        /* \"#utility.yul\":1928:1929   */\n      0x00\n        /* \"#utility.yul\":1919:1925   */\n      dup4\n        /* \"#utility.yul\":1914:1917   */\n      dup4\n        /* \"#utility.yul\":1910:1926   */\n      add\n        /* \"#utility.yul\":1903:1930   */\n      mstore\n        /* \"#utility.yul\":1798:1937   */\n      pop\n      pop\n      pop\n      jump\t// out\n        /* \"#utility.yul\":1943:2045   */\n    tag_237:\n        /* \"#utility.yul\":1984:1990   */\n      0x00\n        /* \"#utility.yul\":2035:2037   */\n      0x1f\n        /* \"#utility.yul\":2031:2038   */\n      not\n        /* \"#utility.yul\":2026:2028   */\n      0x1f\n        /* \"#utility.yul\":2019:2024   */\n      dup4\n        /* \"#utility.yul\":2015:2029   */\n      add\n        /* \"#utility.yul\":2011:2039   */\n      and\n        /* \"#utility.yul\":2001:2039   */\n      swap1\n      pop\n        /* \"#utility.yul\":1943:2045   */\n      swap2\n      swap1\n      pop\n      jump\t// out\n        /* \"#utility.yul\":2051:2428   */\n    tag_238:\n        /* \"#utility.yul\":2139:2142   */\n      0x00\n        /* \"#utility.yul\":2167:2206   */\n      tag_311\n        /* \"#utility.yul\":2200:2205   */\n      dup3\n        /* \"#utility.yul\":2167:2206   */\n      tag_234\n      jump\t// in\n    tag_311:\n        /* \"#utility.yul\":2222:2293   */\n      tag_312\n        /* \"#utility.yul\":2286:2292   */\n      dup2\n        /* \"#utility.yul\":2281:2284   */\n      dup6\n        /* \"#utility.yul\":2222:2293   */\n      tag_235\n      jump\t// in\n    tag_312:\n        /* \"#utility.yul\":2215:2293   */\n      swap4\n      pop\n        /* \"#utility.yul\":2302:2367   */\n      tag_313\n        /* \"#utility.yul\":2360:2366   */\n      dup2\n        /* \"#utility.yul\":2355:2358   */\n      dup6\n        /* \"#utility.yul\":2348:2352   */\n      0x20\n        /* \"#utility.yul\":2341:2346   */\n      dup7\n        /* \"#utility.yul\":2337:2353   */\n      add\n        /* \"#utility.yul\":2302:2367   */\n      tag_236\n      jump\t// in\n    tag_313:\n        /* \"#utility.yul\":2392:2421   */\n      tag_314\n        /* \"#utility.yul\":2414:2420   */\n      dup2\n        /* \"#utility.yul\":2392:2421   */\n      tag_237\n      jump\t// in\n    tag_314:\n        /* \"#utility.yul\":2387:2390   */\n      dup5\n        /* \"#utility.yul\":2383:2422   */\n      add\n        /* \"#utility.yul\":2376:2422   */\n      swap2\n      pop\n        /* \"#utility.yul\":2143:2428   */\n      pop\n        /* \"#utility.yul\":2051:2428   */\n      swap3\n      swap2\n      pop\n      pop\n      jump\t// out\n        /* \"#utility.yul\":2434:2747   */\n    tag_30:\n        /* \"#utility.yul\":2547:2551   */\n      0x00\n        /* \"#utility.yul\":2585:2587   */\n      0x20\n        /* \"#utility.yul\":2574:2583   */\n      dup3\n        /* \"#utility.yul\":2570:2588   */\n      add\n        /* \"#utility.yul\":2562:2588   */\n      swap1\n      pop\n        /* \"#utility.yul\":2634:2643   */\n      dup2\n        /* \"#utility.yul\":2628:2632   */\n      dup2\n        /* \"#utility.yul\":2624:2644   */\n      sub\n        /* \"#utility.yul\":2620:2621   */\n      0x00\n        /* \"#utility.yul\":2609:2618   */\n      dup4\n        /* \"#utility.yul\":2605:2622   */\n      add\n        /* \"#utility.yul\":2598:2645   */\n      mstore\n        /* \"#utility.yul\":2662:2740   */\n      tag_316\n        /* \"#utility.yul\":2735:2739   */\n      dup2\n        /* \"#utility.yul\":2726:2732   */\n      dup5\n        /* \"#utility.yul\":2662:2740   */\n      tag_238\n      jump\t// in\n    tag_316:\n        /* \"#utility.yul\":2654:2740   */\n      swap1\n      pop\n        /* \"#utility.yul\":2434:2747   */\n      swap3\n      swap2\n      pop\n      pop\n      jump\t// out\n        /* \"#utility.yul\":2753:2830   */\n    tag_239:\n        /* \"#utility.yul\":2790:2797   */\n      0x00\n        /* \"#utility.yul\":2819:2824   */\n      dup2\n        /* \"#utility.yul\":2808:2824   */\n      swap1\n      pop\n        /* \"#utility.yul\":2753:2830   */\n      swap2\n      swap1\n      pop\n      jump\t// out\n        /* \"#utility.yul\":2836:2958   */\n    tag_240:\n        /* \"#utility.yul\":2909:2933   */\n      tag_319\n        /* \"#utility.yul\":2927:2932   */\n      dup2\n        /* \"#utility.yul\":2909:2933   */\n      tag_239\n      jump\t// in\n    tag_319:\n        /* \"#utility.yul\":2902:2907   */\n      dup2\n        /* \"#utility.yul\":2899:2934   */\n      eq\n        /* \"#utility.yul\":2889:2952   */\n      tag_320\n      jumpi\n        /* \"#utility.yul\":2948:2949   */\n      0x00\n        /* \"#utility.yul\":2945:2946   */\n      0x00\n        /* \"#utility.yul\":2938:2950   */\n      revert\n        /* \"#utility.yul\":2889:2952   */\n    tag_320:\n        /* \"#utility.yul\":2836:2958   */\n      pop\n      jump\t// out\n        /* \"#utility.yul\":2964:3103   */\n    tag_241:\n        /* \"#utility.yul\":3010:3015   */\n      0x00\n        /* \"#utility.yul\":3048:3054   */\n      dup2\n        /* \"#utility.yul\":3035:3055   */\n      calldataload\n        /* \"#utility.yul\":3026:3055   */\n      swap1\n      pop\n        /* \"#utility.yul\":3064:3097   */\n      tag_322\n        /* \"#utility.yul\":3091:3096   */\n      dup2\n        /* \"#utility.yul\":3064:3097   */\n      tag_240\n      jump\t// in\n    tag_322:\n        /* \"#utility.yul\":2964:3103   */\n      swap3\n      swap2\n      pop\n      pop\n      jump\t// out\n        /* \"#utility.yul\":3109:3438   */\n    tag_33:\n        /* \"#utility.yul\":3168:3174   */\n      0x00\n        /* \"#utility.yul\":3217:3219   */\n      0x20\n        /* \"#utility.yul\":3205:3214   */\n      dup3\n        /* \"#utility.yul\":3196:3203   */\n      dup5\n        /* \"#utility.yul\":3192:3215   */\n      sub\n        /* \"#utility.yul\":3188:3220   */\n      slt\n        /* \"#utility.yul\":3185:3304   */\n      iszero\n      tag_324\n      jumpi\n        /* \"#utility.yul\":3223:3302   */\n      tag_325\n      tag_227\n      jump\t// in\n    tag_325:\n        /* \"#utility.yul\":3185:3304   */\n    tag_324:\n        /* \"#utility.yul\":3343:3344   */\n      0x00\n        /* \"#utility.yul\":3368:3421   */\n      tag_326\n        /* \"#utility.yul\":3413:3420   */\n      dup5\n        /* \"#utility.yul\":3404:3410   */\n      dup3\n        /* \"#utility.yul\":3393:3402   */\n      dup6\n        /* \"#utility.yul\":3389:3411   */\n      add\n        /* \"#utility.yul\":3368:3421   */\n      tag_241\n      jump\t// in\n    tag_326:\n        /* \"#utility.yul\":3358:3421   */\n      swap2\n      pop\n        /* \"#utility.yul\":3314:3431   */\n      pop\n        /* \"#utility.yul\":3109:3438   */\n      swap3\n      swap2\n      pop\n      pop\n      jump\t// out\n        /* \"#utility.yul\":3444:3570   */\n    tag_242:\n        /* \"#utility.yul\":3481:3488   */\n      0x00\n        /* \"#utility.yul\":3521:3563   */\n      0xffffffffffffffffffffffffffffffffffffffff\n        /* \"#utility.yul\":3514:3519   */\n      dup3\n        /* \"#utility.yul\":3510:3564   */\n      and\n        /* \"#utility.yul\":3499:3564   */\n      swap1\n      pop\n        /* \"#utility.yul\":3444:3570   */\n      swap2\n      swap1\n      pop\n      jump\t// out\n        /* \"#utility.yul\":3576:3672   */\n    tag_243:\n        /* \"#utility.yul\":3613:3620   */\n      0x00\n        /* \"#utility.yul\":3642:3666   */\n      tag_329\n        /* \"#utility.yul\":3660:3665   */\n      dup3\n        /* \"#utility.yul\":3642:3666   */\n      tag_242\n      jump\t// in\n    tag_329:\n        /* \"#utility.yul\":3631:3666   */\n      swap1\n      pop\n        /* \"#utility.yul\":3576:3672   */\n      swap2\n      swap1\n      pop\n      jump\t// out\n        /* \"#utility.yul\":3678:3796   */\n    tag_244:\n        /* \"#utility.yul\":3765:3789   */\n      tag_331\n        /* \"#utility.yul\":3783:3788   */\n      dup2\n        /* \"#utility.yul\":3765:3789   */\n      tag_243\n      jump\t// in\n    tag_331:\n        /* \"#utility.yul\":3760:3763   */\n      dup3\n        /* \"#utility.yul\":3753:3790   */\n      mstore\n        /* \"#utility.yul\":3678:3796   */\n      pop\n      pop\n      jump\t// out\n        /* \"#utility.yul\":3802:4024   */\n    tag_36:\n        /* \"#utility.yul\":3895:3899   */\n      0x00\n        /* \"#utility.yul\":3933:3935   */\n      0x20\n        /* \"#utility.yul\":3922:3931   */\n      dup3\n        /* \"#utility.yul\":3918:3936   */\n      add\n        /* \"#utility.yul\":3910:3936   */\n      swap1\n      pop\n        /* \"#utility.yul\":3946:4017   */\n      tag_333\n        /* \"#utility.yul\":4014:4015   */\n      0x00\n        /* \"#utility.yul\":4003:4012   */\n      dup4\n        /* \"#utility.yul\":3999:4016   */\n      add\n        /* \"#utility.yul\":3990:3996   */\n      dup5\n        /* \"#utility.yul\":3946:4017   */\n      tag_244\n      jump\t// in\n    tag_333:\n        /* \"#utility.yul\":3802:4024   */\n      swap3\n      swap2\n      pop\n      pop\n      jump\t// out\n        /* \"#utility.yul\":4030:4152   */\n    tag_245:\n        /* \"#utility.yul\":4103:4127   */\n      tag_335\n        /* \"#utility.yul\":4121:4126   */\n      dup2\n        /* \"#utility.yul\":4103:4127   */\n      tag_243\n      jump\t// in\n    tag_335:\n        /* \"#utility.yul\":4096:4101   */\n      dup2\n        /* \"#utility.yul\":4093:4128   */\n      eq\n        /* \"#utility.yul\":4083:4146   */\n      tag_336\n      jumpi\n        /* \"#utility.yul\":4142:4143   */\n      0x00\n        /* \"#utility.yul\":4139:4140   */\n      0x00\n        /* \"#utility.yul\":4132:4144   */\n      revert\n        /* \"#utility.yul\":4083:4146   */\n    tag_336:\n        /* \"#utility.yul\":4030:4152   */\n      pop\n      jump\t// out\n        /* \"#utility.yul\":4158:4297   */\n    tag_246:\n        /* \"#utility.yul\":4204:4209   */\n      0x00\n        /* \"#utility.yul\":4242:4248   */\n      dup2\n        /* \"#utility.yul\":4229:4249   */\n      calldataload\n        /* \"#utility.yul\":4220:4249   */\n      swap1\n      pop\n        /* \"#utility.yul\":4258:4291   */\n      tag_338\n        /* \"#utility.yul\":4285:4290   */\n      dup2\n        /* \"#utility.yul\":4258:4291   */\n      tag_245\n      jump\t// in\n    tag_338:\n        /* \"#utility.yul\":4158:4297   */\n      swap3\n      swap2\n      pop\n      pop\n      jump\t// out\n        /* \"#utility.yul\":4303:4777   */\n    tag_39:\n        /* \"#utility.yul\":4371:4377   */\n      0x00\n        /* \"#utility.yul\":4379:4385   */\n      0x00\n        /* \"#utility.yul\":4428:4430   */\n      0x40\n        /* \"#utility.yul\":4416:4425   */\n      dup4\n        /* \"#utility.yul\":4407:4414   */\n      dup6\n        /* \"#utility.yul\":4403:4426   */\n      sub\n        /* \"#utility.yul\":4399:4431   */\n      slt\n        /* \"#utility.yul\":4396:4515   */\n      iszero\n      tag_340\n      jumpi\n        /* \"#utility.yul\":4434:4513   */\n      tag_341\n      tag_227\n      jump\t// in\n    tag_341:\n        /* \"#utility.yul\":4396:4515   */\n    tag_340:\n        /* \"#utility.yul\":4554:4555   */\n      0x00\n        /* \"#utility.yul\":4579:4632   */\n      tag_342\n        /* \"#utility.yul\":4624:4631   */\n      dup6\n        /* \"#utility.yul\":4615:4621   */\n      dup3\n        /* \"#utility.yul\":4604:4613   */\n      dup7\n        /* \"#utility.yul\":4600:4622   */\n      add\n        /* \"#utility.yul\":4579:4632   */\n      tag_246\n      jump\t// in\n    tag_342:\n        /* \"#utility.yul\":4569:4632   */\n      swap3\n      pop\n        /* \"#utility.yul\":4525:4642   */\n      pop\n        /* \"#utility.yul\":4681:4683   */\n      0x20\n        /* \"#utility.yul\":4707:4760   */\n      tag_343\n        /* \"#utility.yul\":4752:4759   */\n      dup6\n        /* \"#utility.yul\":4743:4749   */\n      dup3\n        /* \"#utility.yul\":4732:4741   */\n      dup7\n        /* \"#utility.yul\":4728:4750   */\n      add\n        /* \"#utility.yul\":4707:4760   */\n      tag_241\n      jump\t// in\n    tag_343:\n        /* \"#utility.yul\":4697:4760   */\n      swap2\n      pop\n        /* \"#utility.yul\":4652:4770   */\n      pop\n        /* \"#utility.yul\":4303:4777   */\n      swap3\n      pop\n      swap3\n      swap1\n      pop\n      jump\t// out\n        /* \"#utility.yul\":4783:5402   */\n    tag_43:\n        /* \"#utility.yul\":4860:4866   */\n      0x00\n        /* \"#utility.yul\":4868:4874   */\n      0x00\n        /* \"#utility.yul\":4876:4882   */\n      0x00\n        /* \"#utility.yul\":4925:4927   */\n      0x60\n        /* \"#utility.yul\":4913:4922   */\n      dup5\n        /* \"#utility.yul\":4904:4911   */\n      dup7\n        /* \"#utility.yul\":4900:4923   */\n      sub\n        /* \"#utility.yul\":4896:4928   */\n      slt\n        /* \"#utility.yul\":4893:5012   */\n      iszero\n      tag_345\n      jumpi\n        /* \"#utility.yul\":4931:5010   */\n      tag_346\n      tag_227\n      jump\t// in\n    tag_346:\n        /* \"#utility.yul\":4893:5012   */\n    tag_345:\n        /* \"#utility.yul\":5051:5052   */\n      0x00\n        /* \"#utility.yul\":5076:5129   */\n      tag_347\n        /* \"#utility.yul\":5121:5128   */\n      dup7\n        /* \"#utility.yul\":5112:5118   */\n      dup3\n        /* \"#utility.yul\":5101:5110   */\n      dup8\n        /* \"#utility.yul\":5097:5119   */\n      add\n        /* \"#utility.yul\":5076:5129   */\n      tag_246\n      jump\t// in\n    tag_347:\n        /* \"#utility.yul\":5066:5129   */\n      swap4\n      pop\n        /* \"#utility.yul\":5022:5139   */\n      pop\n        /* \"#utility.yul\":5178:5180   */\n      0x20\n        /* \"#utility.yul\":5204:5257   */\n      tag_348\n        /* \"#utility.yul\":5249:5256   */\n      dup7\n        /* \"#utility.yul\":5240:5246   */\n      dup3\n        /* \"#utility.yul\":5229:5238   */\n      dup8\n        /* \"#utility.yul\":5225:5247   */\n      add\n        /* \"#utility.yul\":5204:5257   */\n      tag_246\n      jump\t// in\n    tag_348:\n        /* \"#utility.yul\":5194:5257   */\n      swap3\n      pop\n        /* \"#utility.yul\":5149:5267   */\n      pop\n        /* \"#utility.yul\":5306:5308   */\n      0x40\n        /* \"#utility.yul\":5332:5385   */\n      tag_349\n        /* \"#utility.yul\":5377:5384   */\n      dup7\n        /* \"#utility.yul\":5368:5374   */\n      dup3\n        /* \"#utility.yul\":5357:5366   */\n      dup8\n        /* \"#utility.yul\":5353:5375   */\n      add\n        /* \"#utility.yul\":5332:5385   */\n      tag_241\n      jump\t// in\n    tag_349:\n        /* \"#utility.yul\":5322:5385   */\n      swap2\n      pop\n        /* \"#utility.yul\":5277:5395   */\n      pop\n        /* \"#utility.yul\":4783:5402   */\n      swap3\n      pop\n      swap3\n      pop\n      swap3\n      jump\t// out\n        /* \"#utility.yul\":5408:5737   */\n    tag_57:\n        /* \"#utility.yul\":5467:5473   */\n      0x00\n        /* \"#utility.yul\":5516:5518   */\n      0x20\n        /* \"#utility.yul\":5504:5513   */\n      dup3\n        /* \"#utility.yul\":5495:5502   */\n      dup5\n        /* \"#utility.yul\":5491:5514   */\n      sub\n        /* \"#utility.yul\":5487:5519   */\n      slt\n        /* \"#utility.yul\":5484:5603   */\n      iszero\n      tag_351\n      jumpi\n        /* \"#utility.yul\":5522:5601   */\n      tag_352\n      tag_227\n      jump\t// in\n    tag_352:\n        /* \"#utility.yul\":5484:5603   */\n    tag_351:\n        /* \"#utility.yul\":5642:5643   */\n      0x00\n        /* \"#utility.yul\":5667:5720   */\n      tag_353\n        /* \"#utility.yul\":5712:5719   */\n      dup5\n        /* \"#utility.yul\":5703:5709   */\n      dup3\n        /* \"#utility.yul\":5692:5701   */\n      dup6\n        /* \"#utility.yul\":5688:5710   */\n      add\n        /* \"#utility.yul\":5667:5720   */\n      tag_246\n      jump\t// in\n    tag_353:\n        /* \"#utility.yul\":5657:5720   */\n      swap2\n      pop\n        /* \"#utility.yul\":5613:5730   */\n      pop\n        /* \"#utility.yul\":5408:5737   */\n      swap3\n      swap2\n      pop\n      pop\n      jump\t// out\n        /* \"#utility.yul\":5743:5861   */\n    tag_247:\n        /* \"#utility.yul\":5830:5854   */\n      tag_355\n        /* \"#utility.yul\":5848:5853   */\n      dup2\n        /* \"#utility.yul\":5830:5854   */\n      tag_239\n      jump\t// in\n    tag_355:\n        /* \"#utility.yul\":5825:5828   */\n      dup3\n        /* \"#utility.yul\":5818:5855   */\n      mstore\n        /* \"#utility.yul\":5743:5861   */\n      pop\n      pop\n      jump\t// out\n        /* \"#utility.yul\":5867:6089   */\n    tag_60:\n        /* \"#utility.yul\":5960:5964   */\n      0x00\n        /* \"#utility.yul\":5998:6000   */\n      0x20\n        /* \"#utility.yul\":5987:5996   */\n      dup3\n        /* \"#utility.yul\":5983:6001   */\n      add\n        /* \"#utility.yul\":5975:6001   */\n      swap1\n      pop\n        /* \"#utility.yul\":6011:6082   */\n      tag_357\n        /* \"#utility.yul\":6079:6080   */\n      0x00\n        /* \"#utility.yul\":6068:6077   */\n      dup4\n        /* \"#utility.yul\":6064:6081   */\n      add\n        /* \"#utility.yul\":6055:6061   */\n      dup5\n        /* \"#utility.yul\":6011:6082   */\n      tag_247\n      jump\t// in\n    tag_357:\n        /* \"#utility.yul\":5867:6089   */\n      swap3\n      swap2\n      pop\n      pop\n      jump\t// out\n        /* \"#utility.yul\":6095:6211   */\n    tag_248:\n        /* \"#utility.yul\":6165:6186   */\n      tag_359\n        /* \"#utility.yul\":6180:6185   */\n      dup2\n        /* \"#utility.yul\":6165:6186   */\n      tag_232\n      jump\t// in\n    tag_359:\n        /* \"#utility.yul\":6158:6163   */\n      dup2\n        /* \"#utility.yul\":6155:6187   */\n      eq\n        /* \"#utility.yul\":6145:6205   */\n      tag_360\n      jumpi\n        /* \"#utility.yul\":6201:6202   */\n      0x00\n        /* \"#utility.yul\":6198:6199   */\n      0x00\n        /* \"#utility.yul\":6191:6203   */\n      revert\n        /* \"#utility.yul\":6145:6205   */\n    tag_360:\n        /* \"#utility.yul\":6095:6211   */\n      pop\n      jump\t// out\n        /* \"#utility.yul\":6217:6350   */\n    tag_249:\n        /* \"#utility.yul\":6260:6265   */\n      0x00\n        /* \"#utility.yul\":6298:6304   */\n      dup2\n        /* \"#utility.yul\":6285:6305   */\n      calldataload\n        /* \"#utility.yul\":6276:6305   */\n      swap1\n      pop\n        /* \"#utility.yul\":6314:6344   */\n      tag_362\n        /* \"#utility.yul\":6338:6343   */\n      dup2\n        /* \"#utility.yul\":6314:6344   */\n      tag_248\n      jump\t// in\n    tag_362:\n        /* \"#utility.yul\":6217:6350   */\n      swap3\n      swap2\n      pop\n      pop\n      jump\t// out\n        /* \"#utility.yul\":6356:6824   */\n    tag_66:\n        /* \"#utility.yul\":6421:6427   */\n      0x00\n        /* \"#utility.yul\":6429:6435   */\n      0x00\n        /* \"#utility.yul\":6478:6480   */\n      0x40\n        /* \"#utility.yul\":6466:6475   */\n      dup4\n        /* \"#utility.yul\":6457:6464   */\n      dup6\n        /* \"#utility.yul\":6453:6476   */\n      sub\n        /* \"#utility.yul\":6449:6481   */\n      slt\n        /* \"#utility.yul\":6446:6565   */\n      iszero\n      tag_364\n      jumpi\n        /* \"#utility.yul\":6484:6563   */\n      tag_365\n      tag_227\n      jump\t// in\n    tag_365:\n        /* \"#utility.yul\":6446:6565   */\n    tag_364:\n        /* \"#utility.yul\":6604:6605   */\n      0x00\n        /* \"#utility.yul\":6629:6682   */\n      tag_366\n        /* \"#utility.yul\":6674:6681   */\n      dup6\n        /* \"#utility.yul\":6665:6671   */\n      dup3\n        /* \"#utility.yul\":6654:6663   */\n      dup7\n        /* \"#utility.yul\":6650:6672   */\n      add\n        /* \"#utility.yul\":6629:6682   */\n      tag_246\n      jump\t// in\n    tag_366:\n        /* \"#utility.yul\":6619:6682   */\n      swap3\n      pop\n        /* \"#utility.yul\":6575:6692   */\n      pop\n        /* \"#utility.yul\":6731:6733   */\n      0x20\n        /* \"#utility.yul\":6757:6807   */\n      tag_367\n        /* \"#utility.yul\":6799:6806   */\n      dup6\n        /* \"#utility.yul\":6790:6796   */\n      dup3\n        /* \"#utility.yul\":6779:6788   */\n      dup7\n        /* \"#utility.yul\":6775:6797   */\n      add\n        /* \"#utility.yul\":6757:6807   */\n      tag_249\n      jump\t// in\n    tag_367:\n        /* \"#utility.yul\":6747:6807   */\n      swap2\n      pop\n        /* \"#utility.yul\":6702:6817   */\n      pop\n        /* \"#utility.yul\":6356:6824   */\n      swap3\n      pop\n      swap3\n      swap1\n      pop\n      jump\t// out\n        /* \"#utility.yul\":6830:6947   */\n    tag_250:\n        /* \"#utility.yul\":6939:6940   */\n      0x00\n        /* \"#utility.yul\":6936:6937   */\n      0x00\n        /* \"#utility.yul\":6929:6941   */\n      revert\n        /* \"#utility.yul\":6953:7070   */\n    tag_251:\n        /* \"#utility.yul\":7062:7063   */\n      0x00\n        /* \"#utility.yul\":7059:7060   */\n      0x00\n        /* \"#utility.yul\":7052:7064   */\n      revert\n        /* \"#utility.yul\":7076:7256   */\n    tag_195:\n        /* \"#utility.yul\":7124:7201   */\n      0x4e487b7100000000000000000000000000000000000000000000000000000000\n        /* \"#utility.yul\":7121:7122   */\n      0x00\n        /* \"#utility.yul\":7114:7202   */\n      mstore\n        /* \"#utility.yul\":7221:7225   */\n      0x41\n        /* \"#utility.yul\":7218:7219   */\n      0x04\n        /* \"#utility.yul\":7211:7226   */\n      mstore\n        /* \"#utility.yul\":7245:7249   */\n      0x24\n        /* \"#utility.yul\":7242:7243   */\n      0x00\n        /* \"#utility.yul\":7235:7250   */\n      revert\n        /* \"#utility.yul\":7262:7543   */\n    tag_252:\n        /* \"#utility.yul\":7345:7372   */\n      tag_372\n        /* \"#utility.yul\":7367:7371   */\n      dup3\n        /* \"#utility.yul\":7345:7372   */\n      tag_237\n      jump\t// in\n    tag_372:\n        /* \"#utility.yul\":7337:7343   */\n      dup2\n        /* \"#utility.yul\":7333:7373   */\n      add\n        /* \"#utility.yul\":7475:7481   */\n      dup2\n        /* \"#utility.yul\":7463:7473   */\n      dup2\n        /* \"#utility.yul\":7460:7482   */\n      lt\n        /* \"#utility.yul\":7439:7457   */\n      0xffffffffffffffff\n        /* \"#utility.yul\":7427:7437   */\n      dup3\n        /* \"#utility.yul\":7424:7458   */\n      gt\n        /* \"#utility.yul\":7421:7483   */\n      or\n        /* \"#utility.yul\":7418:7506   */\n      iszero\n      tag_373\n      jumpi\n        /* \"#utility.yul\":7486:7504   */\n      tag_374\n      tag_195\n      jump\t// in\n    tag_374:\n        /* \"#utility.yul\":7418:7506   */\n    tag_373:\n        /* \"#utility.yul\":7526:7536   */\n      dup1\n        /* \"#utility.yul\":7522:7524   */\n      0x40\n        /* \"#utility.yul\":7515:7537   */\n      mstore\n        /* \"#utility.yul\":7305:7543   */\n      pop\n        /* \"#utility.yul\":7262:7543   */\n      pop\n      pop\n      jump\t// out\n        /* \"#utility.yul\":7549:7678   */\n    tag_253:\n        /* \"#utility.yul\":7583:7589   */\n      0x00\n        /* \"#utility.yul\":7610:7630   */\n      tag_376\n      tag_226\n      jump\t// in\n    tag_376:\n        /* \"#utility.yul\":7600:7630   */\n      swap1\n      pop\n        /* \"#utility.yul\":7639:7672   */\n      tag_377\n        /* \"#utility.yul\":7667:7671   */\n      dup3\n        /* \"#utility.yul\":7659:7665   */\n      dup3\n        /* \"#utility.yul\":7639:7672   */\n      tag_252\n      jump\t// in\n    tag_377:\n        /* \"#utility.yul\":7549:7678   */\n      swap2\n      swap1\n      pop\n      jump\t// out\n        /* \"#utility.yul\":7684:7991   */\n    tag_254:\n        /* \"#utility.yul\":7745:7749   */\n      0x00\n        /* \"#utility.yul\":7835:7853   */\n      0xffffffffffffffff\n        /* \"#utility.yul\":7827:7833   */\n      dup3\n        /* \"#utility.yul\":7824:7854   */\n      gt\n        /* \"#utility.yul\":7821:7877   */\n      iszero\n      tag_379\n      jumpi\n        /* \"#utility.yul\":7857:7875   */\n      tag_380\n      tag_195\n      jump\t// in\n    tag_380:\n        /* \"#utility.yul\":7821:7877   */\n    tag_379:\n        /* \"#utility.yul\":7895:7924   */\n      tag_381\n        /* \"#utility.yul\":7917:7923   */\n      dup3\n        /* \"#utility.yul\":7895:7924   */\n      tag_237\n      jump\t// in\n    tag_381:\n        /* \"#utility.yul\":7887:7924   */\n      swap1\n      pop\n        /* \"#utility.yul\":7979:7983   */\n      0x20\n        /* \"#utility.yul\":7973:7977   */\n      dup2\n        /* \"#utility.yul\":7969:7984   */\n      add\n        /* \"#utility.yul\":7961:7984   */\n      swap1\n      pop\n        /* \"#utility.yul\":7684:7991   */\n      swap2\n      swap1\n      pop\n      jump\t// out\n        /* \"#utility.yul\":7997:8145   */\n    tag_255:\n        /* \"#utility.yul\":8095:8101   */\n      dup3\n        /* \"#utility.yul\":8090:8093   */\n      dup2\n        /* \"#utility.yul\":8085:8088   */\n      dup4\n        /* \"#utility.yul\":8072:8102   */\n      calldatacopy\n        /* \"#utility.yul\":8136:8137   */\n      0x00\n        /* \"#utility.yul\":8127:8133   */\n      dup4\n        /* \"#utility.yul\":8122:8125   */\n      dup4\n        /* \"#utility.yul\":8118:8134   */\n      add\n        /* \"#utility.yul\":8111:8138   */\n      mstore\n        /* \"#utility.yul\":7997:8145   */\n      pop\n      pop\n      pop\n      jump\t// out\n        /* \"#utility.yul\":8151:8574   */\n    tag_256:\n        /* \"#utility.yul\":8228:8233   */\n      0x00\n        /* \"#utility.yul\":8253:8318   */\n      tag_384\n        /* \"#utility.yul\":8269:8317   */\n      tag_385\n        /* \"#utility.yul\":8310:8316   */\n      dup5\n        /* \"#utility.yul\":8269:8317   */\n      tag_254\n      jump\t// in\n    tag_385:\n        /* \"#utility.yul\":8253:8318   */\n      tag_253\n      jump\t// in\n    tag_384:\n        /* \"#utility.yul\":8244:8318   */\n      swap1\n      pop\n        /* \"#utility.yul\":8341:8347   */\n      dup3\n        /* \"#utility.yul\":8334:8339   */\n      dup2\n        /* \"#utility.yul\":8327:8348   */\n      mstore\n        /* \"#utility.yul\":8379:8383   */\n      0x20\n        /* \"#utility.yul\":8372:8377   */\n      dup2\n        /* \"#utility.yul\":8368:8384   */\n      add\n        /* \"#utility.yul\":8417:8420   */\n      dup5\n        /* \"#utility.yul\":8408:8414   */\n      dup5\n        /* \"#utility.yul\":8403:8406   */\n      dup5\n        /* \"#utility.yul\":8399:8415   */\n      add\n        /* \"#utility.yul\":8396:8421   */\n      gt\n        /* \"#utility.yul\":8393:8505   */\n      iszero\n      tag_386\n      jumpi\n        /* \"#utility.yul\":8424:8503   */\n      tag_387\n      tag_251\n      jump\t// in\n    tag_387:\n        /* \"#utility.yul\":8393:8505   */\n    tag_386:\n        /* \"#utility.yul\":8514:8568   */\n      tag_388\n        /* \"#utility.yul\":8561:8567   */\n      dup5\n        /* \"#utility.yul\":8556:8559   */\n      dup3\n        /* \"#utility.yul\":8551:8554   */\n      dup6\n        /* \"#utility.yul\":8514:8568   */\n      tag_255\n      jump\t// in\n    tag_388:\n        /* \"#utility.yul\":8234:8574   */\n      pop\n        /* \"#utility.yul\":8151:8574   */\n      swap4\n      swap3\n      pop\n      pop\n      pop\n      jump\t// out\n        /* \"#utility.yul\":8593:8931   */\n    tag_257:\n        /* \"#utility.yul\":8648:8653   */\n      0x00\n        /* \"#utility.yul\":8697:8700   */\n      dup3\n        /* \"#utility.yul\":8690:8694   */\n      0x1f\n        /* \"#utility.yul\":8682:8688   */\n      dup4\n        /* \"#utility.yul\":8678:8695   */\n      add\n        /* \"#utility.yul\":8674:8701   */\n      slt\n        /* \"#utility.yul\":8664:8786   */\n      tag_390\n      jumpi\n        /* \"#utility.yul\":8705:8784   */\n      tag_391\n      tag_250\n      jump\t// in\n    tag_391:\n        /* \"#utility.yul\":8664:8786   */\n    tag_390:\n        /* \"#utility.yul\":8822:8828   */\n      dup2\n        /* \"#utility.yul\":8809:8829   */\n      calldataload\n        /* \"#utility.yul\":8847:8925   */\n      tag_392\n        /* \"#utility.yul\":8921:8924   */\n      dup5\n        /* \"#utility.yul\":8913:8919   */\n      dup3\n        /* \"#utility.yul\":8906:8910   */\n      0x20\n        /* \"#utility.yul\":8898:8904   */\n      dup7\n        /* \"#utility.yul\":8894:8911   */\n      add\n        /* \"#utility.yul\":8847:8925   */\n      tag_256\n      jump\t// in\n    tag_392:\n        /* \"#utility.yul\":8838:8925   */\n      swap2\n      pop\n        /* \"#utility.yul\":8654:8931   */\n      pop\n        /* \"#utility.yul\":8593:8931   */\n      swap3\n      swap2\n      pop\n      pop\n      jump\t// out\n        /* \"#utility.yul\":8937:9880   */\n    tag_70:\n        /* \"#utility.yul\":9032:9038   */\n      0x00\n        /* \"#utility.yul\":9040:9046   */\n      0x00\n        /* \"#utility.yul\":9048:9054   */\n      0x00\n        /* \"#utility.yul\":9056:9062   */\n      0x00\n        /* \"#utility.yul\":9105:9108   */\n      0x80\n        /* \"#utility.yul\":9093:9102   */\n      dup6\n        /* \"#utility.yul\":9084:9091   */\n      dup8\n        /* \"#utility.yul\":9080:9103   */\n      sub\n        /* \"#utility.yul\":9076:9109   */\n      slt\n        /* \"#utility.yul\":9073:9193   */\n      iszero\n      tag_394\n      jumpi\n        /* \"#utility.yul\":9112:9191   */\n      tag_395\n      tag_227\n      jump\t// in\n    tag_395:\n        /* \"#utility.yul\":9073:9193   */\n    tag_394:\n        /* \"#utility.yul\":9232:9233   */\n      0x00\n        /* \"#utility.yul\":9257:9310   */\n      tag_396\n        /* \"#utility.yul\":9302:9309   */\n      dup8\n        /* \"#utility.yul\":9293:9299   */\n      dup3\n        /* \"#utility.yul\":9282:9291   */\n      dup9\n        /* \"#utility.yul\":9278:9300   */\n      add\n        /* \"#utility.yul\":9257:9310   */\n      tag_246\n      jump\t// in\n    tag_396:\n        /* \"#utility.yul\":9247:9310   */\n      swap5\n      pop\n        /* \"#utility.yul\":9203:9320   */\n      pop\n        /* \"#utility.yul\":9359:9361   */\n      0x20\n        /* \"#utility.yul\":9385:9438   */\n      tag_397\n        /* \"#utility.yul\":9430:9437   */\n      dup8\n        /* \"#utility.yul\":9421:9427   */\n      dup3\n        /* \"#utility.yul\":9410:9419   */\n      dup9\n        /* \"#utility.yul\":9406:9428   */\n      add\n        /* \"#utility.yul\":9385:9438   */\n      tag_246\n      jump\t// in\n    tag_397:\n        /* \"#utility.yul\":9375:9438   */\n      swap4\n      pop\n        /* \"#utility.yul\":9330:9448   */\n      pop\n        /* \"#utility.yul\":9487:9489   */\n      0x40\n        /* \"#utility.yul\":9513:9566   */\n      tag_398\n        /* \"#utility.yul\":9558:9565   */\n      dup8\n        /* \"#utility.yul\":9549:9555   */\n      dup3\n        /* \"#utility.yul\":9538:9547   */\n      dup9\n        /* \"#utility.yul\":9534:9556   */\n      add\n        /* \"#utility.yul\":9513:9566   */\n      tag_241\n      jump\t// in\n    tag_398:\n        /* \"#utility.yul\":9503:9566   */\n      swap3\n      pop\n        /* \"#utility.yul\":9458:9576   */\n      pop\n        /* \"#utility.yul\":9643:9645   */\n      0x60\n        /* \"#utility.yul\":9632:9641   */\n      dup6\n        /* \"#utility.yul\":9628:9646   */\n      add\n        /* \"#utility.yul\":9615:9647   */\n      calldataload\n        /* \"#utility.yul\":9674:9692   */\n      0xffffffffffffffff\n        /* \"#utility.yul\":9666:9672   */\n      dup2\n        /* \"#utility.yul\":9663:9693   */\n      gt\n        /* \"#utility.yul\":9660:9777   */\n      iszero\n      tag_399\n      jumpi\n        /* \"#utility.yul\":9696:9775   */\n      tag_400\n      tag_228\n      jump\t// in\n    tag_400:\n        /* \"#utility.yul\":9660:9777   */\n    tag_399:\n        /* \"#utility.yul\":9801:9863   */\n      tag_401\n        /* \"#utility.yul\":9855:9862   */\n      dup8\n        /* \"#utility.yul\":9846:9852   */\n      dup3\n        /* \"#utility.yul\":9835:9844   */\n      dup9\n        /* \"#utility.yul\":9831:9853   */\n      add\n        /* \"#utility.yul\":9801:9863   */\n      tag_257\n      jump\t// in\n    tag_401:\n        /* \"#utility.yul\":9791:9863   */\n      swap2\n      pop\n        /* \"#utility.yul\":9586:9873   */\n      pop\n        /* \"#utility.yul\":8937:9880   */\n      swap3\n      swap6\n      swap2\n      swap5\n      pop\n      swap3\n      pop\n      jump\t// out\n        /* \"#utility.yul\":9886:10360   */\n    tag_81:\n        /* \"#utility.yul\":9954:9960   */\n      0x00\n        /* \"#utility.yul\":9962:9968   */\n      0x00\n        /* \"#utility.yul\":10011:10013   */\n      0x40\n        /* \"#utility.yul\":9999:10008   */\n      dup4\n        /* \"#utility.yul\":9990:9997   */\n      dup6\n        /* \"#utility.yul\":9986:10009   */\n      sub\n        /* \"#utility.yul\":9982:10014   */\n      slt\n        /* \"#utility.yul\":9979:10098   */\n      iszero\n      tag_403\n      jumpi\n        /* \"#utility.yul\":10017:10096   */\n      tag_404\n      tag_227\n      jump\t// in\n    tag_404:\n        /* \"#utility.yul\":9979:10098   */\n    tag_403:\n        /* \"#utility.yul\":10137:10138   */\n      0x00\n        /* \"#utility.yul\":10162:10215   */\n      tag_405\n        /* \"#utility.yul\":10207:10214   */\n      dup6\n        /* \"#utility.yul\":10198:10204   */\n      dup3\n        /* \"#utility.yul\":10187:10196   */\n      dup7\n        /* \"#utility.yul\":10183:10205   */\n      add\n        /* \"#utility.yul\":10162:10215   */\n      tag_246\n      jump\t// in\n    tag_405:\n        /* \"#utility.yul\":10152:10215   */\n      swap3\n      pop\n        /* \"#utility.yul\":10108:10225   */\n      pop\n        /* \"#utility.yul\":10264:10266   */\n      0x20\n        /* \"#utility.yul\":10290:10343   */\n      tag_406\n        /* \"#utility.yul\":10335:10342   */\n      dup6\n        /* \"#utility.yul\":10326:10332   */\n      dup3\n        /* \"#utility.yul\":10315:10324   */\n      dup7\n        /* \"#utility.yul\":10311:10333   */\n      add\n        /* \"#utility.yul\":10290:10343   */\n      tag_246\n      jump\t// in\n    tag_406:\n        /* \"#utility.yul\":10280:10343   */\n      swap2\n      pop\n        /* \"#utility.yul\":10235:10353   */\n      pop\n        /* \"#utility.yul\":9886:10360   */\n      swap3\n      pop\n      swap3\n      swap1\n      pop\n      jump\t// out\n        /* \"#utility.yul\":10366:10546   */\n    tag_258:\n        /* \"#utility.yul\":10414:10491   */\n      0x4e487b7100000000000000000000000000000000000000000000000000000000\n        /* \"#utility.yul\":10411:10412   */\n      0x00\n        /* \"#utility.yul\":10404:10492   */\n      mstore\n        /* \"#utility.yul\":10511:10515   */\n      0x22\n        /* \"#utility.yul\":10508:10509   */\n      0x04\n        /* \"#utility.yul\":10501:10516   */\n      mstore\n        /* \"#utility.yul\":10535:10539   */\n      0x24\n        /* \"#utility.yul\":10532:10533   */\n      0x00\n        /* \"#utility.yul\":10525:10540   */\n      revert\n        /* \"#utility.yul\":10552:10872   */\n    tag_88:\n        /* \"#utility.yul\":10596:10602   */\n      0x00\n        /* \"#utility.yul\":10633:10634   */\n      0x02\n        /* \"#utility.yul\":10627:10631   */\n      dup3\n        /* \"#utility.yul\":10623:10635   */\n      div\n        /* \"#utility.yul\":10613:10635   */\n      swap1\n      pop\n        /* \"#utility.yul\":10680:10681   */\n      0x01\n        /* \"#utility.yul\":10674:10678   */\n      dup3\n        /* \"#utility.yul\":10670:10682   */\n      and\n        /* \"#utility.yul\":10701:10719   */\n      dup1\n        /* \"#utility.yul\":10691:10772   */\n      tag_409\n      jumpi\n        /* \"#utility.yul\":10757:10761   */\n      0x7f\n        /* \"#utility.yul\":10749:10755   */\n      dup3\n        /* \"#utility.yul\":10745:10762   */\n      and\n        /* \"#utility.yul\":10735:10762   */\n      swap2\n      pop\n        /* \"#utility.yul\":10691:10772   */\n    tag_409:\n        /* \"#utility.yul\":10819:10821   */\n      0x20\n        /* \"#utility.yul\":10811:10817   */\n      dup3\n        /* \"#utility.yul\":10808:10822   */\n      lt\n        /* \"#utility.yul\":10788:10806   */\n      dup2\n        /* \"#utility.yul\":10785:10823   */\n      sub\n        /* \"#utility.yul\":10782:10866   */\n      tag_410\n      jumpi\n        /* \"#utility.yul\":10838:10856   */\n      tag_411\n      tag_258\n      jump\t// in\n    tag_411:\n        /* \"#utility.yul\":10782:10866   */\n    tag_410:\n        /* \"#utility.yul\":10603:10872   */\n      pop\n        /* \"#utility.yul\":10552:10872   */\n      swap2\n      swap1\n      pop\n      jump\t// out\n        /* \"#utility.yul\":10878:11047   */\n    tag_259:\n        /* \"#utility.yul\":11018:11039   */\n      0x746f6b656e20646f65736e277420657869737400000000000000000000000000\n        /* \"#utility.yul\":11014:11015   */\n      0x00\n        /* \"#utility.yul\":11006:11012   */\n      dup3\n        /* \"#utility.yul\":11002:11016   */\n      add\n        /* \"#utility.yul\":10995:11040   */\n      mstore\n        /* \"#utility.yul\":10878:11047   */\n      pop\n      jump\t// out\n        /* \"#utility.yul\":11053:11419   */\n    tag_260:\n        /* \"#utility.yul\":11195:11198   */\n      0x00\n        /* \"#utility.yul\":11216:11283   */\n      tag_414\n        /* \"#utility.yul\":11280:11282   */\n      0x13\n        /* \"#utility.yul\":11275:11278   */\n      dup4\n        /* \"#utility.yul\":11216:11283   */\n      tag_235\n      jump\t// in\n    tag_414:\n        /* \"#utility.yul\":11209:11283   */\n      swap2\n      pop\n        /* \"#utility.yul\":11292:11385   */\n      tag_415\n        /* \"#utility.yul\":11381:11384   */\n      dup3\n        /* \"#utility.yul\":11292:11385   */\n      tag_259\n      jump\t// in\n    tag_415:\n        /* \"#utility.yul\":11410:11412   */\n      0x20\n        /* \"#utility.yul\":11405:11408   */\n      dup3\n        /* \"#utility.yul\":11401:11413   */\n      add\n        /* \"#utility.yul\":11394:11413   */\n      swap1\n      pop\n        /* \"#utility.yul\":11053:11419   */\n      swap2\n      swap1\n      pop\n      jump\t// out\n        /* \"#utility.yul\":11425:11844   */\n    tag_96:\n        /* \"#utility.yul\":11591:11595   */\n      0x00\n        /* \"#utility.yul\":11629:11631   */\n      0x20\n        /* \"#utility.yul\":11618:11627   */\n      dup3\n        /* \"#utility.yul\":11614:11632   */\n      add\n        /* \"#utility.yul\":11606:11632   */\n      swap1\n      pop\n        /* \"#utility.yul\":11678:11687   */\n      dup2\n        /* \"#utility.yul\":11672:11676   */\n      dup2\n        /* \"#utility.yul\":11668:11688   */\n      sub\n        /* \"#utility.yul\":11664:11665   */\n      0x00\n        /* \"#utility.yul\":11653:11662   */\n      dup4\n        /* \"#utility.yul\":11649:11666   */\n      add\n        /* \"#utility.yul\":11642:11689   */\n      mstore\n        /* \"#utility.yul\":11706:11837   */\n      tag_417\n        /* \"#utility.yul\":11832:11836   */\n      dup2\n        /* \"#utility.yul\":11706:11837   */\n      tag_260\n      jump\t// in\n    tag_417:\n        /* \"#utility.yul\":11698:11837   */\n      swap1\n      pop\n        /* \"#utility.yul\":11425:11844   */\n      swap2\n      swap1\n      pop\n      jump\t// out\n        /* \"#utility.yul\":11850:12030   */\n    tag_261:\n        /* \"#utility.yul\":11990:12022   */\n      0x6e6f74206f776e6572206e6f7220617070726f76656420666f7220616c6c0000\n        /* \"#utility.yul\":11986:11987   */\n      0x00\n        /* \"#utility.yul\":11978:11984   */\n      dup3\n        /* \"#utility.yul\":11974:11988   */\n      add\n        /* \"#utility.yul\":11967:12023   */\n      mstore\n        /* \"#utility.yul\":11850:12030   */\n      pop\n      jump\t// out\n        /* \"#utility.yul\":12036:12402   */\n    tag_262:\n        /* \"#utility.yul\":12178:12181   */\n      0x00\n        /* \"#utility.yul\":12199:12266   */\n      tag_420\n        /* \"#utility.yul\":12263:12265   */\n      0x1e\n        /* \"#utility.yul\":12258:12261   */\n      dup4\n        /* \"#utility.yul\":12199:12266   */\n      tag_235\n      jump\t// in\n    tag_420:\n        /* \"#utility.yul\":12192:12266   */\n      swap2\n      pop\n        /* \"#utility.yul\":12275:12368   */\n      tag_421\n        /* \"#utility.yul\":12364:12367   */\n      dup3\n        /* \"#utility.yul\":12275:12368   */\n      tag_261\n      jump\t// in\n    tag_421:\n        /* \"#utility.yul\":12393:12395   */\n      0x20\n        /* \"#utility.yul\":12388:12391   */\n      dup3\n        /* \"#utility.yul\":12384:12396   */\n      add\n        /* \"#utility.yul\":12377:12396   */\n      swap1\n      pop\n        /* \"#utility.yul\":12036:12402   */\n      swap2\n      swap1\n      pop\n      jump\t// out\n        /* \"#utility.yul\":12408:12827   */\n    tag_101:\n        /* \"#utility.yul\":12574:12578   */\n      0x00\n        /* \"#utility.yul\":12612:12614   */\n      0x20\n        /* \"#utility.yul\":12601:12610   */\n      dup3\n        /* \"#utility.yul\":12597:12615   */\n      add\n        /* \"#utility.yul\":12589:12615   */\n      swap1\n      pop\n        /* \"#utility.yul\":12661:12670   */\n      dup2\n        /* \"#utility.yul\":12655:12659   */\n      dup2\n        /* \"#utility.yul\":12651:12671   */\n      sub\n        /* \"#utility.yul\":12647:12648   */\n      0x00\n        /* \"#utility.yul\":12636:12645   */\n      dup4\n        /* \"#utility.yul\":12632:12649   */\n      add\n        /* \"#utility.yul\":12625:12672   */\n      mstore\n        /* \"#utility.yul\":12689:12820   */\n      tag_423\n        /* \"#utility.yul\":12815:12819   */\n      dup2\n        /* \"#utility.yul\":12689:12820   */\n      tag_262\n      jump\t// in\n    tag_423:\n        /* \"#utility.yul\":12681:12820   */\n      swap1\n      pop\n        /* \"#utility.yul\":12408:12827   */\n      swap2\n      swap1\n      pop\n      jump\t// out\n        /* \"#utility.yul\":12833:13005   */\n    tag_263:\n        /* \"#utility.yul\":12973:12997   */\n      0x6e6f74206f776e6572206e6f7220617070726f76656400000000000000000000\n        /* \"#utility.yul\":12969:12970   */\n      0x00\n        /* \"#utility.yul\":12961:12967   */\n      dup3\n        /* \"#utility.yul\":12957:12971   */\n      add\n        /* \"#utility.yul\":12950:12998   */\n      mstore\n        /* \"#utility.yul\":12833:13005   */\n      pop\n      jump\t// out\n        /* \"#utility.yul\":13011:13377   */\n    tag_264:\n        /* \"#utility.yul\":13153:13156   */\n      0x00\n        /* \"#utility.yul\":13174:13241   */\n      tag_426\n        /* \"#utility.yul\":13238:13240   */\n      0x16\n        /* \"#utility.yul\":13233:13236   */\n      dup4\n        /* \"#utility.yul\":13174:13241   */\n      tag_235\n      jump\t// in\n    tag_426:\n        /* \"#utility.yul\":13167:13241   */\n      swap2\n      pop\n        /* \"#utility.yul\":13250:13343   */\n      tag_427\n        /* \"#utility.yul\":13339:13342   */\n      dup3\n        /* \"#utility.yul\":13250:13343   */\n      tag_263\n      jump\t// in\n    tag_427:\n        /* \"#utility.yul\":13368:13370   */\n      0x20\n        /* \"#utility.yul\":13363:13366   */\n      dup3\n        /* \"#utility.yul\":13359:13371   */\n      add\n        /* \"#utility.yul\":13352:13371   */\n      swap1\n      pop\n        /* \"#utility.yul\":13011:13377   */\n      swap2\n      swap1\n      pop\n      jump\t// out\n        /* \"#utility.yul\":13383:13802   */\n    tag_110:\n        /* \"#utility.yul\":13549:13553   */\n      0x00\n        /* \"#utility.yul\":13587:13589   */\n      0x20\n        /* \"#utility.yul\":13576:13585   */\n      dup3\n        /* \"#utility.yul\":13572:13590   */\n      add\n        /* \"#utility.yul\":13564:13590   */\n      swap1\n      pop\n        /* \"#utility.yul\":13636:13645   */\n      dup2\n        /* \"#utility.yul\":13630:13634   */\n      dup2\n        /* \"#utility.yul\":13626:13646   */\n      sub\n        /* \"#utility.yul\":13622:13623   */\n      0x00\n        /* \"#utility.yul\":13611:13620   */\n      dup4\n        /* \"#utility.yul\":13607:13624   */\n      add\n        /* \"#utility.yul\":13600:13647   */\n      mstore\n        /* \"#utility.yul\":13664:13795   */\n      tag_429\n        /* \"#utility.yul\":13790:13794   */\n      dup2\n        /* \"#utility.yul\":13664:13795   */\n      tag_264\n      jump\t// in\n    tag_429:\n        /* \"#utility.yul\":13656:13795   */\n      swap1\n      pop\n        /* \"#utility.yul\":13383:13802   */\n      swap2\n      swap1\n      pop\n      jump\t// out\n        /* \"#utility.yul\":13808:13978   */\n    tag_265:\n        /* \"#utility.yul\":13948:13970   */\n      0x746f6b656e4964206f7574206f662072616e6765000000000000000000000000\n        /* \"#utility.yul\":13944:13945   */\n      0x00\n        /* \"#utility.yul\":13936:13942   */\n      dup3\n        /* \"#utility.yul\":13932:13946   */\n      add\n        /* \"#utility.yul\":13925:13971   */\n      mstore\n        /* \"#utility.yul\":13808:13978   */\n      pop\n      jump\t// out\n        /* \"#utility.yul\":13984:14350   */\n    tag_266:\n        /* \"#utility.yul\":14126:14129   */\n      0x00\n        /* \"#utility.yul\":14147:14214   */\n      tag_432\n        /* \"#utility.yul\":14211:14213   */\n      0x14\n        /* \"#utility.yul\":14206:14209   */\n      dup4\n        /* \"#utility.yul\":14147:14214   */\n      tag_235\n      jump\t// in\n    tag_432:\n        /* \"#utility.yul\":14140:14214   */\n      swap2\n      pop\n        /* \"#utility.yul\":14223:14316   */\n      tag_433\n        /* \"#utility.yul\":14312:14315   */\n      dup3\n        /* \"#utility.yul\":14223:14316   */\n      tag_265\n      jump\t// in\n    tag_433:\n        /* \"#utility.yul\":14341:14343   */\n      0x20\n        /* \"#utility.yul\":14336:14339   */\n      dup3\n        /* \"#utility.yul\":14332:14344   */\n      add\n        /* \"#utility.yul\":14325:14344   */\n      swap1\n      pop\n        /* \"#utility.yul\":13984:14350   */\n      swap2\n      swap1\n      pop\n      jump\t// out\n        /* \"#utility.yul\":14356:14775   */\n    tag_117:\n        /* \"#utility.yul\":14522:14526   */\n      0x00\n        /* \"#utility.yul\":14560:14562   */\n      0x20\n        /* \"#utility.yul\":14549:14558   */\n      dup3\n        /* \"#utility.yul\":14545:14563   */\n      add\n        /* \"#utility.yul\":14537:14563   */\n      swap1\n      pop\n        /* \"#utility.yul\":14609:14618   */\n      dup2\n        /* \"#utility.yul\":14603:14607   */\n      dup2\n        /* \"#utility.yul\":14599:14619   */\n      sub\n        /* \"#utility.yul\":14595:14596   */\n      0x00\n        /* \"#utility.yul\":14584:14593   */\n      dup4\n        /* \"#utility.yul\":14580:14597   */\n      add\n        /* \"#utility.yul\":14573:14620   */\n      mstore\n        /* \"#utility.yul\":14637:14768   */\n      tag_435\n        /* \"#utility.yul\":14763:14767   */\n      dup2\n        /* \"#utility.yul\":14637:14768   */\n      tag_266\n      jump\t// in\n    tag_435:\n        /* \"#utility.yul\":14629:14768   */\n      swap1\n      pop\n        /* \"#utility.yul\":14356:14775   */\n      swap2\n      swap1\n      pop\n      jump\t// out\n        /* \"#utility.yul\":14781:14951   */\n    tag_267:\n        /* \"#utility.yul\":14921:14943   */\n      0x6f776e6572203d207a65726f2061646472657373000000000000000000000000\n        /* \"#utility.yul\":14917:14918   */\n      0x00\n        /* \"#utility.yul\":14909:14915   */\n      dup3\n        /* \"#utility.yul\":14905:14919   */\n      add\n        /* \"#utility.yul\":14898:14944   */\n      mstore\n        /* \"#utility.yul\":14781:14951   */\n      pop\n      jump\t// out\n        /* \"#utility.yul\":14957:15323   */\n    tag_268:\n        /* \"#utility.yul\":15099:15102   */\n      0x00\n        /* \"#utility.yul\":15120:15187   */\n      tag_438\n        /* \"#utility.yul\":15184:15186   */\n      0x14\n        /* \"#utility.yul\":15179:15182   */\n      dup4\n        /* \"#utility.yul\":15120:15187   */\n      tag_235\n      jump\t// in\n    tag_438:\n        /* \"#utility.yul\":15113:15187   */\n      swap2\n      pop\n        /* \"#utility.yul\":15196:15289   */\n      tag_439\n        /* \"#utility.yul\":15285:15288   */\n      dup3\n        /* \"#utility.yul\":15196:15289   */\n      tag_267\n      jump\t// in\n    tag_439:\n        /* \"#utility.yul\":15314:15316   */\n      0x20\n        /* \"#utility.yul\":15309:15312   */\n      dup3\n        /* \"#utility.yul\":15305:15317   */\n      add\n        /* \"#utility.yul\":15298:15317   */\n      swap1\n      pop\n        /* \"#utility.yul\":14957:15323   */\n      swap2\n      swap1\n      pop\n      jump\t// out\n        /* \"#utility.yul\":15329:15748   */\n    tag_128:\n        /* \"#utility.yul\":15495:15499   */\n      0x00\n        /* \"#utility.yul\":15533:15535   */\n      0x20\n        /* \"#utility.yul\":15522:15531   */\n      dup3\n        /* \"#utility.yul\":15518:15536   */\n      add\n        /* \"#utility.yul\":15510:15536   */\n      swap1\n      pop\n        /* \"#utility.yul\":15582:15591   */\n      dup2\n        /* \"#utility.yul\":15576:15580   */\n      dup2\n        /* \"#utility.yul\":15572:15592   */\n      sub\n        /* \"#utility.yul\":15568:15569   */\n      0x00\n        /* \"#utility.yul\":15557:15566   */\n      dup4\n        /* \"#utility.yul\":15553:15570   */\n      add\n        /* \"#utility.yul\":15546:15593   */\n      mstore\n        /* \"#utility.yul\":15610:15741   */\n      tag_441\n        /* \"#utility.yul\":15736:15740   */\n      dup2\n        /* \"#utility.yul\":15610:15741   */\n      tag_268\n      jump\t// in\n    tag_441:\n        /* \"#utility.yul\":15602:15741   */\n      swap1\n      pop\n        /* \"#utility.yul\":15329:15748   */\n      swap2\n      swap1\n      pop\n      jump\t// out\n        /* \"#utility.yul\":15754:15919   */\n    tag_269:\n        /* \"#utility.yul\":15894:15911   */\n      0x546f6b656e204e6f742045786973740000000000000000000000000000000000\n        /* \"#utility.yul\":15890:15891   */\n      0x00\n        /* \"#utility.yul\":15882:15888   */\n      dup3\n        /* \"#utility.yul\":15878:15892   */\n      add\n        /* \"#utility.yul\":15871:15912   */\n      mstore\n        /* \"#utility.yul\":15754:15919   */\n      pop\n      jump\t// out\n        /* \"#utility.yul\":15925:16291   */\n    tag_270:\n        /* \"#utility.yul\":16067:16070   */\n      0x00\n        /* \"#utility.yul\":16088:16155   */\n      tag_444\n        /* \"#utility.yul\":16152:16154   */\n      0x0f\n        /* \"#utility.yul\":16147:16150   */\n      dup4\n        /* \"#utility.yul\":16088:16155   */\n      tag_235\n      jump\t// in\n    tag_444:\n        /* \"#utility.yul\":16081:16155   */\n      swap2\n      pop\n        /* \"#utility.yul\":16164:16257   */\n      tag_445\n        /* \"#utility.yul\":16253:16256   */\n      dup3\n        /* \"#utility.yul\":16164:16257   */\n      tag_269\n      jump\t// in\n    tag_445:\n        /* \"#utility.yul\":16282:16284   */\n      0x20\n        /* \"#utility.yul\":16277:16280   */\n      dup3\n        /* \"#utility.yul\":16273:16285   */\n      add\n        /* \"#utility.yul\":16266:16285   */\n      swap1\n      pop\n        /* \"#utility.yul\":15925:16291   */\n      swap2\n      swap1\n      pop\n      jump\t// out\n        /* \"#utility.yul\":16297:16716   */\n    tag_146:\n        /* \"#utility.yul\":16463:16467   */\n      0x00\n        /* \"#utility.yul\":16501:16503   */\n      0x20\n        /* \"#utility.yul\":16490:16499   */\n      dup3\n        /* \"#utility.yul\":16486:16504   */\n      add\n        /* \"#utility.yul\":16478:16504   */\n      swap1\n      pop\n        /* \"#utility.yul\":16550:16559   */\n      dup2\n        /* \"#utility.yul\":16544:16548   */\n      dup2\n        /* \"#utility.yul\":16540:16560   */\n      sub\n        /* \"#utility.yul\":16536:16537   */\n      0x00\n        /* \"#utility.yul\":16525:16534   */\n      dup4\n        /* \"#utility.yul\":16521:16538   */\n      add\n        /* \"#utility.yul\":16514:16561   */\n      mstore\n        /* \"#utility.yul\":16578:16709   */\n      tag_447\n        /* \"#utility.yul\":16704:16708   */\n      dup2\n        /* \"#utility.yul\":16578:16709   */\n      tag_270\n      jump\t// in\n    tag_447:\n        /* \"#utility.yul\":16570:16709   */\n      swap1\n      pop\n        /* \"#utility.yul\":16297:16716   */\n      swap2\n      swap1\n      pop\n      jump\t// out\n        /* \"#utility.yul\":16722:16870   */\n    tag_271:\n        /* \"#utility.yul\":16824:16835   */\n      0x00\n        /* \"#utility.yul\":16861:16864   */\n      dup2\n        /* \"#utility.yul\":16846:16864   */\n      swap1\n      pop\n        /* \"#utility.yul\":16722:16870   */\n      swap3\n      swap2\n      pop\n      pop\n      jump\t// out\n        /* \"#utility.yul\":16876:17266   */\n    tag_272:\n        /* \"#utility.yul\":16982:16985   */\n      0x00\n        /* \"#utility.yul\":17010:17049   */\n      tag_450\n        /* \"#utility.yul\":17043:17048   */\n      dup3\n        /* \"#utility.yul\":17010:17049   */\n      tag_234\n      jump\t// in\n    tag_450:\n        /* \"#utility.yul\":17065:17154   */\n      tag_451\n        /* \"#utility.yul\":17147:17153   */\n      dup2\n        /* \"#utility.yul\":17142:17145   */\n      dup6\n        /* \"#utility.yul\":17065:17154   */\n      tag_271\n      jump\t// in\n    tag_451:\n        /* \"#utility.yul\":17058:17154   */\n      swap4\n      pop\n        /* \"#utility.yul\":17163:17228   */\n      tag_452\n        /* \"#utility.yul\":17221:17227   */\n      dup2\n        /* \"#utility.yul\":17216:17219   */\n      dup6\n        /* \"#utility.yul\":17209:17213   */\n      0x20\n        /* \"#utility.yul\":17202:17207   */\n      dup7\n        /* \"#utility.yul\":17198:17214   */\n      add\n        /* \"#utility.yul\":17163:17228   */\n      tag_236\n      jump\t// in\n    tag_452:\n        /* \"#utility.yul\":17253:17259   */\n      dup1\n        /* \"#utility.yul\":17248:17251   */\n      dup5\n        /* \"#utility.yul\":17244:17260   */\n      add\n        /* \"#utility.yul\":17237:17260   */\n      swap2\n      pop\n        /* \"#utility.yul\":16986:17266   */\n      pop\n        /* \"#utility.yul\":16876:17266   */\n      swap3\n      swap2\n      pop\n      pop\n      jump\t// out\n        /* \"#utility.yul\":17272:17707   */\n    tag_154:\n        /* \"#utility.yul\":17452:17455   */\n      0x00\n        /* \"#utility.yul\":17474:17569   */\n      tag_454\n        /* \"#utility.yul\":17565:17568   */\n      dup3\n        /* \"#utility.yul\":17556:17562   */\n      dup6\n        /* \"#utility.yul\":17474:17569   */\n      tag_272\n      jump\t// in\n    tag_454:\n        /* \"#utility.yul\":17467:17569   */\n      swap2\n      pop\n        /* \"#utility.yul\":17586:17681   */\n      tag_455\n        /* \"#utility.yul\":17677:17680   */\n      dup3\n        /* \"#utility.yul\":17668:17674   */\n      dup5\n        /* \"#utility.yul\":17586:17681   */\n      tag_272\n      jump\t// in\n    tag_455:\n        /* \"#utility.yul\":17579:17681   */\n      swap2\n      pop\n        /* \"#utility.yul\":17698:17701   */\n      dup2\n        /* \"#utility.yul\":17691:17701   */\n      swap1\n      pop\n        /* \"#utility.yul\":17272:17707   */\n      swap4\n      swap3\n      pop\n      pop\n      pop\n      jump\t// out\n        /* \"#utility.yul\":17713:17872   */\n    tag_273:\n        /* \"#utility.yul\":17853:17864   */\n      0x6e6f74206f776e65720000000000000000000000000000000000000000000000\n        /* \"#utility.yul\":17849:17850   */\n      0x00\n        /* \"#utility.yul\":17841:17847   */\n      dup3\n        /* \"#utility.yul\":17837:17851   */\n      add\n        /* \"#utility.yul\":17830:17865   */\n      mstore\n        /* \"#utility.yul\":17713:17872   */\n      pop\n      jump\t// out\n        /* \"#utility.yul\":17878:18243   */\n    tag_274:\n        /* \"#utility.yul\":18020:18023   */\n      0x00\n        /* \"#utility.yul\":18041:18107   */\n      tag_458\n        /* \"#utility.yul\":18105:18106   */\n      0x09\n        /* \"#utility.yul\":18100:18103   */\n      dup4\n        /* \"#utility.yul\":18041:18107   */\n      tag_235\n      jump\t// in\n    tag_458:\n        /* \"#utility.yul\":18034:18107   */\n      swap2\n      pop\n        /* \"#utility.yul\":18116:18209   */\n      tag_459\n        /* \"#utility.yul\":18205:18208   */\n      dup3\n        /* \"#utility.yul\":18116:18209   */\n      tag_273\n      jump\t// in\n    tag_459:\n        /* \"#utility.yul\":18234:18236   */\n      0x20\n        /* \"#utility.yul\":18229:18232   */\n      dup3\n        /* \"#utility.yul\":18225:18237   */\n      add\n        /* \"#utility.yul\":18218:18237   */\n      swap1\n      pop\n        /* \"#utility.yul\":17878:18243   */\n      swap2\n      swap1\n      pop\n      jump\t// out\n        /* \"#utility.yul\":18249:18668   */\n    tag_163:\n        /* \"#utility.yul\":18415:18419   */\n      0x00\n        /* \"#utility.yul\":18453:18455   */\n      0x20\n        /* \"#utility.yul\":18442:18451   */\n      dup3\n        /* \"#utility.yul\":18438:18456   */\n      add\n        /* \"#utility.yul\":18430:18456   */\n      swap1\n      pop\n        /* \"#utility.yul\":18502:18511   */\n      dup2\n        /* \"#utility.yul\":18496:18500   */\n      dup2\n        /* \"#utility.yul\":18492:18512   */\n      sub\n        /* \"#utility.yul\":18488:18489   */\n      0x00\n        /* \"#utility.yul\":18477:18486   */\n      dup4\n        /* \"#utility.yul\":18473:18490   */\n      add\n        /* \"#utility.yul\":18466:18513   */\n      mstore\n        /* \"#utility.yul\":18530:18661   */\n      tag_461\n        /* \"#utility.yul\":18656:18660   */\n      dup2\n        /* \"#utility.yul\":18530:18661   */\n      tag_274\n      jump\t// in\n    tag_461:\n        /* \"#utility.yul\":18522:18661   */\n      swap1\n      pop\n        /* \"#utility.yul\":18249:18668   */\n      swap2\n      swap1\n      pop\n      jump\t// out\n        /* \"#utility.yul\":18674:18852   */\n    tag_275:\n        /* \"#utility.yul\":18814:18844   */\n      0x7472616e7366657220746f20746865207a65726f206164647265737300000000\n        /* \"#utility.yul\":18810:18811   */\n      0x00\n        /* \"#utility.yul\":18802:18808   */\n      dup3\n        /* \"#utility.yul\":18798:18812   */\n      add\n        /* \"#utility.yul\":18791:18845   */\n      mstore\n        /* \"#utility.yul\":18674:18852   */\n      pop\n      jump\t// out\n        /* \"#utility.yul\":18858:19224   */\n    tag_276:\n        /* \"#utility.yul\":19000:19003   */\n      0x00\n        /* \"#utility.yul\":19021:19088   */\n      tag_464\n        /* \"#utility.yul\":19085:19087   */\n      0x1c\n        /* \"#utility.yul\":19080:19083   */\n      dup4\n        /* \"#utility.yul\":19021:19088   */\n      tag_235\n      jump\t// in\n    tag_464:\n        /* \"#utility.yul\":19014:19088   */\n      swap2\n      pop\n        /* \"#utility.yul\":19097:19190   */\n      tag_465\n        /* \"#utility.yul\":19186:19189   */\n      dup3\n        /* \"#utility.yul\":19097:19190   */\n      tag_275\n      jump\t// in\n    tag_465:\n        /* \"#utility.yul\":19215:19217   */\n      0x20\n        /* \"#utility.yul\":19210:19213   */\n      dup3\n        /* \"#utility.yul\":19206:19218   */\n      add\n        /* \"#utility.yul\":19199:19218   */\n      swap1\n      pop\n        /* \"#utility.yul\":18858:19224   */\n      swap2\n      swap1\n      pop\n      jump\t// out\n        /* \"#utility.yul\":19230:19649   */\n    tag_166:\n        /* \"#utility.yul\":19396:19400   */\n      0x00\n        /* \"#utility.yul\":19434:19436   */\n      0x20\n        /* \"#utility.yul\":19423:19432   */\n      dup3\n        /* \"#utility.yul\":19419:19437   */\n      add\n        /* \"#utility.yul\":19411:19437   */\n      swap1\n      pop\n        /* \"#utility.yul\":19483:19492   */\n      dup2\n        /* \"#utility.yul\":19477:19481   */\n      dup2\n        /* \"#utility.yul\":19473:19493   */\n      sub\n        /* \"#utility.yul\":19469:19470   */\n      0x00\n        /* \"#utility.yul\":19458:19467   */\n      dup4\n        /* \"#utility.yul\":19454:19471   */\n      add\n        /* \"#utility.yul\":19447:19494   */\n      mstore\n        /* \"#utility.yul\":19511:19642   */\n      tag_467\n        /* \"#utility.yul\":19637:19641   */\n      dup2\n        /* \"#utility.yul\":19511:19642   */\n      tag_276\n      jump\t// in\n    tag_467:\n        /* \"#utility.yul\":19503:19642   */\n      swap1\n      pop\n        /* \"#utility.yul\":19230:19649   */\n      swap2\n      swap1\n      pop\n      jump\t// out\n        /* \"#utility.yul\":19655:19835   */\n    tag_277:\n        /* \"#utility.yul\":19703:19780   */\n      0x4e487b7100000000000000000000000000000000000000000000000000000000\n        /* \"#utility.yul\":19700:19701   */\n      0x00\n        /* \"#utility.yul\":19693:19781   */\n      mstore\n        /* \"#utility.yul\":19800:19804   */\n      0x11\n        /* \"#utility.yul\":19797:19798   */\n      0x04\n        /* \"#utility.yul\":19790:19805   */\n      mstore\n        /* \"#utility.yul\":19824:19828   */\n      0x24\n        /* \"#utility.yul\":19821:19822   */\n      0x00\n        /* \"#utility.yul\":19814:19829   */\n      revert\n        /* \"#utility.yul\":19841:20035   */\n    tag_169:\n        /* \"#utility.yul\":19881:19885   */\n      0x00\n        /* \"#utility.yul\":19901:19921   */\n      tag_470\n        /* \"#utility.yul\":19919:19920   */\n      dup3\n        /* \"#utility.yul\":19901:19921   */\n      tag_239\n      jump\t// in\n    tag_470:\n        /* \"#utility.yul\":19896:19921   */\n      swap2\n      pop\n        /* \"#utility.yul\":19935:19955   */\n      tag_471\n        /* \"#utility.yul\":19953:19954   */\n      dup4\n        /* \"#utility.yul\":19935:19955   */\n      tag_239\n      jump\t// in\n    tag_471:\n        /* \"#utility.yul\":19930:19955   */\n      swap3\n      pop\n        /* \"#utility.yul\":19979:19980   */\n      dup3\n        /* \"#utility.yul\":19976:19977   */\n      dup3\n        /* \"#utility.yul\":19972:19981   */\n      sub\n        /* \"#utility.yul\":19964:19981   */\n      swap1\n      pop\n        /* \"#utility.yul\":20003:20004   */\n      dup2\n        /* \"#utility.yul\":19997:20001   */\n      dup2\n        /* \"#utility.yul\":19994:20005   */\n      gt\n        /* \"#utility.yul\":19991:20028   */\n      iszero\n      tag_472\n      jumpi\n        /* \"#utility.yul\":20008:20026   */\n      tag_473\n      tag_277\n      jump\t// in\n    tag_473:\n        /* \"#utility.yul\":19991:20028   */\n    tag_472:\n        /* \"#utility.yul\":19841:20035   */\n      swap3\n      swap2\n      pop\n      pop\n      jump\t// out\n        /* \"#utility.yul\":20041:20232   */\n    tag_171:\n        /* \"#utility.yul\":20081:20084   */\n      0x00\n        /* \"#utility.yul\":20100:20120   */\n      tag_475\n        /* \"#utility.yul\":20118:20119   */\n      dup3\n        /* \"#utility.yul\":20100:20120   */\n      tag_239\n      jump\t// in\n    tag_475:\n        /* \"#utility.yul\":20095:20120   */\n      swap2\n      pop\n        /* \"#utility.yul\":20134:20154   */\n      tag_476\n        /* \"#utility.yul\":20152:20153   */\n      dup4\n        /* \"#utility.yul\":20134:20154   */\n      tag_239\n      jump\t// in\n    tag_476:\n        /* \"#utility.yul\":20129:20154   */\n      swap3\n      pop\n        /* \"#utility.yul\":20177:20178   */\n      dup3\n        /* \"#utility.yul\":20174:20175   */\n      dup3\n        /* \"#utility.yul\":20170:20179   */\n      add\n        /* \"#utility.yul\":20163:20179   */\n      swap1\n      pop\n        /* \"#utility.yul\":20198:20201   */\n      dup1\n        /* \"#utility.yul\":20195:20196   */\n      dup3\n        /* \"#utility.yul\":20192:20202   */\n      gt\n        /* \"#utility.yul\":20189:20225   */\n      iszero\n      tag_477\n      jumpi\n        /* \"#utility.yul\":20205:20223   */\n      tag_478\n      tag_277\n      jump\t// in\n    tag_478:\n        /* \"#utility.yul\":20189:20225   */\n    tag_477:\n        /* \"#utility.yul\":20041:20232   */\n      swap3\n      swap2\n      pop\n      pop\n      jump\t// out\n        /* \"#utility.yul\":20238:20408   */\n    tag_278:\n        /* \"#utility.yul\":20378:20400   */\n      0x6d696e7420746f207a65726f2061646472657373000000000000000000000000\n        /* \"#utility.yul\":20374:20375   */\n      0x00\n        /* \"#utility.yul\":20366:20372   */\n      dup3\n        /* \"#utility.yul\":20362:20376   */\n      add\n        /* \"#utility.yul\":20355:20401   */\n      mstore\n        /* \"#utility.yul\":20238:20408   */\n      pop\n      jump\t// out\n        /* \"#utility.yul\":20414:20780   */\n    tag_279:\n        /* \"#utility.yul\":20556:20559   */\n      0x00\n        /* \"#utility.yul\":20577:20644   */\n      tag_481\n        /* \"#utility.yul\":20641:20643   */\n      0x14\n        /* \"#utility.yul\":20636:20639   */\n      dup4\n        /* \"#utility.yul\":20577:20644   */\n      tag_235\n      jump\t// in\n    tag_481:\n        /* \"#utility.yul\":20570:20644   */\n      swap2\n      pop\n        /* \"#utility.yul\":20653:20746   */\n      tag_482\n        /* \"#utility.yul\":20742:20745   */\n      dup3\n        /* \"#utility.yul\":20653:20746   */\n      tag_278\n      jump\t// in\n    tag_482:\n        /* \"#utility.yul\":20771:20773   */\n      0x20\n        /* \"#utility.yul\":20766:20769   */\n      dup3\n        /* \"#utility.yul\":20762:20774   */\n      add\n        /* \"#utility.yul\":20755:20774   */\n      swap1\n      pop\n        /* \"#utility.yul\":20414:20780   */\n      swap2\n      swap1\n      pop\n      jump\t// out\n        /* \"#utility.yul\":20786:21205   */\n    tag_175:\n        /* \"#utility.yul\":20952:20956   */\n      0x00\n        /* \"#utility.yul\":20990:20992   */\n      0x20\n        /* \"#utility.yul\":20979:20988   */\n      dup3\n        /* \"#utility.yul\":20975:20993   */\n      add\n        /* \"#utility.yul\":20967:20993   */\n      swap1\n      pop\n        /* \"#utility.yul\":21039:21048   */\n      dup2\n        /* \"#utility.yul\":21033:21037   */\n      dup2\n        /* \"#utility.yul\":21029:21049   */\n      sub\n        /* \"#utility.yul\":21025:21026   */\n      0x00\n        /* \"#utility.yul\":21014:21023   */\n      dup4\n        /* \"#utility.yul\":21010:21027   */\n      add\n        /* \"#utility.yul\":21003:21050   */\n      mstore\n        /* \"#utility.yul\":21067:21198   */\n      tag_484\n        /* \"#utility.yul\":21193:21197   */\n      dup2\n        /* \"#utility.yul\":21067:21198   */\n      tag_279\n      jump\t// in\n    tag_484:\n        /* \"#utility.yul\":21059:21198   */\n      swap1\n      pop\n        /* \"#utility.yul\":20786:21205   */\n      swap2\n      swap1\n      pop\n      jump\t// out\n        /* \"#utility.yul\":21211:21381   */\n    tag_280:\n        /* \"#utility.yul\":21351:21373   */\n      0x746f6b656e20616c7265616479206d696e746564000000000000000000000000\n        /* \"#utility.yul\":21347:21348   */\n      0x00\n        /* \"#utility.yul\":21339:21345   */\n      dup3\n        /* \"#utility.yul\":21335:21349   */\n      add\n        /* \"#utility.yul\":21328:21374   */\n      mstore\n        /* \"#utility.yul\":21211:21381   */\n      pop\n      jump\t// out\n        /* \"#utility.yul\":21387:21753   */\n    tag_281:\n        /* \"#utility.yul\":21529:21532   */\n      0x00\n        /* \"#utility.yul\":21550:21617   */\n      tag_487\n        /* \"#utility.yul\":21614:21616   */\n      0x14\n        /* \"#utility.yul\":21609:21612   */\n      dup4\n        /* \"#utility.yul\":21550:21617   */\n      tag_235\n      jump\t// in\n    tag_487:\n        /* \"#utility.yul\":21543:21617   */\n      swap2\n      pop\n        /* \"#utility.yul\":21626:21719   */\n      tag_488\n        /* \"#utility.yul\":21715:21718   */\n      dup3\n        /* \"#utility.yul\":21626:21719   */\n      tag_280\n      jump\t// in\n    tag_488:\n        /* \"#utility.yul\":21744:21746   */\n      0x20\n        /* \"#utility.yul\":21739:21742   */\n      dup3\n        /* \"#utility.yul\":21735:21747   */\n      add\n        /* \"#utility.yul\":21728:21747   */\n      swap1\n      pop\n        /* \"#utility.yul\":21387:21753   */\n      swap2\n      swap1\n      pop\n      jump\t// out\n        /* \"#utility.yul\":21759:22178   */\n    tag_178:\n        /* \"#utility.yul\":21925:21929   */\n      0x00\n        /* \"#utility.yul\":21963:21965   */\n      0x20\n        /* \"#utility.yul\":21952:21961   */\n      dup3\n        /* \"#utility.yul\":21948:21966   */\n      add\n        /* \"#utility.yul\":21940:21966   */\n      swap1\n      pop\n        /* \"#utility.yul\":22012:22021   */\n      dup2\n        /* \"#utility.yul\":22006:22010   */\n      dup2\n        /* \"#utility.yul\":22002:22022   */\n      sub\n        /* \"#utility.yul\":21998:21999   */\n      0x00\n        /* \"#utility.yul\":21987:21996   */\n      dup4\n        /* \"#utility.yul\":21983:22000   */\n      add\n        /* \"#utility.yul\":21976:22023   */\n      mstore\n        /* \"#utility.yul\":22040:22171   */\n      tag_490\n        /* \"#utility.yul\":22166:22170   */\n      dup2\n        /* \"#utility.yul\":22040:22171   */\n      tag_281\n      jump\t// in\n    tag_490:\n        /* \"#utility.yul\":22032:22171   */\n      swap1\n      pop\n        /* \"#utility.yul\":21759:22178   */\n      swap2\n      swap1\n      pop\n      jump\t// out\n        /* \"#utility.yul\":22184:22417   */\n    tag_190:\n        /* \"#utility.yul\":22223:22226   */\n      0x00\n        /* \"#utility.yul\":22246:22270   */\n      tag_492\n        /* \"#utility.yul\":22264:22269   */\n      dup3\n        /* \"#utility.yul\":22246:22270   */\n      tag_239\n      jump\t// in\n    tag_492:\n        /* \"#utility.yul\":22237:22270   */\n      swap2\n      pop\n        /* \"#utility.yul\":22292:22358   */\n      0xffffffffffffffffffffffffffffffffffffffffffffffffffffffffffffffff\n        /* \"#utility.yul\":22285:22290   */\n      dup3\n        /* \"#utility.yul\":22282:22359   */\n      sub\n        /* \"#utility.yul\":22279:22382   */\n      tag_493\n      jumpi\n        /* \"#utility.yul\":22362:22380   */\n      tag_494\n      tag_277\n      jump\t// in\n    tag_494:\n        /* \"#utility.yul\":22279:22382   */\n    tag_493:\n        /* \"#utility.yul\":22409:22410   */\n      0x01\n        /* \"#utility.yul\":22402:22407   */\n      dup3\n        /* \"#utility.yul\":22398:22411   */\n      add\n        /* \"#utility.yul\":22391:22411   */\n      swap1\n      pop\n        /* \"#utility.yul\":22184:22417   */\n      swap2\n      swap1\n      pop\n      jump\t// out\n        /* \"#utility.yul\":22423:22603   */\n    tag_282:\n        /* \"#utility.yul\":22471:22548   */\n      0x4e487b7100000000000000000000000000000000000000000000000000000000\n        /* \"#utility.yul\":22468:22469   */\n      0x00\n        /* \"#utility.yul\":22461:22549   */\n      mstore\n        /* \"#utility.yul\":22568:22572   */\n      0x12\n        /* \"#utility.yul\":22565:22566   */\n      0x04\n        /* \"#utility.yul\":22558:22573   */\n      mstore\n        /* \"#utility.yul\":22592:22596   */\n      0x24\n        /* \"#utility.yul\":22589:22590   */\n      0x00\n        /* \"#utility.yul\":22582:22597   */\n      revert\n        /* \"#utility.yul\":22609:22794   */\n    tag_192:\n        /* \"#utility.yul\":22649:22650   */\n      0x00\n        /* \"#utility.yul\":22666:22686   */\n      tag_497\n        /* \"#utility.yul\":22684:22685   */\n      dup3\n        /* \"#utility.yul\":22666:22686   */\n      tag_239\n      jump\t// in\n    tag_497:\n        /* \"#utility.yul\":22661:22686   */\n      swap2\n      pop\n        /* \"#utility.yul\":22700:22720   */\n      tag_498\n        /* \"#utility.yul\":22718:22719   */\n      dup4\n        /* \"#utility.yul\":22700:22720   */\n      tag_239\n      jump\t// in\n    tag_498:\n        /* \"#utility.yul\":22695:22720   */\n      swap3\n      pop\n        /* \"#utility.yul\":22739:22740   */\n      dup3\n        /* \"#utility.yul\":22729:22764   */\n      tag_499\n      jumpi\n        /* \"#utility.yul\":22744:22762   */\n      tag_500\n      tag_282\n      jump\t// in\n    tag_500:\n        /* \"#utility.yul\":22729:22764   */\n    tag_499:\n        /* \"#utility.yul\":22786:22787   */\n      dup3\n        /* \"#utility.yul\":22783:22784   */\n      dup3\n        /* \"#utility.yul\":22779:22788   */\n      div\n        /* \"#utility.yul\":22774:22788   */\n      swap1\n      pop\n        /* \"#utility.yul\":22609:22794   */\n      swap3\n      swap2\n      pop\n      pop\n      jump\t// out\n        /* \"#utility.yul\":22800:22976   */\n    tag_201:\n        /* \"#utility.yul\":22832:22833   */\n      0x00\n        /* \"#utility.yul\":22849:22869   */\n      tag_502\n        /* \"#utility.yul\":22867:22868   */\n      dup3\n        /* \"#utility.yul\":22849:22869   */\n      tag_239\n      jump\t// in\n    tag_502:\n        /* \"#utility.yul\":22844:22869   */\n      swap2\n      pop\n        /* \"#utility.yul\":22883:22903   */\n      tag_503\n        /* \"#utility.yul\":22901:22902   */\n      dup4\n        /* \"#utility.yul\":22883:22903   */\n      tag_239\n      jump\t// in\n    tag_503:\n        /* \"#utility.yul\":22878:22903   */\n      swap3\n      pop\n        /* \"#utility.yul\":22922:22923   */\n      dup3\n        /* \"#utility.yul\":22912:22947   */\n      tag_504\n      jumpi\n        /* \"#utility.yul\":22927:22945   */\n      tag_505\n      tag_282\n      jump\t// in\n    tag_505:\n        /* \"#utility.yul\":22912:22947   */\n    tag_504:\n        /* \"#utility.yul\":22968:22969   */\n      dup3\n        /* \"#utility.yul\":22965:22966   */\n      dup3\n        /* \"#utility.yul\":22961:22970   */\n      mod\n        /* \"#utility.yul\":22956:22970   */\n      swap1\n      pop\n        /* \"#utility.yul\":22800:22976   */\n      swap3\n      swap2\n      pop\n      pop\n      jump\t// out\n        /* \"#utility.yul\":22982:23162   */\n    tag_205:\n        /* \"#utility.yul\":23030:23107   */\n      0x4e487b7100000000000000000000000000000000000000000000000000000000\n        /* \"#utility.yul\":23027:23028   */\n      0x00\n        /* \"#utility.yul\":23020:23108   */\n      mstore\n        /* \"#utility.yul\":23127:23131   */\n      0x32\n        /* \"#utility.yul\":23124:23125   */\n      0x04\n        /* \"#utility.yul\":23117:23132   */\n      mstore\n        /* \"#utility.yul\":23151:23155   */\n      0x24\n        /* \"#utility.yul\":23148:23149   */\n      0x00\n        /* \"#utility.yul\":23141:23156   */\n      revert\n        /* \"#utility.yul\":23168:23266   */\n    tag_283:\n        /* \"#utility.yul\":23219:23225   */\n      0x00\n        /* \"#utility.yul\":23253:23258   */\n      dup2\n        /* \"#utility.yul\":23247:23259   */\n      mload\n        /* \"#utility.yul\":23237:23259   */\n      swap1\n      pop\n        /* \"#utility.yul\":23168:23266   */\n      swap2\n      swap1\n      pop\n      jump\t// out\n        /* \"#utility.yul\":23272:23440   */\n    tag_284:\n        /* \"#utility.yul\":23355:23366   */\n      0x00\n        /* \"#utility.yul\":23389:23395   */\n      dup3\n        /* \"#utility.yul\":23384:23387   */\n      dup3\n        /* \"#utility.yul\":23377:23396   */\n      mstore\n        /* \"#utility.yul\":23429:23433   */\n      0x20\n        /* \"#utility.yul\":23424:23427   */\n      dup3\n        /* \"#utility.yul\":23420:23434   */\n      add\n        /* \"#utility.yul\":23405:23434   */\n      swap1\n      pop\n        /* \"#utility.yul\":23272:23440   */\n      swap3\n      swap2\n      pop\n      pop\n      jump\t// out\n        /* \"#utility.yul\":23446:23819   */\n    tag_285:\n        /* \"#utility.yul\":23532:23535   */\n      0x00\n        /* \"#utility.yul\":23560:23598   */\n      tag_510\n        /* \"#utility.yul\":23592:23597   */\n      dup3\n        /* \"#utility.yul\":23560:23598   */\n      tag_283\n      jump\t// in\n    tag_510:\n        /* \"#utility.yul\":23614:23684   */\n      tag_511\n        /* \"#utility.yul\":23677:23683   */\n      dup2\n        /* \"#utility.yul\":23672:23675   */\n      dup6\n        /* \"#utility.yul\":23614:23684   */\n      tag_284\n      jump\t// in\n    tag_511:\n        /* \"#utility.yul\":23607:23684   */\n      swap4\n      pop\n        /* \"#utility.yul\":23693:23758   */\n      tag_512\n        /* \"#utility.yul\":23751:23757   */\n      dup2\n        /* \"#utility.yul\":23746:23749   */\n      dup6\n        /* \"#utility.yul\":23739:23743   */\n      0x20\n        /* \"#utility.yul\":23732:23737   */\n      dup7\n        /* \"#utility.yul\":23728:23744   */\n      add\n        /* \"#utility.yul\":23693:23758   */\n      tag_236\n      jump\t// in\n    tag_512:\n        /* \"#utility.yul\":23783:23812   */\n      tag_513\n        /* \"#utility.yul\":23805:23811   */\n      dup2\n        /* \"#utility.yul\":23783:23812   */\n      tag_237\n      jump\t// in\n    tag_513:\n        /* \"#utility.yul\":23778:23781   */\n      dup5\n        /* \"#utility.yul\":23774:23813   */\n      add\n        /* \"#utility.yul\":23767:23813   */\n      swap2\n      pop\n        /* \"#utility.yul\":23536:23819   */\n      pop\n        /* \"#utility.yul\":23446:23819   */\n      swap3\n      swap2\n      pop\n      pop\n      jump\t// out\n        /* \"#utility.yul\":23825:24465   */\n    tag_210:\n        /* \"#utility.yul\":24020:24024   */\n      0x00\n        /* \"#utility.yul\":24058:24061   */\n      0x80\n        /* \"#utility.yul\":24047:24056   */\n      dup3\n        /* \"#utility.yul\":24043:24062   */\n      add\n        /* \"#utility.yul\":24035:24062   */\n      swap1\n      pop\n        /* \"#utility.yul\":24072:24143   */\n      tag_515\n        /* \"#utility.yul\":24140:24141   */\n      0x00\n        /* \"#utility.yul\":24129:24138   */\n      dup4\n        /* \"#utility.yul\":24125:24142   */\n      add\n        /* \"#utility.yul\":24116:24122   */\n      dup8\n        /* \"#utility.yul\":24072:24143   */\n      tag_244\n      jump\t// in\n    tag_515:\n        /* \"#utility.yul\":24153:24225   */\n      tag_516\n        /* \"#utility.yul\":24221:24223   */\n      0x20\n        /* \"#utility.yul\":24210:24219   */\n      dup4\n        /* \"#utility.yul\":24206:24224   */\n      add\n        /* \"#utility.yul\":24197:24203   */\n      dup7\n        /* \"#utility.yul\":24153:24225   */\n      tag_244\n      jump\t// in\n    tag_516:\n        /* \"#utility.yul\":24235:24307   */\n      tag_517\n        /* \"#utility.yul\":24303:24305   */\n      0x40\n        /* \"#utility.yul\":24292:24301   */\n      dup4\n        /* \"#utility.yul\":24288:24306   */\n      add\n        /* \"#utility.yul\":24279:24285   */\n      dup6\n        /* \"#utility.yul\":24235:24307   */\n      tag_247\n      jump\t// in\n    tag_517:\n        /* \"#utility.yul\":24354:24363   */\n      dup2\n        /* \"#utility.yul\":24348:24352   */\n      dup2\n        /* \"#utility.yul\":24344:24364   */\n      sub\n        /* \"#utility.yul\":24339:24341   */\n      0x60\n        /* \"#utility.yul\":24328:24337   */\n      dup4\n        /* \"#utility.yul\":24324:24342   */\n      add\n        /* \"#utility.yul\":24317:24365   */\n      mstore\n        /* \"#utility.yul\":24382:24458   */\n      tag_518\n        /* \"#utility.yul\":24453:24457   */\n      dup2\n        /* \"#utility.yul\":24444:24450   */\n      dup5\n        /* \"#utility.yul\":24382:24458   */\n      tag_285\n      jump\t// in\n    tag_518:\n        /* \"#utility.yul\":24374:24458   */\n      swap1\n      pop\n        /* \"#utility.yul\":23825:24465   */\n      swap6\n      swap5\n      pop\n      pop\n      pop\n      pop\n      pop\n      jump\t// out\n        /* \"#utility.yul\":24471:24612   */\n    tag_286:\n        /* \"#utility.yul\":24527:24532   */\n      0x00\n        /* \"#utility.yul\":24558:24564   */\n      dup2\n        /* \"#utility.yul\":24552:24565   */\n      mload\n        /* \"#utility.yul\":24543:24565   */\n      swap1\n      pop\n        /* \"#utility.yul\":24574:24606   */\n      tag_520\n        /* \"#utility.yul\":24600:24605   */\n      dup2\n        /* \"#utility.yul\":24574:24606   */\n      tag_230\n      jump\t// in\n    tag_520:\n        /* \"#utility.yul\":24471:24612   */\n      swap3\n      swap2\n      pop\n      pop\n      jump\t// out\n        /* \"#utility.yul\":24618:24967   */\n    tag_213:\n        /* \"#utility.yul\":24687:24693   */\n      0x00\n        /* \"#utility.yul\":24736:24738   */\n      0x20\n        /* \"#utility.yul\":24724:24733   */\n      dup3\n        /* \"#utility.yul\":24715:24722   */\n      dup5\n        /* \"#utility.yul\":24711:24734   */\n      sub\n        /* \"#utility.yul\":24707:24739   */\n      slt\n        /* \"#utility.yul\":24704:24823   */\n      iszero\n      tag_522\n      jumpi\n        /* \"#utility.yul\":24742:24821   */\n      tag_523\n      tag_227\n      jump\t// in\n    tag_523:\n        /* \"#utility.yul\":24704:24823   */\n    tag_522:\n        /* \"#utility.yul\":24862:24863   */\n      0x00\n        /* \"#utility.yul\":24887:24950   */\n      tag_524\n        /* \"#utility.yul\":24942:24949   */\n      dup5\n        /* \"#utility.yul\":24933:24939   */\n      dup3\n        /* \"#utility.yul\":24922:24931   */\n      dup6\n        /* \"#utility.yul\":24918:24940   */\n      add\n        /* \"#utility.yul\":24887:24950   */\n      tag_286\n      jump\t// in\n    tag_524:\n        /* \"#utility.yul\":24877:24950   */\n      swap2\n      pop\n        /* \"#utility.yul\":24833:24960   */\n      pop\n        /* \"#utility.yul\":24618:24967   */\n      swap3\n      swap2\n      pop\n      pop\n      jump\t// out\n    stop\n    data_8382b382247cd07401a2ef2f394137c3f3b0972798bae0a9c78b0c261acbb56b 697066733a2f2f516d65536a53696e4870506e6d586d73704d6a776958794e367a533445397a63636172694752336a7863615774712f\n\n    auxdata: 0xa2646970667358221220f4525ac47f6f77eb9c1e1a94da8c3b070eae69dd98745c37db651cd0ac3e058464736f6c634300081e0033\n}\n",
				"bytecode": {
					"linkReferences": {},
					"object": "60806040526103e8600655348015610015575f5ffd5b50604051612834380380612834833981810160405281019061003791906101ae565b8181815f90816100479190610434565b5080600190816100579190610434565b5050505050610503565b5f604051905090565b5f5ffd5b5f5ffd5b5f5ffd5b5f5ffd5b5f601f19601f8301169050919050565b7f4e487b71000000000000000000000000000000000000000000000000000000005f52604160045260245ffd5b6100c08261007a565b810181811067ffffffffffffffff821117156100df576100de61008a565b5b80604052505050565b5f6100f1610061565b90506100fd82826100b7565b919050565b5f67ffffffffffffffff82111561011c5761011b61008a565b5b6101258261007a565b9050602081019050919050565b8281835e5f83830152505050565b5f61015261014d84610102565b6100e8565b90508281526020810184848401111561016e5761016d610076565b5b610179848285610132565b509392505050565b5f82601f83011261019557610194610072565b5b81516101a5848260208601610140565b91505092915050565b5f5f604083850312156101c4576101c361006a565b5b5f83015167ffffffffffffffff8111156101e1576101e061006e565b5b6101ed85828601610181565b925050602083015167ffffffffffffffff81111561020e5761020d61006e565b5b61021a85828601610181565b9150509250929050565b5f81519050919050565b7f4e487b71000000000000000000000000000000000000000000000000000000005f52602260045260245ffd5b5f600282049050600182168061027257607f821691505b6020821081036102855761028461022e565b5b50919050565b5f819050815f5260205f209050919050565b5f6020601f8301049050919050565b5f82821b905092915050565b5f600883026102e77fffffffffffffffffffffffffffffffffffffffffffffffffffffffffffffffff826102ac565b6102f186836102ac565b95508019841693508086168417925050509392505050565b5f819050919050565b5f819050919050565b5f61033561033061032b84610309565b610312565b610309565b9050919050565b5f819050919050565b61034e8361031b565b61036261035a8261033c565b8484546102b8565b825550505050565b5f5f905090565b61037961036a565b610384818484610345565b505050565b5b818110156103a75761039c5f82610371565b60018101905061038a565b5050565b601f8211156103ec576103bd8161028b565b6103c68461029d565b810160208510156103d5578190505b6103e96103e18561029d565b830182610389565b50505b505050565b5f82821c905092915050565b5f61040c5f19846008026103f1565b1980831691505092915050565b5f61042483836103fd565b9150826002028217905092915050565b61043d82610224565b67ffffffffffffffff8111156104565761045561008a565b5b610460825461025b565b61046b8282856103ab565b5f60209050601f83116001811461049c575f841561048a578287015190505b6104948582610419565b8655506104fb565b601f1984166104aa8661028b565b5f5b828110156104d1578489015182556001820191506020850194506020810190506104ac565b868310156104ee57848901516104ea601f8916826103fd565b8355505b6001600288020188555050505b505050505050565b612324806105105f395ff3fe608060405234801561000f575f5ffd5b50600436106100f3575f3560e01c80636352211e11610095578063b88d4fde11610064578063b88d4fde1461027f578063bb8a16bd1461029b578063c87b56dd146102b9578063e985e9c5146102e9576100f3565b80636352211e146101e557806370a082311461021557806395d89b4114610245578063a22cb46514610263576100f3565b8063095ea7b3116100d1578063095ea7b31461017557806323b872dd1461019157806340c10f19146101ad57806342842e0e146101c9576100f3565b806301ffc9a7146100f757806306fdde0314610127578063081812fc14610145575b5f5ffd5b610111600480360381019061010c919061167e565b610319565b60405161011e91906116c3565b60405180910390f35b61012f610452565b60405161013c919061174c565b60405180910390f35b61015f600480360381019061015a919061179f565b6104dd565b60405161016c9190611809565b60405180910390f35b61018f600480360381019061018a919061184c565b6105b4565b005b6101ab60048036038101906101a6919061188a565b6106f2565b005b6101c760048036038101906101c2919061184c565b61075a565b005b6101e360048036038101906101de919061188a565b6107b8565b005b6101ff60048036038101906101fa919061179f565b6107d7565b60405161020c9190611809565b60405180910390f35b61022f600480360381019061022a91906118da565b61087e565b60405161023c9190611914565b60405180910390f35b61024d610932565b60405161025a919061174c565b60405180910390f35b61027d60048036038101906102789190611957565b6109be565b005b61029960048036038101906102949190611ac1565b610ab6565b005b6102a3610b20565b6040516102b09190611914565b60405180910390f35b6102d360048036038101906102ce919061179f565b610b26565b6040516102e0919061174c565b60405180910390f35b61030360048036038101906102fe9190611b41565b610c20565b60405161031091906116c3565b60405180910390f35b5f7f80ac58cd000000000000000000000000000000000000000000000000000000007bffffffffffffffffffffffffffffffffffffffffffffffffffffffff1916827bffffffffffffffffffffffffffffffffffffffffffffffffffffffff191614806103e357507f01ffc9a7000000000000000000000000000000000000000000000000000000007bffffffffffffffffffffffffffffffffffffffffffffffffffffffff1916827bffffffffffffffffffffffffffffffffffffffffffffffffffffffff1916145b8061044b57507f5b5e139f000000000000000000000000000000000000000000000000000000007bffffffffffffffffffffffffffffffffffffffffffffffffffffffff1916827bffffffffffffffffffffffffffffffffffffffffffffffffffffffff1916145b9050919050565b5f805461045e90611bac565b80601f016020809104026020016040519081016040528092919081815260200182805461048a90611bac565b80156104d55780601f106104ac576101008083540402835291602001916104d5565b820191905f5260205f20905b8154815290600101906020018083116104b857829003601f168201915b505050505081565b5f5f73ffffffffffffffffffffffffffffffffffffffff1660025f8481526020019081526020015f205f9054906101000a900473ffffffffffffffffffffffffffffffffffffffff1673ffffffffffffffffffffffffffffffffffffffff160361057c576040517f08c379a000000000000000000000000000000000000000000000000000000000815260040161057390611c26565b60405180910390fd5b60045f8381526020019081526020015f205f9054906101000a900473ffffffffffffffffffffffffffffffffffffffff169050919050565b5f60025f8381526020019081526020015f205f9054906101000a900473ffffffffffffffffffffffffffffffffffffffff1690508073ffffffffffffffffffffffffffffffffffffffff163373ffffffffffffffffffffffffffffffffffffffff1614806106a3575060055f8273ffffffffffffffffffffffffffffffffffffffff1673ffffffffffffffffffffffffffffffffffffffff1681526020019081526020015f205f3373ffffffffffffffffffffffffffffffffffffffff1673ffffffffffffffffffffffffffffffffffffffff1681526020019081526020015f205f9054906101000a900460ff165b6106e2576040517f08c379a00000000000000000000000000000000000000000000000000000000081526004016106d990611c8e565b60405180910390fd5b6106ed818484610cae565b505050565b5f6106fc826107d7565b9050610709813384610d5d565b610748576040517f08c379a000000000000000000000000000000000000000000000000000000000815260040161073f90611cf6565b60405180910390fd5b61075481858585610e88565b50505050565b5f811015801561076b575060065481105b6107aa576040517f08c379a00000000000000000000000000000000000000000000000000000000081526004016107a190611d5e565b60405180910390fd5b6107b482826110c7565b5050565b6107d283838360405180602001604052805f815250610ab6565b505050565b5f60025f8381526020019081526020015f205f9054906101000a900473ffffffffffffffffffffffffffffffffffffffff1690505f73ffffffffffffffffffffffffffffffffffffffff168173ffffffffffffffffffffffffffffffffffffffff1603610879576040517f08c379a000000000000000000000000000000000000000000000000000000000815260040161087090611c26565b60405180910390fd5b919050565b5f5f73ffffffffffffffffffffffffffffffffffffffff168273ffffffffffffffffffffffffffffffffffffffff16036108ed576040517f08c379a00000000000000000000000000000000000000000000000000000000081526004016108e490611dc6565b60405180910390fd5b60035f8373ffffffffffffffffffffffffffffffffffffffff1673ffffffffffffffffffffffffffffffffffffffff1681526020019081526020015f20549050919050565b6001805461093f90611bac565b80601f016020809104026020016040519081016040528092919081815260200182805461096b90611bac565b80156109b65780601f1061098d576101008083540402835291602001916109b6565b820191905f5260205f20905b81548152906001019060200180831161099957829003601f168201915b505050505081565b8060055f3373ffffffffffffffffffffffffffffffffffffffff1673ffffffffffffffffffffffffffffffffffffffff1681526020019081526020015f205f8473ffffffffffffffffffffffffffffffffffffffff1673ffffffffffffffffffffffffffffffffffffffff1681526020019081526020015f205f6101000a81548160ff0219169083151502179055508173ffffffffffffffffffffffffffffffffffffffff163373ffffffffffffffffffffffffffffffffffffffff167f17307eab39ab6107e8899845ad3d59bd9653f200f220920489ca2b5937696c3183604051610aaa91906116c3565b60405180910390a35050565b5f610ac0836107d7565b9050610acd813385610d5d565b610b0c576040517f08c379a0000000000000000000000000000000000000000000000000000000008152600401610b0390611cf6565b60405180910390fd5b610b1981868686866112d5565b5050505050565b60065481565b60605f73ffffffffffffffffffffffffffffffffffffffff1660025f8481526020019081526020015f205f9054906101000a900473ffffffffffffffffffffffffffffffffffffffff1673ffffffffffffffffffffffffffffffffffffffff1603610bc6576040517f08c379a0000000000000000000000000000000000000000000000000000000008152600401610bbd90611e2e565b60405180910390fd5b5f610bcf6112f4565b90505f815111610bed5760405180602001604052805f815250610c18565b80610bf784611314565b604051602001610c08929190611e86565b6040516020818303038152906040525b915050919050565b5f60055f8473ffffffffffffffffffffffffffffffffffffffff1673ffffffffffffffffffffffffffffffffffffffff1681526020019081526020015f205f8373ffffffffffffffffffffffffffffffffffffffff1673ffffffffffffffffffffffffffffffffffffffff1681526020019081526020015f205f9054906101000a900460ff16905092915050565b8160045f8381526020019081526020015f205f6101000a81548173ffffffffffffffffffffffffffffffffffffffff021916908373ffffffffffffffffffffffffffffffffffffffff160217905550808273ffffffffffffffffffffffffffffffffffffffff168473ffffffffffffffffffffffffffffffffffffffff167f8c5be1e5ebec7d5bd14f71427d1e84f3dd0314c0f7b2291e5b200ac8c7c3b92560405160405180910390a4505050565b5f8373ffffffffffffffffffffffffffffffffffffffff168373ffffffffffffffffffffffffffffffffffffffff161480610df357508273ffffffffffffffffffffffffffffffffffffffff1660045f8481526020019081526020015f205f9054906101000a900473ffffffffffffffffffffffffffffffffffffffff1673ffffffffffffffffffffffffffffffffffffffff16145b80610e7f575060055f8573ffffffffffffffffffffffffffffffffffffffff1673ffffffffffffffffffffffffffffffffffffffff1681526020019081526020015f205f8473ffffffffffffffffffffffffffffffffffffffff1673ffffffffffffffffffffffffffffffffffffffff1681526020019081526020015f205f9054906101000a900460ff165b90509392505050565b8373ffffffffffffffffffffffffffffffffffffffff168373ffffffffffffffffffffffffffffffffffffffff1614610ef6576040517f08c379a0000000000000000000000000000000000000000000000000000000008152600401610eed90611ef3565b60405180910390fd5b5f73ffffffffffffffffffffffffffffffffffffffff168273ffffffffffffffffffffffffffffffffffffffff1603610f64576040517f08c379a0000000000000000000000000000000000000000000000000000000008152600401610f5b90611f5b565b60405180910390fd5b610f6f845f83610cae565b600160035f8573ffffffffffffffffffffffffffffffffffffffff1673ffffffffffffffffffffffffffffffffffffffff1681526020019081526020015f205f828254610fbc9190611fa6565b92505081905550600160035f8473ffffffffffffffffffffffffffffffffffffffff1673ffffffffffffffffffffffffffffffffffffffff1681526020019081526020015f205f8282546110109190611fd9565b925050819055508160025f8381526020019081526020015f205f6101000a81548173ffffffffffffffffffffffffffffffffffffffff021916908373ffffffffffffffffffffffffffffffffffffffff160217905550808273ffffffffffffffffffffffffffffffffffffffff168473ffffffffffffffffffffffffffffffffffffffff167fddf252ad1be2c89b69c2b068fc378daa952ba7f163c4a11628f55a4df523b3ef60405160405180910390a450505050565b5f73ffffffffffffffffffffffffffffffffffffffff168273ffffffffffffffffffffffffffffffffffffffff1603611135576040517f08c379a000000000000000000000000000000000000000000000000000000000815260040161112c90612056565b60405180910390fd5b5f73ffffffffffffffffffffffffffffffffffffffff1660025f8381526020019081526020015f205f9054906101000a900473ffffffffffffffffffffffffffffffffffffffff1673ffffffffffffffffffffffffffffffffffffffff16146111d3576040517f08c379a00000000000000000000000000000000000000000000000000000000081526004016111ca906120be565b60405180910390fd5b600160035f8473ffffffffffffffffffffffffffffffffffffffff1673ffffffffffffffffffffffffffffffffffffffff1681526020019081526020015f205f8282546112209190611fd9565b925050819055508160025f8381526020019081526020015f205f6101000a81548173ffffffffffffffffffffffffffffffffffffffff021916908373ffffffffffffffffffffffffffffffffffffffff160217905550808273ffffffffffffffffffffffffffffffffffffffff165f73ffffffffffffffffffffffffffffffffffffffff167fddf252ad1be2c89b69c2b068fc378daa952ba7f163c4a11628f55a4df523b3ef60405160405180910390a45050565b6112e185858585610e88565b6112ed8484848461146d565b5050505050565b60606040518060600160405280603681526020016122b960369139905090565b60605f820361135a576040518060400160405280600181526020017f30000000000000000000000000000000000000000000000000000000000000008152509050611468565b5f8290505f5b5f8214611389578080611372906120dc565b915050600a826113829190612150565b9150611360565b5f8167ffffffffffffffff8111156113a4576113a361199d565b5b6040519080825280601f01601f1916602001820160405280156113d65781602001600182028036833780820191505090505b5090505b5f8514611461576001826113ee9190611fa6565b9150600a856113fd9190612180565b60306114099190611fd9565b60f81b81838151811061141f5761141e6121b0565b5b60200101907effffffffffffffffffffffffffffffffffffffffffffffffffffffffffffff191690815f1a905350600a8561145a9190612150565b94506113da565b8093505050505b919050565b5f8373ffffffffffffffffffffffffffffffffffffffff163b1115611612578273ffffffffffffffffffffffffffffffffffffffff1663150b7a02338685856040518563ffffffff1660e01b81526004016114cb949392919061222f565b6020604051808303815f875af192505050801561150657506040513d601f19601f82011682018060405250810190611503919061228d565b60015b611587573d805f8114611534576040519150601f19603f3d011682016040523d82523d5f602084013e611539565b606091505b505f81510361157f57836040517f64a0ae920000000000000000000000000000000000000000000000000000000081526004016115769190611809565b60405180910390fd5b805181602001fd5b63150b7a0260e01b7bffffffffffffffffffffffffffffffffffffffffffffffffffffffff1916817bffffffffffffffffffffffffffffffffffffffffffffffffffffffff19161461161057836040517f64a0ae920000000000000000000000000000000000000000000000000000000081526004016116079190611809565b60405180910390fd5b505b50505050565b5f604051905090565b5f5ffd5b5f5ffd5b5f7fffffffff0000000000000000000000000000000000000000000000000000000082169050919050565b61165d81611629565b8114611667575f5ffd5b50565b5f8135905061167881611654565b92915050565b5f6020828403121561169357611692611621565b5b5f6116a08482850161166a565b91505092915050565b5f8115159050919050565b6116bd816116a9565b82525050565b5f6020820190506116d65f8301846116b4565b92915050565b5f81519050919050565b5f82825260208201905092915050565b8281835e5f83830152505050565b5f601f19601f8301169050919050565b5f61171e826116dc565b61172881856116e6565b93506117388185602086016116f6565b61174181611704565b840191505092915050565b5f6020820190508181035f8301526117648184611714565b905092915050565b5f819050919050565b61177e8161176c565b8114611788575f5ffd5b50565b5f8135905061179981611775565b92915050565b5f602082840312156117b4576117b3611621565b5b5f6117c18482850161178b565b91505092915050565b5f73ffffffffffffffffffffffffffffffffffffffff82169050919050565b5f6117f3826117ca565b9050919050565b611803816117e9565b82525050565b5f60208201905061181c5f8301846117fa565b92915050565b61182b816117e9565b8114611835575f5ffd5b50565b5f8135905061184681611822565b92915050565b5f5f6040838503121561186257611861611621565b5b5f61186f85828601611838565b92505060206118808582860161178b565b9150509250929050565b5f5f5f606084860312156118a1576118a0611621565b5b5f6118ae86828701611838565b93505060206118bf86828701611838565b92505060406118d08682870161178b565b9150509250925092565b5f602082840312156118ef576118ee611621565b5b5f6118fc84828501611838565b91505092915050565b61190e8161176c565b82525050565b5f6020820190506119275f830184611905565b92915050565b611936816116a9565b8114611940575f5ffd5b50565b5f813590506119518161192d565b92915050565b5f5f6040838503121561196d5761196c611621565b5b5f61197a85828601611838565b925050602061198b85828601611943565b9150509250929050565b5f5ffd5b5f5ffd5b7f4e487b71000000000000000000000000000000000000000000000000000000005f52604160045260245ffd5b6119d382611704565b810181811067ffffffffffffffff821117156119f2576119f161199d565b5b80604052505050565b5f611a04611618565b9050611a1082826119ca565b919050565b5f67ffffffffffffffff821115611a2f57611a2e61199d565b5b611a3882611704565b9050602081019050919050565b828183375f83830152505050565b5f611a65611a6084611a15565b6119fb565b905082815260208101848484011115611a8157611a80611999565b5b611a8c848285611a45565b509392505050565b5f82601f830112611aa857611aa7611995565b5b8135611ab8848260208601611a53565b91505092915050565b5f5f5f5f60808587031215611ad957611ad8611621565b5b5f611ae687828801611838565b9450506020611af787828801611838565b9350506040611b088782880161178b565b925050606085013567ffffffffffffffff811115611b2957611b28611625565b5b611b3587828801611a94565b91505092959194509250565b5f5f60408385031215611b5757611b56611621565b5b5f611b6485828601611838565b9250506020611b7585828601611838565b9150509250929050565b7f4e487b71000000000000000000000000000000000000000000000000000000005f52602260045260245ffd5b5f6002820490506001821680611bc357607f821691505b602082108103611bd657611bd5611b7f565b5b50919050565b7f746f6b656e20646f65736e2774206578697374000000000000000000000000005f82015250565b5f611c106013836116e6565b9150611c1b82611bdc565b602082019050919050565b5f6020820190508181035f830152611c3d81611c04565b9050919050565b7f6e6f74206f776e6572206e6f7220617070726f76656420666f7220616c6c00005f82015250565b5f611c78601e836116e6565b9150611c8382611c44565b602082019050919050565b5f6020820190508181035f830152611ca581611c6c565b9050919050565b7f6e6f74206f776e6572206e6f7220617070726f766564000000000000000000005f82015250565b5f611ce06016836116e6565b9150611ceb82611cac565b602082019050919050565b5f6020820190508181035f830152611d0d81611cd4565b9050919050565b7f746f6b656e4964206f7574206f662072616e67650000000000000000000000005f82015250565b5f611d486014836116e6565b9150611d5382611d14565b602082019050919050565b5f6020820190508181035f830152611d7581611d3c565b9050919050565b7f6f776e6572203d207a65726f20616464726573730000000000000000000000005f82015250565b5f611db06014836116e6565b9150611dbb82611d7c565b602082019050919050565b5f6020820190508181035f830152611ddd81611da4565b9050919050565b7f546f6b656e204e6f7420457869737400000000000000000000000000000000005f82015250565b5f611e18600f836116e6565b9150611e2382611de4565b602082019050919050565b5f6020820190508181035f830152611e4581611e0c565b9050919050565b5f81905092915050565b5f611e60826116dc565b611e6a8185611e4c565b9350611e7a8185602086016116f6565b80840191505092915050565b5f611e918285611e56565b9150611e9d8284611e56565b91508190509392505050565b7f6e6f74206f776e657200000000000000000000000000000000000000000000005f82015250565b5f611edd6009836116e6565b9150611ee882611ea9565b602082019050919050565b5f6020820190508181035f830152611f0a81611ed1565b9050919050565b7f7472616e7366657220746f20746865207a65726f2061646472657373000000005f82015250565b5f611f45601c836116e6565b9150611f5082611f11565b602082019050919050565b5f6020820190508181035f830152611f7281611f39565b9050919050565b7f4e487b71000000000000000000000000000000000000000000000000000000005f52601160045260245ffd5b5f611fb08261176c565b9150611fbb8361176c565b9250828203905081811115611fd357611fd2611f79565b5b92915050565b5f611fe38261176c565b9150611fee8361176c565b925082820190508082111561200657612005611f79565b5b92915050565b7f6d696e7420746f207a65726f20616464726573730000000000000000000000005f82015250565b5f6120406014836116e6565b915061204b8261200c565b602082019050919050565b5f6020820190508181035f83015261206d81612034565b9050919050565b7f746f6b656e20616c7265616479206d696e7465640000000000000000000000005f82015250565b5f6120a86014836116e6565b91506120b382612074565b602082019050919050565b5f6020820190508181035f8301526120d58161209c565b9050919050565b5f6120e68261176c565b91507fffffffffffffffffffffffffffffffffffffffffffffffffffffffffffffffff820361211857612117611f79565b5b600182019050919050565b7f4e487b71000000000000000000000000000000000000000000000000000000005f52601260045260245ffd5b5f61215a8261176c565b91506121658361176c565b92508261217557612174612123565b5b828204905092915050565b5f61218a8261176c565b91506121958361176c565b9250826121a5576121a4612123565b5b828206905092915050565b7f4e487b71000000000000000000000000000000000000000000000000000000005f52603260045260245ffd5b5f81519050919050565b5f82825260208201905092915050565b5f612201826121dd565b61220b81856121e7565b935061221b8185602086016116f6565b61222481611704565b840191505092915050565b5f6080820190506122425f8301876117fa565b61224f60208301866117fa565b61225c6040830185611905565b818103606083015261226e81846121f7565b905095945050505050565b5f8151905061228781611654565b92915050565b5f602082840312156122a2576122a1611621565b5b5f6122af84828501612279565b9150509291505056fe697066733a2f2f516d65536a53696e4870506e6d586d73704d6a776958794e367a533445397a63636172694752336a7863615774712fa2646970667358221220f4525ac47f6f77eb9c1e1a94da8c3b070eae69dd98745c37db651cd0ac3e058464736f6c634300081e0033",
					"opcodes": "PUSH1 0x80 PUSH1 0x40 MSTORE PUSH2 0x3E8 PUSH1 0x6 SSTORE CALLVALUE DUP1 ISZERO PUSH2 0x15 JUMPI PUSH0 PUSH0 REVERT JUMPDEST POP PUSH1 0x40 MLOAD PUSH2 0x2834 CODESIZE SUB DUP1 PUSH2 0x2834 DUP4 CODECOPY DUP2 DUP2 ADD PUSH1 0x40 MSTORE DUP2 ADD SWAP1 PUSH2 0x37 SWAP2 SWAP1 PUSH2 0x1AE JUMP JUMPDEST DUP2 DUP2 DUP2 PUSH0 SWAP1 DUP2 PUSH2 0x47 SWAP2 SWAP1 PUSH2 0x434 JUMP JUMPDEST POP DUP1 PUSH1 0x1 SWAP1 DUP2 PUSH2 0x57 SWAP2 SWAP1 PUSH2 0x434 JUMP JUMPDEST POP POP POP POP POP PUSH2 0x503 JUMP JUMPDEST PUSH0 PUSH1 0x40 MLOAD SWAP1 POP SWAP1 JUMP JUMPDEST PUSH0 PUSH0 REVERT JUMPDEST PUSH0 PUSH0 REVERT JUMPDEST PUSH0 PUSH0 REVERT JUMPDEST PUSH0 PUSH0 REVERT JUMPDEST PUSH0 PUSH1 0x1F NOT PUSH1 0x1F DUP4 ADD AND SWAP1 POP SWAP2 SWAP1 POP JUMP JUMPDEST PUSH32 0x4E487B7100000000000000000000000000000000000000000000000000000000 PUSH0 MSTORE PUSH1 0x41 PUSH1 0x4 MSTORE PUSH1 0x24 PUSH0 REVERT JUMPDEST PUSH2 0xC0 DUP3 PUSH2 0x7A JUMP JUMPDEST DUP2 ADD DUP2 DUP2 LT PUSH8 0xFFFFFFFFFFFFFFFF DUP3 GT OR ISZERO PUSH2 0xDF JUMPI PUSH2 0xDE PUSH2 0x8A JUMP JUMPDEST JUMPDEST DUP1 PUSH1 0x40 MSTORE POP POP POP JUMP JUMPDEST PUSH0 PUSH2 0xF1 PUSH2 0x61 JUMP JUMPDEST SWAP1 POP PUSH2 0xFD DUP3 DUP3 PUSH2 0xB7 JUMP JUMPDEST SWAP2 SWAP1 POP JUMP JUMPDEST PUSH0 PUSH8 0xFFFFFFFFFFFFFFFF DUP3 GT ISZERO PUSH2 0x11C JUMPI PUSH2 0x11B PUSH2 0x8A JUMP JUMPDEST JUMPDEST PUSH2 0x125 DUP3 PUSH2 0x7A JUMP JUMPDEST SWAP1 POP PUSH1 0x20 DUP2 ADD SWAP1 POP SWAP2 SWAP1 POP JUMP JUMPDEST DUP3 DUP2 DUP4 MCOPY PUSH0 DUP4 DUP4 ADD MSTORE POP POP POP JUMP JUMPDEST PUSH0 PUSH2 0x152 PUSH2 0x14D DUP5 PUSH2 0x102 JUMP JUMPDEST PUSH2 0xE8 JUMP JUMPDEST SWAP1 POP DUP3 DUP2 MSTORE PUSH1 0x20 DUP2 ADD DUP5 DUP5 DUP5 ADD GT ISZERO PUSH2 0x16E JUMPI PUSH2 0x16D PUSH2 0x76 JUMP JUMPDEST JUMPDEST PUSH2 0x179 DUP5 DUP3 DUP6 PUSH2 0x132 JUMP JUMPDEST POP SWAP4 SWAP3 POP POP POP JUMP JUMPDEST PUSH0 DUP3 PUSH1 0x1F DUP4 ADD SLT PUSH2 0x195 JUMPI PUSH2 0x194 PUSH2 0x72 JUMP JUMPDEST JUMPDEST DUP2 MLOAD PUSH2 0x1A5 DUP5 DUP3 PUSH1 0x20 DUP7 ADD PUSH2 0x140 JUMP JUMPDEST SWAP2 POP POP SWAP3 SWAP2 POP POP JUMP JUMPDEST PUSH0 PUSH0 PUSH1 0x40 DUP4 DUP6 SUB SLT ISZERO PUSH2 0x1C4 JUMPI PUSH2 0x1C3 PUSH2 0x6A JUMP JUMPDEST JUMPDEST PUSH0 DUP4 ADD MLOAD PUSH8 0xFFFFFFFFFFFFFFFF DUP2 GT ISZERO PUSH2 0x1E1 JUMPI PUSH2 0x1E0 PUSH2 0x6E JUMP JUMPDEST JUMPDEST PUSH2 0x1ED DUP6 DUP3 DUP7 ADD PUSH2 0x181 JUMP JUMPDEST SWAP3 POP POP PUSH1 0x20 DUP4 ADD MLOAD PUSH8 0xFFFFFFFFFFFFFFFF DUP2 GT ISZERO PUSH2 0x20E JUMPI PUSH2 0x20D PUSH2 0x6E JUMP JUMPDEST JUMPDEST PUSH2 0x21A DUP6 DUP3 DUP7 ADD PUSH2 0x181 JUMP JUMPDEST SWAP2 POP POP SWAP3 POP SWAP3 SWAP1 POP JUMP JUMPDEST PUSH0 DUP2 MLOAD SWAP1 POP SWAP2 SWAP1 POP JUMP JUMPDEST PUSH32 0x4E487B7100000000000000000000000000000000000000000000000000000000 PUSH0 MSTORE PUSH1 0x22 PUSH1 0x4 MSTORE PUSH1 0x24 PUSH0 REVERT JUMPDEST PUSH0 PUSH1 0x2 DUP3 DIV SWAP1 POP PUSH1 0x1 DUP3 AND DUP1 PUSH2 0x272 JUMPI PUSH1 0x7F DUP3 AND SWAP2 POP JUMPDEST PUSH1 0x20 DUP3 LT DUP2 SUB PUSH2 0x285 JUMPI PUSH2 0x284 PUSH2 0x22E JUMP JUMPDEST JUMPDEST POP SWAP2 SWAP1 POP JUMP JUMPDEST PUSH0 DUP2 SWAP1 POP DUP2 PUSH0 MSTORE PUSH1 0x20 PUSH0 KECCAK256 SWAP1 POP SWAP2 SWAP1 POP JUMP JUMPDEST PUSH0 PUSH1 0x20 PUSH1 0x1F DUP4 ADD DIV SWAP1 POP SWAP2 SWAP1 POP JUMP JUMPDEST PUSH0 DUP3 DUP3 SHL SWAP1 POP SWAP3 SWAP2 POP POP JUMP JUMPDEST PUSH0 PUSH1 0x8 DUP4 MUL PUSH2 0x2E7 PUSH32 0xFFFFFFFFFFFFFFFFFFFFFFFFFFFFFFFFFFFFFFFFFFFFFFFFFFFFFFFFFFFFFFFF DUP3 PUSH2 0x2AC JUMP JUMPDEST PUSH2 0x2F1 DUP7 DUP4 PUSH2 0x2AC JUMP JUMPDEST SWAP6 POP DUP1 NOT DUP5 AND SWAP4 POP DUP1 DUP7 AND DUP5 OR SWAP3 POP POP POP SWAP4 SWAP3 POP POP POP JUMP JUMPDEST PUSH0 DUP2 SWAP1 POP SWAP2 SWAP1 POP JUMP JUMPDEST PUSH0 DUP2 SWAP1 POP SWAP2 SWAP1 POP JUMP JUMPDEST PUSH0 PUSH2 0x335 PUSH2 0x330 PUSH2 0x32B DUP5 PUSH2 0x309 JUMP JUMPDEST PUSH2 0x312 JUMP JUMPDEST PUSH2 0x309 JUMP JUMPDEST SWAP1 POP SWAP2 SWAP1 POP JUMP JUMPDEST PUSH0 DUP2 SWAP1 POP SWAP2 SWAP1 POP JUMP JUMPDEST PUSH2 0x34E DUP4 PUSH2 0x31B JUMP JUMPDEST PUSH2 0x362 PUSH2 0x35A DUP3 PUSH2 0x33C JUMP JUMPDEST DUP5 DUP5 SLOAD PUSH2 0x2B8 JUMP JUMPDEST DUP3 SSTORE POP POP POP POP JUMP JUMPDEST PUSH0 PUSH0 SWAP1 POP SWAP1 JUMP JUMPDEST PUSH2 0x379 PUSH2 0x36A JUMP JUMPDEST PUSH2 0x384 DUP2 DUP5 DUP5 PUSH2 0x345 JUMP JUMPDEST POP POP POP JUMP JUMPDEST JUMPDEST DUP2 DUP2 LT ISZERO PUSH2 0x3A7 JUMPI PUSH2 0x39C PUSH0 DUP3 PUSH2 0x371 JUMP JUMPDEST PUSH1 0x1 DUP2 ADD SWAP1 POP PUSH2 0x38A JUMP JUMPDEST POP POP JUMP JUMPDEST PUSH1 0x1F DUP3 GT ISZERO PUSH2 0x3EC JUMPI PUSH2 0x3BD DUP2 PUSH2 0x28B JUMP JUMPDEST PUSH2 0x3C6 DUP5 PUSH2 0x29D JUMP JUMPDEST DUP2 ADD PUSH1 0x20 DUP6 LT ISZERO PUSH2 0x3D5 JUMPI DUP2 SWAP1 POP JUMPDEST PUSH2 0x3E9 PUSH2 0x3E1 DUP6 PUSH2 0x29D JUMP JUMPDEST DUP4 ADD DUP3 PUSH2 0x389 JUMP JUMPDEST POP POP JUMPDEST POP POP POP JUMP JUMPDEST PUSH0 DUP3 DUP3 SHR SWAP1 POP SWAP3 SWAP2 POP POP JUMP JUMPDEST PUSH0 PUSH2 0x40C PUSH0 NOT DUP5 PUSH1 0x8 MUL PUSH2 0x3F1 JUMP JUMPDEST NOT DUP1 DUP4 AND SWAP2 POP POP SWAP3 SWAP2 POP POP JUMP JUMPDEST PUSH0 PUSH2 0x424 DUP4 DUP4 PUSH2 0x3FD JUMP JUMPDEST SWAP2 POP DUP3 PUSH1 0x2 MUL DUP3 OR SWAP1 POP SWAP3 SWAP2 POP POP JUMP JUMPDEST PUSH2 0x43D DUP3 PUSH2 0x224 JUMP JUMPDEST PUSH8 0xFFFFFFFFFFFFFFFF DUP2 GT ISZERO PUSH2 0x456 JUMPI PUSH2 0x455 PUSH2 0x8A JUMP JUMPDEST JUMPDEST PUSH2 0x460 DUP3 SLOAD PUSH2 0x25B JUMP JUMPDEST PUSH2 0x46B DUP3 DUP3 DUP6 PUSH2 0x3AB JUMP JUMPDEST PUSH0 PUSH1 0x20 SWAP1 POP PUSH1 0x1F DUP4 GT PUSH1 0x1 DUP2 EQ PUSH2 0x49C JUMPI PUSH0 DUP5 ISZERO PUSH2 0x48A JUMPI DUP3 DUP8 ADD MLOAD SWAP1 POP JUMPDEST PUSH2 0x494 DUP6 DUP3 PUSH2 0x419 JUMP JUMPDEST DUP7 SSTORE POP PUSH2 0x4FB JUMP JUMPDEST PUSH1 0x1F NOT DUP5 AND PUSH2 0x4AA DUP7 PUSH2 0x28B JUMP JUMPDEST PUSH0 JUMPDEST DUP3 DUP2 LT ISZERO PUSH2 0x4D1 JUMPI DUP5 DUP10 ADD MLOAD DUP3 SSTORE PUSH1 0x1 DUP3 ADD SWAP2 POP PUSH1 0x20 DUP6 ADD SWAP5 POP PUSH1 0x20 DUP2 ADD SWAP1 POP PUSH2 0x4AC JUMP JUMPDEST DUP7 DUP4 LT ISZERO PUSH2 0x4EE JUMPI DUP5 DUP10 ADD MLOAD PUSH2 0x4EA PUSH1 0x1F DUP10 AND DUP3 PUSH2 0x3FD JUMP JUMPDEST DUP4 SSTORE POP JUMPDEST PUSH1 0x1 PUSH1 0x2 DUP9 MUL ADD DUP9 SSTORE POP POP POP JUMPDEST POP POP POP POP POP POP JUMP JUMPDEST PUSH2 0x2324 DUP1 PUSH2 0x510 PUSH0 CODECOPY PUSH0 RETURN INVALID PUSH1 0x80 PUSH1 0x40 MSTORE CALLVALUE DUP1 ISZERO PUSH2 0xF JUMPI PUSH0 PUSH0 REVERT JUMPDEST POP PUSH1 0x4 CALLDATASIZE LT PUSH2 0xF3 JUMPI PUSH0 CALLDATALOAD PUSH1 0xE0 SHR DUP1 PUSH4 0x6352211E GT PUSH2 0x95 JUMPI DUP1 PUSH4 0xB88D4FDE GT PUSH2 0x64 JUMPI DUP1 PUSH4 0xB88D4FDE EQ PUSH2 0x27F JUMPI DUP1 PUSH4 0xBB8A16BD EQ PUSH2 0x29B JUMPI DUP1 PUSH4 0xC87B56DD EQ PUSH2 0x2B9 JUMPI DUP1 PUSH4 0xE985E9C5 EQ PUSH2 0x2E9 JUMPI PUSH2 0xF3 JUMP JUMPDEST DUP1 PUSH4 0x6352211E EQ PUSH2 0x1E5 JUMPI DUP1 PUSH4 0x70A08231 EQ PUSH2 0x215 JUMPI DUP1 PUSH4 0x95D89B41 EQ PUSH2 0x245 JUMPI DUP1 PUSH4 0xA22CB465 EQ PUSH2 0x263 JUMPI PUSH2 0xF3 JUMP JUMPDEST DUP1 PUSH4 0x95EA7B3 GT PUSH2 0xD1 JUMPI DUP1 PUSH4 0x95EA7B3 EQ PUSH2 0x175 JUMPI DUP1 PUSH4 0x23B872DD EQ PUSH2 0x191 JUMPI DUP1 PUSH4 0x40C10F19 EQ PUSH2 0x1AD JUMPI DUP1 PUSH4 0x42842E0E EQ PUSH2 0x1C9 JUMPI PUSH2 0xF3 JUMP JUMPDEST DUP1 PUSH4 0x1FFC9A7 EQ PUSH2 0xF7 JUMPI DUP1 PUSH4 0x6FDDE03 EQ PUSH2 0x127 JUMPI DUP1 PUSH4 0x81812FC EQ PUSH2 0x145 JUMPI JUMPDEST PUSH0 PUSH0 REVERT JUMPDEST PUSH2 0x111 PUSH1 0x4 DUP1 CALLDATASIZE SUB DUP2 ADD SWAP1 PUSH2 0x10C SWAP2 SWAP1 PUSH2 0x167E JUMP JUMPDEST PUSH2 0x319 JUMP JUMPDEST PUSH1 0x40 MLOAD PUSH2 0x11E SWAP2 SWAP1 PUSH2 0x16C3 JUMP JUMPDEST PUSH1 0x40 MLOAD DUP1 SWAP2 SUB SWAP1 RETURN JUMPDEST PUSH2 0x12F PUSH2 0x452 JUMP JUMPDEST PUSH1 0x40 MLOAD PUSH2 0x13C SWAP2 SWAP1 PUSH2 0x174C JUMP JUMPDEST PUSH1 0x40 MLOAD DUP1 SWAP2 SUB SWAP1 RETURN JUMPDEST PUSH2 0x15F PUSH1 0x4 DUP1 CALLDATASIZE SUB DUP2 ADD SWAP1 PUSH2 0x15A SWAP2 SWAP1 PUSH2 0x179F JUMP JUMPDEST PUSH2 0x4DD JUMP JUMPDEST PUSH1 0x40 MLOAD PUSH2 0x16C SWAP2 SWAP1 PUSH2 0x1809 JUMP JUMPDEST PUSH1 0x40 MLOAD DUP1 SWAP2 SUB SWAP1 RETURN JUMPDEST PUSH2 0x18F PUSH1 0x4 DUP1 CALLDATASIZE SUB DUP2 ADD SWAP1 PUSH2 0x18A SWAP2 SWAP1 PUSH2 0x184C JUMP JUMPDEST PUSH2 0x5B4 JUMP JUMPDEST STOP JUMPDEST PUSH2 0x1AB PUSH1 0x4 DUP1 CALLDATASIZE SUB DUP2 ADD SWAP1 PUSH2 0x1A6 SWAP2 SWAP1 PUSH2 0x188A JUMP JUMPDEST PUSH2 0x6F2 JUMP JUMPDEST STOP JUMPDEST PUSH2 0x1C7 PUSH1 0x4 DUP1 CALLDATASIZE SUB DUP2 ADD SWAP1 PUSH2 0x1C2 SWAP2 SWAP1 PUSH2 0x184C JUMP JUMPDEST PUSH2 0x75A JUMP JUMPDEST STOP JUMPDEST PUSH2 0x1E3 PUSH1 0x4 DUP1 CALLDATASIZE SUB DUP2 ADD SWAP1 PUSH2 0x1DE SWAP2 SWAP1 PUSH2 0x188A JUMP JUMPDEST PUSH2 0x7B8 JUMP JUMPDEST STOP JUMPDEST PUSH2 0x1FF PUSH1 0x4 DUP1 CALLDATASIZE SUB DUP2 ADD SWAP1 PUSH2 0x1FA SWAP2 SWAP1 PUSH2 0x179F JUMP JUMPDEST PUSH2 0x7D7 JUMP JUMPDEST PUSH1 0x40 MLOAD PUSH2 0x20C SWAP2 SWAP1 PUSH2 0x1809 JUMP JUMPDEST PUSH1 0x40 MLOAD DUP1 SWAP2 SUB SWAP1 RETURN JUMPDEST PUSH2 0x22F PUSH1 0x4 DUP1 CALLDATASIZE SUB DUP2 ADD SWAP1 PUSH2 0x22A SWAP2 SWAP1 PUSH2 0x18DA JUMP JUMPDEST PUSH2 0x87E JUMP JUMPDEST PUSH1 0x40 MLOAD PUSH2 0x23C SWAP2 SWAP1 PUSH2 0x1914 JUMP JUMPDEST PUSH1 0x40 MLOAD DUP1 SWAP2 SUB SWAP1 RETURN JUMPDEST PUSH2 0x24D PUSH2 0x932 JUMP JUMPDEST PUSH1 0x40 MLOAD PUSH2 0x25A SWAP2 SWAP1 PUSH2 0x174C JUMP JUMPDEST PUSH1 0x40 MLOAD DUP1 SWAP2 SUB SWAP1 RETURN JUMPDEST PUSH2 0x27D PUSH1 0x4 DUP1 CALLDATASIZE SUB DUP2 ADD SWAP1 PUSH2 0x278 SWAP2 SWAP1 PUSH2 0x1957 JUMP JUMPDEST PUSH2 0x9BE JUMP JUMPDEST STOP JUMPDEST PUSH2 0x299 PUSH1 0x4 DUP1 CALLDATASIZE SUB DUP2 ADD SWAP1 PUSH2 0x294 SWAP2 SWAP1 PUSH2 0x1AC1 JUMP JUMPDEST PUSH2 0xAB6 JUMP JUMPDEST STOP JUMPDEST PUSH2 0x2A3 PUSH2 0xB20 JUMP JUMPDEST PUSH1 0x40 MLOAD PUSH2 0x2B0 SWAP2 SWAP1 PUSH2 0x1914 JUMP JUMPDEST PUSH1 0x40 MLOAD DUP1 SWAP2 SUB SWAP1 RETURN JUMPDEST PUSH2 0x2D3 PUSH1 0x4 DUP1 CALLDATASIZE SUB DUP2 ADD SWAP1 PUSH2 0x2CE SWAP2 SWAP1 PUSH2 0x179F JUMP JUMPDEST PUSH2 0xB26 JUMP JUMPDEST PUSH1 0x40 MLOAD PUSH2 0x2E0 SWAP2 SWAP1 PUSH2 0x174C JUMP JUMPDEST PUSH1 0x40 MLOAD DUP1 SWAP2 SUB SWAP1 RETURN JUMPDEST PUSH2 0x303 PUSH1 0x4 DUP1 CALLDATASIZE SUB DUP2 ADD SWAP1 PUSH2 0x2FE SWAP2 SWAP1 PUSH2 0x1B41 JUMP JUMPDEST PUSH2 0xC20 JUMP JUMPDEST PUSH1 0x40 MLOAD PUSH2 0x310 SWAP2 SWAP1 PUSH2 0x16C3 JUMP JUMPDEST PUSH1 0x40 MLOAD DUP1 SWAP2 SUB SWAP1 RETURN JUMPDEST PUSH0 PUSH32 0x80AC58CD00000000000000000000000000000000000000000000000000000000 PUSH28 0xFFFFFFFFFFFFFFFFFFFFFFFFFFFFFFFFFFFFFFFFFFFFFFFFFFFFFFFF NOT AND DUP3 PUSH28 0xFFFFFFFFFFFFFFFFFFFFFFFFFFFFFFFFFFFFFFFFFFFFFFFFFFFFFFFF NOT AND EQ DUP1 PUSH2 0x3E3 JUMPI POP PUSH32 0x1FFC9A700000000000000000000000000000000000000000000000000000000 PUSH28 0xFFFFFFFFFFFFFFFFFFFFFFFFFFFFFFFFFFFFFFFFFFFFFFFFFFFFFFFF NOT AND DUP3 PUSH28 0xFFFFFFFFFFFFFFFFFFFFFFFFFFFFFFFFFFFFFFFFFFFFFFFFFFFFFFFF NOT AND EQ JUMPDEST DUP1 PUSH2 0x44B JUMPI POP PUSH32 0x5B5E139F00000000000000000000000000000000000000000000000000000000 PUSH28 0xFFFFFFFFFFFFFFFFFFFFFFFFFFFFFFFFFFFFFFFFFFFFFFFFFFFFFFFF NOT AND DUP3 PUSH28 0xFFFFFFFFFFFFFFFFFFFFFFFFFFFFFFFFFFFFFFFFFFFFFFFFFFFFFFFF NOT AND EQ JUMPDEST SWAP1 POP SWAP2 SWAP1 POP JUMP JUMPDEST PUSH0 DUP1 SLOAD PUSH2 0x45E SWAP1 PUSH2 0x1BAC JUMP JUMPDEST DUP1 PUSH1 0x1F ADD PUSH1 0x20 DUP1 SWAP2 DIV MUL PUSH1 0x20 ADD PUSH1 0x40 MLOAD SWAP1 DUP2 ADD PUSH1 0x40 MSTORE DUP1 SWAP3 SWAP2 SWAP1 DUP2 DUP2 MSTORE PUSH1 0x20 ADD DUP3 DUP1 SLOAD PUSH2 0x48A SWAP1 PUSH2 0x1BAC JUMP JUMPDEST DUP1 ISZERO PUSH2 0x4D5 JUMPI DUP1 PUSH1 0x1F LT PUSH2 0x4AC JUMPI PUSH2 0x100 DUP1 DUP4 SLOAD DIV MUL DUP4 MSTORE SWAP2 PUSH1 0x20 ADD SWAP2 PUSH2 0x4D5 JUMP JUMPDEST DUP3 ADD SWAP2 SWAP1 PUSH0 MSTORE PUSH1 0x20 PUSH0 KECCAK256 SWAP1 JUMPDEST DUP2 SLOAD DUP2 MSTORE SWAP1 PUSH1 0x1 ADD SWAP1 PUSH1 0x20 ADD DUP1 DUP4 GT PUSH2 0x4B8 JUMPI DUP3 SWAP1 SUB PUSH1 0x1F AND DUP3 ADD SWAP2 JUMPDEST POP POP POP POP POP DUP2 JUMP JUMPDEST PUSH0 PUSH0 PUSH20 0xFFFFFFFFFFFFFFFFFFFFFFFFFFFFFFFFFFFFFFFF AND PUSH1 0x2 PUSH0 DUP5 DUP2 MSTORE PUSH1 0x20 ADD SWAP1 DUP2 MSTORE PUSH1 0x20 ADD PUSH0 KECCAK256 PUSH0 SWAP1 SLOAD SWAP1 PUSH2 0x100 EXP SWAP1 DIV PUSH20 0xFFFFFFFFFFFFFFFFFFFFFFFFFFFFFFFFFFFFFFFF AND PUSH20 0xFFFFFFFFFFFFFFFFFFFFFFFFFFFFFFFFFFFFFFFF AND SUB PUSH2 0x57C JUMPI PUSH1 0x40 MLOAD PUSH32 0x8C379A000000000000000000000000000000000000000000000000000000000 DUP2 MSTORE PUSH1 0x4 ADD PUSH2 0x573 SWAP1 PUSH2 0x1C26 JUMP JUMPDEST PUSH1 0x40 MLOAD DUP1 SWAP2 SUB SWAP1 REVERT JUMPDEST PUSH1 0x4 PUSH0 DUP4 DUP2 MSTORE PUSH1 0x20 ADD SWAP1 DUP2 MSTORE PUSH1 0x20 ADD PUSH0 KECCAK256 PUSH0 SWAP1 SLOAD SWAP1 PUSH2 0x100 EXP SWAP1 DIV PUSH20 0xFFFFFFFFFFFFFFFFFFFFFFFFFFFFFFFFFFFFFFFF AND SWAP1 POP SWAP2 SWAP1 POP JUMP JUMPDEST PUSH0 PUSH1 0x2 PUSH0 DUP4 DUP2 MSTORE PUSH1 0x20 ADD SWAP1 DUP2 MSTORE PUSH1 0x20 ADD PUSH0 KECCAK256 PUSH0 SWAP1 SLOAD SWAP1 PUSH2 0x100 EXP SWAP1 DIV PUSH20 0xFFFFFFFFFFFFFFFFFFFFFFFFFFFFFFFFFFFFFFFF AND SWAP1 POP DUP1 PUSH20 0xFFFFFFFFFFFFFFFFFFFFFFFFFFFFFFFFFFFFFFFF AND CALLER PUSH20 0xFFFFFFFFFFFFFFFFFFFFFFFFFFFFFFFFFFFFFFFF AND EQ DUP1 PUSH2 0x6A3 JUMPI POP PUSH1 0x5 PUSH0 DUP3 PUSH20 0xFFFFFFFFFFFFFFFFFFFFFFFFFFFFFFFFFFFFFFFF AND PUSH20 0xFFFFFFFFFFFFFFFFFFFFFFFFFFFFFFFFFFFFFFFF AND DUP2 MSTORE PUSH1 0x20 ADD SWAP1 DUP2 MSTORE PUSH1 0x20 ADD PUSH0 KECCAK256 PUSH0 CALLER PUSH20 0xFFFFFFFFFFFFFFFFFFFFFFFFFFFFFFFFFFFFFFFF AND PUSH20 0xFFFFFFFFFFFFFFFFFFFFFFFFFFFFFFFFFFFFFFFF AND DUP2 MSTORE PUSH1 0x20 ADD SWAP1 DUP2 MSTORE PUSH1 0x20 ADD PUSH0 KECCAK256 PUSH0 SWAP1 SLOAD SWAP1 PUSH2 0x100 EXP SWAP1 DIV PUSH1 0xFF AND JUMPDEST PUSH2 0x6E2 JUMPI PUSH1 0x40 MLOAD PUSH32 0x8C379A000000000000000000000000000000000000000000000000000000000 DUP2 MSTORE PUSH1 0x4 ADD PUSH2 0x6D9 SWAP1 PUSH2 0x1C8E JUMP JUMPDEST PUSH1 0x40 MLOAD DUP1 SWAP2 SUB SWAP1 REVERT JUMPDEST PUSH2 0x6ED DUP2 DUP5 DUP5 PUSH2 0xCAE JUMP JUMPDEST POP POP POP JUMP JUMPDEST PUSH0 PUSH2 0x6FC DUP3 PUSH2 0x7D7 JUMP JUMPDEST SWAP1 POP PUSH2 0x709 DUP2 CALLER DUP5 PUSH2 0xD5D JUMP JUMPDEST PUSH2 0x748 JUMPI PUSH1 0x40 MLOAD PUSH32 0x8C379A000000000000000000000000000000000000000000000000000000000 DUP2 MSTORE PUSH1 0x4 ADD PUSH2 0x73F SWAP1 PUSH2 0x1CF6 JUMP JUMPDEST PUSH1 0x40 MLOAD DUP1 SWAP2 SUB SWAP1 REVERT JUMPDEST PUSH2 0x754 DUP2 DUP6 DUP6 DUP6 PUSH2 0xE88 JUMP JUMPDEST POP POP POP POP JUMP JUMPDEST PUSH0 DUP2 LT ISZERO DUP1 ISZERO PUSH2 0x76B JUMPI POP PUSH1 0x6 SLOAD DUP2 LT JUMPDEST PUSH2 0x7AA JUMPI PUSH1 0x40 MLOAD PUSH32 0x8C379A000000000000000000000000000000000000000000000000000000000 DUP2 MSTORE PUSH1 0x4 ADD PUSH2 0x7A1 SWAP1 PUSH2 0x1D5E JUMP JUMPDEST PUSH1 0x40 MLOAD DUP1 SWAP2 SUB SWAP1 REVERT JUMPDEST PUSH2 0x7B4 DUP3 DUP3 PUSH2 0x10C7 JUMP JUMPDEST POP POP JUMP JUMPDEST PUSH2 0x7D2 DUP4 DUP4 DUP4 PUSH1 0x40 MLOAD DUP1 PUSH1 0x20 ADD PUSH1 0x40 MSTORE DUP1 PUSH0 DUP2 MSTORE POP PUSH2 0xAB6 JUMP JUMPDEST POP POP POP JUMP JUMPDEST PUSH0 PUSH1 0x2 PUSH0 DUP4 DUP2 MSTORE PUSH1 0x20 ADD SWAP1 DUP2 MSTORE PUSH1 0x20 ADD PUSH0 KECCAK256 PUSH0 SWAP1 SLOAD SWAP1 PUSH2 0x100 EXP SWAP1 DIV PUSH20 0xFFFFFFFFFFFFFFFFFFFFFFFFFFFFFFFFFFFFFFFF AND SWAP1 POP PUSH0 PUSH20 0xFFFFFFFFFFFFFFFFFFFFFFFFFFFFFFFFFFFFFFFF AND DUP2 PUSH20 0xFFFFFFFFFFFFFFFFFFFFFFFFFFFFFFFFFFFFFFFF AND SUB PUSH2 0x879 JUMPI PUSH1 0x40 MLOAD PUSH32 0x8C379A000000000000000000000000000000000000000000000000000000000 DUP2 MSTORE PUSH1 0x4 ADD PUSH2 0x870 SWAP1 PUSH2 0x1C26 JUMP JUMPDEST PUSH1 0x40 MLOAD DUP1 SWAP2 SUB SWAP1 REVERT JUMPDEST SWAP2 SWAP1 POP JUMP JUMPDEST PUSH0 PUSH0 PUSH20 0xFFFFFFFFFFFFFFFFFFFFFFFFFFFFFFFFFFFFFFFF AND DUP3 PUSH20 0xFFFFFFFFFFFFFFFFFFFFFFFFFFFFFFFFFFFFFFFF AND SUB PUSH2 0x8ED JUMPI PUSH1 0x40 MLOAD PUSH32 0x8C379A000000000000000000000000000000000000000000000000000000000 DUP2 MSTORE PUSH1 0x4 ADD PUSH2 0x8E4 SWAP1 PUSH2 0x1DC6 JUMP JUMPDEST PUSH1 0x40 MLOAD DUP1 SWAP2 SUB SWAP1 REVERT JUMPDEST PUSH1 0x3 PUSH0 DUP4 PUSH20 0xFFFFFFFFFFFFFFFFFFFFFFFFFFFFFFFFFFFFFFFF AND PUSH20 0xFFFFFFFFFFFFFFFFFFFFFFFFFFFFFFFFFFFFFFFF AND DUP2 MSTORE PUSH1 0x20 ADD SWAP1 DUP2 MSTORE PUSH1 0x20 ADD PUSH0 KECCAK256 SLOAD SWAP1 POP SWAP2 SWAP1 POP JUMP JUMPDEST PUSH1 0x1 DUP1 SLOAD PUSH2 0x93F SWAP1 PUSH2 0x1BAC JUMP JUMPDEST DUP1 PUSH1 0x1F ADD PUSH1 0x20 DUP1 SWAP2 DIV MUL PUSH1 0x20 ADD PUSH1 0x40 MLOAD SWAP1 DUP2 ADD PUSH1 0x40 MSTORE DUP1 SWAP3 SWAP2 SWAP1 DUP2 DUP2 MSTORE PUSH1 0x20 ADD DUP3 DUP1 SLOAD PUSH2 0x96B SWAP1 PUSH2 0x1BAC JUMP JUMPDEST DUP1 ISZERO PUSH2 0x9B6 JUMPI DUP1 PUSH1 0x1F LT PUSH2 0x98D JUMPI PUSH2 0x100 DUP1 DUP4 SLOAD DIV MUL DUP4 MSTORE SWAP2 PUSH1 0x20 ADD SWAP2 PUSH2 0x9B6 JUMP JUMPDEST DUP3 ADD SWAP2 SWAP1 PUSH0 MSTORE PUSH1 0x20 PUSH0 KECCAK256 SWAP1 JUMPDEST DUP2 SLOAD DUP2 MSTORE SWAP1 PUSH1 0x1 ADD SWAP1 PUSH1 0x20 ADD DUP1 DUP4 GT PUSH2 0x999 JUMPI DUP3 SWAP1 SUB PUSH1 0x1F AND DUP3 ADD SWAP2 JUMPDEST POP POP POP POP POP DUP2 JUMP JUMPDEST DUP1 PUSH1 0x5 PUSH0 CALLER PUSH20 0xFFFFFFFFFFFFFFFFFFFFFFFFFFFFFFFFFFFFFFFF AND PUSH20 0xFFFFFFFFFFFFFFFFFFFFFFFFFFFFFFFFFFFFFFFF AND DUP2 MSTORE PUSH1 0x20 ADD SWAP1 DUP2 MSTORE PUSH1 0x20 ADD PUSH0 KECCAK256 PUSH0 DUP5 PUSH20 0xFFFFFFFFFFFFFFFFFFFFFFFFFFFFFFFFFFFFFFFF AND PUSH20 0xFFFFFFFFFFFFFFFFFFFFFFFFFFFFFFFFFFFFFFFF AND DUP2 MSTORE PUSH1 0x20 ADD SWAP1 DUP2 MSTORE PUSH1 0x20 ADD PUSH0 KECCAK256 PUSH0 PUSH2 0x100 EXP DUP2 SLOAD DUP2 PUSH1 0xFF MUL NOT AND SWAP1 DUP4 ISZERO ISZERO MUL OR SWAP1 SSTORE POP DUP2 PUSH20 0xFFFFFFFFFFFFFFFFFFFFFFFFFFFFFFFFFFFFFFFF AND CALLER PUSH20 0xFFFFFFFFFFFFFFFFFFFFFFFFFFFFFFFFFFFFFFFF AND PUSH32 0x17307EAB39AB6107E8899845AD3D59BD9653F200F220920489CA2B5937696C31 DUP4 PUSH1 0x40 MLOAD PUSH2 0xAAA SWAP2 SWAP1 PUSH2 0x16C3 JUMP JUMPDEST PUSH1 0x40 MLOAD DUP1 SWAP2 SUB SWAP1 LOG3 POP POP JUMP JUMPDEST PUSH0 PUSH2 0xAC0 DUP4 PUSH2 0x7D7 JUMP JUMPDEST SWAP1 POP PUSH2 0xACD DUP2 CALLER DUP6 PUSH2 0xD5D JUMP JUMPDEST PUSH2 0xB0C JUMPI PUSH1 0x40 MLOAD PUSH32 0x8C379A000000000000000000000000000000000000000000000000000000000 DUP2 MSTORE PUSH1 0x4 ADD PUSH2 0xB03 SWAP1 PUSH2 0x1CF6 JUMP JUMPDEST PUSH1 0x40 MLOAD DUP1 SWAP2 SUB SWAP1 REVERT JUMPDEST PUSH2 0xB19 DUP2 DUP7 DUP7 DUP7 DUP7 PUSH2 0x12D5 JUMP JUMPDEST POP POP POP POP POP JUMP JUMPDEST PUSH1 0x6 SLOAD DUP2 JUMP JUMPDEST PUSH1 0x60 PUSH0 PUSH20 0xFFFFFFFFFFFFFFFFFFFFFFFFFFFFFFFFFFFFFFFF AND PUSH1 0x2 PUSH0 DUP5 DUP2 MSTORE PUSH1 0x20 ADD SWAP1 DUP2 MSTORE PUSH1 0x20 ADD PUSH0 KECCAK256 PUSH0 SWAP1 SLOAD SWAP1 PUSH2 0x100 EXP SWAP1 DIV PUSH20 0xFFFFFFFFFFFFFFFFFFFFFFFFFFFFFFFFFFFFFFFF AND PUSH20 0xFFFFFFFFFFFFFFFFFFFFFFFFFFFFFFFFFFFFFFFF AND SUB PUSH2 0xBC6 JUMPI PUSH1 0x40 MLOAD PUSH32 0x8C379A000000000000000000000000000000000000000000000000000000000 DUP2 MSTORE PUSH1 0x4 ADD PUSH2 0xBBD SWAP1 PUSH2 0x1E2E JUMP JUMPDEST PUSH1 0x40 MLOAD DUP1 SWAP2 SUB SWAP1 REVERT JUMPDEST PUSH0 PUSH2 0xBCF PUSH2 0x12F4 JUMP JUMPDEST SWAP1 POP PUSH0 DUP2 MLOAD GT PUSH2 0xBED JUMPI PUSH1 0x40 MLOAD DUP1 PUSH1 0x20 ADD PUSH1 0x40 MSTORE DUP1 PUSH0 DUP2 MSTORE POP PUSH2 0xC18 JUMP JUMPDEST DUP1 PUSH2 0xBF7 DUP5 PUSH2 0x1314 JUMP JUMPDEST PUSH1 0x40 MLOAD PUSH1 0x20 ADD PUSH2 0xC08 SWAP3 SWAP2 SWAP1 PUSH2 0x1E86 JUMP JUMPDEST PUSH1 0x40 MLOAD PUSH1 0x20 DUP2 DUP4 SUB SUB DUP2 MSTORE SWAP1 PUSH1 0x40 MSTORE JUMPDEST SWAP2 POP POP SWAP2 SWAP1 POP JUMP JUMPDEST PUSH0 PUSH1 0x5 PUSH0 DUP5 PUSH20 0xFFFFFFFFFFFFFFFFFFFFFFFFFFFFFFFFFFFFFFFF AND PUSH20 0xFFFFFFFFFFFFFFFFFFFFFFFFFFFFFFFFFFFFFFFF AND DUP2 MSTORE PUSH1 0x20 ADD SWAP1 DUP2 MSTORE PUSH1 0x20 ADD PUSH0 KECCAK256 PUSH0 DUP4 PUSH20 0xFFFFFFFFFFFFFFFFFFFFFFFFFFFFFFFFFFFFFFFF AND PUSH20 0xFFFFFFFFFFFFFFFFFFFFFFFFFFFFFFFFFFFFFFFF AND DUP2 MSTORE PUSH1 0x20 ADD SWAP1 DUP2 MSTORE PUSH1 0x20 ADD PUSH0 KECCAK256 PUSH0 SWAP1 SLOAD SWAP1 PUSH2 0x100 EXP SWAP1 DIV PUSH1 0xFF AND SWAP1 POP SWAP3 SWAP2 POP POP JUMP JUMPDEST DUP2 PUSH1 0x4 PUSH0 DUP4 DUP2 MSTORE PUSH1 0x20 ADD SWAP1 DUP2 MSTORE PUSH1 0x20 ADD PUSH0 KECCAK256 PUSH0 PUSH2 0x100 EXP DUP2 SLOAD DUP2 PUSH20 0xFFFFFFFFFFFFFFFFFFFFFFFFFFFFFFFFFFFFFFFF MUL NOT AND SWAP1 DUP4 PUSH20 0xFFFFFFFFFFFFFFFFFFFFFFFFFFFFFFFFFFFFFFFF AND MUL OR SWAP1 SSTORE POP DUP1 DUP3 PUSH20 0xFFFFFFFFFFFFFFFFFFFFFFFFFFFFFFFFFFFFFFFF AND DUP5 PUSH20 0xFFFFFFFFFFFFFFFFFFFFFFFFFFFFFFFFFFFFFFFF AND PUSH32 0x8C5BE1E5EBEC7D5BD14F71427D1E84F3DD0314C0F7B2291E5B200AC8C7C3B925 PUSH1 0x40 MLOAD PUSH1 0x40 MLOAD DUP1 SWAP2 SUB SWAP1 LOG4 POP POP POP JUMP JUMPDEST PUSH0 DUP4 PUSH20 0xFFFFFFFFFFFFFFFFFFFFFFFFFFFFFFFFFFFFFFFF AND DUP4 PUSH20 0xFFFFFFFFFFFFFFFFFFFFFFFFFFFFFFFFFFFFFFFF AND EQ DUP1 PUSH2 0xDF3 JUMPI POP DUP3 PUSH20 0xFFFFFFFFFFFFFFFFFFFFFFFFFFFFFFFFFFFFFFFF AND PUSH1 0x4 PUSH0 DUP5 DUP2 MSTORE PUSH1 0x20 ADD SWAP1 DUP2 MSTORE PUSH1 0x20 ADD PUSH0 KECCAK256 PUSH0 SWAP1 SLOAD SWAP1 PUSH2 0x100 EXP SWAP1 DIV PUSH20 0xFFFFFFFFFFFFFFFFFFFFFFFFFFFFFFFFFFFFFFFF AND PUSH20 0xFFFFFFFFFFFFFFFFFFFFFFFFFFFFFFFFFFFFFFFF AND EQ JUMPDEST DUP1 PUSH2 0xE7F JUMPI POP PUSH1 0x5 PUSH0 DUP6 PUSH20 0xFFFFFFFFFFFFFFFFFFFFFFFFFFFFFFFFFFFFFFFF AND PUSH20 0xFFFFFFFFFFFFFFFFFFFFFFFFFFFFFFFFFFFFFFFF AND DUP2 MSTORE PUSH1 0x20 ADD SWAP1 DUP2 MSTORE PUSH1 0x20 ADD PUSH0 KECCAK256 PUSH0 DUP5 PUSH20 0xFFFFFFFFFFFFFFFFFFFFFFFFFFFFFFFFFFFFFFFF AND PUSH20 0xFFFFFFFFFFFFFFFFFFFFFFFFFFFFFFFFFFFFFFFF AND DUP2 MSTORE PUSH1 0x20 ADD SWAP1 DUP2 MSTORE PUSH1 0x20 ADD PUSH0 KECCAK256 PUSH0 SWAP1 SLOAD SWAP1 PUSH2 0x100 EXP SWAP1 DIV PUSH1 0xFF AND JUMPDEST SWAP1 POP SWAP4 SWAP3 POP POP POP JUMP JUMPDEST DUP4 PUSH20 0xFFFFFFFFFFFFFFFFFFFFFFFFFFFFFFFFFFFFFFFF AND DUP4 PUSH20 0xFFFFFFFFFFFFFFFFFFFFFFFFFFFFFFFFFFFFFFFF AND EQ PUSH2 0xEF6 JUMPI PUSH1 0x40 MLOAD PUSH32 0x8C379A000000000000000000000000000000000000000000000000000000000 DUP2 MSTORE PUSH1 0x4 ADD PUSH2 0xEED SWAP1 PUSH2 0x1EF3 JUMP JUMPDEST PUSH1 0x40 MLOAD DUP1 SWAP2 SUB SWAP1 REVERT JUMPDEST PUSH0 PUSH20 0xFFFFFFFFFFFFFFFFFFFFFFFFFFFFFFFFFFFFFFFF AND DUP3 PUSH20 0xFFFFFFFFFFFFFFFFFFFFFFFFFFFFFFFFFFFFFFFF AND SUB PUSH2 0xF64 JUMPI PUSH1 0x40 MLOAD PUSH32 0x8C379A000000000000000000000000000000000000000000000000000000000 DUP2 MSTORE PUSH1 0x4 ADD PUSH2 0xF5B SWAP1 PUSH2 0x1F5B JUMP JUMPDEST PUSH1 0x40 MLOAD DUP1 SWAP2 SUB SWAP1 REVERT JUMPDEST PUSH2 0xF6F DUP5 PUSH0 DUP4 PUSH2 0xCAE JUMP JUMPDEST PUSH1 0x1 PUSH1 0x3 PUSH0 DUP6 PUSH20 0xFFFFFFFFFFFFFFFFFFFFFFFFFFFFFFFFFFFFFFFF AND PUSH20 0xFFFFFFFFFFFFFFFFFFFFFFFFFFFFFFFFFFFFFFFF AND DUP2 MSTORE PUSH1 0x20 ADD SWAP1 DUP2 MSTORE PUSH1 0x20 ADD PUSH0 KECCAK256 PUSH0 DUP3 DUP3 SLOAD PUSH2 0xFBC SWAP2 SWAP1 PUSH2 0x1FA6 JUMP JUMPDEST SWAP3 POP POP DUP2 SWAP1 SSTORE POP PUSH1 0x1 PUSH1 0x3 PUSH0 DUP5 PUSH20 0xFFFFFFFFFFFFFFFFFFFFFFFFFFFFFFFFFFFFFFFF AND PUSH20 0xFFFFFFFFFFFFFFFFFFFFFFFFFFFFFFFFFFFFFFFF AND DUP2 MSTORE PUSH1 0x20 ADD SWAP1 DUP2 MSTORE PUSH1 0x20 ADD PUSH0 KECCAK256 PUSH0 DUP3 DUP3 SLOAD PUSH2 0x1010 SWAP2 SWAP1 PUSH2 0x1FD9 JUMP JUMPDEST SWAP3 POP POP DUP2 SWAP1 SSTORE POP DUP2 PUSH1 0x2 PUSH0 DUP4 DUP2 MSTORE PUSH1 0x20 ADD SWAP1 DUP2 MSTORE PUSH1 0x20 ADD PUSH0 KECCAK256 PUSH0 PUSH2 0x100 EXP DUP2 SLOAD DUP2 PUSH20 0xFFFFFFFFFFFFFFFFFFFFFFFFFFFFFFFFFFFFFFFF MUL NOT AND SWAP1 DUP4 PUSH20 0xFFFFFFFFFFFFFFFFFFFFFFFFFFFFFFFFFFFFFFFF AND MUL OR SWAP1 SSTORE POP DUP1 DUP3 PUSH20 0xFFFFFFFFFFFFFFFFFFFFFFFFFFFFFFFFFFFFFFFF AND DUP5 PUSH20 0xFFFFFFFFFFFFFFFFFFFFFFFFFFFFFFFFFFFFFFFF AND PUSH32 0xDDF252AD1BE2C89B69C2B068FC378DAA952BA7F163C4A11628F55A4DF523B3EF PUSH1 0x40 MLOAD PUSH1 0x40 MLOAD DUP1 SWAP2 SUB SWAP1 LOG4 POP POP POP POP JUMP JUMPDEST PUSH0 PUSH20 0xFFFFFFFFFFFFFFFFFFFFFFFFFFFFFFFFFFFFFFFF AND DUP3 PUSH20 0xFFFFFFFFFFFFFFFFFFFFFFFFFFFFFFFFFFFFFFFF AND SUB PUSH2 0x1135 JUMPI PUSH1 0x40 MLOAD PUSH32 0x8C379A000000000000000000000000000000000000000000000000000000000 DUP2 MSTORE PUSH1 0x4 ADD PUSH2 0x112C SWAP1 PUSH2 0x2056 JUMP JUMPDEST PUSH1 0x40 MLOAD DUP1 SWAP2 SUB SWAP1 REVERT JUMPDEST PUSH0 PUSH20 0xFFFFFFFFFFFFFFFFFFFFFFFFFFFFFFFFFFFFFFFF AND PUSH1 0x2 PUSH0 DUP4 DUP2 MSTORE PUSH1 0x20 ADD SWAP1 DUP2 MSTORE PUSH1 0x20 ADD PUSH0 KECCAK256 PUSH0 SWAP1 SLOAD SWAP1 PUSH2 0x100 EXP SWAP1 DIV PUSH20 0xFFFFFFFFFFFFFFFFFFFFFFFFFFFFFFFFFFFFFFFF AND PUSH20 0xFFFFFFFFFFFFFFFFFFFFFFFFFFFFFFFFFFFFFFFF AND EQ PUSH2 0x11D3 JUMPI PUSH1 0x40 MLOAD PUSH32 0x8C379A000000000000000000000000000000000000000000000000000000000 DUP2 MSTORE PUSH1 0x4 ADD PUSH2 0x11CA SWAP1 PUSH2 0x20BE JUMP JUMPDEST PUSH1 0x40 MLOAD DUP1 SWAP2 SUB SWAP1 REVERT JUMPDEST PUSH1 0x1 PUSH1 0x3 PUSH0 DUP5 PUSH20 0xFFFFFFFFFFFFFFFFFFFFFFFFFFFFFFFFFFFFFFFF AND PUSH20 0xFFFFFFFFFFFFFFFFFFFFFFFFFFFFFFFFFFFFFFFF AND DUP2 MSTORE PUSH1 0x20 ADD SWAP1 DUP2 MSTORE PUSH1 0x20 ADD PUSH0 KECCAK256 PUSH0 DUP3 DUP3 SLOAD PUSH2 0x1220 SWAP2 SWAP1 PUSH2 0x1FD9 JUMP JUMPDEST SWAP3 POP POP DUP2 SWAP1 SSTORE POP DUP2 PUSH1 0x2 PUSH0 DUP4 DUP2 MSTORE PUSH1 0x20 ADD SWAP1 DUP2 MSTORE PUSH1 0x20 ADD PUSH0 KECCAK256 PUSH0 PUSH2 0x100 EXP DUP2 SLOAD DUP2 PUSH20 0xFFFFFFFFFFFFFFFFFFFFFFFFFFFFFFFFFFFFFFFF MUL NOT AND SWAP1 DUP4 PUSH20 0xFFFFFFFFFFFFFFFFFFFFFFFFFFFFFFFFFFFFFFFF AND MUL OR SWAP1 SSTORE POP DUP1 DUP3 PUSH20 0xFFFFFFFFFFFFFFFFFFFFFFFFFFFFFFFFFFFFFFFF AND PUSH0 PUSH20 0xFFFFFFFFFFFFFFFFFFFFFFFFFFFFFFFFFFFFFFFF AND PUSH32 0xDDF252AD1BE2C89B69C2B068FC378DAA952BA7F163C4A11628F55A4DF523B3EF PUSH1 0x40 MLOAD PUSH1 0x40 MLOAD DUP1 SWAP2 SUB SWAP1 LOG4 POP POP JUMP JUMPDEST PUSH2 0x12E1 DUP6 DUP6 DUP6 DUP6 PUSH2 0xE88 JUMP JUMPDEST PUSH2 0x12ED DUP5 DUP5 DUP5 DUP5 PUSH2 0x146D JUMP JUMPDEST POP POP POP POP POP JUMP JUMPDEST PUSH1 0x60 PUSH1 0x40 MLOAD DUP1 PUSH1 0x60 ADD PUSH1 0x40 MSTORE DUP1 PUSH1 0x36 DUP2 MSTORE PUSH1 0x20 ADD PUSH2 0x22B9 PUSH1 0x36 SWAP2 CODECOPY SWAP1 POP SWAP1 JUMP JUMPDEST PUSH1 0x60 PUSH0 DUP3 SUB PUSH2 0x135A JUMPI PUSH1 0x40 MLOAD DUP1 PUSH1 0x40 ADD PUSH1 0x40 MSTORE DUP1 PUSH1 0x1 DUP2 MSTORE PUSH1 0x20 ADD PUSH32 0x3000000000000000000000000000000000000000000000000000000000000000 DUP2 MSTORE POP SWAP1 POP PUSH2 0x1468 JUMP JUMPDEST PUSH0 DUP3 SWAP1 POP PUSH0 JUMPDEST PUSH0 DUP3 EQ PUSH2 0x1389 JUMPI DUP1 DUP1 PUSH2 0x1372 SWAP1 PUSH2 0x20DC JUMP JUMPDEST SWAP2 POP POP PUSH1 0xA DUP3 PUSH2 0x1382 SWAP2 SWAP1 PUSH2 0x2150 JUMP JUMPDEST SWAP2 POP PUSH2 0x1360 JUMP JUMPDEST PUSH0 DUP2 PUSH8 0xFFFFFFFFFFFFFFFF DUP2 GT ISZERO PUSH2 0x13A4 JUMPI PUSH2 0x13A3 PUSH2 0x199D JUMP JUMPDEST JUMPDEST PUSH1 0x40 MLOAD SWAP1 DUP1 DUP3 MSTORE DUP1 PUSH1 0x1F ADD PUSH1 0x1F NOT AND PUSH1 0x20 ADD DUP3 ADD PUSH1 0x40 MSTORE DUP1 ISZERO PUSH2 0x13D6 JUMPI DUP2 PUSH1 0x20 ADD PUSH1 0x1 DUP3 MUL DUP1 CALLDATASIZE DUP4 CALLDATACOPY DUP1 DUP3 ADD SWAP2 POP POP SWAP1 POP JUMPDEST POP SWAP1 POP JUMPDEST PUSH0 DUP6 EQ PUSH2 0x1461 JUMPI PUSH1 0x1 DUP3 PUSH2 0x13EE SWAP2 SWAP1 PUSH2 0x1FA6 JUMP JUMPDEST SWAP2 POP PUSH1 0xA DUP6 PUSH2 0x13FD SWAP2 SWAP1 PUSH2 0x2180 JUMP JUMPDEST PUSH1 0x30 PUSH2 0x1409 SWAP2 SWAP1 PUSH2 0x1FD9 JUMP JUMPDEST PUSH1 0xF8 SHL DUP2 DUP4 DUP2 MLOAD DUP2 LT PUSH2 0x141F JUMPI PUSH2 0x141E PUSH2 0x21B0 JUMP JUMPDEST JUMPDEST PUSH1 0x20 ADD ADD SWAP1 PUSH31 0xFFFFFFFFFFFFFFFFFFFFFFFFFFFFFFFFFFFFFFFFFFFFFFFFFFFFFFFFFFFFFF NOT AND SWAP1 DUP2 PUSH0 BYTE SWAP1 MSTORE8 POP PUSH1 0xA DUP6 PUSH2 0x145A SWAP2 SWAP1 PUSH2 0x2150 JUMP JUMPDEST SWAP5 POP PUSH2 0x13DA JUMP JUMPDEST DUP1 SWAP4 POP POP POP POP JUMPDEST SWAP2 SWAP1 POP JUMP JUMPDEST PUSH0 DUP4 PUSH20 0xFFFFFFFFFFFFFFFFFFFFFFFFFFFFFFFFFFFFFFFF AND EXTCODESIZE GT ISZERO PUSH2 0x1612 JUMPI DUP3 PUSH20 0xFFFFFFFFFFFFFFFFFFFFFFFFFFFFFFFFFFFFFFFF AND PUSH4 0x150B7A02 CALLER DUP7 DUP6 DUP6 PUSH1 0x40 MLOAD DUP6 PUSH4 0xFFFFFFFF AND PUSH1 0xE0 SHL DUP2 MSTORE PUSH1 0x4 ADD PUSH2 0x14CB SWAP5 SWAP4 SWAP3 SWAP2 SWAP1 PUSH2 0x222F JUMP JUMPDEST PUSH1 0x20 PUSH1 0x40 MLOAD DUP1 DUP4 SUB DUP2 PUSH0 DUP8 GAS CALL SWAP3 POP POP POP DUP1 ISZERO PUSH2 0x1506 JUMPI POP PUSH1 0x40 MLOAD RETURNDATASIZE PUSH1 0x1F NOT PUSH1 0x1F DUP3 ADD AND DUP3 ADD DUP1 PUSH1 0x40 MSTORE POP DUP2 ADD SWAP1 PUSH2 0x1503 SWAP2 SWAP1 PUSH2 0x228D JUMP JUMPDEST PUSH1 0x1 JUMPDEST PUSH2 0x1587 JUMPI RETURNDATASIZE DUP1 PUSH0 DUP2 EQ PUSH2 0x1534 JUMPI PUSH1 0x40 MLOAD SWAP2 POP PUSH1 0x1F NOT PUSH1 0x3F RETURNDATASIZE ADD AND DUP3 ADD PUSH1 0x40 MSTORE RETURNDATASIZE DUP3 MSTORE RETURNDATASIZE PUSH0 PUSH1 0x20 DUP5 ADD RETURNDATACOPY PUSH2 0x1539 JUMP JUMPDEST PUSH1 0x60 SWAP2 POP JUMPDEST POP PUSH0 DUP2 MLOAD SUB PUSH2 0x157F JUMPI DUP4 PUSH1 0x40 MLOAD PUSH32 0x64A0AE9200000000000000000000000000000000000000000000000000000000 DUP2 MSTORE PUSH1 0x4 ADD PUSH2 0x1576 SWAP2 SWAP1 PUSH2 0x1809 JUMP JUMPDEST PUSH1 0x40 MLOAD DUP1 SWAP2 SUB SWAP1 REVERT JUMPDEST DUP1 MLOAD DUP2 PUSH1 0x20 ADD REVERT JUMPDEST PUSH4 0x150B7A02 PUSH1 0xE0 SHL PUSH28 0xFFFFFFFFFFFFFFFFFFFFFFFFFFFFFFFFFFFFFFFFFFFFFFFFFFFFFFFF NOT AND DUP2 PUSH28 0xFFFFFFFFFFFFFFFFFFFFFFFFFFFFFFFFFFFFFFFFFFFFFFFFFFFFFFFF NOT AND EQ PUSH2 0x1610 JUMPI DUP4 PUSH1 0x40 MLOAD PUSH32 0x64A0AE9200000000000000000000000000000000000000000000000000000000 DUP2 MSTORE PUSH1 0x4 ADD PUSH2 0x1607 SWAP2 SWAP1 PUSH2 0x1809 JUMP JUMPDEST PUSH1 0x40 MLOAD DUP1 SWAP2 SUB SWAP1 REVERT JUMPDEST POP JUMPDEST POP POP POP POP JUMP JUMPDEST PUSH0 PUSH1 0x40 MLOAD SWAP1 POP SWAP1 JUMP JUMPDEST PUSH0 PUSH0 REVERT JUMPDEST PUSH0 PUSH0 REVERT JUMPDEST PUSH0 PUSH32 0xFFFFFFFF00000000000000000000000000000000000000000000000000000000 DUP3 AND SWAP1 POP SWAP2 SWAP1 POP JUMP JUMPDEST PUSH2 0x165D DUP2 PUSH2 0x1629 JUMP JUMPDEST DUP2 EQ PUSH2 0x1667 JUMPI PUSH0 PUSH0 REVERT JUMPDEST POP JUMP JUMPDEST PUSH0 DUP2 CALLDATALOAD SWAP1 POP PUSH2 0x1678 DUP2 PUSH2 0x1654 JUMP JUMPDEST SWAP3 SWAP2 POP POP JUMP JUMPDEST PUSH0 PUSH1 0x20 DUP3 DUP5 SUB SLT ISZERO PUSH2 0x1693 JUMPI PUSH2 0x1692 PUSH2 0x1621 JUMP JUMPDEST JUMPDEST PUSH0 PUSH2 0x16A0 DUP5 DUP3 DUP6 ADD PUSH2 0x166A JUMP JUMPDEST SWAP2 POP POP SWAP3 SWAP2 POP POP JUMP JUMPDEST PUSH0 DUP2 ISZERO ISZERO SWAP1 POP SWAP2 SWAP1 POP JUMP JUMPDEST PUSH2 0x16BD DUP2 PUSH2 0x16A9 JUMP JUMPDEST DUP3 MSTORE POP POP JUMP JUMPDEST PUSH0 PUSH1 0x20 DUP3 ADD SWAP1 POP PUSH2 0x16D6 PUSH0 DUP4 ADD DUP5 PUSH2 0x16B4 JUMP JUMPDEST SWAP3 SWAP2 POP POP JUMP JUMPDEST PUSH0 DUP2 MLOAD SWAP1 POP SWAP2 SWAP1 POP JUMP JUMPDEST PUSH0 DUP3 DUP3 MSTORE PUSH1 0x20 DUP3 ADD SWAP1 POP SWAP3 SWAP2 POP POP JUMP JUMPDEST DUP3 DUP2 DUP4 MCOPY PUSH0 DUP4 DUP4 ADD MSTORE POP POP POP JUMP JUMPDEST PUSH0 PUSH1 0x1F NOT PUSH1 0x1F DUP4 ADD AND SWAP1 POP SWAP2 SWAP1 POP JUMP JUMPDEST PUSH0 PUSH2 0x171E DUP3 PUSH2 0x16DC JUMP JUMPDEST PUSH2 0x1728 DUP2 DUP6 PUSH2 0x16E6 JUMP JUMPDEST SWAP4 POP PUSH2 0x1738 DUP2 DUP6 PUSH1 0x20 DUP7 ADD PUSH2 0x16F6 JUMP JUMPDEST PUSH2 0x1741 DUP2 PUSH2 0x1704 JUMP JUMPDEST DUP5 ADD SWAP2 POP POP SWAP3 SWAP2 POP POP JUMP JUMPDEST PUSH0 PUSH1 0x20 DUP3 ADD SWAP1 POP DUP2 DUP2 SUB PUSH0 DUP4 ADD MSTORE PUSH2 0x1764 DUP2 DUP5 PUSH2 0x1714 JUMP JUMPDEST SWAP1 POP SWAP3 SWAP2 POP POP JUMP JUMPDEST PUSH0 DUP2 SWAP1 POP SWAP2 SWAP1 POP JUMP JUMPDEST PUSH2 0x177E DUP2 PUSH2 0x176C JUMP JUMPDEST DUP2 EQ PUSH2 0x1788 JUMPI PUSH0 PUSH0 REVERT JUMPDEST POP JUMP JUMPDEST PUSH0 DUP2 CALLDATALOAD SWAP1 POP PUSH2 0x1799 DUP2 PUSH2 0x1775 JUMP JUMPDEST SWAP3 SWAP2 POP POP JUMP JUMPDEST PUSH0 PUSH1 0x20 DUP3 DUP5 SUB SLT ISZERO PUSH2 0x17B4 JUMPI PUSH2 0x17B3 PUSH2 0x1621 JUMP JUMPDEST JUMPDEST PUSH0 PUSH2 0x17C1 DUP5 DUP3 DUP6 ADD PUSH2 0x178B JUMP JUMPDEST SWAP2 POP POP SWAP3 SWAP2 POP POP JUMP JUMPDEST PUSH0 PUSH20 0xFFFFFFFFFFFFFFFFFFFFFFFFFFFFFFFFFFFFFFFF DUP3 AND SWAP1 POP SWAP2 SWAP1 POP JUMP JUMPDEST PUSH0 PUSH2 0x17F3 DUP3 PUSH2 0x17CA JUMP JUMPDEST SWAP1 POP SWAP2 SWAP1 POP JUMP JUMPDEST PUSH2 0x1803 DUP2 PUSH2 0x17E9 JUMP JUMPDEST DUP3 MSTORE POP POP JUMP JUMPDEST PUSH0 PUSH1 0x20 DUP3 ADD SWAP1 POP PUSH2 0x181C PUSH0 DUP4 ADD DUP5 PUSH2 0x17FA JUMP JUMPDEST SWAP3 SWAP2 POP POP JUMP JUMPDEST PUSH2 0x182B DUP2 PUSH2 0x17E9 JUMP JUMPDEST DUP2 EQ PUSH2 0x1835 JUMPI PUSH0 PUSH0 REVERT JUMPDEST POP JUMP JUMPDEST PUSH0 DUP2 CALLDATALOAD SWAP1 POP PUSH2 0x1846 DUP2 PUSH2 0x1822 JUMP JUMPDEST SWAP3 SWAP2 POP POP JUMP JUMPDEST PUSH0 PUSH0 PUSH1 0x40 DUP4 DUP6 SUB SLT ISZERO PUSH2 0x1862 JUMPI PUSH2 0x1861 PUSH2 0x1621 JUMP JUMPDEST JUMPDEST PUSH0 PUSH2 0x186F DUP6 DUP3 DUP7 ADD PUSH2 0x1838 JUMP JUMPDEST SWAP3 POP POP PUSH1 0x20 PUSH2 0x1880 DUP6 DUP3 DUP7 ADD PUSH2 0x178B JUMP JUMPDEST SWAP2 POP POP SWAP3 POP SWAP3 SWAP1 POP JUMP JUMPDEST PUSH0 PUSH0 PUSH0 PUSH1 0x60 DUP5 DUP7 SUB SLT ISZERO PUSH2 0x18A1 JUMPI PUSH2 0x18A0 PUSH2 0x1621 JUMP JUMPDEST JUMPDEST PUSH0 PUSH2 0x18AE DUP7 DUP3 DUP8 ADD PUSH2 0x1838 JUMP JUMPDEST SWAP4 POP POP PUSH1 0x20 PUSH2 0x18BF DUP7 DUP3 DUP8 ADD PUSH2 0x1838 JUMP JUMPDEST SWAP3 POP POP PUSH1 0x40 PUSH2 0x18D0 DUP7 DUP3 DUP8 ADD PUSH2 0x178B JUMP JUMPDEST SWAP2 POP POP SWAP3 POP SWAP3 POP SWAP3 JUMP JUMPDEST PUSH0 PUSH1 0x20 DUP3 DUP5 SUB SLT ISZERO PUSH2 0x18EF JUMPI PUSH2 0x18EE PUSH2 0x1621 JUMP JUMPDEST JUMPDEST PUSH0 PUSH2 0x18FC DUP5 DUP3 DUP6 ADD PUSH2 0x1838 JUMP JUMPDEST SWAP2 POP POP SWAP3 SWAP2 POP POP JUMP JUMPDEST PUSH2 0x190E DUP2 PUSH2 0x176C JUMP JUMPDEST DUP3 MSTORE POP POP JUMP JUMPDEST PUSH0 PUSH1 0x20 DUP3 ADD SWAP1 POP PUSH2 0x1927 PUSH0 DUP4 ADD DUP5 PUSH2 0x1905 JUMP JUMPDEST SWAP3 SWAP2 POP POP JUMP JUMPDEST PUSH2 0x1936 DUP2 PUSH2 0x16A9 JUMP JUMPDEST DUP2 EQ PUSH2 0x1940 JUMPI PUSH0 PUSH0 REVERT JUMPDEST POP JUMP JUMPDEST PUSH0 DUP2 CALLDATALOAD SWAP1 POP PUSH2 0x1951 DUP2 PUSH2 0x192D JUMP JUMPDEST SWAP3 SWAP2 POP POP JUMP JUMPDEST PUSH0 PUSH0 PUSH1 0x40 DUP4 DUP6 SUB SLT ISZERO PUSH2 0x196D JUMPI PUSH2 0x196C PUSH2 0x1621 JUMP JUMPDEST JUMPDEST PUSH0 PUSH2 0x197A DUP6 DUP3 DUP7 ADD PUSH2 0x1838 JUMP JUMPDEST SWAP3 POP POP PUSH1 0x20 PUSH2 0x198B DUP6 DUP3 DUP7 ADD PUSH2 0x1943 JUMP JUMPDEST SWAP2 POP POP SWAP3 POP SWAP3 SWAP1 POP JUMP JUMPDEST PUSH0 PUSH0 REVERT JUMPDEST PUSH0 PUSH0 REVERT JUMPDEST PUSH32 0x4E487B7100000000000000000000000000000000000000000000000000000000 PUSH0 MSTORE PUSH1 0x41 PUSH1 0x4 MSTORE PUSH1 0x24 PUSH0 REVERT JUMPDEST PUSH2 0x19D3 DUP3 PUSH2 0x1704 JUMP JUMPDEST DUP2 ADD DUP2 DUP2 LT PUSH8 0xFFFFFFFFFFFFFFFF DUP3 GT OR ISZERO PUSH2 0x19F2 JUMPI PUSH2 0x19F1 PUSH2 0x199D JUMP JUMPDEST JUMPDEST DUP1 PUSH1 0x40 MSTORE POP POP POP JUMP JUMPDEST PUSH0 PUSH2 0x1A04 PUSH2 0x1618 JUMP JUMPDEST SWAP1 POP PUSH2 0x1A10 DUP3 DUP3 PUSH2 0x19CA JUMP JUMPDEST SWAP2 SWAP1 POP JUMP JUMPDEST PUSH0 PUSH8 0xFFFFFFFFFFFFFFFF DUP3 GT ISZERO PUSH2 0x1A2F JUMPI PUSH2 0x1A2E PUSH2 0x199D JUMP JUMPDEST JUMPDEST PUSH2 0x1A38 DUP3 PUSH2 0x1704 JUMP JUMPDEST SWAP1 POP PUSH1 0x20 DUP2 ADD SWAP1 POP SWAP2 SWAP1 POP JUMP JUMPDEST DUP3 DUP2 DUP4 CALLDATACOPY PUSH0 DUP4 DUP4 ADD MSTORE POP POP POP JUMP JUMPDEST PUSH0 PUSH2 0x1A65 PUSH2 0x1A60 DUP5 PUSH2 0x1A15 JUMP JUMPDEST PUSH2 0x19FB JUMP JUMPDEST SWAP1 POP DUP3 DUP2 MSTORE PUSH1 0x20 DUP2 ADD DUP5 DUP5 DUP5 ADD GT ISZERO PUSH2 0x1A81 JUMPI PUSH2 0x1A80 PUSH2 0x1999 JUMP JUMPDEST JUMPDEST PUSH2 0x1A8C DUP5 DUP3 DUP6 PUSH2 0x1A45 JUMP JUMPDEST POP SWAP4 SWAP3 POP POP POP JUMP JUMPDEST PUSH0 DUP3 PUSH1 0x1F DUP4 ADD SLT PUSH2 0x1AA8 JUMPI PUSH2 0x1AA7 PUSH2 0x1995 JUMP JUMPDEST JUMPDEST DUP2 CALLDATALOAD PUSH2 0x1AB8 DUP5 DUP3 PUSH1 0x20 DUP7 ADD PUSH2 0x1A53 JUMP JUMPDEST SWAP2 POP POP SWAP3 SWAP2 POP POP JUMP JUMPDEST PUSH0 PUSH0 PUSH0 PUSH0 PUSH1 0x80 DUP6 DUP8 SUB SLT ISZERO PUSH2 0x1AD9 JUMPI PUSH2 0x1AD8 PUSH2 0x1621 JUMP JUMPDEST JUMPDEST PUSH0 PUSH2 0x1AE6 DUP8 DUP3 DUP9 ADD PUSH2 0x1838 JUMP JUMPDEST SWAP5 POP POP PUSH1 0x20 PUSH2 0x1AF7 DUP8 DUP3 DUP9 ADD PUSH2 0x1838 JUMP JUMPDEST SWAP4 POP POP PUSH1 0x40 PUSH2 0x1B08 DUP8 DUP3 DUP9 ADD PUSH2 0x178B JUMP JUMPDEST SWAP3 POP POP PUSH1 0x60 DUP6 ADD CALLDATALOAD PUSH8 0xFFFFFFFFFFFFFFFF DUP2 GT ISZERO PUSH2 0x1B29 JUMPI PUSH2 0x1B28 PUSH2 0x1625 JUMP JUMPDEST JUMPDEST PUSH2 0x1B35 DUP8 DUP3 DUP9 ADD PUSH2 0x1A94 JUMP JUMPDEST SWAP2 POP POP SWAP3 SWAP6 SWAP2 SWAP5 POP SWAP3 POP JUMP JUMPDEST PUSH0 PUSH0 PUSH1 0x40 DUP4 DUP6 SUB SLT ISZERO PUSH2 0x1B57 JUMPI PUSH2 0x1B56 PUSH2 0x1621 JUMP JUMPDEST JUMPDEST PUSH0 PUSH2 0x1B64 DUP6 DUP3 DUP7 ADD PUSH2 0x1838 JUMP JUMPDEST SWAP3 POP POP PUSH1 0x20 PUSH2 0x1B75 DUP6 DUP3 DUP7 ADD PUSH2 0x1838 JUMP JUMPDEST SWAP2 POP POP SWAP3 POP SWAP3 SWAP1 POP JUMP JUMPDEST PUSH32 0x4E487B7100000000000000000000000000000000000000000000000000000000 PUSH0 MSTORE PUSH1 0x22 PUSH1 0x4 MSTORE PUSH1 0x24 PUSH0 REVERT JUMPDEST PUSH0 PUSH1 0x2 DUP3 DIV SWAP1 POP PUSH1 0x1 DUP3 AND DUP1 PUSH2 0x1BC3 JUMPI PUSH1 0x7F DUP3 AND SWAP2 POP JUMPDEST PUSH1 0x20 DUP3 LT DUP2 SUB PUSH2 0x1BD6 JUMPI PUSH2 0x1BD5 PUSH2 0x1B7F JUMP JUMPDEST JUMPDEST POP SWAP2 SWAP1 POP JUMP JUMPDEST PUSH32 0x746F6B656E20646F65736E277420657869737400000000000000000000000000 PUSH0 DUP3 ADD MSTORE POP JUMP JUMPDEST PUSH0 PUSH2 0x1C10 PUSH1 0x13 DUP4 PUSH2 0x16E6 JUMP JUMPDEST SWAP2 POP PUSH2 0x1C1B DUP3 PUSH2 0x1BDC JUMP JUMPDEST PUSH1 0x20 DUP3 ADD SWAP1 POP SWAP2 SWAP1 POP JUMP JUMPDEST PUSH0 PUSH1 0x20 DUP3 ADD SWAP1 POP DUP2 DUP2 SUB PUSH0 DUP4 ADD MSTORE PUSH2 0x1C3D DUP2 PUSH2 0x1C04 JUMP JUMPDEST SWAP1 POP SWAP2 SWAP1 POP JUMP JUMPDEST PUSH32 0x6E6F74206F776E6572206E6F7220617070726F76656420666F7220616C6C0000 PUSH0 DUP3 ADD MSTORE POP JUMP JUMPDEST PUSH0 PUSH2 0x1C78 PUSH1 0x1E DUP4 PUSH2 0x16E6 JUMP JUMPDEST SWAP2 POP PUSH2 0x1C83 DUP3 PUSH2 0x1C44 JUMP JUMPDEST PUSH1 0x20 DUP3 ADD SWAP1 POP SWAP2 SWAP1 POP JUMP JUMPDEST PUSH0 PUSH1 0x20 DUP3 ADD SWAP1 POP DUP2 DUP2 SUB PUSH0 DUP4 ADD MSTORE PUSH2 0x1CA5 DUP2 PUSH2 0x1C6C JUMP JUMPDEST SWAP1 POP SWAP2 SWAP1 POP JUMP JUMPDEST PUSH32 0x6E6F74206F776E6572206E6F7220617070726F76656400000000000000000000 PUSH0 DUP3 ADD MSTORE POP JUMP JUMPDEST PUSH0 PUSH2 0x1CE0 PUSH1 0x16 DUP4 PUSH2 0x16E6 JUMP JUMPDEST SWAP2 POP PUSH2 0x1CEB DUP3 PUSH2 0x1CAC JUMP JUMPDEST PUSH1 0x20 DUP3 ADD SWAP1 POP SWAP2 SWAP1 POP JUMP JUMPDEST PUSH0 PUSH1 0x20 DUP3 ADD SWAP1 POP DUP2 DUP2 SUB PUSH0 DUP4 ADD MSTORE PUSH2 0x1D0D DUP2 PUSH2 0x1CD4 JUMP JUMPDEST SWAP1 POP SWAP2 SWAP1 POP JUMP JUMPDEST PUSH32 0x746F6B656E4964206F7574206F662072616E6765000000000000000000000000 PUSH0 DUP3 ADD MSTORE POP JUMP JUMPDEST PUSH0 PUSH2 0x1D48 PUSH1 0x14 DUP4 PUSH2 0x16E6 JUMP JUMPDEST SWAP2 POP PUSH2 0x1D53 DUP3 PUSH2 0x1D14 JUMP JUMPDEST PUSH1 0x20 DUP3 ADD SWAP1 POP SWAP2 SWAP1 POP JUMP JUMPDEST PUSH0 PUSH1 0x20 DUP3 ADD SWAP1 POP DUP2 DUP2 SUB PUSH0 DUP4 ADD MSTORE PUSH2 0x1D75 DUP2 PUSH2 0x1D3C JUMP JUMPDEST SWAP1 POP SWAP2 SWAP1 POP JUMP JUMPDEST PUSH32 0x6F776E6572203D207A65726F2061646472657373000000000000000000000000 PUSH0 DUP3 ADD MSTORE POP JUMP JUMPDEST PUSH0 PUSH2 0x1DB0 PUSH1 0x14 DUP4 PUSH2 0x16E6 JUMP JUMPDEST SWAP2 POP PUSH2 0x1DBB DUP3 PUSH2 0x1D7C JUMP JUMPDEST PUSH1 0x20 DUP3 ADD SWAP1 POP SWAP2 SWAP1 POP JUMP JUMPDEST PUSH0 PUSH1 0x20 DUP3 ADD SWAP1 POP DUP2 DUP2 SUB PUSH0 DUP4 ADD MSTORE PUSH2 0x1DDD DUP2 PUSH2 0x1DA4 JUMP JUMPDEST SWAP1 POP SWAP2 SWAP1 POP JUMP JUMPDEST PUSH32 0x546F6B656E204E6F742045786973740000000000000000000000000000000000 PUSH0 DUP3 ADD MSTORE POP JUMP JUMPDEST PUSH0 PUSH2 0x1E18 PUSH1 0xF DUP4 PUSH2 0x16E6 JUMP JUMPDEST SWAP2 POP PUSH2 0x1E23 DUP3 PUSH2 0x1DE4 JUMP JUMPDEST PUSH1 0x20 DUP3 ADD SWAP1 POP SWAP2 SWAP1 POP JUMP JUMPDEST PUSH0 PUSH1 0x20 DUP3 ADD SWAP1 POP DUP2 DUP2 SUB PUSH0 DUP4 ADD MSTORE PUSH2 0x1E45 DUP2 PUSH2 0x1E0C JUMP JUMPDEST SWAP1 POP SWAP2 SWAP1 POP JUMP JUMPDEST PUSH0 DUP2 SWAP1 POP SWAP3 SWAP2 POP POP JUMP JUMPDEST PUSH0 PUSH2 0x1E60 DUP3 PUSH2 0x16DC JUMP JUMPDEST PUSH2 0x1E6A DUP2 DUP6 PUSH2 0x1E4C JUMP JUMPDEST SWAP4 POP PUSH2 0x1E7A DUP2 DUP6 PUSH1 0x20 DUP7 ADD PUSH2 0x16F6 JUMP JUMPDEST DUP1 DUP5 ADD SWAP2 POP POP SWAP3 SWAP2 POP POP JUMP JUMPDEST PUSH0 PUSH2 0x1E91 DUP3 DUP6 PUSH2 0x1E56 JUMP JUMPDEST SWAP2 POP PUSH2 0x1E9D DUP3 DUP5 PUSH2 0x1E56 JUMP JUMPDEST SWAP2 POP DUP2 SWAP1 POP SWAP4 SWAP3 POP POP POP JUMP JUMPDEST PUSH32 0x6E6F74206F776E65720000000000000000000000000000000000000000000000 PUSH0 DUP3 ADD MSTORE POP JUMP JUMPDEST PUSH0 PUSH2 0x1EDD PUSH1 0x9 DUP4 PUSH2 0x16E6 JUMP JUMPDEST SWAP2 POP PUSH2 0x1EE8 DUP3 PUSH2 0x1EA9 JUMP JUMPDEST PUSH1 0x20 DUP3 ADD SWAP1 POP SWAP2 SWAP1 POP JUMP JUMPDEST PUSH0 PUSH1 0x20 DUP3 ADD SWAP1 POP DUP2 DUP2 SUB PUSH0 DUP4 ADD MSTORE PUSH2 0x1F0A DUP2 PUSH2 0x1ED1 JUMP JUMPDEST SWAP1 POP SWAP2 SWAP1 POP JUMP JUMPDEST PUSH32 0x7472616E7366657220746F20746865207A65726F206164647265737300000000 PUSH0 DUP3 ADD MSTORE POP JUMP JUMPDEST PUSH0 PUSH2 0x1F45 PUSH1 0x1C DUP4 PUSH2 0x16E6 JUMP JUMPDEST SWAP2 POP PUSH2 0x1F50 DUP3 PUSH2 0x1F11 JUMP JUMPDEST PUSH1 0x20 DUP3 ADD SWAP1 POP SWAP2 SWAP1 POP JUMP JUMPDEST PUSH0 PUSH1 0x20 DUP3 ADD SWAP1 POP DUP2 DUP2 SUB PUSH0 DUP4 ADD MSTORE PUSH2 0x1F72 DUP2 PUSH2 0x1F39 JUMP JUMPDEST SWAP1 POP SWAP2 SWAP1 POP JUMP JUMPDEST PUSH32 0x4E487B7100000000000000000000000000000000000000000000000000000000 PUSH0 MSTORE PUSH1 0x11 PUSH1 0x4 MSTORE PUSH1 0x24 PUSH0 REVERT JUMPDEST PUSH0 PUSH2 0x1FB0 DUP3 PUSH2 0x176C JUMP JUMPDEST SWAP2 POP PUSH2 0x1FBB DUP4 PUSH2 0x176C JUMP JUMPDEST SWAP3 POP DUP3 DUP3 SUB SWAP1 POP DUP2 DUP2 GT ISZERO PUSH2 0x1FD3 JUMPI PUSH2 0x1FD2 PUSH2 0x1F79 JUMP JUMPDEST JUMPDEST SWAP3 SWAP2 POP POP JUMP JUMPDEST PUSH0 PUSH2 0x1FE3 DUP3 PUSH2 0x176C JUMP JUMPDEST SWAP2 POP PUSH2 0x1FEE DUP4 PUSH2 0x176C JUMP JUMPDEST SWAP3 POP DUP3 DUP3 ADD SWAP1 POP DUP1 DUP3 GT ISZERO PUSH2 0x2006 JUMPI PUSH2 0x2005 PUSH2 0x1F79 JUMP JUMPDEST JUMPDEST SWAP3 SWAP2 POP POP JUMP JUMPDEST PUSH32 0x6D696E7420746F207A65726F2061646472657373000000000000000000000000 PUSH0 DUP3 ADD MSTORE POP JUMP JUMPDEST PUSH0 PUSH2 0x2040 PUSH1 0x14 DUP4 PUSH2 0x16E6 JUMP JUMPDEST SWAP2 POP PUSH2 0x204B DUP3 PUSH2 0x200C JUMP JUMPDEST PUSH1 0x20 DUP3 ADD SWAP1 POP SWAP2 SWAP1 POP JUMP JUMPDEST PUSH0 PUSH1 0x20 DUP3 ADD SWAP1 POP DUP2 DUP2 SUB PUSH0 DUP4 ADD MSTORE PUSH2 0x206D DUP2 PUSH2 0x2034 JUMP JUMPDEST SWAP1 POP SWAP2 SWAP1 POP JUMP JUMPDEST PUSH32 0x746F6B656E20616C7265616479206D696E746564000000000000000000000000 PUSH0 DUP3 ADD MSTORE POP JUMP JUMPDEST PUSH0 PUSH2 0x20A8 PUSH1 0x14 DUP4 PUSH2 0x16E6 JUMP JUMPDEST SWAP2 POP PUSH2 0x20B3 DUP3 PUSH2 0x2074 JUMP JUMPDEST PUSH1 0x20 DUP3 ADD SWAP1 POP SWAP2 SWAP1 POP JUMP JUMPDEST PUSH0 PUSH1 0x20 DUP3 ADD SWAP1 POP DUP2 DUP2 SUB PUSH0 DUP4 ADD MSTORE PUSH2 0x20D5 DUP2 PUSH2 0x209C JUMP JUMPDEST SWAP1 POP SWAP2 SWAP1 POP JUMP JUMPDEST PUSH0 PUSH2 0x20E6 DUP3 PUSH2 0x176C JUMP JUMPDEST SWAP2 POP PUSH32 0xFFFFFFFFFFFFFFFFFFFFFFFFFFFFFFFFFFFFFFFFFFFFFFFFFFFFFFFFFFFFFFFF DUP3 SUB PUSH2 0x2118 JUMPI PUSH2 0x2117 PUSH2 0x1F79 JUMP JUMPDEST JUMPDEST PUSH1 0x1 DUP3 ADD SWAP1 POP SWAP2 SWAP1 POP JUMP JUMPDEST PUSH32 0x4E487B7100000000000000000000000000000000000000000000000000000000 PUSH0 MSTORE PUSH1 0x12 PUSH1 0x4 MSTORE PUSH1 0x24 PUSH0 REVERT JUMPDEST PUSH0 PUSH2 0x215A DUP3 PUSH2 0x176C JUMP JUMPDEST SWAP2 POP PUSH2 0x2165 DUP4 PUSH2 0x176C JUMP JUMPDEST SWAP3 POP DUP3 PUSH2 0x2175 JUMPI PUSH2 0x2174 PUSH2 0x2123 JUMP JUMPDEST JUMPDEST DUP3 DUP3 DIV SWAP1 POP SWAP3 SWAP2 POP POP JUMP JUMPDEST PUSH0 PUSH2 0x218A DUP3 PUSH2 0x176C JUMP JUMPDEST SWAP2 POP PUSH2 0x2195 DUP4 PUSH2 0x176C JUMP JUMPDEST SWAP3 POP DUP3 PUSH2 0x21A5 JUMPI PUSH2 0x21A4 PUSH2 0x2123 JUMP JUMPDEST JUMPDEST DUP3 DUP3 MOD SWAP1 POP SWAP3 SWAP2 POP POP JUMP JUMPDEST PUSH32 0x4E487B7100000000000000000000000000000000000000000000000000000000 PUSH0 MSTORE PUSH1 0x32 PUSH1 0x4 MSTORE PUSH1 0x24 PUSH0 REVERT JUMPDEST PUSH0 DUP2 MLOAD SWAP1 POP SWAP2 SWAP1 POP JUMP JUMPDEST PUSH0 DUP3 DUP3 MSTORE PUSH1 0x20 DUP3 ADD SWAP1 POP SWAP3 SWAP2 POP POP JUMP JUMPDEST PUSH0 PUSH2 0x2201 DUP3 PUSH2 0x21DD JUMP JUMPDEST PUSH2 0x220B DUP2 DUP6 PUSH2 0x21E7 JUMP JUMPDEST SWAP4 POP PUSH2 0x221B DUP2 DUP6 PUSH1 0x20 DUP7 ADD PUSH2 0x16F6 JUMP JUMPDEST PUSH2 0x2224 DUP2 PUSH2 0x1704 JUMP JUMPDEST DUP5 ADD SWAP2 POP POP SWAP3 SWAP2 POP POP JUMP JUMPDEST PUSH0 PUSH1 0x80 DUP3 ADD SWAP1 POP PUSH2 0x2242 PUSH0 DUP4 ADD DUP8 PUSH2 0x17FA JUMP JUMPDEST PUSH2 0x224F PUSH1 0x20 DUP4 ADD DUP7 PUSH2 0x17FA JUMP JUMPDEST PUSH2 0x225C PUSH1 0x40 DUP4 ADD DUP6 PUSH2 0x1905 JUMP JUMPDEST DUP2 DUP2 SUB PUSH1 0x60 DUP4 ADD MSTORE PUSH2 0x226E DUP2 DUP5 PUSH2 0x21F7 JUMP JUMPDEST SWAP1 POP SWAP6 SWAP5 POP POP POP POP POP JUMP JUMPDEST PUSH0 DUP2 MLOAD SWAP1 POP PUSH2 0x2287 DUP2 PUSH2 0x1654 JUMP JUMPDEST SWAP3 SWAP2 POP POP JUMP JUMPDEST PUSH0 PUSH1 0x20 DUP3 DUP5 SUB SLT ISZERO PUSH2 0x22A2 JUMPI PUSH2 0x22A1 PUSH2 0x1621 JUMP JUMPDEST JUMPDEST PUSH0 PUSH2 0x22AF DUP5 DUP3 DUP6 ADD PUSH2 0x2279 JUMP JUMPDEST SWAP2 POP POP SWAP3 SWAP2 POP POP JUMP INVALID PUSH10 0x7066733A2F2F516D6553 PUSH11 0x53696E4870506E6D586D73 PUSH17 0x4D6A776958794E367A533445397A636361 PUSH19 0x694752336A7863615774712FA2646970667358 0x22 SLT KECCAK256 DELEGATECALL MSTORE GAS 0xC4 PUSH32 0x6F77EB9C1E1A94DA8C3B070EAE69DD98745C37DB651CD0AC3E058464736F6C63 NUMBER STOP ADDMOD 0x1E STOP CALLER "
				},
				"gasEstimates": {
					"creation": {
						"codeDepositCost": "1799200",
						"executionCost": "infinite",
						"totalCost": "infinite"
					},
					"external": {
						"MAX_APES()": "2469",
						"approve(address,uint256)": "31535",
						"balanceOf(address)": "2908",
						"getApproved(uint256)": "5165",
						"isApprovedForAll(address,address)": "infinite",
						"mint(address,uint256)": "infinite",
						"name()": "infinite",
						"ownerOf(uint256)": "2961",
						"safeTransferFrom(address,address,uint256)": "infinite",
						"safeTransferFrom(address,address,uint256,bytes)": "infinite",
						"setApprovalForAll(address,bool)": "infinite",
						"supportsInterface(bytes4)": "745",
						"symbol()": "infinite",
						"tokenURI(uint256)": "infinite",
						"transferFrom(address,address,uint256)": "infinite"
					},
					"internal": {
						"_baseURI()": "infinite"
					}
				},
				"methodIdentifiers": {
					"MAX_APES()": "bb8a16bd",
					"approve(address,uint256)": "095ea7b3",
					"balanceOf(address)": "70a08231",
					"getApproved(uint256)": "081812fc",
					"isApprovedForAll(address,address)": "e985e9c5",
					"mint(address,uint256)": "40c10f19",
					"name()": "06fdde03",
					"ownerOf(uint256)": "6352211e",
					"safeTransferFrom(address,address,uint256)": "42842e0e",
					"safeTransferFrom(address,address,uint256,bytes)": "b88d4fde",
					"setApprovalForAll(address,bool)": "a22cb465",
					"supportsInterface(bytes4)": "01ffc9a7",
					"symbol()": "95d89b41",
					"tokenURI(uint256)": "c87b56dd",
					"transferFrom(address,address,uint256)": "23b872dd"
				}
			},
			"storageLayout": {
				"storage": [
					{
						"astId": 67,
						"contract": "contracts/034_WTFAPE.sol:WTFApe",
						"label": "name",
						"offset": 0,
						"slot": "0",
						"type": "t_string_storage"
					},
					{
						"astId": 70,
						"contract": "contracts/034_WTFAPE.sol:WTFApe",
						"label": "symbol",
						"offset": 0,
						"slot": "1",
						"type": "t_string_storage"
					},
					{
						"astId": 74,
						"contract": "contracts/034_WTFAPE.sol:WTFApe",
						"label": "_owners",
						"offset": 0,
						"slot": "2",
						"type": "t_mapping(t_uint256,t_address)"
					},
					{
						"astId": 78,
						"contract": "contracts/034_WTFAPE.sol:WTFApe",
						"label": "_balances",
						"offset": 0,
						"slot": "3",
						"type": "t_mapping(t_address,t_uint256)"
					},
					{
						"astId": 82,
						"contract": "contracts/034_WTFAPE.sol:WTFApe",
						"label": "_tokenApprovals",
						"offset": 0,
						"slot": "4",
						"type": "t_mapping(t_uint256,t_address)"
					},
					{
						"astId": 88,
						"contract": "contracts/034_WTFAPE.sol:WTFApe",
						"label": "_operatorApprovals",
						"offset": 0,
						"slot": "5",
						"type": "t_mapping(t_address,t_mapping(t_address,t_bool))"
					},
					{
						"astId": 7,
						"contract": "contracts/034_WTFAPE.sol:WTFApe",
						"label": "MAX_APES",
						"offset": 0,
						"slot": "6",
						"type": "t_uint256"
					}
				],
				"types": {
					"t_address": {
						"encoding": "inplace",
						"label": "address",
						"numberOfBytes": "20"
					},
					"t_bool": {
						"encoding": "inplace",
						"label": "bool",
						"numberOfBytes": "1"
					},
					"t_mapping(t_address,t_bool)": {
						"encoding": "mapping",
						"key": "t_address",
						"label": "mapping(address => bool)",
						"numberOfBytes": "32",
						"value": "t_bool"
					},
					"t_mapping(t_address,t_mapping(t_address,t_bool))": {
						"encoding": "mapping",
						"key": "t_address",
						"label": "mapping(address => mapping(address => bool))",
						"numberOfBytes": "32",
						"value": "t_mapping(t_address,t_bool)"
					},
					"t_mapping(t_address,t_uint256)": {
						"encoding": "mapping",
						"key": "t_address",
						"label": "mapping(address => uint256)",
						"numberOfBytes": "32",
						"value": "t_uint256"
					},
					"t_mapping(t_uint256,t_address)": {
						"encoding": "mapping",
						"key": "t_uint256",
						"label": "mapping(uint256 => address)",
						"numberOfBytes": "32",
						"value": "t_address"
					},
					"t_string_storage": {
						"encoding": "bytes",
						"label": "string",
						"numberOfBytes": "32"
					},
					"t_uint256": {
						"encoding": "inplace",
						"label": "uint256",
						"numberOfBytes": "32"
					}
				}
			},
			"userdoc": {
				"kind": "user",
				"methods": {},
				"version": 1
			}
		}
	}
}