{
	"contracts/009_Constant.sol": {
		"Constant": {
			"abi": [
				{
					"inputs": [],
					"stateMutability": "nonpayable",
					"type": "constructor"
				},
				{
					"inputs": [],
					"name": "CONSTANT_NUM",
					"outputs": [
						{
							"internalType": "uint256",
							"name": "",
							"type": "uint256"
						}
					],
					"stateMutability": "view",
					"type": "function"
				},
				{
					"inputs": [],
					"name": "IMMUTABLE_ADDRESS",
					"outputs": [
						{
							"internalType": "address",
							"name": "",
							"type": "address"
						}
					],
					"stateMutability": "view",
					"type": "function"
				},
				{
					"inputs": [],
					"name": "IMMUTABLE_BLOCK",
					"outputs": [
						{
							"internalType": "uint256",
							"name": "",
							"type": "uint256"
						}
					],
					"stateMutability": "view",
					"type": "function"
				},
				{
					"inputs": [],
					"name": "IMMUTABLE_NUM",
					"outputs": [
						{
							"internalType": "uint256",
							"name": "",
							"type": "uint256"
						}
					],
					"stateMutability": "view",
					"type": "function"
				},
				{
					"inputs": [],
					"name": "IMMUTABLE_TEST",
					"outputs": [
						{
							"internalType": "uint256",
							"name": "",
							"type": "uint256"
						}
					],
					"stateMutability": "view",
					"type": "function"
				},
				{
					"inputs": [],
					"name": "test",
					"outputs": [
						{
							"internalType": "uint256",
							"name": "",
							"type": "uint256"
						}
					],
					"stateMutability": "pure",
					"type": "function"
				}
			],
			"devdoc": {
				"kind": "dev",
				"methods": {},
				"version": 1
			},
			"evm": {
				"assembly": "    /* \"contracts/009_Constant.sol\":70:804  contract Constant {... */\n  mstore(0x40, 0xe0)\n    /* \"contracts/009_Constant.sol\":356:360  9999 */\n  0x270f\n    /* \"contracts/009_Constant.sol\":315:360  uint256 public immutable IMMUTABLE_NUM = 9999 */\n  0x80\n  swap1\n  dup2\n  mstore\n  pop\n    /* \"contracts/009_Constant.sol\":497:665  constructor() {... */\n  callvalue\n  dup1\n  iszero\n  tag_1\n  jumpi\n  revert(0x00, 0x00)\ntag_1:\n  pop\n    /* \"contracts/009_Constant.sol\":549:553  this */\n  address\n    /* \"contracts/009_Constant.sol\":521:554  IMMUTABLE_ADDRESS = address(this) */\n  0xffffffffffffffffffffffffffffffffffffffff\n  and\n  0xa0\n  dup2\n  0xffffffffffffffffffffffffffffffffffffffff\n  and\n  dup2\n  mstore\n  pop\n  pop\n    /* \"contracts/009_Constant.sol\":580:585  23334 */\n  0x5b26\n    /* \"contracts/009_Constant.sol\":564:585  IMMUTABLE_NUM = 23334 */\n  0x80\n  dup2\n  dup2\n  mstore\n  pop\n  pop\n    /* \"contracts/009_Constant.sol\":613:625  block.number */\n  number\n    /* \"contracts/009_Constant.sol\":595:625  IMMUTABLE_BLOCK = block.number */\n  0xc0\n  dup2\n  dup2\n  mstore\n  pop\n  pop\n    /* \"contracts/009_Constant.sol\":652:658  test() */\n  tag_4\n    /* \"contracts/009_Constant.sol\":652:656  test */\n  shl(0x20, tag_5)\n    /* \"contracts/009_Constant.sol\":652:658  test() */\n  0x20\n  shr\n  jump\t// in\ntag_4:\n    /* \"contracts/009_Constant.sol\":635:649  IMMUTABLE_TEST */\n  0x00\n    /* \"contracts/009_Constant.sol\":635:658  IMMUTABLE_TEST = test() */\n  dup2\n  swap1\n  sstore\n  pop\n    /* \"contracts/009_Constant.sol\":70:804  contract Constant {... */\n  jump(tag_6)\n    /* \"contracts/009_Constant.sol\":671:802  function test() public pure returns(uint256) {... */\ntag_5:\n    /* \"contracts/009_Constant.sol\":707:714  uint256 */\n  0x00\n    /* \"contracts/009_Constant.sol\":726:738  uint256 what */\n  0x00\n    /* \"contracts/009_Constant.sol\":741:742  9 */\n  0x09\n    /* \"contracts/009_Constant.sol\":726:742  uint256 what = 9 */\n  swap1\n  pop\n    /* \"contracts/009_Constant.sol\":790:794  what */\n  dup1\n    /* \"contracts/009_Constant.sol\":782:795  return (what) */\n  swap2\n  pop\n  pop\n    /* \"contracts/009_Constant.sol\":671:802  function test() public pure returns(uint256) {... */\n  swap1\n  jump\t// out\n    /* \"contracts/009_Constant.sol\":70:804  contract Constant {... */\ntag_6:\n  mload(0x80)\n  mload(0xa0)\n  mload(0xc0)\n  codecopy(0x00, dataOffset(sub_0), dataSize(sub_0))\n  0x00\n  assignImmutable(\"0x731dc163f73d31d8c68f9917ce4ff967753939f70432973c04fd2c2a48148607\")\n  0x00\n  assignImmutable(\"0x8fef2229291b68be841adf029e58b87f39ba144b2d3b0af1760243d0a9bc6a1c\")\n  0x00\n  assignImmutable(\"0x277ab82e5a4641341820a4a2933a62c1de997e42e92548657ae21b3728d580fe\")\n  return(0x00, dataSize(sub_0))\nstop\n\nsub_0: assembly {\n        /* \"contracts/009_Constant.sol\":70:804  contract Constant {... */\n      mstore(0x40, 0x80)\n      callvalue\n      dup1\n      iszero\n      tag_1\n      jumpi\n      revert(0x00, 0x00)\n    tag_1:\n      pop\n      jumpi(tag_2, lt(calldatasize, 0x04))\n      shr(0xe0, calldataload(0x00))\n      dup1\n      0x1d9afdd2\n      eq\n      tag_3\n      jumpi\n      dup1\n      0x2314d48c\n      eq\n      tag_4\n      jumpi\n      dup1\n      0x4064572e\n      eq\n      tag_5\n      jumpi\n      dup1\n      0xed7ff875\n      eq\n      tag_6\n      jumpi\n      dup1\n      0xf1513021\n      eq\n      tag_7\n      jumpi\n      dup1\n      0xf8a8fd6d\n      eq\n      tag_8\n      jumpi\n    tag_2:\n      revert(0x00, 0x00)\n        /* \"contracts/009_Constant.sol\":415:455  uint256 public immutable IMMUTABLE_BLOCK */\n    tag_3:\n      tag_9\n      tag_10\n      jump\t// in\n    tag_9:\n      mload(0x40)\n      tag_11\n      swap2\n      swap1\n      tag_12\n      jump\t// in\n    tag_11:\n      mload(0x40)\n      dup1\n      swap2\n      sub\n      swap1\n      return\n        /* \"contracts/009_Constant.sol\":94:135  uint256 public constant CONSTANT_NUM = 10 */\n    tag_4:\n      tag_13\n      tag_14\n      jump\t// in\n    tag_13:\n      mload(0x40)\n      tag_15\n      swap2\n      swap1\n      tag_12\n      jump\t// in\n    tag_15:\n      mload(0x40)\n      dup1\n      swap2\n      sub\n      swap1\n      return\n        /* \"contracts/009_Constant.sol\":461:490  uint256 public IMMUTABLE_TEST */\n    tag_5:\n      tag_16\n      tag_17\n      jump\t// in\n    tag_16:\n      mload(0x40)\n      tag_18\n      swap2\n      swap1\n      tag_12\n      jump\t// in\n    tag_18:\n      mload(0x40)\n      dup1\n      swap2\n      sub\n      swap1\n      return\n        /* \"contracts/009_Constant.sol\":315:360  uint256 public immutable IMMUTABLE_NUM = 9999 */\n    tag_6:\n      tag_19\n      tag_20\n      jump\t// in\n    tag_19:\n      mload(0x40)\n      tag_21\n      swap2\n      swap1\n      tag_12\n      jump\t// in\n    tag_21:\n      mload(0x40)\n      dup1\n      swap2\n      sub\n      swap1\n      return\n        /* \"contracts/009_Constant.sol\":366:408  address public immutable IMMUTABLE_ADDRESS */\n    tag_7:\n      tag_22\n      tag_23\n      jump\t// in\n    tag_22:\n      mload(0x40)\n      tag_24\n      swap2\n      swap1\n      tag_25\n      jump\t// in\n    tag_24:\n      mload(0x40)\n      dup1\n      swap2\n      sub\n      swap1\n      return\n        /* \"contracts/009_Constant.sol\":671:802  function test() public pure returns(uint256) {... */\n    tag_8:\n      tag_26\n      tag_27\n      jump\t// in\n    tag_26:\n      mload(0x40)\n      tag_28\n      swap2\n      swap1\n      tag_12\n      jump\t// in\n    tag_28:\n      mload(0x40)\n      dup1\n      swap2\n      sub\n      swap1\n      return\n        /* \"contracts/009_Constant.sol\":415:455  uint256 public immutable IMMUTABLE_BLOCK */\n    tag_10:\n      immutable(\"0x731dc163f73d31d8c68f9917ce4ff967753939f70432973c04fd2c2a48148607\")\n      dup2\n      jump\t// out\n        /* \"contracts/009_Constant.sol\":94:135  uint256 public constant CONSTANT_NUM = 10 */\n    tag_14:\n        /* \"contracts/009_Constant.sol\":133:135  10 */\n      0x0a\n        /* \"contracts/009_Constant.sol\":94:135  uint256 public constant CONSTANT_NUM = 10 */\n      dup2\n      jump\t// out\n        /* \"contracts/009_Constant.sol\":461:490  uint256 public IMMUTABLE_TEST */\n    tag_17:\n      sload(0x00)\n      dup2\n      jump\t// out\n        /* \"contracts/009_Constant.sol\":315:360  uint256 public immutable IMMUTABLE_NUM = 9999 */\n    tag_20:\n      immutable(\"0x277ab82e5a4641341820a4a2933a62c1de997e42e92548657ae21b3728d580fe\")\n      dup2\n      jump\t// out\n        /* \"contracts/009_Constant.sol\":366:408  address public immutable IMMUTABLE_ADDRESS */\n    tag_23:\n      immutable(\"0x8fef2229291b68be841adf029e58b87f39ba144b2d3b0af1760243d0a9bc6a1c\")\n      dup2\n      jump\t// out\n        /* \"contracts/009_Constant.sol\":671:802  function test() public pure returns(uint256) {... */\n    tag_27:\n        /* \"contracts/009_Constant.sol\":707:714  uint256 */\n      0x00\n        /* \"contracts/009_Constant.sol\":726:738  uint256 what */\n      0x00\n        /* \"contracts/009_Constant.sol\":741:742  9 */\n      0x09\n        /* \"contracts/009_Constant.sol\":726:742  uint256 what = 9 */\n      swap1\n      pop\n        /* \"contracts/009_Constant.sol\":790:794  what */\n      dup1\n        /* \"contracts/009_Constant.sol\":782:795  return (what) */\n      swap2\n      pop\n      pop\n        /* \"contracts/009_Constant.sol\":671:802  function test() public pure returns(uint256) {... */\n      swap1\n      jump\t// out\n        /* \"#utility.yul\":7:84   */\n    tag_30:\n        /* \"#utility.yul\":44:51   */\n      0x00\n        /* \"#utility.yul\":73:78   */\n      dup2\n        /* \"#utility.yul\":62:78   */\n      swap1\n      pop\n        /* \"#utility.yul\":7:84   */\n      swap2\n      swap1\n      pop\n      jump\t// out\n        /* \"#utility.yul\":90:208   */\n    tag_31:\n        /* \"#utility.yul\":177:201   */\n      tag_38\n        /* \"#utility.yul\":195:200   */\n      dup2\n        /* \"#utility.yul\":177:201   */\n      tag_30\n      jump\t// in\n    tag_38:\n        /* \"#utility.yul\":172:175   */\n      dup3\n        /* \"#utility.yul\":165:202   */\n      mstore\n        /* \"#utility.yul\":90:208   */\n      pop\n      pop\n      jump\t// out\n        /* \"#utility.yul\":214:436   */\n    tag_12:\n        /* \"#utility.yul\":307:311   */\n      0x00\n        /* \"#utility.yul\":345:347   */\n      0x20\n        /* \"#utility.yul\":334:343   */\n      dup3\n        /* \"#utility.yul\":330:348   */\n      add\n        /* \"#utility.yul\":322:348   */\n      swap1\n      pop\n        /* \"#utility.yul\":358:429   */\n      tag_40\n        /* \"#utility.yul\":426:427   */\n      0x00\n        /* \"#utility.yul\":415:424   */\n      dup4\n        /* \"#utility.yul\":411:428   */\n      add\n        /* \"#utility.yul\":402:408   */\n      dup5\n        /* \"#utility.yul\":358:429   */\n      tag_31\n      jump\t// in\n    tag_40:\n        /* \"#utility.yul\":214:436   */\n      swap3\n      swap2\n      pop\n      pop\n      jump\t// out\n        /* \"#utility.yul\":442:568   */\n    tag_32:\n        /* \"#utility.yul\":479:486   */\n      0x00\n        /* \"#utility.yul\":519:561   */\n      0xffffffffffffffffffffffffffffffffffffffff\n        /* \"#utility.yul\":512:517   */\n      dup3\n        /* \"#utility.yul\":508:562   */\n      and\n        /* \"#utility.yul\":497:562   */\n      swap1\n      pop\n        /* \"#utility.yul\":442:568   */\n      swap2\n      swap1\n      pop\n      jump\t// out\n        /* \"#utility.yul\":574:670   */\n    tag_33:\n        /* \"#utility.yul\":611:618   */\n      0x00\n        /* \"#utility.yul\":640:664   */\n      tag_43\n        /* \"#utility.yul\":658:663   */\n      dup3\n        /* \"#utility.yul\":640:664   */\n      tag_32\n      jump\t// in\n    tag_43:\n        /* \"#utility.yul\":629:664   */\n      swap1\n      pop\n        /* \"#utility.yul\":574:670   */\n      swap2\n      swap1\n      pop\n      jump\t// out\n        /* \"#utility.yul\":676:794   */\n    tag_34:\n        /* \"#utility.yul\":763:787   */\n      tag_45\n        /* \"#utility.yul\":781:786   */\n      dup2\n        /* \"#utility.yul\":763:787   */\n      tag_33\n      jump\t// in\n    tag_45:\n        /* \"#utility.yul\":758:761   */\n      dup3\n        /* \"#utility.yul\":751:788   */\n      mstore\n        /* \"#utility.yul\":676:794   */\n      pop\n      pop\n      jump\t// out\n        /* \"#utility.yul\":800:1022   */\n    tag_25:\n        /* \"#utility.yul\":893:897   */\n      0x00\n        /* \"#utility.yul\":931:933   */\n      0x20\n        /* \"#utility.yul\":920:929   */\n      dup3\n        /* \"#utility.yul\":916:934   */\n      add\n        /* \"#utility.yul\":908:934   */\n      swap1\n      pop\n        /* \"#utility.yul\":944:1015   */\n      tag_47\n        /* \"#utility.yul\":1012:1013   */\n      0x00\n        /* \"#utility.yul\":1001:1010   */\n      dup4\n        /* \"#utility.yul\":997:1014   */\n      add\n        /* \"#utility.yul\":988:994   */\n      dup5\n        /* \"#utility.yul\":944:1015   */\n      tag_34\n      jump\t// in\n    tag_47:\n        /* \"#utility.yul\":800:1022   */\n      swap3\n      swap2\n      pop\n      pop\n      jump\t// out\n\n    auxdata: 0xa2646970667358221220032cc092dd1d9bd1884d9cc762e61ab426d9df2826970461182350bd453a707964736f6c634300081e0033\n}\n",
				"bytecode": {
					"linkReferences": {},
					"object": "60e060405261270f608090815250348015610018575f5ffd5b503073ffffffffffffffffffffffffffffffffffffffff1660a08173ffffffffffffffffffffffffffffffffffffffff1681525050615b26608081815250504360c0818152505061006d61007760201b60201c565b5f81905550610084565b5f5f600990508091505090565b60805160a05160c05161025a6100ae5f395f61011a01525f61016c01525f610148015261025a5ff3fe608060405234801561000f575f5ffd5b5060043610610060575f3560e01c80631d9afdd2146100645780632314d48c146100825780634064572e146100a0578063ed7ff875146100be578063f1513021146100dc578063f8a8fd6d146100fa575b5f5ffd5b61006c610118565b60405161007991906101b3565b60405180910390f35b61008a61013c565b60405161009791906101b3565b60405180910390f35b6100a8610141565b6040516100b591906101b3565b60405180910390f35b6100c6610146565b6040516100d391906101b3565b60405180910390f35b6100e461016a565b6040516100f1919061020b565b60405180910390f35b61010261018e565b60405161010f91906101b3565b60405180910390f35b7f000000000000000000000000000000000000000000000000000000000000000081565b600a81565b5f5481565b7f000000000000000000000000000000000000000000000000000000000000000081565b7f000000000000000000000000000000000000000000000000000000000000000081565b5f5f600990508091505090565b5f819050919050565b6101ad8161019b565b82525050565b5f6020820190506101c65f8301846101a4565b92915050565b5f73ffffffffffffffffffffffffffffffffffffffff82169050919050565b5f6101f5826101cc565b9050919050565b610205816101eb565b82525050565b5f60208201905061021e5f8301846101fc565b9291505056fea2646970667358221220032cc092dd1d9bd1884d9cc762e61ab426d9df2826970461182350bd453a707964736f6c634300081e0033",
					"opcodes": "PUSH1 0xE0 PUSH1 0x40 MSTORE PUSH2 0x270F PUSH1 0x80 SWAP1 DUP2 MSTORE POP CALLVALUE DUP1 ISZERO PUSH2 0x18 JUMPI PUSH0 PUSH0 REVERT JUMPDEST POP ADDRESS PUSH20 0xFFFFFFFFFFFFFFFFFFFFFFFFFFFFFFFFFFFFFFFF AND PUSH1 0xA0 DUP2 PUSH20 0xFFFFFFFFFFFFFFFFFFFFFFFFFFFFFFFFFFFFFFFF AND DUP2 MSTORE POP POP PUSH2 0x5B26 PUSH1 0x80 DUP2 DUP2 MSTORE POP POP NUMBER PUSH1 0xC0 DUP2 DUP2 MSTORE POP POP PUSH2 0x6D PUSH2 0x77 PUSH1 0x20 SHL PUSH1 0x20 SHR JUMP JUMPDEST PUSH0 DUP2 SWAP1 SSTORE POP PUSH2 0x84 JUMP JUMPDEST PUSH0 PUSH0 PUSH1 0x9 SWAP1 POP DUP1 SWAP2 POP POP SWAP1 JUMP JUMPDEST PUSH1 0x80 MLOAD PUSH1 0xA0 MLOAD PUSH1 0xC0 MLOAD PUSH2 0x25A PUSH2 0xAE PUSH0 CODECOPY PUSH0 PUSH2 0x11A ADD MSTORE PUSH0 PUSH2 0x16C ADD MSTORE PUSH0 PUSH2 0x148 ADD MSTORE PUSH2 0x25A PUSH0 RETURN INVALID PUSH1 0x80 PUSH1 0x40 MSTORE CALLVALUE DUP1 ISZERO PUSH2 0xF JUMPI PUSH0 PUSH0 REVERT JUMPDEST POP PUSH1 0x4 CALLDATASIZE LT PUSH2 0x60 JUMPI PUSH0 CALLDATALOAD PUSH1 0xE0 SHR DUP1 PUSH4 0x1D9AFDD2 EQ PUSH2 0x64 JUMPI DUP1 PUSH4 0x2314D48C EQ PUSH2 0x82 JUMPI DUP1 PUSH4 0x4064572E EQ PUSH2 0xA0 JUMPI DUP1 PUSH4 0xED7FF875 EQ PUSH2 0xBE JUMPI DUP1 PUSH4 0xF1513021 EQ PUSH2 0xDC JUMPI DUP1 PUSH4 0xF8A8FD6D EQ PUSH2 0xFA JUMPI JUMPDEST PUSH0 PUSH0 REVERT JUMPDEST PUSH2 0x6C PUSH2 0x118 JUMP JUMPDEST PUSH1 0x40 MLOAD PUSH2 0x79 SWAP2 SWAP1 PUSH2 0x1B3 JUMP JUMPDEST PUSH1 0x40 MLOAD DUP1 SWAP2 SUB SWAP1 RETURN JUMPDEST PUSH2 0x8A PUSH2 0x13C JUMP JUMPDEST PUSH1 0x40 MLOAD PUSH2 0x97 SWAP2 SWAP1 PUSH2 0x1B3 JUMP JUMPDEST PUSH1 0x40 MLOAD DUP1 SWAP2 SUB SWAP1 RETURN JUMPDEST PUSH2 0xA8 PUSH2 0x141 JUMP JUMPDEST PUSH1 0x40 MLOAD PUSH2 0xB5 SWAP2 SWAP1 PUSH2 0x1B3 JUMP JUMPDEST PUSH1 0x40 MLOAD DUP1 SWAP2 SUB SWAP1 RETURN JUMPDEST PUSH2 0xC6 PUSH2 0x146 JUMP JUMPDEST PUSH1 0x40 MLOAD PUSH2 0xD3 SWAP2 SWAP1 PUSH2 0x1B3 JUMP JUMPDEST PUSH1 0x40 MLOAD DUP1 SWAP2 SUB SWAP1 RETURN JUMPDEST PUSH2 0xE4 PUSH2 0x16A JUMP JUMPDEST PUSH1 0x40 MLOAD PUSH2 0xF1 SWAP2 SWAP1 PUSH2 0x20B JUMP JUMPDEST PUSH1 0x40 MLOAD DUP1 SWAP2 SUB SWAP1 RETURN JUMPDEST PUSH2 0x102 PUSH2 0x18E JUMP JUMPDEST PUSH1 0x40 MLOAD PUSH2 0x10F SWAP2 SWAP1 PUSH2 0x1B3 JUMP JUMPDEST PUSH1 0x40 MLOAD DUP1 SWAP2 SUB SWAP1 RETURN JUMPDEST PUSH32 0x0 DUP2 JUMP JUMPDEST PUSH1 0xA DUP2 JUMP JUMPDEST PUSH0 SLOAD DUP2 JUMP JUMPDEST PUSH32 0x0 DUP2 JUMP JUMPDEST PUSH32 0x0 DUP2 JUMP JUMPDEST PUSH0 PUSH0 PUSH1 0x9 SWAP1 POP DUP1 SWAP2 POP POP SWAP1 JUMP JUMPDEST PUSH0 DUP2 SWAP1 POP SWAP2 SWAP1 POP JUMP JUMPDEST PUSH2 0x1AD DUP2 PUSH2 0x19B JUMP JUMPDEST DUP3 MSTORE POP POP JUMP JUMPDEST PUSH0 PUSH1 0x20 DUP3 ADD SWAP1 POP PUSH2 0x1C6 PUSH0 DUP4 ADD DUP5 PUSH2 0x1A4 JUMP JUMPDEST SWAP3 SWAP2 POP POP JUMP JUMPDEST PUSH0 PUSH20 0xFFFFFFFFFFFFFFFFFFFFFFFFFFFFFFFFFFFFFFFF DUP3 AND SWAP1 POP SWAP2 SWAP1 POP JUMP JUMPDEST PUSH0 PUSH2 0x1F5 DUP3 PUSH2 0x1CC JUMP JUMPDEST SWAP1 POP SWAP2 SWAP1 POP JUMP JUMPDEST PUSH2 0x205 DUP2 PUSH2 0x1EB JUMP JUMPDEST DUP3 MSTORE POP POP JUMP JUMPDEST PUSH0 PUSH1 0x20 DUP3 ADD SWAP1 POP PUSH2 0x21E PUSH0 DUP4 ADD DUP5 PUSH2 0x1FC JUMP JUMPDEST SWAP3 SWAP2 POP POP JUMP INVALID LOG2 PUSH5 0x6970667358 0x22 SLT KECCAK256 SUB 0x2C 0xC0 SWAP3 0xDD SAR SWAP12 DATALOADN 0x884D SWAP13 0xC7 PUSH3 0xE61AB4 0x26 0xD9 0xDF 0x28 0x26 SWAP8 DIV PUSH2 0x1823 POP 0xBD GASLIMIT GASPRICE PUSH17 0x7964736F6C634300081E00330000000000 "
				},
				"gasEstimates": {
					"creation": {
						"codeDepositCost": "120400",
						"executionCost": "infinite",
						"totalCost": "infinite"
					},
					"external": {
						"CONSTANT_NUM()": "325",
						"IMMUTABLE_ADDRESS()": "infinite",
						"IMMUTABLE_BLOCK()": "infinite",
						"IMMUTABLE_NUM()": "infinite",
						"IMMUTABLE_TEST()": "2446",
						"test()": "432"
					}
				},
				"methodIdentifiers": {
					"CONSTANT_NUM()": "2314d48c",
					"IMMUTABLE_ADDRESS()": "f1513021",
					"IMMUTABLE_BLOCK()": "1d9afdd2",
					"IMMUTABLE_NUM()": "ed7ff875",
					"IMMUTABLE_TEST()": "4064572e",
					"test()": "f8a8fd6d"
				}
			},
			"storageLayout": {
				"storage": [
					{
						"astId": 22,
						"contract": "contracts/009_Constant.sol:Constant",
						"label": "IMMUTABLE_TEST",
						"offset": 0,
						"slot": "0",
						"type": "t_uint256"
					}
				],
				"types": {
					"t_uint256": {
						"encoding": "inplace",
						"label": "uint256",
						"numberOfBytes": "32"
					}
				}
			},
			"userdoc": {
				"kind": "user",
				"methods": {},
				"version": 1
			}
		}
	}
}