{
	"contracts/005_DataStorage.sol": {
		"DataStorage": {
			"abi": [
				{
					"inputs": [],
					"name": "bar",
					"outputs": [
						{
							"internalType": "uint256",
							"name": "",
							"type": "uint256"
						}
					],
					"stateMutability": "pure",
					"type": "function"
				},
				{
					"inputs": [],
					"name": "etherUnit",
					"outputs": [
						{
							"internalType": "uint256",
							"name": "",
							"type": "uint256"
						},
						{
							"internalType": "uint256",
							"name": "",
							"type": "uint256"
						}
					],
					"stateMutability": "pure",
					"type": "function"
				},
				{
					"inputs": [
						{
							"internalType": "uint256[]",
							"name": "_x",
							"type": "uint256[]"
						}
					],
					"name": "fCallData",
					"outputs": [
						{
							"internalType": "uint256[]",
							"name": "",
							"type": "uint256[]"
						}
					],
					"stateMutability": "pure",
					"type": "function"
				},
				{
					"inputs": [],
					"name": "fStorage",
					"outputs": [],
					"stateMutability": "nonpayable",
					"type": "function"
				},
				{
					"inputs": [],
					"name": "foo",
					"outputs": [],
					"stateMutability": "nonpayable",
					"type": "function"
				},
				{
					"inputs": [],
					"name": "global",
					"outputs": [
						{
							"internalType": "address",
							"name": "",
							"type": "address"
						},
						{
							"internalType": "uint256",
							"name": "",
							"type": "uint256"
						},
						{
							"internalType": "bytes",
							"name": "",
							"type": "bytes"
						}
					],
					"stateMutability": "view",
					"type": "function"
				},
				{
					"inputs": [],
					"name": "gweiUnit",
					"outputs": [
						{
							"internalType": "uint256",
							"name": "",
							"type": "uint256"
						}
					],
					"stateMutability": "pure",
					"type": "function"
				},
				{
					"inputs": [],
					"name": "weiUnit",
					"outputs": [
						{
							"internalType": "uint256",
							"name": "",
							"type": "uint256"
						}
					],
					"stateMutability": "pure",
					"type": "function"
				},
				{
					"inputs": [],
					"name": "x",
					"outputs": [
						{
							"internalType": "uint256",
							"name": "",
							"type": "uint256"
						}
					],
					"stateMutability": "view",
					"type": "function"
				},
				{
					"inputs": [],
					"name": "y",
					"outputs": [
						{
							"internalType": "uint256",
							"name": "",
							"type": "uint256"
						}
					],
					"stateMutability": "view",
					"type": "function"
				},
				{
					"inputs": [],
					"name": "z",
					"outputs": [
						{
							"internalType": "string",
							"name": "",
							"type": "string"
						}
					],
					"stateMutability": "view",
					"type": "function"
				}
			],
			"devdoc": {
				"kind": "dev",
				"methods": {},
				"version": 1
			},
			"evm": {
				"assembly": "    /* \"contracts/005_DataStorage.sol\":70:1410  contract DataStorage {... */\n  mstore(0x40, 0x80)\n    /* \"contracts/005_DataStorage.sol\":248:268  uint[] xxx = [1,2,3] */\n  mload(0x40)\n  dup1\n  0x60\n  add\n  0x40\n  mstore\n  dup1\n    /* \"contracts/005_DataStorage.sol\":262:263  1 */\n  0x01\n    /* \"contracts/005_DataStorage.sol\":248:268  uint[] xxx = [1,2,3] */\n  0xff\n  and\n  dup2\n  mstore\n  0x20\n  add\n    /* \"contracts/005_DataStorage.sol\":264:265  2 */\n  0x02\n    /* \"contracts/005_DataStorage.sol\":248:268  uint[] xxx = [1,2,3] */\n  0xff\n  and\n  dup2\n  mstore\n  0x20\n  add\n    /* \"contracts/005_DataStorage.sol\":266:267  3 */\n  0x03\n    /* \"contracts/005_DataStorage.sol\":248:268  uint[] xxx = [1,2,3] */\n  0xff\n  and\n  dup2\n  mstore\n  pop\n  0x00\n  swap1\n  0x03\n  tag_1\n  swap3\n  swap2\n  swap1\n  tag_2\n  jump\t// in\ntag_1:\n  pop\n    /* \"contracts/005_DataStorage.sol\":396:397  1 */\n  0x01\n    /* \"contracts/005_DataStorage.sol\":381:397  uint public x= 1 */\n  dup1\n  sstore\n    /* \"contracts/005_DataStorage.sol\":419:420  2 */\n  0x02\n    /* \"contracts/005_DataStorage.sol\":403:420  uint public y = 2 */\n  dup1\n  sstore\n    /* \"contracts/005_DataStorage.sol\":70:1410  contract DataStorage {... */\n  callvalue\n  dup1\n  iszero\n  tag_3\n  jumpi\n  revert(0x00, 0x00)\ntag_3:\n  pop\n  jump(tag_4)\ntag_2:\n  dup3\n  dup1\n  sload\n  dup3\n  dup3\n  sstore\n  swap1\n  0x00\n  mstore\n  keccak256(0x00, 0x20)\n  swap1\n  dup2\n  add\n  swap3\n  dup3\n  iszero\n  tag_5\n  jumpi\n  swap2\n  0x20\n  mul\n  dup3\n  add\ntag_6:\n  dup3\n  dup2\n  gt\n  iszero\n  tag_7\n  jumpi\n  dup3\n  mload\n  dup3\n  swap1\n  0xff\n  and\n  swap1\n  sstore\n  swap2\n  0x20\n  add\n  swap2\n  swap1\n  0x01\n  add\n  swap1\n  jump(tag_6)\ntag_7:\ntag_5:\n  pop\n  swap1\n  pop\n  tag_8\n  swap2\n  swap1\n  tag_9\n  jump\t// in\ntag_8:\n  pop\n  swap1\n  jump\t// out\ntag_9:\ntag_10:\n  dup1\n  dup3\n  gt\n  iszero\n  tag_11\n  jumpi\n  0x00\n  dup2\n  0x00\n  swap1\n  sstore\n  pop\n  0x01\n  add\n  jump(tag_10)\ntag_11:\n  pop\n  swap1\n  jump\t// out\ntag_4:\n  dataSize(sub_0)\n  dup1\n  dataOffset(sub_0)\n  0x00\n  codecopy\n  0x00\n  return\nstop\n\nsub_0: assembly {\n        /* \"contracts/005_DataStorage.sol\":70:1410  contract DataStorage {... */\n      mstore(0x40, 0x80)\n      callvalue\n      dup1\n      iszero\n      tag_1\n      jumpi\n      revert(0x00, 0x00)\n    tag_1:\n      pop\n      jumpi(tag_2, lt(calldatasize, 0x04))\n      shr(0xe0, calldataload(0x00))\n      dup1\n      0xa56dfe4a\n      gt\n      tag_14\n      jumpi\n      dup1\n      0xa56dfe4a\n      eq\n      tag_8\n      jumpi\n      dup1\n      0xaec3d640\n      eq\n      tag_9\n      jumpi\n      dup1\n      0xc2985578\n      eq\n      tag_10\n      jumpi\n      dup1\n      0xc5d7802e\n      eq\n      tag_11\n      jumpi\n      dup1\n      0xcb9f1220\n      eq\n      tag_12\n      jumpi\n      dup1\n      0xfebb0f7e\n      eq\n      tag_13\n      jumpi\n      jump(tag_2)\n    tag_14:\n      dup1\n      0x0c55699c\n      eq\n      tag_3\n      jumpi\n      dup1\n      0x12176349\n      eq\n      tag_4\n      jumpi\n      dup1\n      0x6a8d1e08\n      eq\n      tag_5\n      jumpi\n      dup1\n      0x77014bee\n      eq\n      tag_6\n      jumpi\n      dup1\n      0xa05f9906\n      eq\n      tag_7\n      jumpi\n    tag_2:\n      revert(0x00, 0x00)\n        /* \"contracts/005_DataStorage.sol\":381:397  uint public x= 1 */\n    tag_3:\n      tag_15\n      tag_16\n      jump\t// in\n    tag_15:\n      mload(0x40)\n      tag_17\n      swap2\n      swap1\n      tag_18\n      jump\t// in\n    tag_17:\n      mload(0x40)\n      dup1\n      swap2\n      sub\n      swap1\n      return\n        /* \"contracts/005_DataStorage.sol\":917:1051  function weiUnit() external pure returns(uint) {... */\n    tag_4:\n      tag_19\n      tag_20\n      jump\t// in\n    tag_19:\n      mload(0x40)\n      tag_21\n      swap2\n      swap1\n      tag_18\n      jump\t// in\n    tag_21:\n      mload(0x40)\n      dup1\n      swap2\n      sub\n      swap1\n      return\n        /* \"contracts/005_DataStorage.sol\":275:375  function fStorage() public {... */\n    tag_5:\n      tag_22\n      tag_23\n      jump\t// in\n    tag_22:\n      stop\n        /* \"contracts/005_DataStorage.sol\":97:242  function fCallData(uint[] calldata _x) public pure returns(uint[] calldata) {... */\n    tag_6:\n      tag_24\n      0x04\n      dup1\n      calldatasize\n      sub\n      dup2\n      add\n      swap1\n      tag_25\n      swap2\n      swap1\n      tag_26\n      jump\t// in\n    tag_25:\n      tag_27\n      jump\t// in\n    tag_24:\n      mload(0x40)\n      tag_28\n      swap3\n      swap2\n      swap1\n      tag_29\n      jump\t// in\n    tag_28:\n      mload(0x40)\n      dup1\n      swap2\n      sub\n      swap1\n      return\n        /* \"contracts/005_DataStorage.sol\":681:911  function global() external view returns(address, uint, bytes memory) {... */\n    tag_7:\n      tag_30\n      tag_31\n      jump\t// in\n    tag_30:\n      mload(0x40)\n      tag_32\n      swap4\n      swap3\n      swap2\n      swap1\n      tag_33\n      jump\t// in\n    tag_32:\n      mload(0x40)\n      dup1\n      swap2\n      sub\n      swap1\n      return\n        /* \"contracts/005_DataStorage.sol\":403:420  uint public y = 2 */\n    tag_8:\n      tag_34\n      tag_35\n      jump\t// in\n    tag_34:\n      mload(0x40)\n      tag_36\n      swap2\n      swap1\n      tag_18\n      jump\t// in\n    tag_36:\n      mload(0x40)\n      dup1\n      swap2\n      sub\n      swap1\n      return\n        /* \"contracts/005_DataStorage.sol\":1057:1204  function gweiUnit() external pure returns(uint) {... */\n    tag_9:\n      tag_37\n      tag_38\n      jump\t// in\n    tag_37:\n      mload(0x40)\n      tag_39\n      swap2\n      swap1\n      tag_18\n      jump\t// in\n    tag_39:\n      mload(0x40)\n      dup1\n      swap2\n      sub\n      swap1\n      return\n        /* \"contracts/005_DataStorage.sol\":448:529  function foo() external {... */\n    tag_10:\n      tag_40\n      tag_41\n      jump\t// in\n    tag_40:\n      stop\n        /* \"contracts/005_DataStorage.sol\":426:441  string public z */\n    tag_11:\n      tag_42\n      tag_43\n      jump\t// in\n    tag_42:\n      mload(0x40)\n      tag_44\n      swap2\n      swap1\n      tag_45\n      jump\t// in\n    tag_44:\n      mload(0x40)\n      dup1\n      swap2\n      sub\n      swap1\n      return\n        /* \"contracts/005_DataStorage.sol\":1210:1408  function etherUnit() external pure returns(uint, uint) {... */\n    tag_12:\n      tag_46\n      tag_47\n      jump\t// in\n    tag_46:\n      mload(0x40)\n      tag_48\n      swap3\n      swap2\n      swap1\n      tag_49\n      jump\t// in\n    tag_48:\n      mload(0x40)\n      dup1\n      swap2\n      sub\n      swap1\n      return\n        /* \"contracts/005_DataStorage.sol\":535:675  function bar() external pure returns(uint) {... */\n    tag_13:\n      tag_50\n      tag_51\n      jump\t// in\n    tag_50:\n      mload(0x40)\n      tag_52\n      swap2\n      swap1\n      tag_18\n      jump\t// in\n    tag_52:\n      mload(0x40)\n      dup1\n      swap2\n      sub\n      swap1\n      return\n        /* \"contracts/005_DataStorage.sol\":381:397  uint public x= 1 */\n    tag_16:\n      sload(0x01)\n      dup2\n      jump\t// out\n        /* \"contracts/005_DataStorage.sol\":917:1051  function weiUnit() external pure returns(uint) {... */\n    tag_20:\n        /* \"contracts/005_DataStorage.sol\":958:962  uint */\n      0x00\n        /* \"contracts/005_DataStorage.sol\":990:993  1e0 */\n      0x01\n        /* \"contracts/005_DataStorage.sol\":981:986  1 wei */\n      dup1\n        /* \"contracts/005_DataStorage.sol\":981:993  1 wei == 1e0 */\n      eq\n        /* \"contracts/005_DataStorage.sol\":974:994  assert(1 wei == 1e0) */\n      tag_54\n      jumpi\n      tag_55\n      tag_56\n      jump\t// in\n    tag_55:\n    tag_54:\n        /* \"contracts/005_DataStorage.sol\":1020:1021  1 */\n      0x01\n        /* \"contracts/005_DataStorage.sol\":1011:1016  1 wei */\n      dup1\n        /* \"contracts/005_DataStorage.sol\":1011:1021  1 wei == 1 */\n      eq\n        /* \"contracts/005_DataStorage.sol\":1004:1022  assert(1 wei == 1) */\n      tag_57\n      jumpi\n      tag_58\n      tag_56\n      jump\t// in\n    tag_58:\n    tag_57:\n        /* \"contracts/005_DataStorage.sol\":1039:1044  1 wei */\n      0x01\n        /* \"contracts/005_DataStorage.sol\":1032:1044  return 1 wei */\n      swap1\n      pop\n        /* \"contracts/005_DataStorage.sol\":917:1051  function weiUnit() external pure returns(uint) {... */\n      swap1\n      jump\t// out\n        /* \"contracts/005_DataStorage.sol\":275:375  function fStorage() public {... */\n    tag_23:\n        /* \"contracts/005_DataStorage.sol\":312:335  uint[] storage xStorage */\n      0x00\n        /* \"contracts/005_DataStorage.sol\":338:341  xxx */\n      0x00\n        /* \"contracts/005_DataStorage.sol\":312:341  uint[] storage xStorage = xxx */\n      swap1\n      pop\n        /* \"contracts/005_DataStorage.sol\":365:368  100 */\n      0x64\n        /* \"contracts/005_DataStorage.sol\":351:359  xStorage */\n      dup2\n        /* \"contracts/005_DataStorage.sol\":360:361  0 */\n      0x00\n        /* \"contracts/005_DataStorage.sol\":351:362  xStorage[0] */\n      dup2\n      sload\n      dup2\n      lt\n      tag_60\n      jumpi\n      tag_61\n      tag_62\n      jump\t// in\n    tag_61:\n    tag_60:\n      swap1\n      0x00\n      mstore\n      keccak256(0x00, 0x20)\n      add\n        /* \"contracts/005_DataStorage.sol\":351:368  xStorage[0] = 100 */\n      dup2\n      swap1\n      sstore\n      pop\n        /* \"contracts/005_DataStorage.sol\":302:375  {... */\n      pop\n        /* \"contracts/005_DataStorage.sol\":275:375  function fStorage() public {... */\n      jump\t// out\n        /* \"contracts/005_DataStorage.sol\":97:242  function fCallData(uint[] calldata _x) public pure returns(uint[] calldata) {... */\n    tag_27:\n        /* \"contracts/005_DataStorage.sol\":156:171  uint[] calldata */\n      calldatasize\n      0x00\n        /* \"contracts/005_DataStorage.sol\":232:234  _x */\n      dup4\n      dup4\n        /* \"contracts/005_DataStorage.sol\":224:235  return (_x) */\n      swap2\n      pop\n      swap2\n      pop\n        /* \"contracts/005_DataStorage.sol\":97:242  function fCallData(uint[] calldata _x) public pure returns(uint[] calldata) {... */\n      swap3\n      pop\n      swap3\n      swap1\n      pop\n      jump\t// out\n        /* \"contracts/005_DataStorage.sol\":681:911  function global() external view returns(address, uint, bytes memory) {... */\n    tag_31:\n        /* \"contracts/005_DataStorage.sol\":721:728  address */\n      0x00\n        /* \"contracts/005_DataStorage.sol\":730:734  uint */\n      0x00\n        /* \"contracts/005_DataStorage.sol\":736:748  bytes memory */\n      0x60\n        /* \"contracts/005_DataStorage.sol\":760:774  address sender */\n      0x00\n        /* \"contracts/005_DataStorage.sol\":777:787  msg.sender */\n      caller\n        /* \"contracts/005_DataStorage.sol\":760:787  address sender = msg.sender */\n      swap1\n      pop\n        /* \"contracts/005_DataStorage.sol\":797:810  uint blockNum */\n      0x00\n        /* \"contracts/005_DataStorage.sol\":813:825  block.number */\n      number\n        /* \"contracts/005_DataStorage.sol\":797:825  uint blockNum = block.number */\n      swap1\n      pop\n        /* \"contracts/005_DataStorage.sol\":835:852  bytes memory data */\n      0x00\n        /* \"contracts/005_DataStorage.sol\":855:863  msg.data */\n      0x00\n      calldatasize\n        /* \"contracts/005_DataStorage.sol\":835:863  bytes memory data = msg.data */\n      dup1\n      dup1\n      0x1f\n      add\n      0x20\n      dup1\n      swap2\n      div\n      mul\n      0x20\n      add\n      mload(0x40)\n      swap1\n      dup2\n      add\n      0x40\n      mstore\n      dup1\n      swap4\n      swap3\n      swap2\n      swap1\n      dup2\n      dup2\n      mstore\n      0x20\n      add\n      dup4\n      dup4\n      dup1\n      dup3\n      dup5\n      calldatacopy\n      0x00\n      dup2\n      dup5\n      add\n      mstore\n      not(0x1f)\n      0x1f\n      dup3\n      add\n      and\n      swap1\n      pop\n      dup1\n      dup4\n      add\n      swap3\n      pop\n      pop\n      pop\n      pop\n      pop\n      pop\n      pop\n      swap1\n      pop\n        /* \"contracts/005_DataStorage.sol\":881:887  sender */\n      dup3\n        /* \"contracts/005_DataStorage.sol\":889:897  blockNum */\n      dup3\n        /* \"contracts/005_DataStorage.sol\":899:903  data */\n      dup3\n        /* \"contracts/005_DataStorage.sol\":873:904  return (sender, blockNum, data) */\n      swap6\n      pop\n      swap6\n      pop\n      swap6\n      pop\n      pop\n      pop\n      pop\n        /* \"contracts/005_DataStorage.sol\":681:911  function global() external view returns(address, uint, bytes memory) {... */\n      swap1\n      swap2\n      swap3\n      jump\t// out\n        /* \"contracts/005_DataStorage.sol\":403:420  uint public y = 2 */\n    tag_35:\n      sload(0x02)\n      dup2\n      jump\t// out\n        /* \"contracts/005_DataStorage.sol\":1057:1204  function gweiUnit() external pure returns(uint) {... */\n    tag_38:\n        /* \"contracts/005_DataStorage.sol\":1099:1103  uint */\n      0x00\n        /* \"contracts/005_DataStorage.sol\":1132:1135  1e9 */\n      0x3b9aca00\n        /* \"contracts/005_DataStorage.sol\":1122:1128  1 gwei */\n      dup1\n        /* \"contracts/005_DataStorage.sol\":1122:1135  1 gwei == 1e9 */\n      eq\n        /* \"contracts/005_DataStorage.sol\":1115:1136  assert(1 gwei == 1e9) */\n      tag_67\n      jumpi\n      tag_68\n      tag_56\n      jump\t// in\n    tag_68:\n    tag_67:\n        /* \"contracts/005_DataStorage.sol\":1163:1173  1000000000 */\n      0x3b9aca00\n        /* \"contracts/005_DataStorage.sol\":1153:1159  1 gwei */\n      dup1\n        /* \"contracts/005_DataStorage.sol\":1153:1173  1 gwei == 1000000000 */\n      eq\n        /* \"contracts/005_DataStorage.sol\":1146:1174  assert(1 gwei == 1000000000) */\n      tag_69\n      jumpi\n      tag_70\n      tag_56\n      jump\t// in\n    tag_70:\n    tag_69:\n        /* \"contracts/005_DataStorage.sol\":1191:1197  1 gwei */\n      0x3b9aca00\n        /* \"contracts/005_DataStorage.sol\":1184:1197  return 1 gwei */\n      swap1\n      pop\n        /* \"contracts/005_DataStorage.sol\":1057:1204  function gweiUnit() external pure returns(uint) {... */\n      swap1\n      jump\t// out\n        /* \"contracts/005_DataStorage.sol\":448:529  function foo() external {... */\n    tag_41:\n        /* \"contracts/005_DataStorage.sol\":486:487  5 */\n      0x05\n        /* \"contracts/005_DataStorage.sol\":482:483  x */\n      0x01\n        /* \"contracts/005_DataStorage.sol\":482:487  x = 5 */\n      dup2\n      swap1\n      sstore\n      pop\n        /* \"contracts/005_DataStorage.sol\":501:502  6 */\n      0x06\n        /* \"contracts/005_DataStorage.sol\":497:498  y */\n      0x02\n        /* \"contracts/005_DataStorage.sol\":497:502  y = 6 */\n      dup2\n      swap1\n      sstore\n      pop\n        /* \"contracts/005_DataStorage.sol\":512:522  z = \"0xAA\" */\n      mload(0x40)\n      dup1\n      0x40\n      add\n      0x40\n      mstore\n      dup1\n      0x04\n      dup2\n      mstore\n      0x20\n      add\n      0x3078414100000000000000000000000000000000000000000000000000000000\n      dup2\n      mstore\n      pop\n        /* \"contracts/005_DataStorage.sol\":512:513  z */\n      0x03\n        /* \"contracts/005_DataStorage.sol\":512:522  z = \"0xAA\" */\n      swap1\n      dup2\n      tag_72\n      swap2\n      swap1\n      tag_73\n      jump\t// in\n    tag_72:\n      pop\n        /* \"contracts/005_DataStorage.sol\":448:529  function foo() external {... */\n      jump\t// out\n        /* \"contracts/005_DataStorage.sol\":426:441  string public z */\n    tag_43:\n      0x03\n      dup1\n      sload\n      tag_74\n      swap1\n      tag_75\n      jump\t// in\n    tag_74:\n      dup1\n      0x1f\n      add\n      0x20\n      dup1\n      swap2\n      div\n      mul\n      0x20\n      add\n      mload(0x40)\n      swap1\n      dup2\n      add\n      0x40\n      mstore\n      dup1\n      swap3\n      swap2\n      swap1\n      dup2\n      dup2\n      mstore\n      0x20\n      add\n      dup3\n      dup1\n      sload\n      tag_76\n      swap1\n      tag_75\n      jump\t// in\n    tag_76:\n      dup1\n      iszero\n      tag_77\n      jumpi\n      dup1\n      0x1f\n      lt\n      tag_78\n      jumpi\n      0x0100\n      dup1\n      dup4\n      sload\n      div\n      mul\n      dup4\n      mstore\n      swap2\n      0x20\n      add\n      swap2\n      jump(tag_77)\n    tag_78:\n      dup3\n      add\n      swap2\n      swap1\n      0x00\n      mstore\n      keccak256(0x00, 0x20)\n      swap1\n    tag_79:\n      dup2\n      sload\n      dup2\n      mstore\n      swap1\n      0x01\n      add\n      swap1\n      0x20\n      add\n      dup1\n      dup4\n      gt\n      tag_79\n      jumpi\n      dup3\n      swap1\n      sub\n      0x1f\n      and\n      dup3\n      add\n      swap2\n    tag_77:\n      pop\n      pop\n      pop\n      pop\n      pop\n      dup2\n      jump\t// out\n        /* \"contracts/005_DataStorage.sol\":1210:1408  function etherUnit() external pure returns(uint, uint) {... */\n    tag_47:\n        /* \"contracts/005_DataStorage.sol\":1253:1257  uint */\n      0x00\n        /* \"contracts/005_DataStorage.sol\":1259:1263  uint */\n      0x00\n        /* \"contracts/005_DataStorage.sol\":1293:1297  1e18 */\n      0x0de0b6b3a7640000\n        /* \"contracts/005_DataStorage.sol\":1282:1289  1 ether */\n      dup1\n        /* \"contracts/005_DataStorage.sol\":1282:1297  1 ether == 1e18 */\n      eq\n        /* \"contracts/005_DataStorage.sol\":1275:1298  assert(1 ether == 1e18) */\n      tag_81\n      jumpi\n      tag_82\n      tag_56\n      jump\t// in\n    tag_82:\n    tag_81:\n        /* \"contracts/005_DataStorage.sol\":1308:1316  uint xyz */\n      0x00\n        /* \"contracts/005_DataStorage.sol\":1319:1322  123 */\n      0x7b\n        /* \"contracts/005_DataStorage.sol\":1308:1322  uint xyz = 123 */\n      swap1\n      pop\n        /* \"contracts/005_DataStorage.sol\":1350:1369  1000000000000000000 */\n      0x0de0b6b3a7640000\n        /* \"contracts/005_DataStorage.sol\":1339:1346  1 ether */\n      dup1\n        /* \"contracts/005_DataStorage.sol\":1339:1369  1 ether == 1000000000000000000 */\n      eq\n        /* \"contracts/005_DataStorage.sol\":1332:1370  assert(1 ether == 1000000000000000000) */\n      tag_83\n      jumpi\n      tag_84\n      tag_56\n      jump\t// in\n    tag_84:\n    tag_83:\n        /* \"contracts/005_DataStorage.sol\":1388:1395  1 ether */\n      0x0de0b6b3a7640000\n        /* \"contracts/005_DataStorage.sol\":1397:1400  xyz */\n      dup2\n        /* \"contracts/005_DataStorage.sol\":1380:1401  return (1 ether, xyz) */\n      swap3\n      pop\n      swap3\n      pop\n      pop\n        /* \"contracts/005_DataStorage.sol\":1210:1408  function etherUnit() external pure returns(uint, uint) {... */\n      swap1\n      swap2\n      jump\t// out\n        /* \"contracts/005_DataStorage.sol\":535:675  function bar() external pure returns(uint) {... */\n    tag_51:\n        /* \"contracts/005_DataStorage.sol\":572:576  uint */\n      0x00\n        /* \"contracts/005_DataStorage.sol\":588:595  uint xx */\n      0x00\n        /* \"contracts/005_DataStorage.sol\":598:599  1 */\n      0x01\n        /* \"contracts/005_DataStorage.sol\":588:599  uint xx = 1 */\n      swap1\n      pop\n        /* \"contracts/005_DataStorage.sol\":609:616  uint yy */\n      0x00\n        /* \"contracts/005_DataStorage.sol\":619:620  2 */\n      0x02\n        /* \"contracts/005_DataStorage.sol\":609:620  uint yy = 2 */\n      swap1\n      pop\n        /* \"contracts/005_DataStorage.sol\":630:637  uint zz */\n      0x00\n        /* \"contracts/005_DataStorage.sol\":645:647  yy */\n      dup2\n        /* \"contracts/005_DataStorage.sol\":640:642  xx */\n      dup4\n        /* \"contracts/005_DataStorage.sol\":640:647  xx + yy */\n      tag_86\n      swap2\n      swap1\n      tag_87\n      jump\t// in\n    tag_86:\n        /* \"contracts/005_DataStorage.sol\":630:647  uint zz = xx + yy */\n      swap1\n      pop\n        /* \"contracts/005_DataStorage.sol\":665:667  zz */\n      dup1\n        /* \"contracts/005_DataStorage.sol\":657:668  return (zz) */\n      swap4\n      pop\n      pop\n      pop\n      pop\n        /* \"contracts/005_DataStorage.sol\":535:675  function bar() external pure returns(uint) {... */\n      swap1\n      jump\t// out\n        /* \"#utility.yul\":7:84   */\n    tag_88:\n        /* \"#utility.yul\":44:51   */\n      0x00\n        /* \"#utility.yul\":73:78   */\n      dup2\n        /* \"#utility.yul\":62:78   */\n      swap1\n      pop\n        /* \"#utility.yul\":7:84   */\n      swap2\n      swap1\n      pop\n      jump\t// out\n        /* \"#utility.yul\":90:208   */\n    tag_89:\n        /* \"#utility.yul\":177:201   */\n      tag_133\n        /* \"#utility.yul\":195:200   */\n      dup2\n        /* \"#utility.yul\":177:201   */\n      tag_88\n      jump\t// in\n    tag_133:\n        /* \"#utility.yul\":172:175   */\n      dup3\n        /* \"#utility.yul\":165:202   */\n      mstore\n        /* \"#utility.yul\":90:208   */\n      pop\n      pop\n      jump\t// out\n        /* \"#utility.yul\":214:436   */\n    tag_18:\n        /* \"#utility.yul\":307:311   */\n      0x00\n        /* \"#utility.yul\":345:347   */\n      0x20\n        /* \"#utility.yul\":334:343   */\n      dup3\n        /* \"#utility.yul\":330:348   */\n      add\n        /* \"#utility.yul\":322:348   */\n      swap1\n      pop\n        /* \"#utility.yul\":358:429   */\n      tag_135\n        /* \"#utility.yul\":426:427   */\n      0x00\n        /* \"#utility.yul\":415:424   */\n      dup4\n        /* \"#utility.yul\":411:428   */\n      add\n        /* \"#utility.yul\":402:408   */\n      dup5\n        /* \"#utility.yul\":358:429   */\n      tag_89\n      jump\t// in\n    tag_135:\n        /* \"#utility.yul\":214:436   */\n      swap3\n      swap2\n      pop\n      pop\n      jump\t// out\n        /* \"#utility.yul\":523:640   */\n    tag_91:\n        /* \"#utility.yul\":632:633   */\n      0x00\n        /* \"#utility.yul\":629:630   */\n      0x00\n        /* \"#utility.yul\":622:634   */\n      revert\n        /* \"#utility.yul\":646:763   */\n    tag_92:\n        /* \"#utility.yul\":755:756   */\n      0x00\n        /* \"#utility.yul\":752:753   */\n      0x00\n        /* \"#utility.yul\":745:757   */\n      revert\n        /* \"#utility.yul\":769:886   */\n    tag_93:\n        /* \"#utility.yul\":878:879   */\n      0x00\n        /* \"#utility.yul\":875:876   */\n      0x00\n        /* \"#utility.yul\":868:880   */\n      revert\n        /* \"#utility.yul\":892:1009   */\n    tag_94:\n        /* \"#utility.yul\":1001:1002   */\n      0x00\n        /* \"#utility.yul\":998:999   */\n      0x00\n        /* \"#utility.yul\":991:1003   */\n      revert\n        /* \"#utility.yul\":1015:1132   */\n    tag_95:\n        /* \"#utility.yul\":1124:1125   */\n      0x00\n        /* \"#utility.yul\":1121:1122   */\n      0x00\n        /* \"#utility.yul\":1114:1126   */\n      revert\n        /* \"#utility.yul\":1155:1723   */\n    tag_96:\n        /* \"#utility.yul\":1228:1236   */\n      0x00\n        /* \"#utility.yul\":1238:1244   */\n      0x00\n        /* \"#utility.yul\":1288:1291   */\n      dup4\n        /* \"#utility.yul\":1281:1285   */\n      0x1f\n        /* \"#utility.yul\":1273:1279   */\n      dup5\n        /* \"#utility.yul\":1269:1286   */\n      add\n        /* \"#utility.yul\":1265:1292   */\n      slt\n        /* \"#utility.yul\":1255:1377   */\n      tag_143\n      jumpi\n        /* \"#utility.yul\":1296:1375   */\n      tag_144\n      tag_93\n      jump\t// in\n    tag_144:\n        /* \"#utility.yul\":1255:1377   */\n    tag_143:\n        /* \"#utility.yul\":1409:1415   */\n      dup3\n        /* \"#utility.yul\":1396:1416   */\n      calldataload\n        /* \"#utility.yul\":1386:1416   */\n      swap1\n      pop\n        /* \"#utility.yul\":1439:1457   */\n      0xffffffffffffffff\n        /* \"#utility.yul\":1431:1437   */\n      dup2\n        /* \"#utility.yul\":1428:1458   */\n      gt\n        /* \"#utility.yul\":1425:1542   */\n      iszero\n      tag_145\n      jumpi\n        /* \"#utility.yul\":1461:1540   */\n      tag_146\n      tag_94\n      jump\t// in\n    tag_146:\n        /* \"#utility.yul\":1425:1542   */\n    tag_145:\n        /* \"#utility.yul\":1575:1579   */\n      0x20\n        /* \"#utility.yul\":1567:1573   */\n      dup4\n        /* \"#utility.yul\":1563:1580   */\n      add\n        /* \"#utility.yul\":1551:1580   */\n      swap2\n      pop\n        /* \"#utility.yul\":1629:1632   */\n      dup4\n        /* \"#utility.yul\":1621:1625   */\n      0x20\n        /* \"#utility.yul\":1613:1619   */\n      dup3\n        /* \"#utility.yul\":1609:1626   */\n      mul\n        /* \"#utility.yul\":1599:1607   */\n      dup4\n        /* \"#utility.yul\":1595:1627   */\n      add\n        /* \"#utility.yul\":1592:1633   */\n      gt\n        /* \"#utility.yul\":1589:1717   */\n      iszero\n      tag_147\n      jumpi\n        /* \"#utility.yul\":1636:1715   */\n      tag_148\n      tag_95\n      jump\t// in\n    tag_148:\n        /* \"#utility.yul\":1589:1717   */\n    tag_147:\n        /* \"#utility.yul\":1155:1723   */\n      swap3\n      pop\n      swap3\n      swap1\n      pop\n      jump\t// out\n        /* \"#utility.yul\":1729:2288   */\n    tag_26:\n        /* \"#utility.yul\":1815:1821   */\n      0x00\n        /* \"#utility.yul\":1823:1829   */\n      0x00\n        /* \"#utility.yul\":1872:1874   */\n      0x20\n        /* \"#utility.yul\":1860:1869   */\n      dup4\n        /* \"#utility.yul\":1851:1858   */\n      dup6\n        /* \"#utility.yul\":1847:1870   */\n      sub\n        /* \"#utility.yul\":1843:1875   */\n      slt\n        /* \"#utility.yul\":1840:1959   */\n      iszero\n      tag_150\n      jumpi\n        /* \"#utility.yul\":1878:1957   */\n      tag_151\n      tag_91\n      jump\t// in\n    tag_151:\n        /* \"#utility.yul\":1840:1959   */\n    tag_150:\n        /* \"#utility.yul\":2026:2027   */\n      0x00\n        /* \"#utility.yul\":2015:2024   */\n      dup4\n        /* \"#utility.yul\":2011:2028   */\n      add\n        /* \"#utility.yul\":1998:2029   */\n      calldataload\n        /* \"#utility.yul\":2056:2074   */\n      0xffffffffffffffff\n        /* \"#utility.yul\":2048:2054   */\n      dup2\n        /* \"#utility.yul\":2045:2075   */\n      gt\n        /* \"#utility.yul\":2042:2159   */\n      iszero\n      tag_152\n      jumpi\n        /* \"#utility.yul\":2078:2157   */\n      tag_153\n      tag_92\n      jump\t// in\n    tag_153:\n        /* \"#utility.yul\":2042:2159   */\n    tag_152:\n        /* \"#utility.yul\":2191:2271   */\n      tag_154\n        /* \"#utility.yul\":2263:2270   */\n      dup6\n        /* \"#utility.yul\":2254:2260   */\n      dup3\n        /* \"#utility.yul\":2243:2252   */\n      dup7\n        /* \"#utility.yul\":2239:2261   */\n      add\n        /* \"#utility.yul\":2191:2271   */\n      tag_96\n      jump\t// in\n    tag_154:\n        /* \"#utility.yul\":2173:2271   */\n      swap3\n      pop\n      swap3\n      pop\n        /* \"#utility.yul\":1969:2281   */\n      pop\n        /* \"#utility.yul\":1729:2288   */\n      swap3\n      pop\n      swap3\n      swap1\n      pop\n      jump\t// out\n        /* \"#utility.yul\":2294:2478   */\n    tag_97:\n        /* \"#utility.yul\":2393:2404   */\n      0x00\n        /* \"#utility.yul\":2427:2433   */\n      dup3\n        /* \"#utility.yul\":2422:2425   */\n      dup3\n        /* \"#utility.yul\":2415:2434   */\n      mstore\n        /* \"#utility.yul\":2467:2471   */\n      0x20\n        /* \"#utility.yul\":2462:2465   */\n      dup3\n        /* \"#utility.yul\":2458:2472   */\n      add\n        /* \"#utility.yul\":2443:2472   */\n      swap1\n      pop\n        /* \"#utility.yul\":2294:2478   */\n      swap3\n      swap2\n      pop\n      pop\n      jump\t// out\n        /* \"#utility.yul\":2484:2601   */\n    tag_98:\n        /* \"#utility.yul\":2593:2594   */\n      0x00\n        /* \"#utility.yul\":2590:2591   */\n      0x00\n        /* \"#utility.yul\":2583:2595   */\n      revert\n        /* \"#utility.yul\":2607:2706   */\n    tag_99:\n        /* \"#utility.yul\":2692:2698   */\n      dup3\n        /* \"#utility.yul\":2687:2690   */\n      dup2\n        /* \"#utility.yul\":2682:2685   */\n      dup4\n        /* \"#utility.yul\":2669:2699   */\n      calldatacopy\n        /* \"#utility.yul\":2607:2706   */\n      pop\n      pop\n      pop\n      jump\t// out\n        /* \"#utility.yul\":2742:3279   */\n    tag_100:\n        /* \"#utility.yul\":2870:2873   */\n      0x00\n        /* \"#utility.yul\":2891:2977   */\n      tag_159\n        /* \"#utility.yul\":2970:2976   */\n      dup4\n        /* \"#utility.yul\":2965:2968   */\n      dup6\n        /* \"#utility.yul\":2891:2977   */\n      tag_97\n      jump\t// in\n    tag_159:\n        /* \"#utility.yul\":2884:2977   */\n      swap4\n      pop\n        /* \"#utility.yul\":3001:3067   */\n      0x07ffffffffffffffffffffffffffffffffffffffffffffffffffffffffffffff\n        /* \"#utility.yul\":2993:2999   */\n      dup4\n        /* \"#utility.yul\":2990:3068   */\n      gt\n        /* \"#utility.yul\":2987:3152   */\n      iszero\n      tag_160\n      jumpi\n        /* \"#utility.yul\":3071:3150   */\n      tag_161\n      tag_98\n      jump\t// in\n    tag_161:\n        /* \"#utility.yul\":2987:3152   */\n    tag_160:\n        /* \"#utility.yul\":3183:3187   */\n      0x20\n        /* \"#utility.yul\":3175:3181   */\n      dup4\n        /* \"#utility.yul\":3171:3188   */\n      mul\n        /* \"#utility.yul\":3161:3188   */\n      swap3\n      pop\n        /* \"#utility.yul\":3198:3241   */\n      tag_162\n        /* \"#utility.yul\":3234:3240   */\n      dup4\n        /* \"#utility.yul\":3229:3232   */\n      dup6\n        /* \"#utility.yul\":3222:3227   */\n      dup5\n        /* \"#utility.yul\":3198:3241   */\n      tag_99\n      jump\t// in\n    tag_162:\n        /* \"#utility.yul\":3266:3272   */\n      dup3\n        /* \"#utility.yul\":3261:3264   */\n      dup5\n        /* \"#utility.yul\":3257:3273   */\n      add\n        /* \"#utility.yul\":3250:3273   */\n      swap1\n      pop\n        /* \"#utility.yul\":2742:3279   */\n      swap4\n      swap3\n      pop\n      pop\n      pop\n      jump\t// out\n        /* \"#utility.yul\":3285:3678   */\n    tag_29:\n        /* \"#utility.yul\":3438:3442   */\n      0x00\n        /* \"#utility.yul\":3476:3478   */\n      0x20\n        /* \"#utility.yul\":3465:3474   */\n      dup3\n        /* \"#utility.yul\":3461:3479   */\n      add\n        /* \"#utility.yul\":3453:3479   */\n      swap1\n      pop\n        /* \"#utility.yul\":3525:3534   */\n      dup2\n        /* \"#utility.yul\":3519:3523   */\n      dup2\n        /* \"#utility.yul\":3515:3535   */\n      sub\n        /* \"#utility.yul\":3511:3512   */\n      0x00\n        /* \"#utility.yul\":3500:3509   */\n      dup4\n        /* \"#utility.yul\":3496:3513   */\n      add\n        /* \"#utility.yul\":3489:3536   */\n      mstore\n        /* \"#utility.yul\":3553:3671   */\n      tag_164\n        /* \"#utility.yul\":3666:3670   */\n      dup2\n        /* \"#utility.yul\":3657:3663   */\n      dup5\n        /* \"#utility.yul\":3649:3655   */\n      dup7\n        /* \"#utility.yul\":3553:3671   */\n      tag_100\n      jump\t// in\n    tag_164:\n        /* \"#utility.yul\":3545:3671   */\n      swap1\n      pop\n        /* \"#utility.yul\":3285:3678   */\n      swap4\n      swap3\n      pop\n      pop\n      pop\n      jump\t// out\n        /* \"#utility.yul\":3684:3810   */\n    tag_101:\n        /* \"#utility.yul\":3721:3728   */\n      0x00\n        /* \"#utility.yul\":3761:3803   */\n      0xffffffffffffffffffffffffffffffffffffffff\n        /* \"#utility.yul\":3754:3759   */\n      dup3\n        /* \"#utility.yul\":3750:3804   */\n      and\n        /* \"#utility.yul\":3739:3804   */\n      swap1\n      pop\n        /* \"#utility.yul\":3684:3810   */\n      swap2\n      swap1\n      pop\n      jump\t// out\n        /* \"#utility.yul\":3816:3912   */\n    tag_102:\n        /* \"#utility.yul\":3853:3860   */\n      0x00\n        /* \"#utility.yul\":3882:3906   */\n      tag_167\n        /* \"#utility.yul\":3900:3905   */\n      dup3\n        /* \"#utility.yul\":3882:3906   */\n      tag_101\n      jump\t// in\n    tag_167:\n        /* \"#utility.yul\":3871:3906   */\n      swap1\n      pop\n        /* \"#utility.yul\":3816:3912   */\n      swap2\n      swap1\n      pop\n      jump\t// out\n        /* \"#utility.yul\":3918:4036   */\n    tag_103:\n        /* \"#utility.yul\":4005:4029   */\n      tag_169\n        /* \"#utility.yul\":4023:4028   */\n      dup2\n        /* \"#utility.yul\":4005:4029   */\n      tag_102\n      jump\t// in\n    tag_169:\n        /* \"#utility.yul\":4000:4003   */\n      dup3\n        /* \"#utility.yul\":3993:4030   */\n      mstore\n        /* \"#utility.yul\":3918:4036   */\n      pop\n      pop\n      jump\t// out\n        /* \"#utility.yul\":4042:4140   */\n    tag_104:\n        /* \"#utility.yul\":4093:4099   */\n      0x00\n        /* \"#utility.yul\":4127:4132   */\n      dup2\n        /* \"#utility.yul\":4121:4133   */\n      mload\n        /* \"#utility.yul\":4111:4133   */\n      swap1\n      pop\n        /* \"#utility.yul\":4042:4140   */\n      swap2\n      swap1\n      pop\n      jump\t// out\n        /* \"#utility.yul\":4146:4314   */\n    tag_105:\n        /* \"#utility.yul\":4229:4240   */\n      0x00\n        /* \"#utility.yul\":4263:4269   */\n      dup3\n        /* \"#utility.yul\":4258:4261   */\n      dup3\n        /* \"#utility.yul\":4251:4270   */\n      mstore\n        /* \"#utility.yul\":4303:4307   */\n      0x20\n        /* \"#utility.yul\":4298:4301   */\n      dup3\n        /* \"#utility.yul\":4294:4308   */\n      add\n        /* \"#utility.yul\":4279:4308   */\n      swap1\n      pop\n        /* \"#utility.yul\":4146:4314   */\n      swap3\n      swap2\n      pop\n      pop\n      jump\t// out\n        /* \"#utility.yul\":4320:4459   */\n    tag_106:\n        /* \"#utility.yul\":4409:4415   */\n      dup3\n        /* \"#utility.yul\":4404:4407   */\n      dup2\n        /* \"#utility.yul\":4399:4402   */\n      dup4\n        /* \"#utility.yul\":4393:4416   */\n      mcopy\n        /* \"#utility.yul\":4450:4451   */\n      0x00\n        /* \"#utility.yul\":4441:4447   */\n      dup4\n        /* \"#utility.yul\":4436:4439   */\n      dup4\n        /* \"#utility.yul\":4432:4448   */\n      add\n        /* \"#utility.yul\":4425:4452   */\n      mstore\n        /* \"#utility.yul\":4320:4459   */\n      pop\n      pop\n      pop\n      jump\t// out\n        /* \"#utility.yul\":4465:4567   */\n    tag_107:\n        /* \"#utility.yul\":4506:4512   */\n      0x00\n        /* \"#utility.yul\":4557:4559   */\n      0x1f\n        /* \"#utility.yul\":4553:4560   */\n      not\n        /* \"#utility.yul\":4548:4550   */\n      0x1f\n        /* \"#utility.yul\":4541:4546   */\n      dup4\n        /* \"#utility.yul\":4537:4551   */\n      add\n        /* \"#utility.yul\":4533:4561   */\n      and\n        /* \"#utility.yul\":4523:4561   */\n      swap1\n      pop\n        /* \"#utility.yul\":4465:4567   */\n      swap2\n      swap1\n      pop\n      jump\t// out\n        /* \"#utility.yul\":4573:4946   */\n    tag_108:\n        /* \"#utility.yul\":4659:4662   */\n      0x00\n        /* \"#utility.yul\":4687:4725   */\n      tag_175\n        /* \"#utility.yul\":4719:4724   */\n      dup3\n        /* \"#utility.yul\":4687:4725   */\n      tag_104\n      jump\t// in\n    tag_175:\n        /* \"#utility.yul\":4741:4811   */\n      tag_176\n        /* \"#utility.yul\":4804:4810   */\n      dup2\n        /* \"#utility.yul\":4799:4802   */\n      dup6\n        /* \"#utility.yul\":4741:4811   */\n      tag_105\n      jump\t// in\n    tag_176:\n        /* \"#utility.yul\":4734:4811   */\n      swap4\n      pop\n        /* \"#utility.yul\":4820:4885   */\n      tag_177\n        /* \"#utility.yul\":4878:4884   */\n      dup2\n        /* \"#utility.yul\":4873:4876   */\n      dup6\n        /* \"#utility.yul\":4866:4870   */\n      0x20\n        /* \"#utility.yul\":4859:4864   */\n      dup7\n        /* \"#utility.yul\":4855:4871   */\n      add\n        /* \"#utility.yul\":4820:4885   */\n      tag_106\n      jump\t// in\n    tag_177:\n        /* \"#utility.yul\":4910:4939   */\n      tag_178\n        /* \"#utility.yul\":4932:4938   */\n      dup2\n        /* \"#utility.yul\":4910:4939   */\n      tag_107\n      jump\t// in\n    tag_178:\n        /* \"#utility.yul\":4905:4908   */\n      dup5\n        /* \"#utility.yul\":4901:4940   */\n      add\n        /* \"#utility.yul\":4894:4940   */\n      swap2\n      pop\n        /* \"#utility.yul\":4663:4946   */\n      pop\n        /* \"#utility.yul\":4573:4946   */\n      swap3\n      swap2\n      pop\n      pop\n      jump\t// out\n        /* \"#utility.yul\":4952:5481   */\n    tag_33:\n        /* \"#utility.yul\":5119:5123   */\n      0x00\n        /* \"#utility.yul\":5157:5159   */\n      0x60\n        /* \"#utility.yul\":5146:5155   */\n      dup3\n        /* \"#utility.yul\":5142:5160   */\n      add\n        /* \"#utility.yul\":5134:5160   */\n      swap1\n      pop\n        /* \"#utility.yul\":5170:5241   */\n      tag_180\n        /* \"#utility.yul\":5238:5239   */\n      0x00\n        /* \"#utility.yul\":5227:5236   */\n      dup4\n        /* \"#utility.yul\":5223:5240   */\n      add\n        /* \"#utility.yul\":5214:5220   */\n      dup7\n        /* \"#utility.yul\":5170:5241   */\n      tag_103\n      jump\t// in\n    tag_180:\n        /* \"#utility.yul\":5251:5323   */\n      tag_181\n        /* \"#utility.yul\":5319:5321   */\n      0x20\n        /* \"#utility.yul\":5308:5317   */\n      dup4\n        /* \"#utility.yul\":5304:5322   */\n      add\n        /* \"#utility.yul\":5295:5301   */\n      dup6\n        /* \"#utility.yul\":5251:5323   */\n      tag_89\n      jump\t// in\n    tag_181:\n        /* \"#utility.yul\":5370:5379   */\n      dup2\n        /* \"#utility.yul\":5364:5368   */\n      dup2\n        /* \"#utility.yul\":5360:5380   */\n      sub\n        /* \"#utility.yul\":5355:5357   */\n      0x40\n        /* \"#utility.yul\":5344:5353   */\n      dup4\n        /* \"#utility.yul\":5340:5358   */\n      add\n        /* \"#utility.yul\":5333:5381   */\n      mstore\n        /* \"#utility.yul\":5398:5474   */\n      tag_182\n        /* \"#utility.yul\":5469:5473   */\n      dup2\n        /* \"#utility.yul\":5460:5466   */\n      dup5\n        /* \"#utility.yul\":5398:5474   */\n      tag_108\n      jump\t// in\n    tag_182:\n        /* \"#utility.yul\":5390:5474   */\n      swap1\n      pop\n        /* \"#utility.yul\":4952:5481   */\n      swap5\n      swap4\n      pop\n      pop\n      pop\n      pop\n      jump\t// out\n        /* \"#utility.yul\":5487:5586   */\n    tag_109:\n        /* \"#utility.yul\":5539:5545   */\n      0x00\n        /* \"#utility.yul\":5573:5578   */\n      dup2\n        /* \"#utility.yul\":5567:5579   */\n      mload\n        /* \"#utility.yul\":5557:5579   */\n      swap1\n      pop\n        /* \"#utility.yul\":5487:5586   */\n      swap2\n      swap1\n      pop\n      jump\t// out\n        /* \"#utility.yul\":5592:5761   */\n    tag_110:\n        /* \"#utility.yul\":5676:5687   */\n      0x00\n        /* \"#utility.yul\":5710:5716   */\n      dup3\n        /* \"#utility.yul\":5705:5708   */\n      dup3\n        /* \"#utility.yul\":5698:5717   */\n      mstore\n        /* \"#utility.yul\":5750:5754   */\n      0x20\n        /* \"#utility.yul\":5745:5748   */\n      dup3\n        /* \"#utility.yul\":5741:5755   */\n      add\n        /* \"#utility.yul\":5726:5755   */\n      swap1\n      pop\n        /* \"#utility.yul\":5592:5761   */\n      swap3\n      swap2\n      pop\n      pop\n      jump\t// out\n        /* \"#utility.yul\":5767:6144   */\n    tag_111:\n        /* \"#utility.yul\":5855:5858   */\n      0x00\n        /* \"#utility.yul\":5883:5922   */\n      tag_186\n        /* \"#utility.yul\":5916:5921   */\n      dup3\n        /* \"#utility.yul\":5883:5922   */\n      tag_109\n      jump\t// in\n    tag_186:\n        /* \"#utility.yul\":5938:6009   */\n      tag_187\n        /* \"#utility.yul\":6002:6008   */\n      dup2\n        /* \"#utility.yul\":5997:6000   */\n      dup6\n        /* \"#utility.yul\":5938:6009   */\n      tag_110\n      jump\t// in\n    tag_187:\n        /* \"#utility.yul\":5931:6009   */\n      swap4\n      pop\n        /* \"#utility.yul\":6018:6083   */\n      tag_188\n        /* \"#utility.yul\":6076:6082   */\n      dup2\n        /* \"#utility.yul\":6071:6074   */\n      dup6\n        /* \"#utility.yul\":6064:6068   */\n      0x20\n        /* \"#utility.yul\":6057:6062   */\n      dup7\n        /* \"#utility.yul\":6053:6069   */\n      add\n        /* \"#utility.yul\":6018:6083   */\n      tag_106\n      jump\t// in\n    tag_188:\n        /* \"#utility.yul\":6108:6137   */\n      tag_189\n        /* \"#utility.yul\":6130:6136   */\n      dup2\n        /* \"#utility.yul\":6108:6137   */\n      tag_107\n      jump\t// in\n    tag_189:\n        /* \"#utility.yul\":6103:6106   */\n      dup5\n        /* \"#utility.yul\":6099:6138   */\n      add\n        /* \"#utility.yul\":6092:6138   */\n      swap2\n      pop\n        /* \"#utility.yul\":5859:6144   */\n      pop\n        /* \"#utility.yul\":5767:6144   */\n      swap3\n      swap2\n      pop\n      pop\n      jump\t// out\n        /* \"#utility.yul\":6150:6463   */\n    tag_45:\n        /* \"#utility.yul\":6263:6267   */\n      0x00\n        /* \"#utility.yul\":6301:6303   */\n      0x20\n        /* \"#utility.yul\":6290:6299   */\n      dup3\n        /* \"#utility.yul\":6286:6304   */\n      add\n        /* \"#utility.yul\":6278:6304   */\n      swap1\n      pop\n        /* \"#utility.yul\":6350:6359   */\n      dup2\n        /* \"#utility.yul\":6344:6348   */\n      dup2\n        /* \"#utility.yul\":6340:6360   */\n      sub\n        /* \"#utility.yul\":6336:6337   */\n      0x00\n        /* \"#utility.yul\":6325:6334   */\n      dup4\n        /* \"#utility.yul\":6321:6338   */\n      add\n        /* \"#utility.yul\":6314:6361   */\n      mstore\n        /* \"#utility.yul\":6378:6456   */\n      tag_191\n        /* \"#utility.yul\":6451:6455   */\n      dup2\n        /* \"#utility.yul\":6442:6448   */\n      dup5\n        /* \"#utility.yul\":6378:6456   */\n      tag_111\n      jump\t// in\n    tag_191:\n        /* \"#utility.yul\":6370:6456   */\n      swap1\n      pop\n        /* \"#utility.yul\":6150:6463   */\n      swap3\n      swap2\n      pop\n      pop\n      jump\t// out\n        /* \"#utility.yul\":6469:6801   */\n    tag_49:\n        /* \"#utility.yul\":6590:6594   */\n      0x00\n        /* \"#utility.yul\":6628:6630   */\n      0x40\n        /* \"#utility.yul\":6617:6626   */\n      dup3\n        /* \"#utility.yul\":6613:6631   */\n      add\n        /* \"#utility.yul\":6605:6631   */\n      swap1\n      pop\n        /* \"#utility.yul\":6641:6712   */\n      tag_193\n        /* \"#utility.yul\":6709:6710   */\n      0x00\n        /* \"#utility.yul\":6698:6707   */\n      dup4\n        /* \"#utility.yul\":6694:6711   */\n      add\n        /* \"#utility.yul\":6685:6691   */\n      dup6\n        /* \"#utility.yul\":6641:6712   */\n      tag_89\n      jump\t// in\n    tag_193:\n        /* \"#utility.yul\":6722:6794   */\n      tag_194\n        /* \"#utility.yul\":6790:6792   */\n      0x20\n        /* \"#utility.yul\":6779:6788   */\n      dup4\n        /* \"#utility.yul\":6775:6793   */\n      add\n        /* \"#utility.yul\":6766:6772   */\n      dup5\n        /* \"#utility.yul\":6722:6794   */\n      tag_89\n      jump\t// in\n    tag_194:\n        /* \"#utility.yul\":6469:6801   */\n      swap4\n      swap3\n      pop\n      pop\n      pop\n      jump\t// out\n        /* \"#utility.yul\":6807:6987   */\n    tag_56:\n        /* \"#utility.yul\":6855:6932   */\n      0x4e487b7100000000000000000000000000000000000000000000000000000000\n        /* \"#utility.yul\":6852:6853   */\n      0x00\n        /* \"#utility.yul\":6845:6933   */\n      mstore\n        /* \"#utility.yul\":6952:6956   */\n      0x01\n        /* \"#utility.yul\":6949:6950   */\n      0x04\n        /* \"#utility.yul\":6942:6957   */\n      mstore\n        /* \"#utility.yul\":6976:6980   */\n      0x24\n        /* \"#utility.yul\":6973:6974   */\n      0x00\n        /* \"#utility.yul\":6966:6981   */\n      revert\n        /* \"#utility.yul\":6993:7173   */\n    tag_62:\n        /* \"#utility.yul\":7041:7118   */\n      0x4e487b7100000000000000000000000000000000000000000000000000000000\n        /* \"#utility.yul\":7038:7039   */\n      0x00\n        /* \"#utility.yul\":7031:7119   */\n      mstore\n        /* \"#utility.yul\":7138:7142   */\n      0x32\n        /* \"#utility.yul\":7135:7136   */\n      0x04\n        /* \"#utility.yul\":7128:7143   */\n      mstore\n        /* \"#utility.yul\":7162:7166   */\n      0x24\n        /* \"#utility.yul\":7159:7160   */\n      0x00\n        /* \"#utility.yul\":7152:7167   */\n      revert\n        /* \"#utility.yul\":7179:7359   */\n    tag_112:\n        /* \"#utility.yul\":7227:7304   */\n      0x4e487b7100000000000000000000000000000000000000000000000000000000\n        /* \"#utility.yul\":7224:7225   */\n      0x00\n        /* \"#utility.yul\":7217:7305   */\n      mstore\n        /* \"#utility.yul\":7324:7328   */\n      0x41\n        /* \"#utility.yul\":7321:7322   */\n      0x04\n        /* \"#utility.yul\":7314:7329   */\n      mstore\n        /* \"#utility.yul\":7348:7352   */\n      0x24\n        /* \"#utility.yul\":7345:7346   */\n      0x00\n        /* \"#utility.yul\":7338:7353   */\n      revert\n        /* \"#utility.yul\":7365:7545   */\n    tag_113:\n        /* \"#utility.yul\":7413:7490   */\n      0x4e487b7100000000000000000000000000000000000000000000000000000000\n        /* \"#utility.yul\":7410:7411   */\n      0x00\n        /* \"#utility.yul\":7403:7491   */\n      mstore\n        /* \"#utility.yul\":7510:7514   */\n      0x22\n        /* \"#utility.yul\":7507:7508   */\n      0x04\n        /* \"#utility.yul\":7500:7515   */\n      mstore\n        /* \"#utility.yul\":7534:7538   */\n      0x24\n        /* \"#utility.yul\":7531:7532   */\n      0x00\n        /* \"#utility.yul\":7524:7539   */\n      revert\n        /* \"#utility.yul\":7551:7871   */\n    tag_75:\n        /* \"#utility.yul\":7595:7601   */\n      0x00\n        /* \"#utility.yul\":7632:7633   */\n      0x02\n        /* \"#utility.yul\":7626:7630   */\n      dup3\n        /* \"#utility.yul\":7622:7634   */\n      div\n        /* \"#utility.yul\":7612:7634   */\n      swap1\n      pop\n        /* \"#utility.yul\":7679:7680   */\n      0x01\n        /* \"#utility.yul\":7673:7677   */\n      dup3\n        /* \"#utility.yul\":7669:7681   */\n      and\n        /* \"#utility.yul\":7700:7718   */\n      dup1\n        /* \"#utility.yul\":7690:7771   */\n      tag_200\n      jumpi\n        /* \"#utility.yul\":7756:7760   */\n      0x7f\n        /* \"#utility.yul\":7748:7754   */\n      dup3\n        /* \"#utility.yul\":7744:7761   */\n      and\n        /* \"#utility.yul\":7734:7761   */\n      swap2\n      pop\n        /* \"#utility.yul\":7690:7771   */\n    tag_200:\n        /* \"#utility.yul\":7818:7820   */\n      0x20\n        /* \"#utility.yul\":7810:7816   */\n      dup3\n        /* \"#utility.yul\":7807:7821   */\n      lt\n        /* \"#utility.yul\":7787:7805   */\n      dup2\n        /* \"#utility.yul\":7784:7822   */\n      sub\n        /* \"#utility.yul\":7781:7865   */\n      tag_201\n      jumpi\n        /* \"#utility.yul\":7837:7855   */\n      tag_202\n      tag_113\n      jump\t// in\n    tag_202:\n        /* \"#utility.yul\":7781:7865   */\n    tag_201:\n        /* \"#utility.yul\":7602:7871   */\n      pop\n        /* \"#utility.yul\":7551:7871   */\n      swap2\n      swap1\n      pop\n      jump\t// out\n        /* \"#utility.yul\":7877:8018   */\n    tag_114:\n        /* \"#utility.yul\":7926:7930   */\n      0x00\n        /* \"#utility.yul\":7949:7952   */\n      dup2\n        /* \"#utility.yul\":7941:7952   */\n      swap1\n      pop\n        /* \"#utility.yul\":7972:7975   */\n      dup2\n        /* \"#utility.yul\":7969:7970   */\n      0x00\n        /* \"#utility.yul\":7962:7976   */\n      mstore\n        /* \"#utility.yul\":8006:8010   */\n      0x20\n        /* \"#utility.yul\":8003:8004   */\n      0x00\n        /* \"#utility.yul\":7993:8011   */\n      keccak256\n        /* \"#utility.yul\":7985:8011   */\n      swap1\n      pop\n        /* \"#utility.yul\":7877:8018   */\n      swap2\n      swap1\n      pop\n      jump\t// out\n        /* \"#utility.yul\":8024:8117   */\n    tag_115:\n        /* \"#utility.yul\":8061:8067   */\n      0x00\n        /* \"#utility.yul\":8108:8110   */\n      0x20\n        /* \"#utility.yul\":8103:8105   */\n      0x1f\n        /* \"#utility.yul\":8096:8101   */\n      dup4\n        /* \"#utility.yul\":8092:8106   */\n      add\n        /* \"#utility.yul\":8088:8111   */\n      div\n        /* \"#utility.yul\":8078:8111   */\n      swap1\n      pop\n        /* \"#utility.yul\":8024:8117   */\n      swap2\n      swap1\n      pop\n      jump\t// out\n        /* \"#utility.yul\":8123:8230   */\n    tag_116:\n        /* \"#utility.yul\":8167:8175   */\n      0x00\n        /* \"#utility.yul\":8217:8222   */\n      dup3\n        /* \"#utility.yul\":8211:8215   */\n      dup3\n        /* \"#utility.yul\":8207:8223   */\n      shl\n        /* \"#utility.yul\":8186:8223   */\n      swap1\n      pop\n        /* \"#utility.yul\":8123:8230   */\n      swap3\n      swap2\n      pop\n      pop\n      jump\t// out\n        /* \"#utility.yul\":8236:8629   */\n    tag_117:\n        /* \"#utility.yul\":8305:8311   */\n      0x00\n        /* \"#utility.yul\":8355:8356   */\n      0x08\n        /* \"#utility.yul\":8343:8353   */\n      dup4\n        /* \"#utility.yul\":8339:8357   */\n      mul\n        /* \"#utility.yul\":8378:8475   */\n      tag_207\n        /* \"#utility.yul\":8408:8474   */\n      0xffffffffffffffffffffffffffffffffffffffffffffffffffffffffffffffff\n        /* \"#utility.yul\":8397:8406   */\n      dup3\n        /* \"#utility.yul\":8378:8475   */\n      tag_116\n      jump\t// in\n    tag_207:\n        /* \"#utility.yul\":8496:8535   */\n      tag_208\n        /* \"#utility.yul\":8526:8534   */\n      dup7\n        /* \"#utility.yul\":8515:8524   */\n      dup4\n        /* \"#utility.yul\":8496:8535   */\n      tag_116\n      jump\t// in\n    tag_208:\n        /* \"#utility.yul\":8484:8535   */\n      swap6\n      pop\n        /* \"#utility.yul\":8568:8572   */\n      dup1\n        /* \"#utility.yul\":8564:8573   */\n      not\n        /* \"#utility.yul\":8557:8562   */\n      dup5\n        /* \"#utility.yul\":8553:8574   */\n      and\n        /* \"#utility.yul\":8544:8574   */\n      swap4\n      pop\n        /* \"#utility.yul\":8617:8621   */\n      dup1\n        /* \"#utility.yul\":8607:8615   */\n      dup7\n        /* \"#utility.yul\":8603:8622   */\n      and\n        /* \"#utility.yul\":8596:8601   */\n      dup5\n        /* \"#utility.yul\":8593:8623   */\n      or\n        /* \"#utility.yul\":8583:8623   */\n      swap3\n      pop\n        /* \"#utility.yul\":8312:8629   */\n      pop\n      pop\n        /* \"#utility.yul\":8236:8629   */\n      swap4\n      swap3\n      pop\n      pop\n      pop\n      jump\t// out\n        /* \"#utility.yul\":8635:8695   */\n    tag_118:\n        /* \"#utility.yul\":8663:8666   */\n      0x00\n        /* \"#utility.yul\":8684:8689   */\n      dup2\n        /* \"#utility.yul\":8677:8689   */\n      swap1\n      pop\n        /* \"#utility.yul\":8635:8695   */\n      swap2\n      swap1\n      pop\n      jump\t// out\n        /* \"#utility.yul\":8701:8843   */\n    tag_119:\n        /* \"#utility.yul\":8751:8760   */\n      0x00\n        /* \"#utility.yul\":8784:8837   */\n      tag_211\n        /* \"#utility.yul\":8802:8836   */\n      tag_212\n        /* \"#utility.yul\":8811:8835   */\n      tag_213\n        /* \"#utility.yul\":8829:8834   */\n      dup5\n        /* \"#utility.yul\":8811:8835   */\n      tag_88\n      jump\t// in\n    tag_213:\n        /* \"#utility.yul\":8802:8836   */\n      tag_118\n      jump\t// in\n    tag_212:\n        /* \"#utility.yul\":8784:8837   */\n      tag_88\n      jump\t// in\n    tag_211:\n        /* \"#utility.yul\":8771:8837   */\n      swap1\n      pop\n        /* \"#utility.yul\":8701:8843   */\n      swap2\n      swap1\n      pop\n      jump\t// out\n        /* \"#utility.yul\":8849:8924   */\n    tag_120:\n        /* \"#utility.yul\":8892:8895   */\n      0x00\n        /* \"#utility.yul\":8913:8918   */\n      dup2\n        /* \"#utility.yul\":8906:8918   */\n      swap1\n      pop\n        /* \"#utility.yul\":8849:8924   */\n      swap2\n      swap1\n      pop\n      jump\t// out\n        /* \"#utility.yul\":8930:9199   */\n    tag_121:\n        /* \"#utility.yul\":9040:9079   */\n      tag_216\n        /* \"#utility.yul\":9071:9078   */\n      dup4\n        /* \"#utility.yul\":9040:9079   */\n      tag_119\n      jump\t// in\n    tag_216:\n        /* \"#utility.yul\":9101:9192   */\n      tag_217\n        /* \"#utility.yul\":9150:9191   */\n      tag_218\n        /* \"#utility.yul\":9174:9190   */\n      dup3\n        /* \"#utility.yul\":9150:9191   */\n      tag_120\n      jump\t// in\n    tag_218:\n        /* \"#utility.yul\":9142:9148   */\n      dup5\n        /* \"#utility.yul\":9135:9139   */\n      dup5\n        /* \"#utility.yul\":9129:9140   */\n      sload\n        /* \"#utility.yul\":9101:9192   */\n      tag_117\n      jump\t// in\n    tag_217:\n        /* \"#utility.yul\":9095:9099   */\n      dup3\n        /* \"#utility.yul\":9088:9193   */\n      sstore\n        /* \"#utility.yul\":9006:9199   */\n      pop\n        /* \"#utility.yul\":8930:9199   */\n      pop\n      pop\n      pop\n      jump\t// out\n        /* \"#utility.yul\":9205:9278   */\n    tag_122:\n        /* \"#utility.yul\":9250:9253   */\n      0x00\n        /* \"#utility.yul\":9271:9272   */\n      0x00\n        /* \"#utility.yul\":9264:9272   */\n      swap1\n      pop\n        /* \"#utility.yul\":9205:9278   */\n      swap1\n      jump\t// out\n        /* \"#utility.yul\":9284:9473   */\n    tag_123:\n        /* \"#utility.yul\":9361:9393   */\n      tag_221\n      tag_122\n      jump\t// in\n    tag_221:\n        /* \"#utility.yul\":9402:9467   */\n      tag_222\n        /* \"#utility.yul\":9460:9466   */\n      dup2\n        /* \"#utility.yul\":9452:9458   */\n      dup5\n        /* \"#utility.yul\":9446:9450   */\n      dup5\n        /* \"#utility.yul\":9402:9467   */\n      tag_121\n      jump\t// in\n    tag_222:\n        /* \"#utility.yul\":9337:9473   */\n      pop\n        /* \"#utility.yul\":9284:9473   */\n      pop\n      pop\n      jump\t// out\n        /* \"#utility.yul\":9479:9665   */\n    tag_124:\n        /* \"#utility.yul\":9539:9659   */\n    tag_224:\n        /* \"#utility.yul\":9556:9559   */\n      dup2\n        /* \"#utility.yul\":9549:9554   */\n      dup2\n        /* \"#utility.yul\":9546:9560   */\n      lt\n        /* \"#utility.yul\":9539:9659   */\n      iszero\n      tag_226\n      jumpi\n        /* \"#utility.yul\":9610:9649   */\n      tag_227\n        /* \"#utility.yul\":9647:9648   */\n      0x00\n        /* \"#utility.yul\":9640:9645   */\n      dup3\n        /* \"#utility.yul\":9610:9649   */\n      tag_123\n      jump\t// in\n    tag_227:\n        /* \"#utility.yul\":9583:9584   */\n      0x01\n        /* \"#utility.yul\":9576:9581   */\n      dup2\n        /* \"#utility.yul\":9572:9585   */\n      add\n        /* \"#utility.yul\":9563:9585   */\n      swap1\n      pop\n        /* \"#utility.yul\":9539:9659   */\n      jump(tag_224)\n    tag_226:\n        /* \"#utility.yul\":9479:9665   */\n      pop\n      pop\n      jump\t// out\n        /* \"#utility.yul\":9671:10214   */\n    tag_125:\n        /* \"#utility.yul\":9772:9774   */\n      0x1f\n        /* \"#utility.yul\":9767:9770   */\n      dup3\n        /* \"#utility.yul\":9764:9775   */\n      gt\n        /* \"#utility.yul\":9761:10207   */\n      iszero\n      tag_229\n      jumpi\n        /* \"#utility.yul\":9806:9844   */\n      tag_230\n        /* \"#utility.yul\":9838:9843   */\n      dup2\n        /* \"#utility.yul\":9806:9844   */\n      tag_114\n      jump\t// in\n    tag_230:\n        /* \"#utility.yul\":9890:9919   */\n      tag_231\n        /* \"#utility.yul\":9908:9918   */\n      dup5\n        /* \"#utility.yul\":9890:9919   */\n      tag_115\n      jump\t// in\n    tag_231:\n        /* \"#utility.yul\":9880:9888   */\n      dup2\n        /* \"#utility.yul\":9876:9920   */\n      add\n        /* \"#utility.yul\":10073:10075   */\n      0x20\n        /* \"#utility.yul\":10061:10071   */\n      dup6\n        /* \"#utility.yul\":10058:10076   */\n      lt\n        /* \"#utility.yul\":10055:10104   */\n      iszero\n      tag_232\n      jumpi\n        /* \"#utility.yul\":10094:10102   */\n      dup2\n        /* \"#utility.yul\":10079:10102   */\n      swap1\n      pop\n        /* \"#utility.yul\":10055:10104   */\n    tag_232:\n        /* \"#utility.yul\":10117:10197   */\n      tag_233\n        /* \"#utility.yul\":10173:10195   */\n      tag_234\n        /* \"#utility.yul\":10191:10194   */\n      dup6\n        /* \"#utility.yul\":10173:10195   */\n      tag_115\n      jump\t// in\n    tag_234:\n        /* \"#utility.yul\":10163:10171   */\n      dup4\n        /* \"#utility.yul\":10159:10196   */\n      add\n        /* \"#utility.yul\":10146:10157   */\n      dup3\n        /* \"#utility.yul\":10117:10197   */\n      tag_124\n      jump\t// in\n    tag_233:\n        /* \"#utility.yul\":9776:10207   */\n      pop\n      pop\n        /* \"#utility.yul\":9761:10207   */\n    tag_229:\n        /* \"#utility.yul\":9671:10214   */\n      pop\n      pop\n      pop\n      jump\t// out\n        /* \"#utility.yul\":10220:10337   */\n    tag_126:\n        /* \"#utility.yul\":10274:10282   */\n      0x00\n        /* \"#utility.yul\":10324:10329   */\n      dup3\n        /* \"#utility.yul\":10318:10322   */\n      dup3\n        /* \"#utility.yul\":10314:10330   */\n      shr\n        /* \"#utility.yul\":10293:10330   */\n      swap1\n      pop\n        /* \"#utility.yul\":10220:10337   */\n      swap3\n      swap2\n      pop\n      pop\n      jump\t// out\n        /* \"#utility.yul\":10343:10512   */\n    tag_127:\n        /* \"#utility.yul\":10387:10393   */\n      0x00\n        /* \"#utility.yul\":10420:10471   */\n      tag_237\n        /* \"#utility.yul\":10468:10469   */\n      0x00\n        /* \"#utility.yul\":10464:10470   */\n      not\n        /* \"#utility.yul\":10456:10461   */\n      dup5\n        /* \"#utility.yul\":10453:10454   */\n      0x08\n        /* \"#utility.yul\":10449:10462   */\n      mul\n        /* \"#utility.yul\":10420:10471   */\n      tag_126\n      jump\t// in\n    tag_237:\n        /* \"#utility.yul\":10416:10472   */\n      not\n        /* \"#utility.yul\":10501:10505   */\n      dup1\n        /* \"#utility.yul\":10495:10499   */\n      dup4\n        /* \"#utility.yul\":10491:10506   */\n      and\n        /* \"#utility.yul\":10481:10506   */\n      swap2\n      pop\n        /* \"#utility.yul\":10394:10512   */\n      pop\n        /* \"#utility.yul\":10343:10512   */\n      swap3\n      swap2\n      pop\n      pop\n      jump\t// out\n        /* \"#utility.yul\":10517:10812   */\n    tag_128:\n        /* \"#utility.yul\":10593:10597   */\n      0x00\n        /* \"#utility.yul\":10739:10768   */\n      tag_239\n        /* \"#utility.yul\":10764:10767   */\n      dup4\n        /* \"#utility.yul\":10758:10762   */\n      dup4\n        /* \"#utility.yul\":10739:10768   */\n      tag_127\n      jump\t// in\n    tag_239:\n        /* \"#utility.yul\":10731:10768   */\n      swap2\n      pop\n        /* \"#utility.yul\":10801:10804   */\n      dup3\n        /* \"#utility.yul\":10798:10799   */\n      0x02\n        /* \"#utility.yul\":10794:10805   */\n      mul\n        /* \"#utility.yul\":10788:10792   */\n      dup3\n        /* \"#utility.yul\":10785:10806   */\n      or\n        /* \"#utility.yul\":10777:10806   */\n      swap1\n      pop\n        /* \"#utility.yul\":10517:10812   */\n      swap3\n      swap2\n      pop\n      pop\n      jump\t// out\n        /* \"#utility.yul\":10817:12212   */\n    tag_73:\n        /* \"#utility.yul\":10934:10971   */\n      tag_241\n        /* \"#utility.yul\":10967:10970   */\n      dup3\n        /* \"#utility.yul\":10934:10971   */\n      tag_109\n      jump\t// in\n    tag_241:\n        /* \"#utility.yul\":11036:11054   */\n      0xffffffffffffffff\n        /* \"#utility.yul\":11028:11034   */\n      dup2\n        /* \"#utility.yul\":11025:11055   */\n      gt\n        /* \"#utility.yul\":11022:11078   */\n      iszero\n      tag_242\n      jumpi\n        /* \"#utility.yul\":11058:11076   */\n      tag_243\n      tag_112\n      jump\t// in\n    tag_243:\n        /* \"#utility.yul\":11022:11078   */\n    tag_242:\n        /* \"#utility.yul\":11102:11140   */\n      tag_244\n        /* \"#utility.yul\":11134:11138   */\n      dup3\n        /* \"#utility.yul\":11128:11139   */\n      sload\n        /* \"#utility.yul\":11102:11140   */\n      tag_75\n      jump\t// in\n    tag_244:\n        /* \"#utility.yul\":11187:11254   */\n      tag_245\n        /* \"#utility.yul\":11247:11253   */\n      dup3\n        /* \"#utility.yul\":11239:11245   */\n      dup3\n        /* \"#utility.yul\":11233:11237   */\n      dup6\n        /* \"#utility.yul\":11187:11254   */\n      tag_125\n      jump\t// in\n    tag_245:\n        /* \"#utility.yul\":11281:11282   */\n      0x00\n        /* \"#utility.yul\":11305:11309   */\n      0x20\n        /* \"#utility.yul\":11292:11309   */\n      swap1\n      pop\n        /* \"#utility.yul\":11337:11339   */\n      0x1f\n        /* \"#utility.yul\":11329:11335   */\n      dup4\n        /* \"#utility.yul\":11326:11340   */\n      gt\n        /* \"#utility.yul\":11354:11355   */\n      0x01\n        /* \"#utility.yul\":11349:11967   */\n      dup2\n      eq\n      tag_247\n      jumpi\n        /* \"#utility.yul\":12011:12012   */\n      0x00\n        /* \"#utility.yul\":12028:12034   */\n      dup5\n        /* \"#utility.yul\":12025:12102   */\n      iszero\n      tag_248\n      jumpi\n        /* \"#utility.yul\":12077:12086   */\n      dup3\n        /* \"#utility.yul\":12072:12075   */\n      dup8\n        /* \"#utility.yul\":12068:12087   */\n      add\n        /* \"#utility.yul\":12062:12088   */\n      mload\n        /* \"#utility.yul\":12053:12088   */\n      swap1\n      pop\n        /* \"#utility.yul\":12025:12102   */\n    tag_248:\n        /* \"#utility.yul\":12128:12195   */\n      tag_249\n        /* \"#utility.yul\":12188:12194   */\n      dup6\n        /* \"#utility.yul\":12181:12186   */\n      dup3\n        /* \"#utility.yul\":12128:12195   */\n      tag_128\n      jump\t// in\n    tag_249:\n        /* \"#utility.yul\":12122:12126   */\n      dup7\n        /* \"#utility.yul\":12115:12196   */\n      sstore\n        /* \"#utility.yul\":11984:12206   */\n      pop\n        /* \"#utility.yul\":11319:12206   */\n      jump(tag_246)\n        /* \"#utility.yul\":11349:11967   */\n    tag_247:\n        /* \"#utility.yul\":11401:11405   */\n      0x1f\n        /* \"#utility.yul\":11397:11406   */\n      not\n        /* \"#utility.yul\":11389:11395   */\n      dup5\n        /* \"#utility.yul\":11385:11407   */\n      and\n        /* \"#utility.yul\":11435:11472   */\n      tag_250\n        /* \"#utility.yul\":11467:11471   */\n      dup7\n        /* \"#utility.yul\":11435:11472   */\n      tag_114\n      jump\t// in\n    tag_250:\n        /* \"#utility.yul\":11494:11495   */\n      0x00\n        /* \"#utility.yul\":11508:11716   */\n    tag_251:\n        /* \"#utility.yul\":11522:11529   */\n      dup3\n        /* \"#utility.yul\":11519:11520   */\n      dup2\n        /* \"#utility.yul\":11516:11530   */\n      lt\n        /* \"#utility.yul\":11508:11716   */\n      iszero\n      tag_253\n      jumpi\n        /* \"#utility.yul\":11601:11610   */\n      dup5\n        /* \"#utility.yul\":11596:11599   */\n      dup10\n        /* \"#utility.yul\":11592:11611   */\n      add\n        /* \"#utility.yul\":11586:11612   */\n      mload\n        /* \"#utility.yul\":11578:11584   */\n      dup3\n        /* \"#utility.yul\":11571:11613   */\n      sstore\n        /* \"#utility.yul\":11652:11653   */\n      0x01\n        /* \"#utility.yul\":11644:11650   */\n      dup3\n        /* \"#utility.yul\":11640:11654   */\n      add\n        /* \"#utility.yul\":11630:11654   */\n      swap2\n      pop\n        /* \"#utility.yul\":11699:11701   */\n      0x20\n        /* \"#utility.yul\":11688:11697   */\n      dup6\n        /* \"#utility.yul\":11684:11702   */\n      add\n        /* \"#utility.yul\":11671:11702   */\n      swap5\n      pop\n        /* \"#utility.yul\":11545:11549   */\n      0x20\n        /* \"#utility.yul\":11542:11543   */\n      dup2\n        /* \"#utility.yul\":11538:11550   */\n      add\n        /* \"#utility.yul\":11533:11550   */\n      swap1\n      pop\n        /* \"#utility.yul\":11508:11716   */\n      jump(tag_251)\n    tag_253:\n        /* \"#utility.yul\":11744:11750   */\n      dup7\n        /* \"#utility.yul\":11735:11742   */\n      dup4\n        /* \"#utility.yul\":11732:11751   */\n      lt\n        /* \"#utility.yul\":11729:11908   */\n      iszero\n      tag_254\n      jumpi\n        /* \"#utility.yul\":11802:11811   */\n      dup5\n        /* \"#utility.yul\":11797:11800   */\n      dup10\n        /* \"#utility.yul\":11793:11812   */\n      add\n        /* \"#utility.yul\":11787:11813   */\n      mload\n        /* \"#utility.yul\":11845:11893   */\n      tag_255\n        /* \"#utility.yul\":11887:11891   */\n      0x1f\n        /* \"#utility.yul\":11879:11885   */\n      dup10\n        /* \"#utility.yul\":11875:11892   */\n      and\n        /* \"#utility.yul\":11864:11873   */\n      dup3\n        /* \"#utility.yul\":11845:11893   */\n      tag_127\n      jump\t// in\n    tag_255:\n        /* \"#utility.yul\":11837:11843   */\n      dup4\n        /* \"#utility.yul\":11830:11894   */\n      sstore\n        /* \"#utility.yul\":11752:11908   */\n      pop\n        /* \"#utility.yul\":11729:11908   */\n    tag_254:\n        /* \"#utility.yul\":11954:11955   */\n      0x01\n        /* \"#utility.yul\":11950:11951   */\n      0x02\n        /* \"#utility.yul\":11942:11948   */\n      dup9\n        /* \"#utility.yul\":11938:11952   */\n      mul\n        /* \"#utility.yul\":11934:11956   */\n      add\n        /* \"#utility.yul\":11928:11932   */\n      dup9\n        /* \"#utility.yul\":11921:11957   */\n      sstore\n        /* \"#utility.yul\":11356:11967   */\n      pop\n      pop\n      pop\n        /* \"#utility.yul\":11319:12206   */\n    tag_246:\n      pop\n        /* \"#utility.yul\":10909:12212   */\n      pop\n      pop\n      pop\n        /* \"#utility.yul\":10817:12212   */\n      pop\n      pop\n      jump\t// out\n        /* \"#utility.yul\":12218:12398   */\n    tag_129:\n        /* \"#utility.yul\":12266:12343   */\n      0x4e487b7100000000000000000000000000000000000000000000000000000000\n        /* \"#utility.yul\":12263:12264   */\n      0x00\n        /* \"#utility.yul\":12256:12344   */\n      mstore\n        /* \"#utility.yul\":12363:12367   */\n      0x11\n        /* \"#utility.yul\":12360:12361   */\n      0x04\n        /* \"#utility.yul\":12353:12368   */\n      mstore\n        /* \"#utility.yul\":12387:12391   */\n      0x24\n        /* \"#utility.yul\":12384:12385   */\n      0x00\n        /* \"#utility.yul\":12377:12392   */\n      revert\n        /* \"#utility.yul\":12404:12595   */\n    tag_87:\n        /* \"#utility.yul\":12444:12447   */\n      0x00\n        /* \"#utility.yul\":12463:12483   */\n      tag_258\n        /* \"#utility.yul\":12481:12482   */\n      dup3\n        /* \"#utility.yul\":12463:12483   */\n      tag_88\n      jump\t// in\n    tag_258:\n        /* \"#utility.yul\":12458:12483   */\n      swap2\n      pop\n        /* \"#utility.yul\":12497:12517   */\n      tag_259\n        /* \"#utility.yul\":12515:12516   */\n      dup4\n        /* \"#utility.yul\":12497:12517   */\n      tag_88\n      jump\t// in\n    tag_259:\n        /* \"#utility.yul\":12492:12517   */\n      swap3\n      pop\n        /* \"#utility.yul\":12540:12541   */\n      dup3\n        /* \"#utility.yul\":12537:12538   */\n      dup3\n        /* \"#utility.yul\":12533:12542   */\n      add\n        /* \"#utility.yul\":12526:12542   */\n      swap1\n      pop\n        /* \"#utility.yul\":12561:12564   */\n      dup1\n        /* \"#utility.yul\":12558:12559   */\n      dup3\n        /* \"#utility.yul\":12555:12565   */\n      gt\n        /* \"#utility.yul\":12552:12588   */\n      iszero\n      tag_260\n      jumpi\n        /* \"#utility.yul\":12568:12586   */\n      tag_261\n      tag_129\n      jump\t// in\n    tag_261:\n        /* \"#utility.yul\":12552:12588   */\n    tag_260:\n        /* \"#utility.yul\":12404:12595   */\n      swap3\n      swap2\n      pop\n      pop\n      jump\t// out\n\n    auxdata: 0xa26469706673582212200bc42e16ca0f640183aaaa88a8fdfb683546a1491f2db0bdd36697ad1a81723464736f6c634300081e0033\n}\n",
				"bytecode": {
					"linkReferences": {},
					"object": "60806040526040518060600160405280600160ff168152602001600260ff168152602001600360ff168152505f90600360389291906050565b506001805560028055348015604b575f5ffd5b5060b4565b828054828255905f5260205f20908101928215608c579160200282015b82811115608b578251829060ff16905591602001919060010190606d565b5b50905060979190609b565b5090565b5b8082111560b0575f815f905550600101609c565b5090565b610b23806100c15f395ff3fe608060405234801561000f575f5ffd5b50600436106100a7575f3560e01c8063a56dfe4a1161006f578063a56dfe4a14610142578063aec3d64014610160578063c29855781461017e578063c5d7802e14610188578063cb9f1220146101a6578063febb0f7e146101c5576100a7565b80630c55699c146100ab57806312176349146100c95780636a8d1e08146100e757806377014bee146100f1578063a05f990614610122575b5f5ffd5b6100b36101e3565b6040516100c0919061044f565b60405180910390f35b6100d16101e9565b6040516100de919061044f565b60405180910390f35b6100ef610213565b005b61010b600480360381019061010691906104d1565b61023b565b604051610119929190610594565b60405180910390f35b61012a61024a565b60405161013993929190610665565b60405180910390f35b61014a6102ae565b604051610157919061044f565b60405180910390f35b6101686102b4565b604051610175919061044f565b60405180910390f35b6101866102e7565b005b61019061033e565b60405161019d91906106f3565b60405180910390f35b6101ae6103ca565b6040516101bc929190610713565b60405180910390f35b6101cd610414565b6040516101da919061044f565b60405180910390f35b60015481565b5f600180146101fb576101fa61073a565b5b6001801461020c5761020b61073a565b5b6001905090565b5f5f90506064815f8154811061022c5761022b610767565b5b905f5260205f20018190555050565b365f8383915091509250929050565b5f5f60605f3390505f4390505f5f368080601f0160208091040260200160405190810160405280939291908181526020018383808284375f81840152601f19601f820116905080830192505050505050509050828282955095509550505050909192565b60025481565b5f633b9aca0080146102c9576102c861073a565b5b633b9aca0080146102dd576102dc61073a565b5b633b9aca00905090565b600560018190555060066002819055506040518060400160405280600481526020017f30784141000000000000000000000000000000000000000000000000000000008152506003908161033b91906109be565b50565b6003805461034b906107ee565b80601f0160208091040260200160405190810160405280929190818152602001828054610377906107ee565b80156103c25780601f10610399576101008083540402835291602001916103c2565b820191905f5260205f20905b8154815290600101906020018083116103a557829003601f168201915b505050505081565b5f5f670de0b6b3a764000080146103e4576103e361073a565b5b5f607b9050670de0b6b3a764000080146104015761040061073a565b5b670de0b6b3a76400008192509250509091565b5f5f600190505f600290505f818361042c9190610aba565b905080935050505090565b5f819050919050565b61044981610437565b82525050565b5f6020820190506104625f830184610440565b92915050565b5f5ffd5b5f5ffd5b5f5ffd5b5f5ffd5b5f5ffd5b5f5f83601f84011261049157610490610470565b5b8235905067ffffffffffffffff8111156104ae576104ad610474565b5b6020830191508360208202830111156104ca576104c9610478565b5b9250929050565b5f5f602083850312156104e7576104e6610468565b5b5f83013567ffffffffffffffff8111156105045761050361046c565b5b6105108582860161047c565b92509250509250929050565b5f82825260208201905092915050565b5f5ffd5b82818337505050565b5f610544838561051c565b93507f07ffffffffffffffffffffffffffffffffffffffffffffffffffffffffffffff8311156105775761057661052c565b5b602083029250610588838584610530565b82840190509392505050565b5f6020820190508181035f8301526105ad818486610539565b90509392505050565b5f73ffffffffffffffffffffffffffffffffffffffff82169050919050565b5f6105df826105b6565b9050919050565b6105ef816105d5565b82525050565b5f81519050919050565b5f82825260208201905092915050565b8281835e5f83830152505050565b5f601f19601f8301169050919050565b5f610637826105f5565b61064181856105ff565b935061065181856020860161060f565b61065a8161061d565b840191505092915050565b5f6060820190506106785f8301866105e6565b6106856020830185610440565b8181036040830152610697818461062d565b9050949350505050565b5f81519050919050565b5f82825260208201905092915050565b5f6106c5826106a1565b6106cf81856106ab565b93506106df81856020860161060f565b6106e88161061d565b840191505092915050565b5f6020820190508181035f83015261070b81846106bb565b905092915050565b5f6040820190506107265f830185610440565b6107336020830184610440565b9392505050565b7f4e487b71000000000000000000000000000000000000000000000000000000005f52600160045260245ffd5b7f4e487b71000000000000000000000000000000000000000000000000000000005f52603260045260245ffd5b7f4e487b71000000000000000000000000000000000000000000000000000000005f52604160045260245ffd5b7f4e487b71000000000000000000000000000000000000000000000000000000005f52602260045260245ffd5b5f600282049050600182168061080557607f821691505b602082108103610818576108176107c1565b5b50919050565b5f819050815f5260205f209050919050565b5f6020601f8301049050919050565b5f82821b905092915050565b5f6008830261087a7fffffffffffffffffffffffffffffffffffffffffffffffffffffffffffffffff8261083f565b610884868361083f565b95508019841693508086168417925050509392505050565b5f819050919050565b5f6108bf6108ba6108b584610437565b61089c565b610437565b9050919050565b5f819050919050565b6108d8836108a5565b6108ec6108e4826108c6565b84845461084b565b825550505050565b5f5f905090565b6109036108f4565b61090e8184846108cf565b505050565b5b81811015610931576109265f826108fb565b600181019050610914565b5050565b601f821115610976576109478161081e565b61095084610830565b8101602085101561095f578190505b61097361096b85610830565b830182610913565b50505b505050565b5f82821c905092915050565b5f6109965f198460080261097b565b1980831691505092915050565b5f6109ae8383610987565b9150826002028217905092915050565b6109c7826106a1565b67ffffffffffffffff8111156109e0576109df610794565b5b6109ea82546107ee565b6109f5828285610935565b5f60209050601f831160018114610a26575f8415610a14578287015190505b610a1e85826109a3565b865550610a85565b601f198416610a348661081e565b5f5b82811015610a5b57848901518255600182019150602085019450602081019050610a36565b86831015610a785784890151610a74601f891682610987565b8355505b6001600288020188555050505b505050505050565b7f4e487b71000000000000000000000000000000000000000000000000000000005f52601160045260245ffd5b5f610ac482610437565b9150610acf83610437565b9250828201905080821115610ae757610ae6610a8d565b5b9291505056fea26469706673582212200bc42e16ca0f640183aaaa88a8fdfb683546a1491f2db0bdd36697ad1a81723464736f6c634300081e0033",
					"opcodes": "PUSH1 0x80 PUSH1 0x40 MSTORE PUSH1 0x40 MLOAD DUP1 PUSH1 0x60 ADD PUSH1 0x40 MSTORE DUP1 PUSH1 0x1 PUSH1 0xFF AND DUP2 MSTORE PUSH1 0x20 ADD PUSH1 0x2 PUSH1 0xFF AND DUP2 MSTORE PUSH1 0x20 ADD PUSH1 0x3 PUSH1 0xFF AND DUP2 MSTORE POP PUSH0 SWAP1 PUSH1 0x3 PUSH1 0x38 SWAP3 SWAP2 SWAP1 PUSH1 0x50 JUMP JUMPDEST POP PUSH1 0x1 DUP1 SSTORE PUSH1 0x2 DUP1 SSTORE CALLVALUE DUP1 ISZERO PUSH1 0x4B JUMPI PUSH0 PUSH0 REVERT JUMPDEST POP PUSH1 0xB4 JUMP JUMPDEST DUP3 DUP1 SLOAD DUP3 DUP3 SSTORE SWAP1 PUSH0 MSTORE PUSH1 0x20 PUSH0 KECCAK256 SWAP1 DUP2 ADD SWAP3 DUP3 ISZERO PUSH1 0x8C JUMPI SWAP2 PUSH1 0x20 MUL DUP3 ADD JUMPDEST DUP3 DUP2 GT ISZERO PUSH1 0x8B JUMPI DUP3 MLOAD DUP3 SWAP1 PUSH1 0xFF AND SWAP1 SSTORE SWAP2 PUSH1 0x20 ADD SWAP2 SWAP1 PUSH1 0x1 ADD SWAP1 PUSH1 0x6D JUMP JUMPDEST JUMPDEST POP SWAP1 POP PUSH1 0x97 SWAP2 SWAP1 PUSH1 0x9B JUMP JUMPDEST POP SWAP1 JUMP JUMPDEST JUMPDEST DUP1 DUP3 GT ISZERO PUSH1 0xB0 JUMPI PUSH0 DUP2 PUSH0 SWAP1 SSTORE POP PUSH1 0x1 ADD PUSH1 0x9C JUMP JUMPDEST POP SWAP1 JUMP JUMPDEST PUSH2 0xB23 DUP1 PUSH2 0xC1 PUSH0 CODECOPY PUSH0 RETURN INVALID PUSH1 0x80 PUSH1 0x40 MSTORE CALLVALUE DUP1 ISZERO PUSH2 0xF JUMPI PUSH0 PUSH0 REVERT JUMPDEST POP PUSH1 0x4 CALLDATASIZE LT PUSH2 0xA7 JUMPI PUSH0 CALLDATALOAD PUSH1 0xE0 SHR DUP1 PUSH4 0xA56DFE4A GT PUSH2 0x6F JUMPI DUP1 PUSH4 0xA56DFE4A EQ PUSH2 0x142 JUMPI DUP1 PUSH4 0xAEC3D640 EQ PUSH2 0x160 JUMPI DUP1 PUSH4 0xC2985578 EQ PUSH2 0x17E JUMPI DUP1 PUSH4 0xC5D7802E EQ PUSH2 0x188 JUMPI DUP1 PUSH4 0xCB9F1220 EQ PUSH2 0x1A6 JUMPI DUP1 PUSH4 0xFEBB0F7E EQ PUSH2 0x1C5 JUMPI PUSH2 0xA7 JUMP JUMPDEST DUP1 PUSH4 0xC55699C EQ PUSH2 0xAB JUMPI DUP1 PUSH4 0x12176349 EQ PUSH2 0xC9 JUMPI DUP1 PUSH4 0x6A8D1E08 EQ PUSH2 0xE7 JUMPI DUP1 PUSH4 0x77014BEE EQ PUSH2 0xF1 JUMPI DUP1 PUSH4 0xA05F9906 EQ PUSH2 0x122 JUMPI JUMPDEST PUSH0 PUSH0 REVERT JUMPDEST PUSH2 0xB3 PUSH2 0x1E3 JUMP JUMPDEST PUSH1 0x40 MLOAD PUSH2 0xC0 SWAP2 SWAP1 PUSH2 0x44F JUMP JUMPDEST PUSH1 0x40 MLOAD DUP1 SWAP2 SUB SWAP1 RETURN JUMPDEST PUSH2 0xD1 PUSH2 0x1E9 JUMP JUMPDEST PUSH1 0x40 MLOAD PUSH2 0xDE SWAP2 SWAP1 PUSH2 0x44F JUMP JUMPDEST PUSH1 0x40 MLOAD DUP1 SWAP2 SUB SWAP1 RETURN JUMPDEST PUSH2 0xEF PUSH2 0x213 JUMP JUMPDEST STOP JUMPDEST PUSH2 0x10B PUSH1 0x4 DUP1 CALLDATASIZE SUB DUP2 ADD SWAP1 PUSH2 0x106 SWAP2 SWAP1 PUSH2 0x4D1 JUMP JUMPDEST PUSH2 0x23B JUMP JUMPDEST PUSH1 0x40 MLOAD PUSH2 0x119 SWAP3 SWAP2 SWAP1 PUSH2 0x594 JUMP JUMPDEST PUSH1 0x40 MLOAD DUP1 SWAP2 SUB SWAP1 RETURN JUMPDEST PUSH2 0x12A PUSH2 0x24A JUMP JUMPDEST PUSH1 0x40 MLOAD PUSH2 0x139 SWAP4 SWAP3 SWAP2 SWAP1 PUSH2 0x665 JUMP JUMPDEST PUSH1 0x40 MLOAD DUP1 SWAP2 SUB SWAP1 RETURN JUMPDEST PUSH2 0x14A PUSH2 0x2AE JUMP JUMPDEST PUSH1 0x40 MLOAD PUSH2 0x157 SWAP2 SWAP1 PUSH2 0x44F JUMP JUMPDEST PUSH1 0x40 MLOAD DUP1 SWAP2 SUB SWAP1 RETURN JUMPDEST PUSH2 0x168 PUSH2 0x2B4 JUMP JUMPDEST PUSH1 0x40 MLOAD PUSH2 0x175 SWAP2 SWAP1 PUSH2 0x44F JUMP JUMPDEST PUSH1 0x40 MLOAD DUP1 SWAP2 SUB SWAP1 RETURN JUMPDEST PUSH2 0x186 PUSH2 0x2E7 JUMP JUMPDEST STOP JUMPDEST PUSH2 0x190 PUSH2 0x33E JUMP JUMPDEST PUSH1 0x40 MLOAD PUSH2 0x19D SWAP2 SWAP1 PUSH2 0x6F3 JUMP JUMPDEST PUSH1 0x40 MLOAD DUP1 SWAP2 SUB SWAP1 RETURN JUMPDEST PUSH2 0x1AE PUSH2 0x3CA JUMP JUMPDEST PUSH1 0x40 MLOAD PUSH2 0x1BC SWAP3 SWAP2 SWAP1 PUSH2 0x713 JUMP JUMPDEST PUSH1 0x40 MLOAD DUP1 SWAP2 SUB SWAP1 RETURN JUMPDEST PUSH2 0x1CD PUSH2 0x414 JUMP JUMPDEST PUSH1 0x40 MLOAD PUSH2 0x1DA SWAP2 SWAP1 PUSH2 0x44F JUMP JUMPDEST PUSH1 0x40 MLOAD DUP1 SWAP2 SUB SWAP1 RETURN JUMPDEST PUSH1 0x1 SLOAD DUP2 JUMP JUMPDEST PUSH0 PUSH1 0x1 DUP1 EQ PUSH2 0x1FB JUMPI PUSH2 0x1FA PUSH2 0x73A JUMP JUMPDEST JUMPDEST PUSH1 0x1 DUP1 EQ PUSH2 0x20C JUMPI PUSH2 0x20B PUSH2 0x73A JUMP JUMPDEST JUMPDEST PUSH1 0x1 SWAP1 POP SWAP1 JUMP JUMPDEST PUSH0 PUSH0 SWAP1 POP PUSH1 0x64 DUP2 PUSH0 DUP2 SLOAD DUP2 LT PUSH2 0x22C JUMPI PUSH2 0x22B PUSH2 0x767 JUMP JUMPDEST JUMPDEST SWAP1 PUSH0 MSTORE PUSH1 0x20 PUSH0 KECCAK256 ADD DUP2 SWAP1 SSTORE POP POP JUMP JUMPDEST CALLDATASIZE PUSH0 DUP4 DUP4 SWAP2 POP SWAP2 POP SWAP3 POP SWAP3 SWAP1 POP JUMP JUMPDEST PUSH0 PUSH0 PUSH1 0x60 PUSH0 CALLER SWAP1 POP PUSH0 NUMBER SWAP1 POP PUSH0 PUSH0 CALLDATASIZE DUP1 DUP1 PUSH1 0x1F ADD PUSH1 0x20 DUP1 SWAP2 DIV MUL PUSH1 0x20 ADD PUSH1 0x40 MLOAD SWAP1 DUP2 ADD PUSH1 0x40 MSTORE DUP1 SWAP4 SWAP3 SWAP2 SWAP1 DUP2 DUP2 MSTORE PUSH1 0x20 ADD DUP4 DUP4 DUP1 DUP3 DUP5 CALLDATACOPY PUSH0 DUP2 DUP5 ADD MSTORE PUSH1 0x1F NOT PUSH1 0x1F DUP3 ADD AND SWAP1 POP DUP1 DUP4 ADD SWAP3 POP POP POP POP POP POP POP SWAP1 POP DUP3 DUP3 DUP3 SWAP6 POP SWAP6 POP SWAP6 POP POP POP POP SWAP1 SWAP2 SWAP3 JUMP JUMPDEST PUSH1 0x2 SLOAD DUP2 JUMP JUMPDEST PUSH0 PUSH4 0x3B9ACA00 DUP1 EQ PUSH2 0x2C9 JUMPI PUSH2 0x2C8 PUSH2 0x73A JUMP JUMPDEST JUMPDEST PUSH4 0x3B9ACA00 DUP1 EQ PUSH2 0x2DD JUMPI PUSH2 0x2DC PUSH2 0x73A JUMP JUMPDEST JUMPDEST PUSH4 0x3B9ACA00 SWAP1 POP SWAP1 JUMP JUMPDEST PUSH1 0x5 PUSH1 0x1 DUP2 SWAP1 SSTORE POP PUSH1 0x6 PUSH1 0x2 DUP2 SWAP1 SSTORE POP PUSH1 0x40 MLOAD DUP1 PUSH1 0x40 ADD PUSH1 0x40 MSTORE DUP1 PUSH1 0x4 DUP2 MSTORE PUSH1 0x20 ADD PUSH32 0x3078414100000000000000000000000000000000000000000000000000000000 DUP2 MSTORE POP PUSH1 0x3 SWAP1 DUP2 PUSH2 0x33B SWAP2 SWAP1 PUSH2 0x9BE JUMP JUMPDEST POP JUMP JUMPDEST PUSH1 0x3 DUP1 SLOAD PUSH2 0x34B SWAP1 PUSH2 0x7EE JUMP JUMPDEST DUP1 PUSH1 0x1F ADD PUSH1 0x20 DUP1 SWAP2 DIV MUL PUSH1 0x20 ADD PUSH1 0x40 MLOAD SWAP1 DUP2 ADD PUSH1 0x40 MSTORE DUP1 SWAP3 SWAP2 SWAP1 DUP2 DUP2 MSTORE PUSH1 0x20 ADD DUP3 DUP1 SLOAD PUSH2 0x377 SWAP1 PUSH2 0x7EE JUMP JUMPDEST DUP1 ISZERO PUSH2 0x3C2 JUMPI DUP1 PUSH1 0x1F LT PUSH2 0x399 JUMPI PUSH2 0x100 DUP1 DUP4 SLOAD DIV MUL DUP4 MSTORE SWAP2 PUSH1 0x20 ADD SWAP2 PUSH2 0x3C2 JUMP JUMPDEST DUP3 ADD SWAP2 SWAP1 PUSH0 MSTORE PUSH1 0x20 PUSH0 KECCAK256 SWAP1 JUMPDEST DUP2 SLOAD DUP2 MSTORE SWAP1 PUSH1 0x1 ADD SWAP1 PUSH1 0x20 ADD DUP1 DUP4 GT PUSH2 0x3A5 JUMPI DUP3 SWAP1 SUB PUSH1 0x1F AND DUP3 ADD SWAP2 JUMPDEST POP POP POP POP POP DUP2 JUMP JUMPDEST PUSH0 PUSH0 PUSH8 0xDE0B6B3A7640000 DUP1 EQ PUSH2 0x3E4 JUMPI PUSH2 0x3E3 PUSH2 0x73A JUMP JUMPDEST JUMPDEST PUSH0 PUSH1 0x7B SWAP1 POP PUSH8 0xDE0B6B3A7640000 DUP1 EQ PUSH2 0x401 JUMPI PUSH2 0x400 PUSH2 0x73A JUMP JUMPDEST JUMPDEST PUSH8 0xDE0B6B3A7640000 DUP2 SWAP3 POP SWAP3 POP POP SWAP1 SWAP2 JUMP JUMPDEST PUSH0 PUSH0 PUSH1 0x1 SWAP1 POP PUSH0 PUSH1 0x2 SWAP1 POP PUSH0 DUP2 DUP4 PUSH2 0x42C SWAP2 SWAP1 PUSH2 0xABA JUMP JUMPDEST SWAP1 POP DUP1 SWAP4 POP POP POP POP SWAP1 JUMP JUMPDEST PUSH0 DUP2 SWAP1 POP SWAP2 SWAP1 POP JUMP JUMPDEST PUSH2 0x449 DUP2 PUSH2 0x437 JUMP JUMPDEST DUP3 MSTORE POP POP JUMP JUMPDEST PUSH0 PUSH1 0x20 DUP3 ADD SWAP1 POP PUSH2 0x462 PUSH0 DUP4 ADD DUP5 PUSH2 0x440 JUMP JUMPDEST SWAP3 SWAP2 POP POP JUMP JUMPDEST PUSH0 PUSH0 REVERT JUMPDEST PUSH0 PUSH0 REVERT JUMPDEST PUSH0 PUSH0 REVERT JUMPDEST PUSH0 PUSH0 REVERT JUMPDEST PUSH0 PUSH0 REVERT JUMPDEST PUSH0 PUSH0 DUP4 PUSH1 0x1F DUP5 ADD SLT PUSH2 0x491 JUMPI PUSH2 0x490 PUSH2 0x470 JUMP JUMPDEST JUMPDEST DUP3 CALLDATALOAD SWAP1 POP PUSH8 0xFFFFFFFFFFFFFFFF DUP2 GT ISZERO PUSH2 0x4AE JUMPI PUSH2 0x4AD PUSH2 0x474 JUMP JUMPDEST JUMPDEST PUSH1 0x20 DUP4 ADD SWAP2 POP DUP4 PUSH1 0x20 DUP3 MUL DUP4 ADD GT ISZERO PUSH2 0x4CA JUMPI PUSH2 0x4C9 PUSH2 0x478 JUMP JUMPDEST JUMPDEST SWAP3 POP SWAP3 SWAP1 POP JUMP JUMPDEST PUSH0 PUSH0 PUSH1 0x20 DUP4 DUP6 SUB SLT ISZERO PUSH2 0x4E7 JUMPI PUSH2 0x4E6 PUSH2 0x468 JUMP JUMPDEST JUMPDEST PUSH0 DUP4 ADD CALLDATALOAD PUSH8 0xFFFFFFFFFFFFFFFF DUP2 GT ISZERO PUSH2 0x504 JUMPI PUSH2 0x503 PUSH2 0x46C JUMP JUMPDEST JUMPDEST PUSH2 0x510 DUP6 DUP3 DUP7 ADD PUSH2 0x47C JUMP JUMPDEST SWAP3 POP SWAP3 POP POP SWAP3 POP SWAP3 SWAP1 POP JUMP JUMPDEST PUSH0 DUP3 DUP3 MSTORE PUSH1 0x20 DUP3 ADD SWAP1 POP SWAP3 SWAP2 POP POP JUMP JUMPDEST PUSH0 PUSH0 REVERT JUMPDEST DUP3 DUP2 DUP4 CALLDATACOPY POP POP POP JUMP JUMPDEST PUSH0 PUSH2 0x544 DUP4 DUP6 PUSH2 0x51C JUMP JUMPDEST SWAP4 POP PUSH32 0x7FFFFFFFFFFFFFFFFFFFFFFFFFFFFFFFFFFFFFFFFFFFFFFFFFFFFFFFFFFFFFF DUP4 GT ISZERO PUSH2 0x577 JUMPI PUSH2 0x576 PUSH2 0x52C JUMP JUMPDEST JUMPDEST PUSH1 0x20 DUP4 MUL SWAP3 POP PUSH2 0x588 DUP4 DUP6 DUP5 PUSH2 0x530 JUMP JUMPDEST DUP3 DUP5 ADD SWAP1 POP SWAP4 SWAP3 POP POP POP JUMP JUMPDEST PUSH0 PUSH1 0x20 DUP3 ADD SWAP1 POP DUP2 DUP2 SUB PUSH0 DUP4 ADD MSTORE PUSH2 0x5AD DUP2 DUP5 DUP7 PUSH2 0x539 JUMP JUMPDEST SWAP1 POP SWAP4 SWAP3 POP POP POP JUMP JUMPDEST PUSH0 PUSH20 0xFFFFFFFFFFFFFFFFFFFFFFFFFFFFFFFFFFFFFFFF DUP3 AND SWAP1 POP SWAP2 SWAP1 POP JUMP JUMPDEST PUSH0 PUSH2 0x5DF DUP3 PUSH2 0x5B6 JUMP JUMPDEST SWAP1 POP SWAP2 SWAP1 POP JUMP JUMPDEST PUSH2 0x5EF DUP2 PUSH2 0x5D5 JUMP JUMPDEST DUP3 MSTORE POP POP JUMP JUMPDEST PUSH0 DUP2 MLOAD SWAP1 POP SWAP2 SWAP1 POP JUMP JUMPDEST PUSH0 DUP3 DUP3 MSTORE PUSH1 0x20 DUP3 ADD SWAP1 POP SWAP3 SWAP2 POP POP JUMP JUMPDEST DUP3 DUP2 DUP4 MCOPY PUSH0 DUP4 DUP4 ADD MSTORE POP POP POP JUMP JUMPDEST PUSH0 PUSH1 0x1F NOT PUSH1 0x1F DUP4 ADD AND SWAP1 POP SWAP2 SWAP1 POP JUMP JUMPDEST PUSH0 PUSH2 0x637 DUP3 PUSH2 0x5F5 JUMP JUMPDEST PUSH2 0x641 DUP2 DUP6 PUSH2 0x5FF JUMP JUMPDEST SWAP4 POP PUSH2 0x651 DUP2 DUP6 PUSH1 0x20 DUP7 ADD PUSH2 0x60F JUMP JUMPDEST PUSH2 0x65A DUP2 PUSH2 0x61D JUMP JUMPDEST DUP5 ADD SWAP2 POP POP SWAP3 SWAP2 POP POP JUMP JUMPDEST PUSH0 PUSH1 0x60 DUP3 ADD SWAP1 POP PUSH2 0x678 PUSH0 DUP4 ADD DUP7 PUSH2 0x5E6 JUMP JUMPDEST PUSH2 0x685 PUSH1 0x20 DUP4 ADD DUP6 PUSH2 0x440 JUMP JUMPDEST DUP2 DUP2 SUB PUSH1 0x40 DUP4 ADD MSTORE PUSH2 0x697 DUP2 DUP5 PUSH2 0x62D JUMP JUMPDEST SWAP1 POP SWAP5 SWAP4 POP POP POP POP JUMP JUMPDEST PUSH0 DUP2 MLOAD SWAP1 POP SWAP2 SWAP1 POP JUMP JUMPDEST PUSH0 DUP3 DUP3 MSTORE PUSH1 0x20 DUP3 ADD SWAP1 POP SWAP3 SWAP2 POP POP JUMP JUMPDEST PUSH0 PUSH2 0x6C5 DUP3 PUSH2 0x6A1 JUMP JUMPDEST PUSH2 0x6CF DUP2 DUP6 PUSH2 0x6AB JUMP JUMPDEST SWAP4 POP PUSH2 0x6DF DUP2 DUP6 PUSH1 0x20 DUP7 ADD PUSH2 0x60F JUMP JUMPDEST PUSH2 0x6E8 DUP2 PUSH2 0x61D JUMP JUMPDEST DUP5 ADD SWAP2 POP POP SWAP3 SWAP2 POP POP JUMP JUMPDEST PUSH0 PUSH1 0x20 DUP3 ADD SWAP1 POP DUP2 DUP2 SUB PUSH0 DUP4 ADD MSTORE PUSH2 0x70B DUP2 DUP5 PUSH2 0x6BB JUMP JUMPDEST SWAP1 POP SWAP3 SWAP2 POP POP JUMP JUMPDEST PUSH0 PUSH1 0x40 DUP3 ADD SWAP1 POP PUSH2 0x726 PUSH0 DUP4 ADD DUP6 PUSH2 0x440 JUMP JUMPDEST PUSH2 0x733 PUSH1 0x20 DUP4 ADD DUP5 PUSH2 0x440 JUMP JUMPDEST SWAP4 SWAP3 POP POP POP JUMP JUMPDEST PUSH32 0x4E487B7100000000000000000000000000000000000000000000000000000000 PUSH0 MSTORE PUSH1 0x1 PUSH1 0x4 MSTORE PUSH1 0x24 PUSH0 REVERT JUMPDEST PUSH32 0x4E487B7100000000000000000000000000000000000000000000000000000000 PUSH0 MSTORE PUSH1 0x32 PUSH1 0x4 MSTORE PUSH1 0x24 PUSH0 REVERT JUMPDEST PUSH32 0x4E487B7100000000000000000000000000000000000000000000000000000000 PUSH0 MSTORE PUSH1 0x41 PUSH1 0x4 MSTORE PUSH1 0x24 PUSH0 REVERT JUMPDEST PUSH32 0x4E487B7100000000000000000000000000000000000000000000000000000000 PUSH0 MSTORE PUSH1 0x22 PUSH1 0x4 MSTORE PUSH1 0x24 PUSH0 REVERT JUMPDEST PUSH0 PUSH1 0x2 DUP3 DIV SWAP1 POP PUSH1 0x1 DUP3 AND DUP1 PUSH2 0x805 JUMPI PUSH1 0x7F DUP3 AND SWAP2 POP JUMPDEST PUSH1 0x20 DUP3 LT DUP2 SUB PUSH2 0x818 JUMPI PUSH2 0x817 PUSH2 0x7C1 JUMP JUMPDEST JUMPDEST POP SWAP2 SWAP1 POP JUMP JUMPDEST PUSH0 DUP2 SWAP1 POP DUP2 PUSH0 MSTORE PUSH1 0x20 PUSH0 KECCAK256 SWAP1 POP SWAP2 SWAP1 POP JUMP JUMPDEST PUSH0 PUSH1 0x20 PUSH1 0x1F DUP4 ADD DIV SWAP1 POP SWAP2 SWAP1 POP JUMP JUMPDEST PUSH0 DUP3 DUP3 SHL SWAP1 POP SWAP3 SWAP2 POP POP JUMP JUMPDEST PUSH0 PUSH1 0x8 DUP4 MUL PUSH2 0x87A PUSH32 0xFFFFFFFFFFFFFFFFFFFFFFFFFFFFFFFFFFFFFFFFFFFFFFFFFFFFFFFFFFFFFFFF DUP3 PUSH2 0x83F JUMP JUMPDEST PUSH2 0x884 DUP7 DUP4 PUSH2 0x83F JUMP JUMPDEST SWAP6 POP DUP1 NOT DUP5 AND SWAP4 POP DUP1 DUP7 AND DUP5 OR SWAP3 POP POP POP SWAP4 SWAP3 POP POP POP JUMP JUMPDEST PUSH0 DUP2 SWAP1 POP SWAP2 SWAP1 POP JUMP JUMPDEST PUSH0 PUSH2 0x8BF PUSH2 0x8BA PUSH2 0x8B5 DUP5 PUSH2 0x437 JUMP JUMPDEST PUSH2 0x89C JUMP JUMPDEST PUSH2 0x437 JUMP JUMPDEST SWAP1 POP SWAP2 SWAP1 POP JUMP JUMPDEST PUSH0 DUP2 SWAP1 POP SWAP2 SWAP1 POP JUMP JUMPDEST PUSH2 0x8D8 DUP4 PUSH2 0x8A5 JUMP JUMPDEST PUSH2 0x8EC PUSH2 0x8E4 DUP3 PUSH2 0x8C6 JUMP JUMPDEST DUP5 DUP5 SLOAD PUSH2 0x84B JUMP JUMPDEST DUP3 SSTORE POP POP POP POP JUMP JUMPDEST PUSH0 PUSH0 SWAP1 POP SWAP1 JUMP JUMPDEST PUSH2 0x903 PUSH2 0x8F4 JUMP JUMPDEST PUSH2 0x90E DUP2 DUP5 DUP5 PUSH2 0x8CF JUMP JUMPDEST POP POP POP JUMP JUMPDEST JUMPDEST DUP2 DUP2 LT ISZERO PUSH2 0x931 JUMPI PUSH2 0x926 PUSH0 DUP3 PUSH2 0x8FB JUMP JUMPDEST PUSH1 0x1 DUP2 ADD SWAP1 POP PUSH2 0x914 JUMP JUMPDEST POP POP JUMP JUMPDEST PUSH1 0x1F DUP3 GT ISZERO PUSH2 0x976 JUMPI PUSH2 0x947 DUP2 PUSH2 0x81E JUMP JUMPDEST PUSH2 0x950 DUP5 PUSH2 0x830 JUMP JUMPDEST DUP2 ADD PUSH1 0x20 DUP6 LT ISZERO PUSH2 0x95F JUMPI DUP2 SWAP1 POP JUMPDEST PUSH2 0x973 PUSH2 0x96B DUP6 PUSH2 0x830 JUMP JUMPDEST DUP4 ADD DUP3 PUSH2 0x913 JUMP JUMPDEST POP POP JUMPDEST POP POP POP JUMP JUMPDEST PUSH0 DUP3 DUP3 SHR SWAP1 POP SWAP3 SWAP2 POP POP JUMP JUMPDEST PUSH0 PUSH2 0x996 PUSH0 NOT DUP5 PUSH1 0x8 MUL PUSH2 0x97B JUMP JUMPDEST NOT DUP1 DUP4 AND SWAP2 POP POP SWAP3 SWAP2 POP POP JUMP JUMPDEST PUSH0 PUSH2 0x9AE DUP4 DUP4 PUSH2 0x987 JUMP JUMPDEST SWAP2 POP DUP3 PUSH1 0x2 MUL DUP3 OR SWAP1 POP SWAP3 SWAP2 POP POP JUMP JUMPDEST PUSH2 0x9C7 DUP3 PUSH2 0x6A1 JUMP JUMPDEST PUSH8 0xFFFFFFFFFFFFFFFF DUP2 GT ISZERO PUSH2 0x9E0 JUMPI PUSH2 0x9DF PUSH2 0x794 JUMP JUMPDEST JUMPDEST PUSH2 0x9EA DUP3 SLOAD PUSH2 0x7EE JUMP JUMPDEST PUSH2 0x9F5 DUP3 DUP3 DUP6 PUSH2 0x935 JUMP JUMPDEST PUSH0 PUSH1 0x20 SWAP1 POP PUSH1 0x1F DUP4 GT PUSH1 0x1 DUP2 EQ PUSH2 0xA26 JUMPI PUSH0 DUP5 ISZERO PUSH2 0xA14 JUMPI DUP3 DUP8 ADD MLOAD SWAP1 POP JUMPDEST PUSH2 0xA1E DUP6 DUP3 PUSH2 0x9A3 JUMP JUMPDEST DUP7 SSTORE POP PUSH2 0xA85 JUMP JUMPDEST PUSH1 0x1F NOT DUP5 AND PUSH2 0xA34 DUP7 PUSH2 0x81E JUMP JUMPDEST PUSH0 JUMPDEST DUP3 DUP2 LT ISZERO PUSH2 0xA5B JUMPI DUP5 DUP10 ADD MLOAD DUP3 SSTORE PUSH1 0x1 DUP3 ADD SWAP2 POP PUSH1 0x20 DUP6 ADD SWAP5 POP PUSH1 0x20 DUP2 ADD SWAP1 POP PUSH2 0xA36 JUMP JUMPDEST DUP7 DUP4 LT ISZERO PUSH2 0xA78 JUMPI DUP5 DUP10 ADD MLOAD PUSH2 0xA74 PUSH1 0x1F DUP10 AND DUP3 PUSH2 0x987 JUMP JUMPDEST DUP4 SSTORE POP JUMPDEST PUSH1 0x1 PUSH1 0x2 DUP9 MUL ADD DUP9 SSTORE POP POP POP JUMPDEST POP POP POP POP POP POP JUMP JUMPDEST PUSH32 0x4E487B7100000000000000000000000000000000000000000000000000000000 PUSH0 MSTORE PUSH1 0x11 PUSH1 0x4 MSTORE PUSH1 0x24 PUSH0 REVERT JUMPDEST PUSH0 PUSH2 0xAC4 DUP3 PUSH2 0x437 JUMP JUMPDEST SWAP2 POP PUSH2 0xACF DUP4 PUSH2 0x437 JUMP JUMPDEST SWAP3 POP DUP3 DUP3 ADD SWAP1 POP DUP1 DUP3 GT ISZERO PUSH2 0xAE7 JUMPI PUSH2 0xAE6 PUSH2 0xA8D JUMP JUMPDEST JUMPDEST SWAP3 SWAP2 POP POP JUMP INVALID LOG2 PUSH5 0x6970667358 0x22 SLT KECCAK256 SIGNEXTEND 0xC4 0x2E AND 0xCA 0xF PUSH5 0x183AAAA88 0xA8 REVERT EXTSTATICCALL PUSH9 0x3546A1491F2DB0BDD3 PUSH7 0x97AD1A81723464 PUSH20 0x6F6C634300081E00330000000000000000000000 "
				},
				"gasEstimates": {
					"creation": {
						"codeDepositCost": "570200",
						"executionCost": "infinite",
						"totalCost": "infinite"
					},
					"external": {
						"bar()": "infinite",
						"etherUnit()": "infinite",
						"fCallData(uint256[])": "infinite",
						"fStorage()": "24490",
						"foo()": "infinite",
						"global()": "infinite",
						"gweiUnit()": "400",
						"weiUnit()": "401",
						"x()": "2426",
						"y()": "2425",
						"z()": "infinite"
					}
				},
				"methodIdentifiers": {
					"bar()": "febb0f7e",
					"etherUnit()": "cb9f1220",
					"fCallData(uint256[])": "77014bee",
					"fStorage()": "6a8d1e08",
					"foo()": "c2985578",
					"global()": "a05f9906",
					"gweiUnit()": "aec3d640",
					"weiUnit()": "12176349",
					"x()": "0c55699c",
					"y()": "a56dfe4a",
					"z()": "c5d7802e"
				}
			},
			"storageLayout": {
				"storage": [
					{
						"astId": 21,
						"contract": "contracts/005_DataStorage.sol:DataStorage",
						"label": "xxx",
						"offset": 0,
						"slot": "0",
						"type": "t_array(t_uint256)dyn_storage"
					},
					{
						"astId": 41,
						"contract": "contracts/005_DataStorage.sol:DataStorage",
						"label": "x",
						"offset": 0,
						"slot": "1",
						"type": "t_uint256"
					},
					{
						"astId": 44,
						"contract": "contracts/005_DataStorage.sol:DataStorage",
						"label": "y",
						"offset": 0,
						"slot": "2",
						"type": "t_uint256"
					},
					{
						"astId": 46,
						"contract": "contracts/005_DataStorage.sol:DataStorage",
						"label": "z",
						"offset": 0,
						"slot": "3",
						"type": "t_string_storage"
					}
				],
				"types": {
					"t_array(t_uint256)dyn_storage": {
						"base": "t_uint256",
						"encoding": "dynamic_array",
						"label": "uint256[]",
						"numberOfBytes": "32"
					},
					"t_string_storage": {
						"encoding": "bytes",
						"label": "string",
						"numberOfBytes": "32"
					},
					"t_uint256": {
						"encoding": "inplace",
						"label": "uint256",
						"numberOfBytes": "32"
					}
				}
			},
			"userdoc": {
				"kind": "user",
				"methods": {},
				"version": 1
			}
		}
	}
}