{
	"data": {
		"bytecode": {
			"linkReferences": {},
			"object": "6080604052348015600e575f5ffd5b506103088061001c5f395ff3fe608060405234801561000f575f5ffd5b5060043610610034575f3560e01c80632fbebd3814610038578063febb0f7e14610068575b5f5ffd5b610052600480360381019061004d91906100d9565b610086565b60405161005f9190610113565b60405180910390f35b61007061009a565b60405161007d9190610113565b60405180910390f35b5f81826100939190610288565b9050919050565b5f6001905090565b5f5ffd5b5f819050919050565b6100b8816100a6565b81146100c2575f5ffd5b50565b5f813590506100d3816100af565b92915050565b5f602082840312156100ee576100ed6100a2565b5b5f6100fb848285016100c5565b91505092915050565b61010d816100a6565b82525050565b5f6020820190506101265f830184610104565b92915050565b7f4e487b71000000000000000000000000000000000000000000000000000000005f52601160045260245ffd5b5f8160011c9050919050565b5f5f8291508390505b60018511156101ae5780860481111561018a5761018961012c565b5b60018516156101995780820291505b80810290506101a785610159565b945061016e565b94509492505050565b5f826101c65760019050610281565b816101d3575f9050610281565b81600181146101e957600281146101f357610222565b6001915050610281565b60ff8411156102055761020461012c565b5b8360020a91508482111561021c5761021b61012c565b5b50610281565b5060208310610133831016604e8410600b84101617156102575782820a9050838111156102525761025161012c565b5b610281565b6102648484846001610165565b9250905081840481111561027b5761027a61012c565b5b81810290505b9392505050565b5f610292826100a6565b915061029d836100a6565b92506102ca7fffffffffffffffffffffffffffffffffffffffffffffffffffffffffffffffff84846101b7565b90509291505056fea26469706673582212200670defc2f4d84c57ca1e9adb34b4e64c337dfbaa72bec9cb4d174cbf29aee5564736f6c634300081e0033",
			"opcodes": "PUSH1 0x80 PUSH1 0x40 MSTORE CALLVALUE DUP1 ISZERO PUSH1 0xE JUMPI PUSH0 PUSH0 REVERT JUMPDEST POP PUSH2 0x308 DUP1 PUSH2 0x1C PUSH0 CODECOPY PUSH0 RETURN INVALID PUSH1 0x80 PUSH1 0x40 MSTORE CALLVALUE DUP1 ISZERO PUSH2 0xF JUMPI PUSH0 PUSH0 REVERT JUMPDEST POP PUSH1 0x4 CALLDATASIZE LT PUSH2 0x34 JUMPI PUSH0 CALLDATALOAD PUSH1 0xE0 SHR DUP1 PUSH4 0x2FBEBD38 EQ PUSH2 0x38 JUMPI DUP1 PUSH4 0xFEBB0F7E EQ PUSH2 0x68 JUMPI JUMPDEST PUSH0 PUSH0 REVERT JUMPDEST PUSH2 0x52 PUSH1 0x4 DUP1 CALLDATASIZE SUB DUP2 ADD SWAP1 PUSH2 0x4D SWAP2 SWAP1 PUSH2 0xD9 JUMP JUMPDEST PUSH2 0x86 JUMP JUMPDEST PUSH1 0x40 MLOAD PUSH2 0x5F SWAP2 SWAP1 PUSH2 0x113 JUMP JUMPDEST PUSH1 0x40 MLOAD DUP1 SWAP2 SUB SWAP1 RETURN JUMPDEST PUSH2 0x70 PUSH2 0x9A JUMP JUMPDEST PUSH1 0x40 MLOAD PUSH2 0x7D SWAP2 SWAP1 PUSH2 0x113 JUMP JUMPDEST PUSH1 0x40 MLOAD DUP1 SWAP2 SUB SWAP1 RETURN JUMPDEST PUSH0 DUP2 DUP3 PUSH2 0x93 SWAP2 SWAP1 PUSH2 0x288 JUMP JUMPDEST SWAP1 POP SWAP2 SWAP1 POP JUMP JUMPDEST PUSH0 PUSH1 0x1 SWAP1 POP SWAP1 JUMP JUMPDEST PUSH0 PUSH0 REVERT JUMPDEST PUSH0 DUP2 SWAP1 POP SWAP2 SWAP1 POP JUMP JUMPDEST PUSH2 0xB8 DUP2 PUSH2 0xA6 JUMP JUMPDEST DUP2 EQ PUSH2 0xC2 JUMPI PUSH0 PUSH0 REVERT JUMPDEST POP JUMP JUMPDEST PUSH0 DUP2 CALLDATALOAD SWAP1 POP PUSH2 0xD3 DUP2 PUSH2 0xAF JUMP JUMPDEST SWAP3 SWAP2 POP POP JUMP JUMPDEST PUSH0 PUSH1 0x20 DUP3 DUP5 SUB SLT ISZERO PUSH2 0xEE JUMPI PUSH2 0xED PUSH2 0xA2 JUMP JUMPDEST JUMPDEST PUSH0 PUSH2 0xFB DUP5 DUP3 DUP6 ADD PUSH2 0xC5 JUMP JUMPDEST SWAP2 POP POP SWAP3 SWAP2 POP POP JUMP JUMPDEST PUSH2 0x10D DUP2 PUSH2 0xA6 JUMP JUMPDEST DUP3 MSTORE POP POP JUMP JUMPDEST PUSH0 PUSH1 0x20 DUP3 ADD SWAP1 POP PUSH2 0x126 PUSH0 DUP4 ADD DUP5 PUSH2 0x104 JUMP JUMPDEST SWAP3 SWAP2 POP POP JUMP JUMPDEST PUSH32 0x4E487B7100000000000000000000000000000000000000000000000000000000 PUSH0 MSTORE PUSH1 0x11 PUSH1 0x4 MSTORE PUSH1 0x24 PUSH0 REVERT JUMPDEST PUSH0 DUP2 PUSH1 0x1 SHR SWAP1 POP SWAP2 SWAP1 POP JUMP JUMPDEST PUSH0 PUSH0 DUP3 SWAP2 POP DUP4 SWAP1 POP JUMPDEST PUSH1 0x1 DUP6 GT ISZERO PUSH2 0x1AE JUMPI DUP1 DUP7 DIV DUP2 GT ISZERO PUSH2 0x18A JUMPI PUSH2 0x189 PUSH2 0x12C JUMP JUMPDEST JUMPDEST PUSH1 0x1 DUP6 AND ISZERO PUSH2 0x199 JUMPI DUP1 DUP3 MUL SWAP2 POP JUMPDEST DUP1 DUP2 MUL SWAP1 POP PUSH2 0x1A7 DUP6 PUSH2 0x159 JUMP JUMPDEST SWAP5 POP PUSH2 0x16E JUMP JUMPDEST SWAP5 POP SWAP5 SWAP3 POP POP POP JUMP JUMPDEST PUSH0 DUP3 PUSH2 0x1C6 JUMPI PUSH1 0x1 SWAP1 POP PUSH2 0x281 JUMP JUMPDEST DUP2 PUSH2 0x1D3 JUMPI PUSH0 SWAP1 POP PUSH2 0x281 JUMP JUMPDEST DUP2 PUSH1 0x1 DUP2 EQ PUSH2 0x1E9 JUMPI PUSH1 0x2 DUP2 EQ PUSH2 0x1F3 JUMPI PUSH2 0x222 JUMP JUMPDEST PUSH1 0x1 SWAP2 POP POP PUSH2 0x281 JUMP JUMPDEST PUSH1 0xFF DUP5 GT ISZERO PUSH2 0x205 JUMPI PUSH2 0x204 PUSH2 0x12C JUMP JUMPDEST JUMPDEST DUP4 PUSH1 0x2 EXP SWAP2 POP DUP5 DUP3 GT ISZERO PUSH2 0x21C JUMPI PUSH2 0x21B PUSH2 0x12C JUMP JUMPDEST JUMPDEST POP PUSH2 0x281 JUMP JUMPDEST POP PUSH1 0x20 DUP4 LT PUSH2 0x133 DUP4 LT AND PUSH1 0x4E DUP5 LT PUSH1 0xB DUP5 LT AND OR ISZERO PUSH2 0x257 JUMPI DUP3 DUP3 EXP SWAP1 POP DUP4 DUP2 GT ISZERO PUSH2 0x252 JUMPI PUSH2 0x251 PUSH2 0x12C JUMP JUMPDEST JUMPDEST PUSH2 0x281 JUMP JUMPDEST PUSH2 0x264 DUP5 DUP5 DUP5 PUSH1 0x1 PUSH2 0x165 JUMP JUMPDEST SWAP3 POP SWAP1 POP DUP2 DUP5 DIV DUP2 GT ISZERO PUSH2 0x27B JUMPI PUSH2 0x27A PUSH2 0x12C JUMP JUMPDEST JUMPDEST DUP2 DUP2 MUL SWAP1 POP JUMPDEST SWAP4 SWAP3 POP POP POP JUMP JUMPDEST PUSH0 PUSH2 0x292 DUP3 PUSH2 0xA6 JUMP JUMPDEST SWAP2 POP PUSH2 0x29D DUP4 PUSH2 0xA6 JUMP JUMPDEST SWAP3 POP PUSH2 0x2CA PUSH32 0xFFFFFFFFFFFFFFFFFFFFFFFFFFFFFFFFFFFFFFFFFFFFFFFFFFFFFFFFFFFFFFFF DUP5 DUP5 PUSH2 0x1B7 JUMP JUMPDEST SWAP1 POP SWAP3 SWAP2 POP POP JUMP INVALID LOG2 PUSH5 0x6970667358 0x22 SLT KECCAK256 MOD PUSH17 0xDEFC2F4D84C57CA1E9ADB34B4E64C337DF 0xBA 0xA7 0x2B EOFCREATE 0x9C 0xB4 DATALOADN 0x74CB CALLCODE SWAP11 RETURNCONTRACT 0x55 PUSH5 0x736F6C6343 STOP ADDMOD 0x1E STOP CALLER "
		},
		"gasEstimates": {
			"creation": {
				"codeDepositCost": "155200",
				"executionCost": "200",
				"totalCost": "155400"
			},
			"external": {
				"bar()": "332",
				"foo(uint256)": "infinite"
			}
		},
		"methodIdentifiers": {
			"bar()": "febb0f7e",
			"foo(uint256)": "2fbebd38"
		}
	},
	"abi": [
		{
			"inputs": [],
			"name": "bar",
			"outputs": [
				{
					"internalType": "uint256",
					"name": "x",
					"type": "uint256"
				}
			],
			"stateMutability": "pure",
			"type": "function"
		},
		{
			"inputs": [
				{
					"internalType": "uint256",
					"name": "a",
					"type": "uint256"
				}
			],
			"name": "foo",
			"outputs": [
				{
					"internalType": "uint256",
					"name": "x",
					"type": "uint256"
				}
			],
			"stateMutability": "pure",
			"type": "function"
		}
	]
}