{
	"data": {
		"bytecode": {
			"linkReferences": {},
			"object": "6080604052348015600e575f5ffd5b506105bb8061001c5f395ff3fe608060405234801561000f575f5ffd5b5060043610610060575f3560e01c80631a8d7dc31461006457806326121ff01461006e5780635a4236b1146100785780639ebb8d2014610082578063a8b63e6f1461008c578063d14d385d14610096575b5f5ffd5b61006c6100c7565b005b6100766100e1565b005b61008061010b565b005b61008a61013e565b005b610094610171565b005b6100b060048036038101906100ab91906103c9565b61018d565b6040516100be92919061052a565b60405180910390f35b610d1060725f01819055506220a4c6607260010181905550565b61010760405180606001604052806001815260200160028152602001600381525061018d565b5050565b60405180604001604052806108ae815260200162087a2381525060725f820151815f015560208201518160010155905050565b604051806040016040528061823581526020016206c81c81525060725f820151815f015560208201518160010155905050565b5f607290506086815f0181905550610125816001018190555050565b610195610229565b60605f600667ffffffffffffffff8111156101b3576101b261026c565b5b6040519080825280602002602001820160405280156101e15781602001602082028036833780820191505090505b509050836001600381106101f8576101f7610558565b5b60200201518160028151811061021157610210610558565b5b60200260200101818152505083819250925050915091565b6040518060600160405280600390602082028036833780820191505090505090565b5f604051905090565b5f5ffd5b5f5ffd5b5f601f19601f8301169050919050565b7f4e487b71000000000000000000000000000000000000000000000000000000005f52604160045260245ffd5b6102a28261025c565b810181811067ffffffffffffffff821117156102c1576102c061026c565b5b80604052505050565b5f6102d361024b565b90506102df8282610299565b919050565b5f67ffffffffffffffff8211156102fe576102fd61026c565b5b602082029050919050565b5f5ffd5b5f819050919050565b61031f8161030d565b8114610329575f5ffd5b50565b5f8135905061033a81610316565b92915050565b5f61035261034d846102e4565b6102ca565b9050806020840283018581111561036c5761036b610309565b5b835b818110156103955780610381888261032c565b84526020840193505060208101905061036e565b5050509392505050565b5f82601f8301126103b3576103b2610258565b5b60036103c0848285610340565b91505092915050565b5f606082840312156103de576103dd610254565b5b5f6103eb8482850161039f565b91505092915050565b5f60039050919050565b5f81905092915050565b5f819050919050565b61041a8161030d565b82525050565b5f61042b8383610411565b60208301905092915050565b5f602082019050919050565b61044c816103f4565b61045681846103fe565b925061046182610408565b805f5b838110156104915781516104788782610420565b965061048383610437565b925050600181019050610464565b505050505050565b5f81519050919050565b5f82825260208201905092915050565b5f819050602082019050919050565b5f602082019050919050565b5f6104d882610499565b6104e281856104a3565b93506104ed836104b3565b805f5b8381101561051d5781516105048882610420565b975061050f836104c2565b9250506001810190506104f0565b5085935050505092915050565b5f60808201905061053d5f830185610443565b818103606083015261054f81846104ce565b90509392505050565b7f4e487b71000000000000000000000000000000000000000000000000000000005f52603260045260245ffdfea264697066735822122057aa38c8207f1b448f2b2072cbc1bfce87f4390bc7f3e8d8236003cfc7d3df3864736f6c634300081e0033",
			"opcodes": "PUSH1 0x80 PUSH1 0x40 MSTORE CALLVALUE DUP1 ISZERO PUSH1 0xE JUMPI PUSH0 PUSH0 REVERT JUMPDEST POP PUSH2 0x5BB DUP1 PUSH2 0x1C PUSH0 CODECOPY PUSH0 RETURN INVALID PUSH1 0x80 PUSH1 0x40 MSTORE CALLVALUE DUP1 ISZERO PUSH2 0xF JUMPI PUSH0 PUSH0 REVERT JUMPDEST POP PUSH1 0x4 CALLDATASIZE LT PUSH2 0x60 JUMPI PUSH0 CALLDATALOAD PUSH1 0xE0 SHR DUP1 PUSH4 0x1A8D7DC3 EQ PUSH2 0x64 JUMPI DUP1 PUSH4 0x26121FF0 EQ PUSH2 0x6E JUMPI DUP1 PUSH4 0x5A4236B1 EQ PUSH2 0x78 JUMPI DUP1 PUSH4 0x9EBB8D20 EQ PUSH2 0x82 JUMPI DUP1 PUSH4 0xA8B63E6F EQ PUSH2 0x8C JUMPI DUP1 PUSH4 0xD14D385D EQ PUSH2 0x96 JUMPI JUMPDEST PUSH0 PUSH0 REVERT JUMPDEST PUSH2 0x6C PUSH2 0xC7 JUMP JUMPDEST STOP JUMPDEST PUSH2 0x76 PUSH2 0xE1 JUMP JUMPDEST STOP JUMPDEST PUSH2 0x80 PUSH2 0x10B JUMP JUMPDEST STOP JUMPDEST PUSH2 0x8A PUSH2 0x13E JUMP JUMPDEST STOP JUMPDEST PUSH2 0x94 PUSH2 0x171 JUMP JUMPDEST STOP JUMPDEST PUSH2 0xB0 PUSH1 0x4 DUP1 CALLDATASIZE SUB DUP2 ADD SWAP1 PUSH2 0xAB SWAP2 SWAP1 PUSH2 0x3C9 JUMP JUMPDEST PUSH2 0x18D JUMP JUMPDEST PUSH1 0x40 MLOAD PUSH2 0xBE SWAP3 SWAP2 SWAP1 PUSH2 0x52A JUMP JUMPDEST PUSH1 0x40 MLOAD DUP1 SWAP2 SUB SWAP1 RETURN JUMPDEST PUSH2 0xD10 PUSH1 0x72 PUSH0 ADD DUP2 SWAP1 SSTORE POP PUSH3 0x20A4C6 PUSH1 0x72 PUSH1 0x1 ADD DUP2 SWAP1 SSTORE POP JUMP JUMPDEST PUSH2 0x107 PUSH1 0x40 MLOAD DUP1 PUSH1 0x60 ADD PUSH1 0x40 MSTORE DUP1 PUSH1 0x1 DUP2 MSTORE PUSH1 0x20 ADD PUSH1 0x2 DUP2 MSTORE PUSH1 0x20 ADD PUSH1 0x3 DUP2 MSTORE POP PUSH2 0x18D JUMP JUMPDEST POP POP JUMP JUMPDEST PUSH1 0x40 MLOAD DUP1 PUSH1 0x40 ADD PUSH1 0x40 MSTORE DUP1 PUSH2 0x8AE DUP2 MSTORE PUSH1 0x20 ADD PUSH3 0x87A23 DUP2 MSTORE POP PUSH1 0x72 PUSH0 DUP3 ADD MLOAD DUP2 PUSH0 ADD SSTORE PUSH1 0x20 DUP3 ADD MLOAD DUP2 PUSH1 0x1 ADD SSTORE SWAP1 POP POP JUMP JUMPDEST PUSH1 0x40 MLOAD DUP1 PUSH1 0x40 ADD PUSH1 0x40 MSTORE DUP1 PUSH2 0x8235 DUP2 MSTORE PUSH1 0x20 ADD PUSH3 0x6C81C DUP2 MSTORE POP PUSH1 0x72 PUSH0 DUP3 ADD MLOAD DUP2 PUSH0 ADD SSTORE PUSH1 0x20 DUP3 ADD MLOAD DUP2 PUSH1 0x1 ADD SSTORE SWAP1 POP POP JUMP JUMPDEST PUSH0 PUSH1 0x72 SWAP1 POP PUSH1 0x86 DUP2 PUSH0 ADD DUP2 SWAP1 SSTORE POP PUSH2 0x125 DUP2 PUSH1 0x1 ADD DUP2 SWAP1 SSTORE POP POP JUMP JUMPDEST PUSH2 0x195 PUSH2 0x229 JUMP JUMPDEST PUSH1 0x60 PUSH0 PUSH1 0x6 PUSH8 0xFFFFFFFFFFFFFFFF DUP2 GT ISZERO PUSH2 0x1B3 JUMPI PUSH2 0x1B2 PUSH2 0x26C JUMP JUMPDEST JUMPDEST PUSH1 0x40 MLOAD SWAP1 DUP1 DUP3 MSTORE DUP1 PUSH1 0x20 MUL PUSH1 0x20 ADD DUP3 ADD PUSH1 0x40 MSTORE DUP1 ISZERO PUSH2 0x1E1 JUMPI DUP2 PUSH1 0x20 ADD PUSH1 0x20 DUP3 MUL DUP1 CALLDATASIZE DUP4 CALLDATACOPY DUP1 DUP3 ADD SWAP2 POP POP SWAP1 POP JUMPDEST POP SWAP1 POP DUP4 PUSH1 0x1 PUSH1 0x3 DUP2 LT PUSH2 0x1F8 JUMPI PUSH2 0x1F7 PUSH2 0x558 JUMP JUMPDEST JUMPDEST PUSH1 0x20 MUL ADD MLOAD DUP2 PUSH1 0x2 DUP2 MLOAD DUP2 LT PUSH2 0x211 JUMPI PUSH2 0x210 PUSH2 0x558 JUMP JUMPDEST JUMPDEST PUSH1 0x20 MUL PUSH1 0x20 ADD ADD DUP2 DUP2 MSTORE POP POP DUP4 DUP2 SWAP3 POP SWAP3 POP POP SWAP2 POP SWAP2 JUMP JUMPDEST PUSH1 0x40 MLOAD DUP1 PUSH1 0x60 ADD PUSH1 0x40 MSTORE DUP1 PUSH1 0x3 SWAP1 PUSH1 0x20 DUP3 MUL DUP1 CALLDATASIZE DUP4 CALLDATACOPY DUP1 DUP3 ADD SWAP2 POP POP SWAP1 POP POP SWAP1 JUMP JUMPDEST PUSH0 PUSH1 0x40 MLOAD SWAP1 POP SWAP1 JUMP JUMPDEST PUSH0 PUSH0 REVERT JUMPDEST PUSH0 PUSH0 REVERT JUMPDEST PUSH0 PUSH1 0x1F NOT PUSH1 0x1F DUP4 ADD AND SWAP1 POP SWAP2 SWAP1 POP JUMP JUMPDEST PUSH32 0x4E487B7100000000000000000000000000000000000000000000000000000000 PUSH0 MSTORE PUSH1 0x41 PUSH1 0x4 MSTORE PUSH1 0x24 PUSH0 REVERT JUMPDEST PUSH2 0x2A2 DUP3 PUSH2 0x25C JUMP JUMPDEST DUP2 ADD DUP2 DUP2 LT PUSH8 0xFFFFFFFFFFFFFFFF DUP3 GT OR ISZERO PUSH2 0x2C1 JUMPI PUSH2 0x2C0 PUSH2 0x26C JUMP JUMPDEST JUMPDEST DUP1 PUSH1 0x40 MSTORE POP POP POP JUMP JUMPDEST PUSH0 PUSH2 0x2D3 PUSH2 0x24B JUMP JUMPDEST SWAP1 POP PUSH2 0x2DF DUP3 DUP3 PUSH2 0x299 JUMP JUMPDEST SWAP2 SWAP1 POP JUMP JUMPDEST PUSH0 PUSH8 0xFFFFFFFFFFFFFFFF DUP3 GT ISZERO PUSH2 0x2FE JUMPI PUSH2 0x2FD PUSH2 0x26C JUMP JUMPDEST JUMPDEST PUSH1 0x20 DUP3 MUL SWAP1 POP SWAP2 SWAP1 POP JUMP JUMPDEST PUSH0 PUSH0 REVERT JUMPDEST PUSH0 DUP2 SWAP1 POP SWAP2 SWAP1 POP JUMP JUMPDEST PUSH2 0x31F DUP2 PUSH2 0x30D JUMP JUMPDEST DUP2 EQ PUSH2 0x329 JUMPI PUSH0 PUSH0 REVERT JUMPDEST POP JUMP JUMPDEST PUSH0 DUP2 CALLDATALOAD SWAP1 POP PUSH2 0x33A DUP2 PUSH2 0x316 JUMP JUMPDEST SWAP3 SWAP2 POP POP JUMP JUMPDEST PUSH0 PUSH2 0x352 PUSH2 0x34D DUP5 PUSH2 0x2E4 JUMP JUMPDEST PUSH2 0x2CA JUMP JUMPDEST SWAP1 POP DUP1 PUSH1 0x20 DUP5 MUL DUP4 ADD DUP6 DUP2 GT ISZERO PUSH2 0x36C JUMPI PUSH2 0x36B PUSH2 0x309 JUMP JUMPDEST JUMPDEST DUP4 JUMPDEST DUP2 DUP2 LT ISZERO PUSH2 0x395 JUMPI DUP1 PUSH2 0x381 DUP9 DUP3 PUSH2 0x32C JUMP JUMPDEST DUP5 MSTORE PUSH1 0x20 DUP5 ADD SWAP4 POP POP PUSH1 0x20 DUP2 ADD SWAP1 POP PUSH2 0x36E JUMP JUMPDEST POP POP POP SWAP4 SWAP3 POP POP POP JUMP JUMPDEST PUSH0 DUP3 PUSH1 0x1F DUP4 ADD SLT PUSH2 0x3B3 JUMPI PUSH2 0x3B2 PUSH2 0x258 JUMP JUMPDEST JUMPDEST PUSH1 0x3 PUSH2 0x3C0 DUP5 DUP3 DUP6 PUSH2 0x340 JUMP JUMPDEST SWAP2 POP POP SWAP3 SWAP2 POP POP JUMP JUMPDEST PUSH0 PUSH1 0x60 DUP3 DUP5 SUB SLT ISZERO PUSH2 0x3DE JUMPI PUSH2 0x3DD PUSH2 0x254 JUMP JUMPDEST JUMPDEST PUSH0 PUSH2 0x3EB DUP5 DUP3 DUP6 ADD PUSH2 0x39F JUMP JUMPDEST SWAP2 POP POP SWAP3 SWAP2 POP POP JUMP JUMPDEST PUSH0 PUSH1 0x3 SWAP1 POP SWAP2 SWAP1 POP JUMP JUMPDEST PUSH0 DUP2 SWAP1 POP SWAP3 SWAP2 POP POP JUMP JUMPDEST PUSH0 DUP2 SWAP1 POP SWAP2 SWAP1 POP JUMP JUMPDEST PUSH2 0x41A DUP2 PUSH2 0x30D JUMP JUMPDEST DUP3 MSTORE POP POP JUMP JUMPDEST PUSH0 PUSH2 0x42B DUP4 DUP4 PUSH2 0x411 JUMP JUMPDEST PUSH1 0x20 DUP4 ADD SWAP1 POP SWAP3 SWAP2 POP POP JUMP JUMPDEST PUSH0 PUSH1 0x20 DUP3 ADD SWAP1 POP SWAP2 SWAP1 POP JUMP JUMPDEST PUSH2 0x44C DUP2 PUSH2 0x3F4 JUMP JUMPDEST PUSH2 0x456 DUP2 DUP5 PUSH2 0x3FE JUMP JUMPDEST SWAP3 POP PUSH2 0x461 DUP3 PUSH2 0x408 JUMP JUMPDEST DUP1 PUSH0 JUMPDEST DUP4 DUP2 LT ISZERO PUSH2 0x491 JUMPI DUP2 MLOAD PUSH2 0x478 DUP8 DUP3 PUSH2 0x420 JUMP JUMPDEST SWAP7 POP PUSH2 0x483 DUP4 PUSH2 0x437 JUMP JUMPDEST SWAP3 POP POP PUSH1 0x1 DUP2 ADD SWAP1 POP PUSH2 0x464 JUMP JUMPDEST POP POP POP POP POP POP JUMP JUMPDEST PUSH0 DUP2 MLOAD SWAP1 POP SWAP2 SWAP1 POP JUMP JUMPDEST PUSH0 DUP3 DUP3 MSTORE PUSH1 0x20 DUP3 ADD SWAP1 POP SWAP3 SWAP2 POP POP JUMP JUMPDEST PUSH0 DUP2 SWAP1 POP PUSH1 0x20 DUP3 ADD SWAP1 POP SWAP2 SWAP1 POP JUMP JUMPDEST PUSH0 PUSH1 0x20 DUP3 ADD SWAP1 POP SWAP2 SWAP1 POP JUMP JUMPDEST PUSH0 PUSH2 0x4D8 DUP3 PUSH2 0x499 JUMP JUMPDEST PUSH2 0x4E2 DUP2 DUP6 PUSH2 0x4A3 JUMP JUMPDEST SWAP4 POP PUSH2 0x4ED DUP4 PUSH2 0x4B3 JUMP JUMPDEST DUP1 PUSH0 JUMPDEST DUP4 DUP2 LT ISZERO PUSH2 0x51D JUMPI DUP2 MLOAD PUSH2 0x504 DUP9 DUP3 PUSH2 0x420 JUMP JUMPDEST SWAP8 POP PUSH2 0x50F DUP4 PUSH2 0x4C2 JUMP JUMPDEST SWAP3 POP POP PUSH1 0x1 DUP2 ADD SWAP1 POP PUSH2 0x4F0 JUMP JUMPDEST POP DUP6 SWAP4 POP POP POP POP SWAP3 SWAP2 POP POP JUMP JUMPDEST PUSH0 PUSH1 0x80 DUP3 ADD SWAP1 POP PUSH2 0x53D PUSH0 DUP4 ADD DUP6 PUSH2 0x443 JUMP JUMPDEST DUP2 DUP2 SUB PUSH1 0x60 DUP4 ADD MSTORE PUSH2 0x54F DUP2 DUP5 PUSH2 0x4CE JUMP JUMPDEST SWAP1 POP SWAP4 SWAP3 POP POP POP JUMP JUMPDEST PUSH32 0x4E487B7100000000000000000000000000000000000000000000000000000000 PUSH0 MSTORE PUSH1 0x32 PUSH1 0x4 MSTORE PUSH1 0x24 PUSH0 REVERT INVALID LOG2 PUSH5 0x6970667358 0x22 SLT KECCAK256 JUMPI 0xAA CODESIZE 0xC8 KECCAK256 PUSH32 0x1B448F2B2072CBC1BFCE87F4390BC7F3E8D8236003CFC7D3DF3864736F6C6343 STOP ADDMOD 0x1E STOP CALLER "
		},
		"gasEstimates": {
			"creation": {
				"codeDepositCost": "293400",
				"executionCost": "329",
				"totalCost": "293729"
			},
			"external": {
				"f()": "infinite",
				"g(uint256[3])": "infinite",
				"initStudent1()": "44460",
				"initStudent2()": "44360",
				"initStudent3()": "44474",
				"initStudent4()": "44496"
			}
		},
		"methodIdentifiers": {
			"f()": "26121ff0",
			"g(uint256[3])": "d14d385d",
			"initStudent1()": "a8b63e6f",
			"initStudent2()": "1a8d7dc3",
			"initStudent3()": "5a4236b1",
			"initStudent4()": "9ebb8d20"
		}
	},
	"abi": [
		{
			"inputs": [],
			"name": "f",
			"outputs": [],
			"stateMutability": "pure",
			"type": "function"
		},
		{
			"inputs": [
				{
					"internalType": "uint256[3]",
					"name": "_data",
					"type": "uint256[3]"
				}
			],
			"name": "g",
			"outputs": [
				{
					"internalType": "uint256[3]",
					"name": "",
					"type": "uint256[3]"
				},
				{
					"internalType": "uint256[]",
					"name": "",
					"type": "uint256[]"
				}
			],
			"stateMutability": "pure",
			"type": "function"
		},
		{
			"inputs": [],
			"name": "initStudent1",
			"outputs": [],
			"stateMutability": "nonpayable",
			"type": "function"
		},
		{
			"inputs": [],
			"name": "initStudent2",
			"outputs": [],
			"stateMutability": "nonpayable",
			"type": "function"
		},
		{
			"inputs": [],
			"name": "initStudent3",
			"outputs": [],
			"stateMutability": "nonpayable",
			"type": "function"
		},
		{
			"inputs": [],
			"name": "initStudent4",
			"outputs": [],
			"stateMutability": "nonpayable",
			"type": "function"
		}
	]
}